:020000040000FA
:10000000B8340010F90000000101000003010000F5
:1000100005010000070100000901000000000000C8
:100020000000000000000000000000000B010000C4
:100030000D01000000000000270200002150000018
:100040000F010000114300000F0100000F0100002C
:100050000F01000095440000C5460000CD48000097
:10006000C94A00000F0100000F0100000F0100004D
:100070000F0100000F0100000F0100000F01000040
:100080000F010000D93F00000F0100000F01000028
:100090000F0100000F0100000F0100000F01000020
:1000A0000F010000E51300000F0100000F01000028
:1000B0000F0100000F0100000F0100000F01000000
:1000C0000F0100000F0100000F010000C54C0000EF
:1000D0000F0100000F0100000F0100000F010000E0
:1000E0000F010000DFF80CD000F028F800480047AE
:1000F000154F0000B83400100548804705480047F8
:10010000FEE7FEE7FEE7FEE7FEE7FEE7FEE7FEE7C7
:10011000E9410000E5000000D2B201E000F8012B47
:10012000491EFBD270470022F6E710B513460A4677
:1001300004461946FFF7F0FF204610BD064C074D58
:1001400006E0E06840F0010394E8070098471034A7
:10015000AC42F6D3FFF7CAFF1C5200003C5200002D
:1001600070B58C1810F8015B15F0070301D110F879
:10017000013B2A1106D110F8012B03E010F8016BA6
:1001800001F8016B5B1EF9D12B0705D40023521E29
:100190000DD401F8013BFAE710F8013BCB1A921C91
:1001A00003E013F8015B01F8015B521EF9D5A1428F
:1001B000D8D3002070BD000072B606B42E490A786C
:1001C00002F101020A7006BC704706B42A490A7897
:1001D000A2F101020A704FF00001002A08BF81F36A
:1001E000108806BC7047254C254D25604FF0000453
:1001F00084F30988234C4FF001052570224C4FF001
:100200008055256062B6FEE730B41F4C4FF0805534
:10021000256030BC704730B41B4C4FF080552560D2
:1002200030BC704700BFEFF3108372B6EFF3098064
:1002300030B1A0F1200080E8F00F144C2468206059
:1002400000B5134880475DF804EB124C124D2E7830
:1002500026700E4C114E36682660306890E8F00F1C
:1002600000F1200080F309884EF0040E83F310881B
:10027000704700BF72B67047CC00001020ED00E060
:100280000000FFFFFA00001004ED00E00001001084
:10029000FD320000EF000010F00000100801001017
:1002A0001149096841F480510F4AC43AC2F8C41098
:1002B0000E49D1F8F81021F09F010C4AC2F8F8104D
:1002C0001146D1F8F81041F00301C2F8F8100849BE
:1002D0000968B1FBF0F1491E102242EA012141F404
:1002E0000011044A11607047C4C00F4000C00240B2
:1002F000C00000100040034070477047FFFFFFFF41
:1003000007E0022300221146104603F033F800F004
:1003100021F8F6E710B5014600230A2903DB002186
:100320006FF07F4010BD0A48006820F0E060084C84
:1003300020600748103050F8212002F0804010B1B2
:100340006FF07F40EEE7C2F30B131846EAE70000B8
:100350000040034070B50024002511E0042000F0A7
:100360004FF800BF042000F03FF80028FAD105B98B
:1003700005E00420FFF7CEFF0646344400BF6D1CA5
:10038000652DEBD36420B4FBF0F4B4F5467F03D2C3
:1003900001201449086024E0B4F5956F06D2B4F545
:1003A000467F03D902200F4908601AE040F29A60A4
:1003B000844207D240F20A50844203D903200949FB
:1003C00008600EE040F66A40844207D240F29A602C
:1003D000844203D904200349086002E00420014953
:1003E000086070BD2000001001460A2900DB0021D2
:1003F000024A52F82120D00F7047000010400340FD
:100400000A2800DB0020054909680122824042F0E9
:1004100080721143014A11607047000000400340A0
:1004200010B50446012003490870204601F062FC23
:1004300010BD0000EC1A001010B504460820034956
:100440000870204601F076FD10BD0000EC1A001087
:1004500010B504460D48007A01280FD10B4880687A
:10046000000A6421B0FBF1F0094948800748C068E0
:10047000000A6421B0FBF1F0054988800348007A46
:10048000032802D1204601F055FD10BD401F001089
:10049000EC1A001010B51048007807281AD100F0A7
:1004A0004FFB0E4800890E4948840C4880684FF481
:1004B0007A61A1EB10400A4988840848007B81F8E2
:1004C0002600012081F8270081F828000020024939
:1004D0000885888410BD0000EC1A0010301F001041
:1004E0008C1A0010044880680449884202D0082011
:1004F0000349087070470000301F0010F0F0F0FC56
:10050000EC1A001001200B4908730B4800780228F0
:100510000FD10A480089488309480078032808D188
:10052000054908700846808B401C888300200449D8
:10053000087070478C1A0010EC1A0010301F001061
:100540000000001001F06CF8F0E2012300221146D7
:10055000104602F00FFFFE480068022807D0FD4851
:100560000078022803DB0820FA4908700AE0F848FE
:100570000068022806D0F7480078012802D1002040
:10058000F4490870F448406B012121EA106030B949
:100590000120F24908700820EE49087002E00020AE
:1005A000EE490870EC48406B012121EA106030B937
:1005B0000120EA4948700820E649087002E000205E
:1005C000E649487000F038FCE24800780B287DD2FC
:1005D000DFE800F07C06436B94B7F2F0EFEEED003D
:1005E00001F010F8DC48006C40F40060DA4908645F
:1005F0000846806D40F4006088656423002211463F
:10060000104602F0B7FED448006E40F08060D24938
:1006100008660846806F40F0806088670120CD49F9
:1006200081F83400642300221146104602F0A2FE35
:10063000C948006E40F08070C74908660846806F60
:1006400040F080708867002301221946184602F0A6
:1006500091FE0220BF49087067E2BE48408B401CF3
:10066000BC4948830846408BFA2190FBF1F201FB1C
:10067000120008B900F0B0FAB648408B40F6B83125
:10068000884206DBB648007B012802D10320B1492D
:100690000870B048408BB0F5FA5F05DBB048007BCE
:1006A00010B90820AB4908703FE2AA48808B401C73
:1006B000A84988830846808B41F28831884210DA45
:1006C000A748407BC8B9A348808B00E02CE2FA2100
:1006D00090FBF1F201FB120078B9002000F0CEFA95
:1006E0000BE09C48808B41F28831884205DB9D48B5
:1006F00000F056FA09209749087016E29548808B59
:10070000401C944988830846808B41F28831884296
:100710000ADA9048808BFA2190FBF1F201FB12007B
:1007200010B9AA2000F0AAFA8A48808B41F28831D9
:10073000884205DB8C4800F033FA092085490870AF
:10074000F3E18448C08B401C8249C8830846008C72
:10075000401C08840846008C41F28831884219DA2E
:100760007F48007E012821D17A48C08BFA2190FB76
:10077000F1F201FB120008B900F046FA7548008C4E
:100780004FF4FA7190FBF1F201FB120070B900F026
:10079000EDFA0BE06F48008C41F28831884205DBAE
:1007A000724800F0FDF909206A490870BDE1B8E11E
:1007B00072E1F5E060E0FFE76648408C401C654967
:1007C00048840846408C4EF66021884242DA6448EC
:1007D00090F82800B0BB624890F8290090BB6448AC
:1007E000007830B101280BD0022815D003282FD172
:1007F0002DE0002000F062FA01205D49087028E039
:100800005448408CFA2190FBF1F201FB120010B920
:10081000002000F053FA1CE04E48408CFA2190FB77
:10082000F1F201FB120088B94D4890F8200002282F
:1008300009D1AA2000F042FA07204649087000209A
:10084000488403E017E0002000F038FA01E000E0FF
:1008500000BF10E03F48408C4EF6602188420ADB22
:100860003F4890F82000022805D0404800F098F951
:1008700009203849087058E13648408C401C3549F9
:1008800048840846008D401C08850846808C401C22
:1008900088840846C08C401CC884314890F82800E1
:1008A00018B12F4890F8290058BB2A48408CFA21EB
:1008B00090FBF1F201FB120010B9AA2000F0FEF942
:1008C000274890F8290001280AD12248808CB0F5E9
:1008D0007A7F05DD254800F063F909201D4908707D
:1008E0001F4890F8280088BB1A48C08C41F2883114
:1008F000884254DD1D4800F053F90920154908705D
:100900004DE0174890F82800012848D1144890F885
:100910002900012843D11248008FB0F5167F31DA43
:1009200010200F4981F8370088B10A48808CB0F553
:100930007A7F05DD0D4800F033F90920054908707C
:100940000448C08C41F28831884213E019E019E074
:1009500020000010EC1A0010008009200200001096
:100960008C1A0010FCC0F0FDFCC0F1FCFCC0F4FCD3
:100970000100001013DD6E4800F012F909206D49E6
:1009800008700CE06C48008FB0F5167F07DD002082
:10099000694981F8370010B1082066490870C4E041
:1009A0006448408D401C634948850846808D401C42
:1009B0008885614890F85B00A8BB0846408D0A21F5
:1009C00090FBF1F201FB120018B95A49C86B00F014
:1009D000B1F95848408D41F2883188425BDB544878
:1009E00000F0DEF8534890F83500012853D1534801
:1009F000006A40F40020514908620846C06B40F488
:100A00000020C8630846006C40F400600864084693
:100A1000C06D40F40060C8650020464981F835008B
:100A20000920087037E0FFE7434890F85B00012891
:100A300031D1404890F83500012814D13D488088D4
:100A4000322810DC3D48006A40F400203B4908622F
:100A50000846C06B40F40020C8630020354981F887
:100A60003500092008703348408D0A2190FBF1F2CF
:100A700001FB120018B92F49C86B00F05BF92D4833
:100A8000808D42F21071884205DB294800F088F819
:100A900009202849087048E0264890F835000128C8
:100AA0000ED12648006A40F4002024490862084616
:100AB000C06B40F40020C86300201E4981F8350057
:100AC0001E48006E40F080601C4908660846C06FF2
:100AD00040F08060C867002301221946184602F0E2
:100AE00049FC1648006C40F400601449086408464C
:100AF000C06D40F40060C865002301221946184605
:100B000002F038FC0D48006E40F080700B4908661A
:100B10000846C06F40F08070C8670A200549087019
:100B200003E000F073FD00E000BF00BF0DE5000032
:100B3000FCC0F4FCEC1A00108C1A00100080092094
:100B400010B513481349086013488078134908709A
:100B500011484088000A48700F488088C0F57A60C4
:100B600088700D488088C0F57A60000AC8700A480D
:100B7000007B087108488089000A4871FD2088714F
:100B80000B46044801210268072004F03BF910BD20
:100B900056F4121884000010EC1A00108C0000109B
:100BA00010B5044609480A490860200E0949087032
:100BB000200C4870200A8870CC700B460448012134
:100BC0000268042004F01EF910BD000056F41F084E
:100BD000840000108C00001010B508480849086017
:100BE0000120084908704870002088700B460448AE
:100BF00001210268032004F005F910BD56F42618FF
:100C0000840000108C00001010B5184818490860C6
:100C10001848807C184908701648408A000A4870B5
:100C20001448007D88701348808A000AC8701148F3
:100C3000C08AC0F57A6008710E48C08AC0F57A6033
:100C4000000A48710B48008BC0F57A60887109482A
:100C5000008BC0F57A60000AC8710B460448012178
:100C60000268082004F0CEF810BD000056F4081801
:100C700084000010EC1A00108C00001010B504461F
:100C80000B480C4908600C48047001200A49487060
:100C900000208870C8700871FF2048718871C87181
:100CA0000B46044801210268082004F0ABF810BD8F
:100CB00056F40118840000108C00001010B5044692
:100CC00009480A4908601CB900200949087002E077
:100CD000AA2007490870064B04480121026808460B
:100CE00004F090F810BD000056F40A1084000010C3
:100CF0008C00001010B50C480C49086000200C490D
:100D000008704870012088709920C870012008710F
:100D10003D2048713E2088710B460448012102683D
:100D2000082004F06FF810BD56F41D188400001060
:100D30008C00001010B5044609480A4908600A49A9
:100D40000C70200A4870200C8870200EC8700B466A
:100D5000044801210268042004F054F810BD00008A
:100D600056F41A10840000108C00001010B50A48C8
:100D70000A490860FF200A49087048708870C870E6
:100D8000087148718871C8710B46044801210268D6
:100D9000082004F037F810BD56F40718840000103E
:100DA0008C00001070B505460C460E480E490860D0
:100DB00013200E49087008464570002088700220F4
:100DC000C870FF2008714C7194FBF0F0887100200E
:100DD000C8710B46044801210268082004F012F88B
:100DE00070BD000056F4EC1C840000108C00001054
:100DF00070B505460C460D480D49086011200D4997
:100E000008700846457001208870FF20C87008717E
:100E10004C7194FBF0F088710020C8710B460448B7
:100E200001210268082003F0EDFF70BD56F4EC1CB0
:100E3000840000108C00001010B53B4801683B484E
:100E4000814216D13A4838490A68D2E90034D2E9D9
:100E50000212C0E90034C0E90212334800680021E0
:100E6000016041608160C160304890382E4908605F
:100E700015E02F492C480468D4E90023D4E9020482
:100E8000C1E902040CC128480068002101604160EA
:100E90008160C160244800681030234908602448FC
:100EA0004068244A811A904229D00CDC2249084427
:100EB00070B322490844E0B1B0F5801F22D0204928
:100EC000084440BB18E0B1F5102F1ED0B1F5A01FAB
:100ED00006D0B1F19B6F09D01A480844D8B902E096
:100EE000FFF710FB18E000F091FC15E000F0DAFBD2
:100EF00012E000F029F80FE0FFF7CCFA0CE000F068
:100F000053F809E000F018F906E000F03DF803E0BE
:100F1000FFF7E8FA00E000BF00BF054800210160CC
:100F200041608160C16010BD78000010701E00102B
:100F3000301F0010F45613180CA9E1F7000015F843
:100F40000000F9F7000027FB0C480078052803D0C3
:100F50000A48007806280FD106200849087008487A
:100F6000007AAA2804D10220064981F8200003E073
:100F70000120044981F8200070470000EC1A00109D
:100F8000301F00108C1A001010B506480078082891
:100F900007DB002003498885FFF7ACFE09200149E3
:100FA000087010BDEC1A001010B55E4800780728D4
:100FB0007ED15D48007A5D4981F82C005A4800894D
:100FC000000A81F82D0058488068000C81F82E0036
:100FD00055488068000E81F82F005348007B81F847
:100FE000300051488089C0F3012081F83100084663
:100FF00090F83100C0B14E4A04214A483C30FFF716
:101000008BF84B484749C863484890F8310001289D
:1010100003D1142081F8390003E01520414981F8FB
:10102000390008203F4908703F48C0680C2101EA98
:1010300010203E4981F83200084690F8320004281A
:1010400004D13C483749C863082008703648C06856
:10105000302101EA1020354981F83300084690F824
:101060003300102804D133482E49C8630820087083
:101070002D48C068C02101EA10202C4981F83400B5
:10108000084690F83400402804D12A482549C8630E
:10109000082008702448C068C0F30140234981F843
:1010A0003500084690F83500012806D1214800E0B7
:1010B00036E01C49C863082008701B48C0680C2132
:1010C00001EA1040194981F83600084690F83600C8
:1010D000042804D117481349C8630820087012482F
:1010E000C068302101EA1040104981F837000846F5
:1010F00090F83700102806D10A4890F835000128EA
:1011000001D100200887094890F8370040B9054808
:1011100090F83500012803D10020024981F83800F9
:1011200010BD0000EC1A0010301F00108C1A0010C7
:101130000000F0F01000F4F010B500205049488590
:101140000846007808287DDC08460078022879DB0C
:101150000820087001204B4981F85B004A4A0421AD
:1011600047483C30FEF7D8FF00204549C863C86BAC
:10117000FFF7E0FD4548007A012803D11C204049D3
:1011800081F839004148007A042803D11D203C49E8
:1011900081F839003D48007A102803D11E203849D3
:1011A00081F839003948806820F07F40B0F5807FB1
:1011B00003D11F20324981F839003448806820F07B
:1011C0007F40B0F5806F03D120202D4981F8390090
:1011D0002E48806820F07F40B0F5805F03D1212049
:1011E000274981F839002948806820F07F40B0F510
:1011F000004F03D12220224981F83900234880681A
:1012000020F07F40B0F5803F03D123201C4981F8B6
:1012100039001E48806820F07F40B0F5802F03D150
:101220002420174981F839001848806820F07F4051
:10123000B0F5801F03D12520114981F839001348EA
:10124000806800E01AE020F07F40B0F5000F03D185
:1012500026200B4981F839000C488068000E0128CF
:1012600003D12720064981F8390008488068000E1C
:10127000042803D12820024981F8390010BD00005C
:10128000EC1A00108C1A00100000F0F0301F001053
:1012900010B50246194800EB82342368C3F30340BB
:1012A0000870D80F48701548001D00EB8234236881
:1012B000487818B123F06040486002E0C3F30A00A8
:1012C00048605AB90D48083000EB823423688B60BF
:1012D000001D00EB82342368CB600CE0012A0AD1A8
:1012E0000648083000EB823423688B60001D00EB59
:1012F00082342368CB60012010BD000020400440F0
:1013000070B502460B46581EC3B2334800EB82301C
:1013100000EB031421683148014031480078000493
:101320002F4E767840EAC670014321602C484578FC
:101330002948001D00EB823000EB031421683DB109
:1013400001F0E0412648406820F06040014306E09B
:101350006FF30A0122488088C0F30A00014321602C
:101360001D48083000EB823000EB03141C488068F5
:10137000206019480C3000EB823000EB0314184851
:10138000C068206014482C3800EB8234216821F0BA
:10139000030141F0030121F0E00123B1012B05D04D
:1013A000022B09D105E041F0200106E041F04001A7
:1013B00003E041F0800100E000BF00BF216006486B
:1013C000283800EB8234216801F0080008B10120C0
:1013D00070BD0020FCE7000030400440FFFFF03FFC
:1013E000201F0010F0B5002445E0244800EB8435B0
:1013F0002F6807F0010000283BD027F001072F607D
:10140000D4B91F4801682046FFF742FF1C48016815
:101410001C48814203D190381949086004E01848FB
:1014200000681030164908601448083800EB84350D
:101430002E6846F004062E60012C1AD1124801686D
:101440002046FFF725FF104801681048814203D16C
:1014500090380D49086004E00B48006810300A49D4
:1014600008600648083800EB84352E6846F004060C
:101470002E60601CC4B2022CB7DBF0BD0C400440EF
:1014800074000010701E00107C000010101F00106F
:10149000F0B504460D4600BF14B1012C44D11DE047
:1014A0004348006840F400504149C439C1F8C400C1
:1014B0004048406D20F007003E4948650846406DB1
:1014C00040F0040048650846806D20F007008865FC
:1014D0000846806D40F00400886526E034480068C6
:1014E00040F480403249C439C1F8C4003148D0F8D2
:1014F0001C0120F007002F49C1F81C010846D0F854
:101500001C0140F00100C1F81C010846D0F8200180
:1015100020F00700C1F820010846D0F8200140F073
:101520000100C1F8200100E000BF00BF204600F02C
:1015300051FB214800EB8436356001201F490860CB
:101540009CB91D481438406840F00E001A491439FF
:1015500048600846006940F001000861084680685C
:1015600088600846C06887B210E01548406840F0BF
:101570000E00134948600846006940F00100086108
:101580000846806888600846C06887B202200B4918
:101590000860204602F0A0FC192001218140420988
:1015A000920002F1E022C2F8001100BFF0BD00007D
:1015B000C4C00F4000C002401440044000C00340BB
:1015C00000800440014631B1012907D0022908D02A
:1015D00003290CD108E007480068704706480068F6
:1015E000FBE706480068F8E705480068F5E700BF34
:1015F000FEE70000BC000010C0000010C400001096
:10160000C800001010B500F00BF810BD0120034910
:1016100081F837000020087070470000EC1A0010B5
:1016200000201C4908701C4908701C4908701949A1
:1016300081F8380048838883C88308844884888474
:10164000C88408854885088641F64C5048824FF486
:10165000FA60888240F6C410C8820020088388811E
:10166000C86381F8360081F8370081F8340081F8CA
:1016700035000B4908734873087681F8200081F81B
:10168000270081F8280081F82A0081F829000887BE
:1016900070470000EC1A001000000010010000105C
:1016A0008C1A001010B55348007808287DD2DFE866
:1016B00000F09404050628945A5B8FE08EE04E48B3
:1016C000007A401EC0EBC0004C4901444A48C26841
:1016D0000A60028A8A80807C88714748007A48497B
:1016E000497888420CD1464A51881078FFF75AFB56
:1016F000AA20FFF7C3FA00203E498883042008701F
:101700006CE03D48007A401EC0EBC0003D490144FA
:101710003948C2680A60028A8A80807C88713948A8
:10172000007A3849497AC1EB012108443449C88319
:101730000846C08BB0F5FA6F02DC4FF4FA60C8833C
:101740002D48007A2E49497988420BD12C4AD188FC
:101750001079FFF727FBFFF709FBFFF755FA052084
:10176000244908703AE000BF254890F82A00012873
:101770001ED12148007A401EC0EBC000224901441E
:101780001D48C2680A60028A8A80807C88711A4873
:10179000007A1B49497A88420AD1194A5189107A3C
:1017A000FFF700FB0020164900E016E081F82A0050
:1017B000134890F82B0001280EDB0F48007A1049DF
:1017C000497A884208D10E4A5189107AFFF7EAFA1D
:1017D00000200B4981F82B0000E000BF00BF074844
:1017E0004078C0EB00200549097808440449C881C5
:1017F00010BD0000EC1A0010301F0010441A001039
:101800008C1A0010751A0010821A001010B57E484C
:101810000078032806D0042829D006284BD00728B2
:101820007ED149E07948007A10281FD17748C068F6
:1018300000F47F004FF40071B1EB102F16D101209E
:101840007349487371480089000A08706F488068BE
:10185000000E48706D48C06800F47F00000A4880A0
:101860000A4651885078FFF7C3FACAE000BF6748BC
:10187000007A10281ED16548C06800F47F004FF43C
:10188000C061B1EB102F15D10120614908765F4886
:101890000089000A08715D488068000E48715B4845
:1018A000C06800F47F00000AC8800A46D1885079D9
:1018B000FFF79EFAA5E000BF5448007A102830D107
:1018C0005248C06800F47F004FF48851B1EB102FEC
:1018D00027D14D4890F83600022803D001204A490C
:1018E00081F8360001204A4981F82A0081F8290050
:1018F00000204549C88445480089000A44490872C7
:1019000042488068000E48724048C06800F47F007A
:10191000000A48810A465189507AFFF769FA6EE059
:101920006EE03A48007A102820D13848C06800F4A8
:101930007F004FF4A851B1EB102F17D1012034498B
:1019400081F82B0031480089000A08722F4880680E
:10195000000E48722D48C06800F47F00000A4881DC
:101960000A465189507AFFF743FA48E02748007A3F
:10197000102820D12548C06800F47F004FF4B051F2
:10198000B1EB102F17D10220214981F82B001F48FD
:101990000089000A08721D488068000E48721B48C2
:1019A000C06800F47F00000A48810A465189507AD5
:1019B000FFF71EFA23E01548007A10281FD11348BC
:1019C000C06800F47F004FF4B851B1EB102F16D16E
:1019D00003200F4981F82B000C480089000A087287
:1019E0000A488068000E48720848C06800F47F000A
:1019F000000A48810A465189507AFFF7F9F900E058
:101A000000BF00BF10BD0000EC1A0010301F001016
:101A10008C1A001000221A4B1A601A4A11681A4ACE
:101A2000B1FBF2F2501E4FF40012C2F89400174AB4
:101A3000B1FBF2F2C2EB02124FF47A73B2FBF3F293
:101A4000501C124AB1FBF2F202EBC203C3EB82124A
:101A50004FF47A73B2FBF3F2521C40EA02200B4AB5
:101A6000B1FBF2F2C2EBC20202EB8202B2FBF3F272
:101A7000521C40EA0240024A083A106070470000D7
:101A800098002000BC000010D8B8050040420F00AC
:101A90002DE9F043079F1546164694464FF0A0588F
:101AA000DFF82C91C9F8008001F03F09804669F306
:101AB0009F184FF40019C9F8848023B94FF0080823
:101AC000C9F880801AE0012B0CD14FF009084FF4BF
:101AD0000019C9F8808000F00108B8F1000F0DD09E
:101AE000BDE8F0834FF00A084FF40019C9F8808070
:101AF00000F00308B8F1000F00D0F1E7002462E025
:101B00005BB94FF40018D8F88C8085F800806D1C04
:101B100000F101081FFA88F019E0012B0BD14FF4F6
:101B20000018D8F88C80A6F80080B61C00F10208D6
:101B30001FFA88F00BE04FF40018D8F88C80CCF82E
:101B400000800CF1040C00F104081FFA88F000BFBB
:101B5000DFF87C80A8F10808D8F80080C8F3806816
:101B6000B8F1000FF4D04FF08068DFF86490C9F846
:101B70000080402826DBA7F10108A04522D90020DB
:101B800001F101081FFA88F101F03F09804669F36D
:101B90009F184FF40019C9F8848023B94FF0080842
:101BA000C9F880800EE0012B06D14FF009084FF4F0
:101BB0000019C9F8808005E04FF00A084FF40019B9
:101BC000C9F88080641CBC429AD300BF88E700003B
:101BD000E80F200008B50146084800EB8132106884
:101BE0000090009820F00100401C009000981060C8
:101BF00010680090009800F0010008BD004004400B
:101C00004FF4FA61C18001214171C170017100215D
:101C100081704170017070471E48006C40F04000B8
:101C20001C4908640846C06D40F04000C86508467D
:101C3000006840F4803008600846806940F48030D5
:101C4000886114488030006820F08070C1F88000FE
:101C50000846006A20F0807008620846006A20F09A
:101C6000007008620846006A20F08060086208463A
:101C7000006A20F0006008620846006A20F0805088
:101C800008620846D0F8800020F01000C1F88000FB
:101C9000704700000080092010B512480078102815
:101CA0001DD11048407800F01000102817D10D48C1
:101CB000C0780C49897800EB01200B49086009487D
:101CC00040790849097900EB012008490860054876
:101CD000C0790449897900EB01200549086002F0C8
:101CE000BFFC10BDE01B00101C0000101400001011
:101CF0001800001010B504461CB90D480D490860C5
:101D000003E00B48401C0B49086000200A4908709A
:101D100048708870C870087148718871C8710B4626
:101D2000044801210268082003F0A8F810BD000053
:101D300000A03010880000109400001010B5044678
:101D40001CB94D484D49086003E04B48401C4B49C5
:101D5000086001204A490870002048708870C870E7
:101D6000012008710020487188710120C8710B465C
:101D7000424801210268082003F080F8022040490F
:101D8000087000204870042088707820C8704C20AB
:101D900008711D204871A42088710120C8710B466C
:101DA000364801210268082003F068F8032034490E
:101DB0000870D0204870072088704420C870022026
:101DC000087140204871022088710820C8710B46B4
:101DD0002A4801210268082003F050F8042028490D
:101DE000087007204870F42088700120C8705820BF
:101DF000087102204871FF208871C8710B461F4886
:101E000001210268082003F039F805201C490870F8
:101E1000FF2048708870C870087148718871C87157
:101E20000B46164801210268082003F027F8062017
:101E300013490870FF2048708870C8700871487195
:101E40008871C8710B460D4801210268082003F013
:101E500015F807200A490870FF2048708870C8707C
:101E6000087148718871C8710B46044801210268E5
:101E7000082003F003F810BD00A031108800001006
:101E80009400001010B504461CB90E480E490860B5
:101E900003E00C48401C0C49086000200B49087006
:101EA0000B4890F83900487000208870C87008719D
:101EB000487188710B46044801210268082002F02D
:101EC000DDFF10BD00A0331088000010940000104A
:101ED000EC1A001010B504461CB9124812490860EB
:101EE00003E01048401C10490860104800680228B0
:101EF00003D104200E49087002E000200C4908704C
:101F000000200B4948708870C8700871487188714A
:101F1000C8710B46044801210268082002F0AEFF98
:101F200010BD000000A03418880000102000001030
:101F30009400001010B504461CB94E484E49086084
:101F400003E04C48401C4C49086001204B49087094
:101F50004B48007810B90020487002E00120474942
:101F60004870474880784549887045484088000A4D
:101F7000C87043488088C0F57A60087140488088FE
:101F8000C0F57A60000A48713E48407E88713D483D
:101F900090F82F00C8710B463748012102680820CD
:101FA00002F06CFF022035490870364890F82D0089
:101FB0004870344890F83E0088703248C08F000A5C
:101FC000C8700020087148712E4890F8220088716E
:101FD0002C48408C000AC8710B4627480121026832
:101FE000082002F04BFF0320244908702548808C0C
:101FF000C0F57A6048702348808CC0F57A60000A8A
:102000008870204890F82600C8701E4890F83A0062
:1020100008711C48408F000A48711A48808FC0F52B
:102020007A6088711748808FC0F57A60000AC8719D
:102030000B46114801210268082002F01FFF04200E
:102040000E4908700F4890F8420048700D48B0F8EB
:102050004200000A88700020C870087148718871B9
:10206000C8710B46044801210268082002F006FFEF
:1020700010BD000000A0351888000010940000106A
:10208000EC1A00108C1A0010002458E0C82300221B
:102090001146104601F06EF929480078012835D123
:1020A000284A0221102000F059F800BF601CC4B279
:1020B000002301221946184601F05CF9224A012149
:1020C000102000F04BF8FFF7E7FD204800680A21D8
:1020D000B0FBF1F01E49096888420BD21B4800682A
:1020E0000A21B0FBF1F01B490968884202D20220A4
:1020F00013490870142CD9DB00244FF40432022158
:10210000102000F02BF802200D49087012480078CA
:10211000012814D10C4A0121102000F01FF800BF43
:10212000601CC4B2002301221946184601F022F9AE
:10213000FFF7B2FD032CF3DB022007490870A5E787
:102140000000001020100200050403021C00001013
:102150001400001018000010010000102DE9FC41CF
:1021600006460F4615466C4604F8016B04F8017BE1
:10217000280E04F8010B280C04F8010B280A04F8B7
:10218000010B04F8015B0621684600F00FF804F823
:10219000010B0621684600F009F8000A04F8010B5B
:1021A0000821684602F080FABDE8FC8130B502469D
:1021B0000B464FF6FF70002112E0555C684000248A
:1021C0000AE000F0010525B140104AF2010568401F
:1021D00000E04010651CACB2082CF2DB4D1CA9B22B
:1021E0009942EADB30BD00000020C8490861C849B7
:1021F0000860C6498870C74981F838000120C34982
:102200004870002008707FE1142300221146104618
:1022100001F0B0F8BD480069401CBC490861BC48E9
:102220000068401CBA49086000F0C4FAB748006969
:10223000C821B0FBF1F201FB120040B9B3480078AD
:1022400028B900231A461946052000F06DF9AF4859
:1022500000691921B0FBF1F201FB120000287DD1C9
:10226000AC48007802287CD1AB48408BA949498A08
:1022700088420CDCA848408BA649C8810846C08922
:10228000B0F5FA6F07DC4FF4FA60C88103E0A148AB
:10229000408AA049C8819D484078C82148439D494B
:1022A00008829A48807888B9984803780846028A54
:1022B000C189022000F038F914230022114610468B
:1022C00001F058F801209149887007E08F480378A1
:1022D0009048028AC189012000F026F98D48C08902
:1022E0008A498988401A642813DC8C48007880B9B0
:1022F0008B48006A40F40020894908620846806BD8
:1023000040F4002088630120824981F83500834928
:10231000087082480078022823D100231A46194603
:10232000042000F001F9002301221946184601F0AB
:1023300021F80020754988707948006A40F400202F
:10234000774908620846C06B40F40020C86300204B
:10235000704981F835000320704901E0BBE000E0DE
:1023600008706C480078072862D16B4890F83700F5
:10237000102872D1674890F83800002859D1664873
:10238000408C6549C98B884204DC6348C08B323875
:10239000614948845D488078D0B95C4803784078CA
:1023A000C82400FB04F25C48C08B323881B20320A1
:1023B00000F0BAF8142300221146104600F0DAFFAC
:1023C00001205249887057490878FFF7B7FC11E09F
:1023D0005148808C00EB800040004C49497890FBCC
:1023E000F1F084B2494803784B48418C22460120E1
:1023F00000F09AF84848C08B44498988401A6428FC
:102400004DDC4748006A40F4002045490862084610
:10241000806B40F40020886314230022114610468C
:1024200000F0A8FF01203B4981F8350081F8380011
:1024300035E03948808C00EB800040003349497812
:1024400090FBF1F084B2314803783348418C224646
:10245000012000F069F822E0FFE72F4890F83700EC
:10246000E8B900231A461946042000F05DF829480F
:1024700090F83500012812D12648808832280EDCD9
:102480002748006A40F40020254908620846C06BCE
:1024900040F40020C86300201E4981F835001D4823
:1024A0000078C0B11B480078022814D01948007881
:1024B000072810D015488078012805D100231A4636
:1024C0001946042000F030F8124890F8350010B991
:1024D00000200E4988700E4800683221B0FBF1F2EE
:1024E00001FB120018B90F490878FFF7F3FC0948FF
:1024F00090F83700012807D10A490878FFF7C2FC95
:102500000020044981F837007EE600002C1B0010F3
:1025100008000010EC1A00108C1A001000000010C7
:1025200000800920341A00102DE9F04107460C46BE
:10253000164698469848007800287BD10025AEE0E2
:10254000062F78D2DFE807F0A703284F789093484A
:1025500040EA05209249086041F28830844203DD58
:1025600075209049087002E065208E4908700020AF
:102570008C4948708C70200AC8700E71300A4871FE
:102580000C2088711720C8710B468548012102680C
:10259000082002F073FC7FE0804840EA0520804973
:1025A000086041F28830844203DD11207D490870C3
:1025B00002E001207B49087001207A490870002060
:1025C00048708C70200AC8700E71300A48716C20F7
:1025D00088710720C8710B467148012102680820E4
:1025E00002F04CFC58E06D4840EA05206C49086058
:1025F00041F28830844203DD11206A49087002E00C
:10260000032068490870012066490870002048705E
:102610008C70200AC8700E71300A48716C20887165
:102620000720C8710B465E4801210268082002F0AD
:1026300025FC31E039E02EE0584840EA05205849B1
:102640000860022057490870002048708870C870E0
:10265000087148718871C8710B46514801210268A0
:10266000082002F00BFC00BF4F4840EA05204C490F
:10267000086000204B49087048708870C870087165
:1026800048718871C8710B464548012102680820CD
:1026900002F0F4FB00E000BF00BF681CC5B23E487A
:1026A0004078A8423FF74CAF74E03B4800780128DF
:1026B00070D100256AE0012F06D0022F2CD0032F05
:1026C00041D0042F58D13FE0384840EA0520344932
:1026D000086000203349087064206043000C487093
:1026E00064206043000A887064206043C870002042
:1026F000087164206043000C487164206043000A44
:10270000887164206043C8710B4625480121026826
:10271000082002F0B3FB30E0254840EA05202049BC
:10272000086000201F49087048708870C8700871E0
:1027300048718871C8710B46194801210268082048
:1027400002F09CFB19E018E0194840EA0520144902
:102750000860012013490870002048708870C87014
:10276000087148718871C8710B460D4801210268D3
:10277000082002F083FB00BF00BF00BF052300223A
:102780001146104600F0F6FD681CC5B202484078BC
:10279000A84290DCBDE8F0812C1B0010A08001183D
:1027A0008800001094000010A0804018F000DB02A8
:1027B000F000DA0210B5A3480168A348814214D1A1
:1027C000A248A049096891E81C00C96880E81C007B
:1027D000C1609C4800680021016041608160C16067
:1027E000994890389749086016E0984A95480468D7
:1027F000D4E90030D4E90214C2E90214C2E900307D
:10280000904800680021016041608160C1608D488E
:10281000006810308B4908608C4840688C4A811AE7
:10282000904271D02CDC8B4AA0EB020190426CD01C
:1028300013DC894AA0EB0201904267D006DC87498D
:102840000844002872D001286ED184E001296CD0A0
:10285000834808440028F7D1BCE0824A881A914294
:1028600076D006DCB1F57F4F73D0B1F5803FEBD168
:10287000D4E0B0F5807F6DD0B0F5803FE4D1BAE010
:10288000794A881A914239D008DC784808440528EA
:102890004AD2DFE800F0101B21272D00012836D096
:1028A00002283AD0A0F5A3101B38002877D0B0F545
:1028B000807FC9D1A0E065488068000C6C498880A1
:1028C0006248808980B26B490860B3E05F488089C4
:1028D00080B268494860ADE05C48808980B2654953
:1028E0008860A7E05948808980B26249C860A1E049
:1028F0005648808980B25F4908619BE053488089CF
:1029000080B25C49486195E092E07EE035E04F4856
:10291000808980B2574988618CE04C48808980B2B8
:102920005449C86186E001E083E039E047488068A7
:1029300020F07F406421B0FBF1F04D49888043488E
:10294000808980B20A21B0FBF1F04A49086071E049
:1029500049E047E063E03D48806820F07F40642123
:10296000B0FBF1F0424988803848808980B20A2162
:10297000B0FBF1F03F4948605CE03448806820F0EB
:102980007F406421B0FBF1F0394988802F4880896D
:1029900080B20A21B0FBF1F0364988604AE011E0CC
:1029A0002A48806820F07F406421B0FBF1F0304974
:1029B00088802648808980B20A21B0FBF1F02D4939
:1029C000C86037E02C48007818B92B490878FDF723
:1029D0003FFD2FE02848007818B927490878FDF70F
:1029E0001FFD27E026E02448007818B9224908781E
:1029F000FDF722FD1EE01DE01F480078012803D1ED
:102A00001D490878FDF724FD14E01B4800780128D3
:102A100003D119490878FDF703FD0BE00AE01648D9
:102A20000078012803D114490878FDF705FD01E07D
:102A300000E000BF00BF05480021016041608160E7
:102A4000C16010BD80000010101F0010401F00105A
:102A5000A0013310A001301002F0C802001037FDB1
:102A600062EF98F200FF0100E59EED07206112F889
:102A70002C1B0010401B0010341A001000F01F0225
:102A8000012191404209920002F1E022C2F80011B6
:102A9000704700001D481E481E481F481F48204818
:102AA00020482148214822482248234823482448D6
:102AB00024482548254826482648274827482848A6
:102AC0002848294829482A482A482B482B482C4876
:102AD0002C482D482D482E482E482F482F48304846
:102AE0003048314831483248324833483348344816
:102AF00034483548354836483648374837483848E6
:102B000038483948394800BF70470000A8510000D4
:102B1000AC510000B2510000B4510000B0510000AF
:102B2000B6510000B8510000BA510000BC5100007D
:102B3000BE510000C0510000C2510000C45100004D
:102B4000C6510000C8510000CA510000CC5100001D
:102B5000CE510000D0510000D2510000D4510000ED
:102B6000D6510000D8510000DA510000DC510000BD
:102B7000DE510000E0510000E2510000E45100008D
:102B8000E6510000E8510000EA510000EC5100005D
:102B9000EE510000F0510000F2510000F45100002D
:102BA000F6510000F8510000FA510000FE510000FB
:102BB000005200000252000004520000F82D0010E4
:102BC00078320010085200000A5200000C52000037
:102BD0000E52000010520000125200001452000069
:102BE0001652000018520000065200001A5200004F
:102BF00070B505460E4614461048007810B11220F4
:102C0000207070BD2878012808D0022807D003283A
:102C100002D0042804D100E000BF00BF00BF02E0E2
:102C200001202070EDE700BFFDF7C6FA6E61FDF7E9
:102C3000CCFA0020207000BFE3E70000ED00001098
:102C400010B500F019F800F0ADFE00F0D5FE00F070
:102C5000F5FE00F077FE00F049FE00F089FF00F07D
:102C6000B3FF00F02BFF00F051FF00F03FFCFDF739
:102C700043FBFFF70FFF10BD00200149088070479C
:102C8000D000001010B51A48007801282ED1FDF7A9
:102C900093FA1848007820B116480078401E15496C
:102CA000087014480078F8B913480078E0B900F0CB
:102CB000EBFF12481249097850F8210011490860C9
:102CC0000F4800781049097888420DD00D480068F7
:102CD000C06B401C0B490968C8630C480068401C65
:102CE0000A490860FDF797FAFDF76FFA10BD00007A
:102CF000FA000010ED000010EE000010902400100B
:102D0000F000001008010010EF000010D4000010C7
:102D100010B50A48007801280FD1FDF74DFA084890
:102D2000007840B907480078FF2804D205480078A9
:102D3000401C04490870FDF748FA10BDFA00001065
:102D4000ED000010EE00001010B5114800780128C9
:102D50001CD1FDF731FA0F480078A8B10D48007872
:102D6000401E0C4908700846007850B90A4800789F
:102D700020B9FDF72AFA00F04FFF07E0FDF725FA2A
:102D800004E0FDF722FA01E0FDF71FFA10BD000094
:102D9000FA000010EE000010ED00001070B50546BE
:102DA0000F48007808B1002070BDFDF705FA0D4806
:102DB0000468006820B10B48006840680949086051
:102DC000FDF703FA4CB103202070258100206060DC
:102DD00005A06061204600F07BFD2046E4E700008E
:102DE000ED000010D80000103F00000070B505464F
:102DF0000E4614462878032802D00120207070BDAA
:102E00002F48007810B102202070F8E72D48007894
:102E100010B10D202070F2E7FDF7CEF9288938B106
:102E20002889401E2881FDF7D0F900202070E6E7B0
:102E30002548006890F8340040F0010022490968F4
:102E400081F8340000202049096881F835001E48C7
:102E500000680663284600F0FDFCFDF7B6F900F0B7
:102E6000DBFEFDF7A9F91848006890F8350020B19D
:102E7000012809D0022806D102E0002020700BE0D2
:102E80000E20207008E000BF29460F48006800F0BF
:102E9000AFFC0A20207000BF00BF00200A4909686B
:102EA00081F834000849096881F835000649096845
:102EB000C861054909680862FDF787F900BF9EE708
:102EC000ED000010EE0000100001001010B50446E7
:102ED0002078032801D0012010BDFDF76DF9A07AFC
:102EE00058B1002301221946204600F039FCFDF7B5
:102EF0006CF900F091FE0020EEE720894FF6FF719B
:102F0000884206D22089401C2081FDF75EF900200E
:102F1000E2E7FDF75AF93320DEE7000010B50B4871
:102F2000007890B900F0B0FE0948007809490870AF
:102F300009480749097850F82100084908600846FF
:102F4000006807490860FDF74EF910BDFA0000104F
:102F5000F0000010EF000010902400100801001095
:102F60000001001010B5022000F0CAF9FDF724F9A5
:102F7000002009490860FDF728F9642000F0C0F935
:102F8000FDF71AF904480068044908600120044963
:102F90000870FDF71AF910BDFC000010E4000010E5
:102FA000EC0000102DE9FE4306460F4690461C46F5
:102FB000FDF702F91C48007820B1FDF706F93C2026
:102FC000BDE8FE83194850F8240048BB012017498A
:102FD00041F82400FDF7F9F800234246394630460F
:102FE00000F0F0F881460020009001900346024670
:102FF00049460290204600F05DFE054635B90C4872
:10300000007801280AD100F007FE07E0FDF7D4F8A8
:103010000020064941F82400FDF7D7F82846CFE7FD
:10302000FDF7D3F82820CBE7ED0000109024001026
:10303000FA0000102DE9FF5F81468A4693461C4640
:10304000DDE90F78129DFDF7B7F82048007828B128
:10305000FDF7BBF83C2004B0BDE8F09F1C4850F8D9
:10306000240070BB01201A4941F82400FDF7ADF897
:103070002A464146384600F021FF2B465A46514623
:10308000484600F09FF803901198CDE90080029522
:103090003A4620460E9B039900F00CFE064636B9D0
:1030A0000C48007801280AD100F0B6FD07E0FDF7D2
:1030B00083F80020064941F82400FDF786F83046E1
:1030C000C9E7FFE7FDF781F82820C4E7ED0000100D
:1030D00090240010FA000010704770472DE9F0416D
:1030E00006460F4614461348007818B11220207087
:1030F000BDE8F081FDF760F8FF2E03D10E480068AF
:1031000090F836600D4850F8265025B9FDF75DF867
:1031100043202070ECE7012D04D1FDF756F8432041
:103120002070E5E72F65FDF750F80020207000BF04
:10313000DEE70000ED0000100001001090240010F8
:10314000704700002DE9F04707460D460020286033
:103150006860FDF731F8FF2F03D11848006890F838
:103160003670174850F8274024B9FDF72EF8432051
:10317000BDE8F087012C03D1FDF727F84320F7E7DE
:10318000207C00F0010018B9FDF71FF84520EFE79B
:103190000026D4F80C90D4F80880FDF716F800E06B
:1031A000761C58F8041B0029FAD0B0002860A9EB5F
:1031B0000600800068600020DAE7000000010010CF
:1031C0009024001070B5044610464FF080750560DD
:1031D000051F28462C606FF00106051F28462E604B
:1031E0004FF01236051F28462E604FF00336051F9C
:1031F00028462E604FF00236051F28462E607610B6
:10320000051F28462E60051F284629604FF01136FD
:10321000051F28462E604FF01036051F28462E60E9
:103220004FF00936051F28462E604FF00836051F5F
:1032300028462E604FF00736051F28462E604FF0B7
:103240000636051F28462E604FF00536051F284616
:103250002E604FF00436051F28462E6070BD00001A
:103260002DE9F0410546FCF7A7FFFF2D05D11F48CA
:10327000006890F83650012608E01C48006890F875
:103280003600A84201D1012600E00026184850F877
:10329000254024B9FCF799FF4820BDE8F081012CB6
:1032A00003D1FCF792FF4320F7E794F838701148F8
:1032B000C05D94F8391088430E49C8550846C05D72
:1032C00030B994F83A100C48007888430A490870DD
:1032D00094F8340040F0080084F83400FCF775FFDF
:1032E000012E01D100F098FC0020D6E7000100106B
:1032F00090240010F2000010F10000107047000050
:1033000070B505461648007800B170BD15480078C4
:1033100000B1FAE70DB3FCF74FFF1348006890F8CF
:1033200038401248005D1049096891F83910884307
:103330000E4908550846005D40B90B48006890F8F2
:103340003A100B480078884309490870064800681D
:103350000563FCF73AFF00F05FFC00BFD5E7000013
:10336000ED000010EE00001000010010F20000104F
:10337000F10000102DE9F04105460E4617461C46A7
:103380001248007810B15520BDE8F081104800784F
:1033900008B13220F8E74FF47A7060434FF47A7145
:1033A000B0FBF1F14FF461606843C6EB061200EB2D
:1033B0008200384400EB4002C2EBC01001EBC008B1
:1033C0004046FFF79DFF0020DEE70000ED00001003
:1033D000EE00001070B500F06DF8FCF7EDFE2F4820
:1033E0000068401C2D490860FCF7EFFE2C4800786F
:1033F000012851D12B48007820B1012804D002289F
:1034000009D103E001250BE0002509E00125012099
:103410002449087004E0012500202249087000BFFB
:1034200000BF05B970BD2048046831E0FCF7C4FE58
:10343000206B50B3206B401E2063206B28BB94F898
:10344000340000F0370040B114F8340F00F0C80029
:10345000207001206070343C02E0002084F83500C8
:1034600094F8340000F0080078B93834A0780F4997
:10347000097808430D49087020780D49085C617887
:10348000084314F838190A4A50546469FCF79DFE41
:1034900094F836003F28C9D100BFC3E71C010010D3
:1034A000FA000010100100100C010010F1000010D3
:1034B000F200001010B507480088401C054908803C
:1034C00008460088642803D30020088000F004F830
:1034D00010BD0000D000001010B503480068FFF7D1
:1034E000F5FC0446204610BD2C010010F8B54FF441
:1034F0002071284800F032FB4021274800F02EFBC5
:10350000002514E0681C86B205EB8500214901EB1B
:10351000C00406EB860001EBC00764202070002089
:1035200084F82500E7601DA02062681C85B20F2D7D
:10353000E8D305EB8500174901EBC0046420207037
:10354000002084F82500E06014A0206200201449C7
:103550000860144908801020134908800D48134959
:1035600008600120FFF71AFC114908600020FFF7EE
:1035700015FC104908606A460FA10D480068FFF766
:1035800037FB6A4611A10B480068FFF731FB00F0DA
:1035900027F8F8BDF82D0010783200103F00000029
:1035A0002401001022010010200100103001001041
:1035B000280100102C01001075432F4F532D49494D
:1035C00020546D724C6F636B0000000075432F4FE9
:1035D000532D494920546D725369676E616C000028
:1035E00000B587B00320002180220A4BCDE90132CB
:1035F000CDE903104FF6FD703C23074A00900748C1
:10360000FFF718FD06AA06A13C20FFF767FD07B0EB
:1036100000BD000078300010743200109D360000AC
:1036200075432F4F532D494920546D7200000000FF
:1036300070B50B46032580F82550012B05D1154E9A
:10364000C5693668354445610CE085692DB9114E70
:10365000C56936683544456104E00E4E85693668B3
:1036600035444561057D05F007040B4D05EBC401AC
:103670000D682DB908600025C56001258D8006E024
:103680000A680860C26010618D886D1C8D800025FD
:10369000056170BD240100107832001008B500BF2C
:1036A00000BF6A4600211A480068FFF79FFBFFF73A
:1036B0002FFB18480068401C16490860084600782F
:1036C00000F00708144800EBC8073C681AE0E668F9
:1036D000104960690968884213D1204600F01EF83D
:1036E00094F82400022804D101212046FFF7A0FF0E
:1036F00002E0022084F82500656815B12046A16823
:10370000A8473446002CE2D1FFF71EFBC9E70000B2
:103710002C010010240100107832001030B5057D16
:1037200005F007040D4D05EBC4031D68854205D166
:10373000C168196039B100250D6104E00169C268F2
:10374000CA6002B11161012580F825500025C560CD
:1037500005619D886D1E9D8030BD0000783200108F
:103760002DE9F04F05460F4690469946A87A1C4928
:103770000E5C05F10B00805D11F800B00BEBC6008C
:1037800000F0FF0A174850F82A4000202434E06077
:103790002760207C20EA0800207484F81190207CA7
:1037A000243C00F0080068B994F83A000E49097802
:1037B00008430D4908700D48805D94F8391008439E
:1037C0000A4988552946204600F012F8206A20B19F
:1037D0002046216A00F021F8E5615046BDE8F08FEF
:1037E000A850000090240010F1000010F20000101A
:1037F00010B590F8382001F10B039B5C90F839402C
:10380000A34301F10B04A35423469B5C23B98B7A99
:1038100090F83A40A3438B7210BDF0B5024612F8FF
:10382000384F95785678383A0B4618680FE000F113
:103830000B073F5DB74300F10B0C0CF804706746B3
:103840003F5D17B9877AAF4387721B1D1868002840
:10385000EDD1F0BD10B51B4A1268D061194A12684B
:1038600092F8383000F10B02D25C164B1B6893F8CB
:1038700039301A43134B1B6893F8384000F10B039F
:103880001A55827A0F4B1B6893F83A301A438272AA
:103890000C4A126892F838100B4A525C094B1B68AC
:1038A00093F839309A43084B5A541A46525C42B93D
:1038B000044A126892F83A30044A12789A43034B49
:1038C0001A7010BD00010010F2000010F10000108D
:1038D000014600228A72002005E0002301F10B025C
:1038E0001354421CD0B20828F7D370472DE9F04199
:1038F0005021114800F032F900250DE0681C86B215
:103900000D4800EB051400EB0617002020706760DF
:103910000AA0E060681C85B2042DEFD3064800EBD6
:10392000051400202070606004A0E0600248044993
:103930000860BDE8F0810000402000103F0000005A
:10394000DC00001070B5F021134800F007F90024E6
:1039500011E0601C85B204EB44000F4901EBC00389
:1039600005EB450001EBC006002018705E600BA05F
:103970005861601C84B2092CEBD304EB4400064967
:1039800001EBC00300201870586004A0586108467D
:103990000349086070BD0000501F00103F00000088
:1039A000D800001000200A4908600A4908700A4936
:1039B00008700A4908700A4908700A4908600A49EB
:1039C00008600A4908600A4908600A490870704797
:1039D0001C010010ED000010EE000010FB000010B4
:1039E000FA000010D4000010FC000010E8000010E5
:1039F000E4000010EC00001000210A4A11700020C1
:103A000004E00021084A1154411CC8B20828F8D328
:103A10000021064A1170064A1170064A1160064AD2
:103A200011607047F1000010F2000010EF0000106C
:103A3000F0000010080100100001001070B54FF4F4
:103A4000F261194800F08AF84FF48071174800F0CD
:103A500085F8002413E0601CC5B204EB440000EBC1
:103A6000C400114901EBC00305EB450000EBC500A4
:103A700001EBC0065E610EA01865601CC4B2152C77
:103A8000E9D304EB440000EBC400074901EBC00399
:103A90000020586106A01865002006490860024809
:103AA0000549086070BD00009025001090240010AA
:103AB0003F0000000C0100100401001000B587B0A9
:103AC0000320002180220A4BCDE90132CDE9031009
:103AD0004FF6FF703F23074A00900748FFF7AAFA06
:103AE00006AA06A13F20FFF7F9FA07B000BD0000C3
:103AF000902200108C240010DD3D000075432F4FF4
:103B0000532D49492049646C6500000000B587B019
:103B10000320002180220A4BCDE90132CDE90310B8
:103B20004FF6FE703E23074A00900748FFF782FADF
:103B300006AA06A13E20FFF7D1FA07B000BD00009B
:103B4000902000108C220010FD3D000075432F4F87
:103B5000532D4949205374617400000004E0002291
:103B600000F8012B4A1E91B20029F8D170470000DD
:103B700070B578211148FFF7F1FF00240EE004EB47
:103B800044000E4901EBC005601C00EB400001EB56
:103B9000C00068600AA06861601C84B2042CEED387
:103BA00004EB4400054901EBC0050020686004A057
:103BB000686108460349086070BD0000202D0010B0
:103BC0003F000000140100102DE9F0416021104871
:103BD000FFF7C4FF00240DE0601C86B204EB440034
:103BE0000B4901EBC00506EB460001EBC0072F6057
:103BF000601C84B2032CEFD304EB4400044901EBB6
:103C0000C00500202860084602490860BDE8F08130
:103C1000982D00101801001010B5FCF7CDFA1348CC
:103C20000078F8B912480078E0B900F02DF8114892
:103C30001149097850F82100104908600E480078B1
:103C40000F49097888420DD00C480068C06B401CB1
:103C50000A490968C8630B480068401C09490860A4
:103C6000FCF7D2FAFCF7B1FA10BD0000ED0000102D
:103C7000EE00001090240010F00000100801001069
:103C8000EF000010D40000100649074A1278885C43
:103C90000649095C034A515C01EBC001044A1170FA
:103CA00070470000A8500000F1000010F200001062
:103CB000F00000102DE9F05F05460F46904699464A
:103CC000DDE90AABFCF778FA3D480468002C72D0B5
:103CD0001C3454F8080C3A490860FCF776FA44F8AA
:103CE0001C7CA576002020766076606144F818BCC4
:103CF00044F810AC44F8148C0C9824F80C0C24F8FC
:103D00000A9C0020E077E810207705F00700E076B5
:103D1000217F01208840A077E17E012088406077E4
:103D2000002020606060E060A0602062A0626062AD
:103D3000E062206323A060631C3C002606E00021B3
:103D400004F1540040F82610701CC6B2002EF6D0C4
:103D50002046FCF7D2FA2046FFF7BEF9FCF72CFA12
:103D6000194840F825401948006860610020A061AA
:103D70001648006810B11548006884611348046053
:103D80003834A0781249097808431149087020781E
:103D90001049085C6178084314F838190D4A5054EA
:103DA0000D480078401C0C490870FCF70EFA002002
:103DB000BDE8F09FFFE7FCF708FA4220F8E70000B3
:103DC000040100103F000000902400100C010010BE
:103DD000F1000010F2000010FB00001000BF00BF57
:103DE000FCF7EAF904480068401C03490860FCF746
:103DF000ECF9FFF772F9F3E7FC00001000BF02E0F6
:103E0000C820FFF77DFA194800780028F8D0184834
:103E100000686421B0FBF1F01549086008460068AD
:103E200028B9002013490870FF20FFF719FA00BFD6
:103E3000FCF7C2F9104800681049086000200E49DC
:103E40000860FCF7C2F90D48006809490968B0FB31
:103E5000F1F0C0F1640007490870FFF771F900F054
:103E60000FF86420FFF74CFAE2E70000EC000010C6
:103E7000E4000010E0000010FC000010E80000105A
:103E80007CB5002514E069462846FFF75BF9064635
:103E900066B9094850F8254044B1012C06D0D4E950
:103EA000020100EB8100A0640198E064681CC5B2C7
:103EB0003F2DE8D97CBD00009024001002F00103E2
:103EC00043B102F002032BB102E0491E002308C0F7
:103ED0000029FAD17047000008B50246094800EBF6
:103EE000823108680090009820F00100009000984E
:103EF000086008680090009800F0010080F0010060
:103F000008BD00000040044030B501462E4800685E
:103F100040F400702C4AC43AC2F8C4002B48007820
:103F200000F0100038B12948007840F01000274A0E
:103F30005C3A82F85C000020244A5C3A107203204C
:103F4000107001201073FF201074C8889087487982
:103F50001E4A243A1070C8781C4A303A107008790A
:103F6000121D10708878194A343A10704878121F60
:103F700010700878121F10700120144A5C3A1073F8
:103F800011200122824043099B0003F1E023C3F882
:103F9000002100BF1222002807DAD3061D0E0C4BA9
:103FA00000F00F04241F1D5503E0D3061C0E094B1F
:103FB0001C5400BF0120054A5C3A107303201070A6
:103FC0000120107230BD0000C4C00F405C400240B0
:103FD00018ED00E000E400E0374840693749086028
:103FE000354880693649086008460068C0F30B40D0
:103FF0003449C88032480088C0F3032048713048F3
:10400000007800F01F00C8702C480068C0F3026000
:1040100008712A480068C0F3044088702748008867
:10402000C0F3052048702548007800F03F00087074
:1040300001202149087024480068401C224908607A
:1040400022480088401C214908802148008F401CDC
:104050001F4908871C4800683C21B0FBF1F201FBB6
:10406000120020B91B488089401C1A4988811A49CE
:1040700008780978491C184A117000EBD071491072
:10408000A0EB410159B11548006C40F040001349C4
:1040900008640846806D40F0400088650AE00F48DB
:1040A000006C40F040000D4908640846C06D40F0C7
:1040B0004000C8657047000000400240A8000010A2
:1040C000AC000010B00000109C000010A000001018
:1040D0008C1A0010EC1A0010B800001000800920A3
:1040E00000201A49096841F40011184AC43AC2F87C
:1040F000C4101649E4310968C8B21549C96B21F0EA
:104100000701134AD1631146C96B41F00201D16323
:104110001146496C21F0070151641146496C41F088
:10412000020151641146896C21F007019164114626
:10413000896C41F00201916440F60701054A116063
:10414000082111610221516070470000C4C00F4076
:1041500000C002400080084000202049096841F466
:1041600080111E4AC43AC2F8C4101C49E4310968DF
:10417000C8B21B49D1F8801021F00701184AC2F8D3
:1041800080101146D1F8801041F00401C2F880106F
:104190001146D1F8841021F00701C2F884101146AD
:1041A000D1F8841041F00401C2F884101146D1F80E
:1041B000901021F00701C2F890101146D1F890102C
:1041C00041F00401064A9032116040F60701054AA9
:1041D000116008211161022151607047C4C00F4075
:1041E00000C0024000C00A4021202E49086000BFE4
:1041F0002C48006800F040000028F9D0012029492F
:104200009439086009202849C1F884000120264912
:1042100080310860AA2024498C310860552008604C
:1042200000BF21488830006800F480600028F8D082
:1042300023201D49A431086001201B49C1F8A000BA
:10424000AA201949AC31086055201749C1F8AC00C3
:1042500000BF1548A830006800F480600028F8D03E
:1042600040F201100F499C39086040F201200E49CC
:10427000C1F8080101200B49A03908600220094952
:104280000831086009480849C431086088150549A3
:104290002831086045F23A000349086000200449CB
:1042A00008607047A0C10F4000C00F40DE8728049F
:1042B00008ED00E008B50E200023124A19460090D0
:1042C0001846FDF7E5FB10480068012121EA10605F
:1042D00018B900200B49087002E001200949087054
:1042E0000848807809494870064880880881054850
:1042F000C088488103480089888102484089C88174
:1043000008BD0000341A0010948009202C1B0010F6
:1043100001204FF04021086011480078401C1049EE
:104320000870087800EBD0714910A0EB410159B931
:104330000C48006840F000600A490860084680693F
:1043400040F0006088610AE00648006840F00060C4
:10435000044908600846C06940F00060C8617047C1
:10436000B90000100080092010B51A48006840F01C
:1043700002001849C439C1F8C40002204FF040219E
:10438000486001200860002008678860C860124803
:104390008861032048610120012181404209920087
:1043A00002F1E022C2F8001100BF0321002807DA61
:1043B000CA06140E094A00F00F031B1FD45403E071
:1043C000CA06130E064A135400BF01204FF04021C5
:1043D000486010BDC4C00F40009F240018ED00E0ED
:1043E00000E400E010B51B48006840F008001949DF
:1043F000C439C1F8C4001848806820F00700164985
:1044000088600846806840F0010088600846C068FF
:1044100020F00700C8600846C06840F00100C8608E
:1044200083200E4908730E48006800094FF4E131FB
:10443000B0FBF1F4200A094908710C7003200873DD
:10444000872008720520FEF719FB07200349486002
:1044500010BD0000C4C00F4000C0024000C00040BA
:10446000C000001010B50848007810B9074800686F
:1044700040B1002004490870044908604021044804
:10448000FBF751FE10BD00003000001028000010A6
:10449000601B001070B500BF47488068C4B264104C
:1044A00004F00704032C35D14348057D05F09E0038
:1044B00010B14148067870BD05F00100002878D0A1
:1044C00000203E49086016E03C4800683C49096805
:1044D0000844402801D3FFF7C5FF37480078374923
:1044E0000968374A12681144364A50543348006804
:1044F000401C32490860314800680828E4D330483D
:1045000000682E49096808442D49086001202E4999
:1045100008704EE0022C29D100202849086016E0DE
:1045200026480068264909680844402801D3FFF757
:1045300099FF2148017821480068214A12681044F7
:10454000204A11541D480068401C1C4908601B4843
:1045500000680828E4D31A48006818490968084424
:104560001749086001201849087022E0062C1BD169
:1045700010E013480068402801D3FFF773FF0E488E
:10458000007810490E4A126888540D480068401C93
:104590000B4908600848007D00F001000028E8D1C0
:1045A00001200949087004E0012C02D10248057D70
:1045B00000BF00BF7FE7000000C0004024000010E3
:1045C00028000010601B00103000001010B51F48BC
:1045D000006840F010001D49C439C1F8C4001C48EF
:1045E000D0F8000120F007001949C1F80001084681
:1045F000D0F8000140F00200C1F800010846D0F8F0
:10460000040120F00700C1F804010846D0F80401B5
:1046100040F002000F49086083200F4908730F48DB
:10462000006800094FF41651B0FBF1F4200A0A4962
:1046300008710C7003200873872008720620FEF7AB
:104640001DFA07200449486010BD0000C4C00F4097
:1046500000C0024004C1024000000140C000001040
:1046600010B50848007810B90748006840B100202C
:10467000044908700449086040210448FBF753FDD1
:1046800010BD00004000001038000010E01B0010BA
:104690000449087000BF0349097D01F02001002989
:1046A000F9D070470000014030B502460B460024A7
:1046B00004E012F8010BFFF7EBFF641C9C42F8D3F7
:1046C00030BD000070B500BF47488068C4B26410B8
:1046D00004F00704032C35D14348057D05F09E0006
:1046E00010B14148067870BD05F00100002878D06F
:1046F00000203E49086016E03C4800683C490968D3
:104700000844402801D3FFF7ABFF3748007837490A
:104710000968374A12681144364A505433480068D1
:10472000401C32490860314800680828E4D330480A
:1047300000682E49096808442D49086001202E4967
:1047400008704EE0022C29D100202849086016E0AC
:1047500026480068264909680844402801D3FFF725
:104760007FFF2148017821480068214A12681044DF
:10477000204A11541D480068401C1C4908601B4811
:1047800000680828E4D31A480068184909680844F2
:104790001749086001201849087022E0062C1BD137
:1047A00010E013480068402801D3FFF759FF0E4876
:1047B000007810490E4A126888540D480068401C61
:1047C0000B4908600848007D00F001000028E8D18E
:1047D00001200949087004E0012C02D10248057D3E
:1047E00000BF00BF7FE70000000001403400001060
:1047F00038000010E01B00104000001010B52248E7
:10480000006840F080702049C439C1F8C4001F48D6
:10481000806A20F007001D4988620846806A40F0DF
:10482000010088620846C06A20F00700C862084696
:10483000C06A40F00100C8629B2015490873154802
:10484000006800094FF41651B0FBF1F4200A10493A
:1048500008710C701B200873872008720720FEF770
:104860000DF907200A4948600B48D0F8800040F055
:1048700000400949C1F880000846D0F8980040F08F
:104880000040C1F8980010BDC4C00F4000C00240F5
:1048900000800940C00000100080092010B50848C1
:1048A000007810B90748006840B10020044908703A
:1048B0000449086040210448FBF735FC10BD0000A6
:1048C0005000001048000010601C001070B500BFC0
:1048D00047488068C4B2641004F00704032C35D143
:1048E0004348057D05F09E0010B14148067870BD33
:1048F00005F00100002878D000203E49086016E04D
:104900003C4800683C4909680844402801D3FFF747
:10491000C5FF3748007837490968374A126811449B
:10492000364A505433480068401C324908603148C8
:1049300000680828E4D3304800682E490968084414
:104940002D49086001202E4908704EE0022C29D123
:1049500000202849086016E02648006826490968B2
:104960000844402801D3FFF799FF214801782148E6
:104970000068214A12681044204A11541D480068FA
:10498000401C1C4908601B4800680828E4D31A48EA
:104990000068184909680844174908600120184947
:1049A000087022E0062C1BD110E013480068402854
:1049B00001D3FFF773FF0E48007810490E4A1268C2
:1049C00088540D480068401C0B4908600848007D69
:1049D00000F001000028E8D101200949087004E036
:1049E000012C02D10248057D00BF00BF7FE7000017
:1049F000008009404400001048000010601C0010B6
:104A00005000001010B51F48006840F000701D49AC
:104A1000C439C1F8C4001C48D0F8700220F0070067
:104A20001949C1F870020846D0F8700240F002003F
:104A3000C1F870020846D0F8740220F00700C1F8EF
:104A400074020846D0F8740240F002000F49086072
:104A500083200F4908730F48006800094FF4E131C3
:104A6000B0FBF1F4200A0A4908710C7003200873A6
:104A7000872008720820FEF701F8072004494860E3
:104A800010BD0000C4C00F4000C0024074C202400C
:104A900000C00940C000001010B50848007810B9E7
:104AA0000748006840B100200449087004490860C4
:104AB00040210448FBF737FB10BD000060000010E8
:104AC00058000010E01C001070B500BF4748806817
:104AD000C4B2641004F00704032C35D14348057DAB
:104AE00005F09E0010B14148067870BD05F0010048
:104AF000002878D000203E49086016E03C48006855
:104B00003C4909680844402801D3FFF7C5FF3748EE
:104B1000007837490968374A12681144364A5054B8
:104B200033480068401C3249086031480068082852
:104B3000E4D3304800682E49096808442D490860CC
:104B400001202E4908704EE0022C29D1002028496E
:104B5000086016E02648006826490968084440288D
:104B600001D3FFF799FF2148017821480068214AC5
:104B700012681044204A11541D480068401C1C490A
:104B800008601B4800680828E4D31A4800681849E0
:104B9000096808441749086001201849087022E094
:104BA000062C1BD110E013480068402801D3FFF702
:104BB00073FF0E48007810490E4A126888540D4859
:104BC0000068401C0B4908600848007D00F00100A7
:104BD0000028E8D101200949087004E0012C02D125
:104BE0000248057D00BF00BF7FE7000000C009400C
:104BF0005400001058000010E01C0010600000106D
:104C000010B51F48006840F480701D49C439C1F8D0
:104C1000C4001C48D0F88C0220F007001949C1F8E4
:104C20008C020846D0F88C0240F00400C1F88C02D7
:104C30000846D0F8900220F00700C1F8900208461C
:104C4000D0F8900240F004000F49086083200F491B
:104C5000C8600F48006800094FF41661B0FBF1F41A
:104C6000200A0A494860E0B208600320C860872033
:104C700088602320FDF702FF07200449486010BD2B
:104C8000C4C00F4000C0024090C2024000400A4031
:104C9000C000001010B50848007810B90748006837
:104CA00040B10020044908700449086040210448CC
:104CB000FBF739FA10BD000070000010680000100A
:104CC000601D001070B500BF49488068C4B2641010
:104CD00004F00704032C37D145484069C5B205F0FC
:104CE0009E0018B142480068C6B270BD05F00100D0
:104CF00000287AD000203F49086016E03D4800684F
:104D00003D4909680844402801D3FFF7C3FF3848EC
:104D1000006838490968384A12681144374A5054C3
:104D200034480068401C334908603248006808284D
:104D3000E4D3314800682F49096808442E490860C7
:104D400001202F49087050E0022C2AD10020294967
:104D5000086017E027480068274909680844402888
:104D600001D3FFF797FF22480068C1B221480068CD
:104D7000214A12681044214A11541E480068401C00
:104D80001C4908601B4800680828E3D31A480068DB
:104D90001849096808441849086001201849087032
:104DA00023E0062C1BD110E013480068402801D3F3
:104DB000FFF770FF0E48006810490F4A12688854C8
:104DC0000D480068401C0C4908600948406900F023
:104DD00001000028E8D101200949087005E0012CF4
:104DE00003D103484069C5B200BF00BF7DE70000A2
:104DF00000400A406400001068000010601D0010B0
:104E0000700000102DE9F04105460F4690461E4601
:104E1000082D02DD0020BDE8F081174805704770BD
:104E2000C0F80480002014498860C860002415E0A0
:104E3000042C08DA305DE10088400F498968084396
:104E40000D49886008E0305D211FC90088400A498B
:104E5000C96808430849C860601CC4B2AC42E7DBBB
:104E600001210020FCF74CFA0123002211461046D4
:104E7000FEF780FA0120CEE7201F00102DE9F04157
:104E800005460F4690461E46082D02DD0020BDE86F
:104E9000F081174805704770C0F80480002014495D
:104EA0008860C860002415E0042C08DA305DE10059
:104EB00088400F49896808430D49886008E0305DE3
:104EC000211FC90088400A49C96808430849C860C9
:104ED000601CC4B2AC42E7DB01210846FCF710FAC3
:104EE0000223002211461046FEF744FA0120CEE7C5
:104EF000201F001002E008C8121F08C1002AFAD1C2
:104F000070477047002001E001C1121F002AFBD149
:104F10007047000010B5FCF77FFE1948FBF7C0F999
:104F2000FFF7DEF8FFF718F9FFF71EFAFCF772FD3E
:104F3000FFF758FAFFF74AFBFFF760FCFFF762FD47
:104F4000FFF75EFE0F490020FCF7A2FA0D490C3175
:104F50000120FCF79DFA0C48FCF752FE0A48FEF7C8
:104F6000D3FFFFF7A7F9FDF76BFE0023074A1946A9
:104F70000748FEF717F8FDF7D1FF002010BD00002D
:104F8000801A06000B002F00B0000010C0020010B5
:104F9000BD4F000010B50446FBF7B2F910BD10B5C7
:104FA0000446FBF7CFFA10BD10B50446FDF76CF8C8
:104FB00010BD10B50446FDF717F910BD00F042F81A
:104FC000FDF7D0FF02230E4A00210E48FDF7EAFF4D
:104FD00005230D4A00210D48FDF7E4FF08230C4A84
:104FE00000210C48FDF7DEFF0A230B4A00210B4885
:104FF000FDF7D8FF02E0FF20FEF732F9FBE70000E3
:10500000E0050010954F0000B00D00109F4F00000C
:1050100080150010B34F0000301A0010A94F000097
:1050200010B5FBF7C9F806480078401C0449087021
:10503000FBF7CBF8FEF7CEF9FDF724FE10BD00001C
:10504000ED00001070B50020FCF7BCFA04464FF4E8
:105050007A70B4FBF0F0411EB1F1807F00D31DE007
:1050600021F07F40401E4FF0E022506150171F2278
:10507000002807DAD3061E0E094B00F00F052D1F7E
:105080005E5503E0D3061D0E064B1D5400BF0020E5
:105090004FF0E02290610720106100BF70BD00005A
:1050A00018ED00E000E400E0000001000200010053
:1050B00003000100020001000400010002000100E1
:1050C00003000100020001000500010002000100D0
:1050D00003000100020001000400010002000100C1
:1050E00003000100020001000600010002000100AF
:1050F00003000100020001000400010002000100A1
:10510000030001000200010005000100020001008F
:105110000300010002000100040001000200010080
:10512000030001000200010007000100020001006D
:105130000300010002000100040001000200010060
:10514000030001000200010005000100020001004F
:105150000300010002000100040001000200010040
:10516000030001000200010006000100020001002E
:105170000300010002000100040001000200010020
:10518000030001000200010005000100020001000F
:105190000300010002000100040001000200010000
:1051A00003000100020001000100000078563412E3
:1051B00001000A0001001800F000010001001000C9
:1051C00014000200050001003F000100010005007D
:1051D000010018007800010004000100040018001C
:1051E000080001000400010001000100800001002E
:1051F00016000100010080000100010001004000D4
:105200005800E8030100230101001000010008001C
:105210000A002800800208004000C2133C5200002F
:10522000000000103401000060010000585200002E
:105230003401001084330000044F0000017413E0B7
:105240001D2A10044B801E040139140E27073C87C9
:0852500093030404686CDC0206
:04000005000000E512
:00000001FF
