:020000040000FA
:10000000A0340010F900000001010000030100000D
:1000100005010000070100000901000000000000C8
:100020000000000000000000000000000B010000C4
:100030000D01000000000000CF010000454A000053
:100040000F010000393D00000F0100000F0100000A
:100050000F010000BD3E0000ED400000F542000031
:10006000F14400000F0100000F0100000F0100002B
:100070000F0100000F0100000F0100000F01000040
:100080000F010000A13900000F0100000F01000066
:100090000F0100000F0100000F0100000F01000020
:1000A0000F0100001D1500000F0100000F010000EE
:1000B0000F0100000F0100000F0100000F01000000
:1000C0000F0100000F0100000F010000ED460000CD
:1000D0000F0100000F0100000F0100000F010000E0
:1000E0000F010000DFF80CD000F028F800480047AE
:1000F0003D490000A03400100548804705480047EE
:10010000FEE7FEE7FEE7FEE7FEE7FEE7FEE7FEE7C7
:10011000193C0000E5000000D2B201E000F8012B1C
:10012000491EFBD270470022F6E710B513460A4677
:1001300004461946FFF7F0FF204610BD064C074D58
:1001400006E0E06840F0010394E8070098471034A7
:10015000AC42F6D3FFF7CAFF404C0000604C0000F1
:1001600072B606B42E490A7802F101020A7006BC82
:10017000704706B42A490A78A2F101020A704FF0CA
:100180000001002A08BF81F3108806BC7047254C87
:10019000254D25604FF0000484F30988234C4FF06F
:1001A00001052570224C4FF08055256062B6FEE7B0
:1001B00030B41F4C4FF08055256030BC704730B4D0
:1001C0001B4C4FF08055256030BC704700BFEFF3EB
:1001D000108372B6EFF3098030B1A0F1200080E8FF
:1001E000F00F144C2468206000B5134880475DF878
:1001F00004EB124C124D2E7826700E4C114E3668C0
:100200002660306890E8F00F00F1200080F3098844
:100210004EF0040E83F31088704700BF72B670472B
:10022000B400001020ED00E00000FFFFE20000102D
:1002300004ED00E0E8000010C52C0000D70000101D
:10024000D8000010F00000101149096841F48051F5
:100250000F4AC43AC2F8C4100E49D1F8FC1021F07C
:100260009F010C4AC2F8FC101146D1F8FC1041F075
:100270000301C2F8FC1008490968B1FBF0F1491EFE
:10028000202242EA012141F40011044A1160704722
:10029000C4C00F4000C00240A8000010004003404E
:1002A00007E0022300221146104602F047FD00F04D
:1002B00027F8F6E710B5014600230A2903DB0021E1
:1002C0006FF07F4010BD0A48006820F0E060084CE5
:1002D00020600748103050F8212002F0804010B113
:1002E0006FF07F40EEE7C2F30B131846EAE7000019
:1002F0000040034010B501F02BFA10BDFFFFFFFFD7
:1003000070B50024002511E0052000F04FF800BF73
:10031000052000F03FF80028FAD105B905E00520D6
:10032000FFF7C8FF0646344400BF6D1C652DEBD3B4
:100330006420B4FBF0F4B4F5467F03D201201449E5
:10034000086024E0B4F5956F06D2B4F5467F03D972
:1003500002200F4908601AE040F29A60844207D2F6
:1003600040F20A50844203D90320094908600EE094
:1003700040F66A40844207D240F29A60844203D930
:1003800004200349086002E004200149086070BDB0
:100390001800001001460A2900DB0021024A52F829
:1003A0002120D00F70470000104003400A2800DBD6
:1003B0000020054909680122824042F08072114301
:1003C000014A1160704700000040034010B5012051
:1003D0000F4908700F48007818B90F480F49086096
:1003E00003E00D48401C0D49086000200C490870CE
:1003F00048708870C870087148718871C8710B4660
:10040000064801210268082004F04CFA10BD0000E3
:10041000D41A00101C1A001000A030107C0000102C
:100420008000001010B54848007818B9474848497E
:10043000086003E04548401C4549086001204549E3
:1004400008700220487000208870C87008714871D8
:100450008871C8710B463E4801210268082004F0EB
:1004600021FA02203B490870487000208870C8704B
:10047000087148718871C8710B46354801210268BE
:10048000082004F00FFA0320324908700220487057
:1004900000208870C870087148718871C8710B4657
:1004A0002B4801210268082004F0FCF904202949A6
:1004B00008700220487000208870C8700871487168
:1004C0008871C8710B46224801210268082004F097
:1004D000E9F905201F490870022048700020887043
:1004E000C870087148718871C8710B46184801219D
:1004F0000268082004F0D6F9062016490870022088
:10050000487000208870C870087148718871C8717F
:100510000B460F4801210268082004F0C3F90720A8
:100520000C4908700220487000208870C87008715B
:1005300048718871C8710B4605480121026808207E
:1005400004F0B0F910BD00001C1A001000A031101A
:100550007C0000108000001010B508200E490870C3
:100560000E48007818B90E480E49086003E00C48A0
:10057000401C0C49086000200B49087048708870C6
:10058000C8700871487188710B46064801210268DD
:10059000082004F087F910BDD41A00101C1A0010AE
:1005A00000A032107C0000108000001010B50F4831
:1005B000007818B90E480F49086003E00C48401C49
:1005C0000C49086000200C49087002204870002087
:1005D0008870C8700871487188710B460548012100
:1005E0000268082004F05EF910BD00001C1A00101B
:1005F00000A033107C0000108000001010B51348DC
:10060000007818B912481349086003E01048401CEC
:100610001049086010480068022803D104200F49DF
:10062000087002E000200D49087000200B49487056
:100630008870C8700871487188710B46054801219F
:100640000268082004F02EF910BD00001C1A0010EA
:1006500000A034187C00001018000010800000106A
:1006600010B54E48007A10B901204D4908704D4828
:10067000007818B94C484D49086003E04A48401CCE
:100680004A49086001204A490870002048704448DF
:100690008078887042484088000AC8704048808846
:1006A000C0F57A6008713E488088C0F57A60000A1B
:1006B00048714048407E88713E4890F82F00C871CC
:1006C0000B463A4801210268082004F0EBF80220AA
:1006D00037490870374890F82D004870354890F831
:1006E0003E0088703348C08F000AC870002008712F
:1006F0004871304890F8220088712E48408C000ADA
:10070000C8710B46294801210268082004F0CAF884
:100710000320274908702748808CC0F57A6048700C
:100720002448808CC0F57A60000A8870214890F8CF
:100730002600C8701F4890F83A0008711D48408F85
:10074000000A48711B48808FC0F57A60887119488B
:10075000808FC0F57A60000AC8710B4613480121EA
:100760000268082004F09EF804201149087011481E
:1007700090F8420048700F48B0F84200000A8870B4
:100780000020C870087148718871C8710B4607480D
:1007900001210268082004F085F810BD281F001010
:1007A000D41A00101C1A001000A035107C00001094
:1007B00080000010741A001010B510480078062848
:1007C0001ADB00F0E1FA0E4800890E4948840C4813
:1007D00080684FF47A61A1EB10400A498884084888
:1007E000007B81F82600012081F8270081F828008D
:1007F000002002490885888410BD0000D41A00102A
:10080000181F0010741A00100448806804498842B8
:1008100002D008200349087070470000181F00101C
:10082000F0F0F0FCD41A00100120184908731848A1
:100830000078022828D11748008948830846408B51
:100840001349498A88420CDC1048408B1049C88102
:100850000846C089B0F5FA6F07DC4FF4FA60C8812A
:1008600003E00B48408A0A49C8810A2008490882E7
:1008700009480078032807D108700846808B401C7F
:10088000888300200449087070470000741A001023
:10089000D41A0010181F00100800001000F058FFB4
:1008A00069E2012300221146104602F047FAFB4894
:1008B0000068022807D0FA480078022803DB0820E5
:1008C000F74908700AE0F5480068022806D0F448A5
:1008D0000078012802D10020F149087000F0D0FB17
:1008E000EF4800780B287CD2DFE800F07B06435EFF
:1008F00089ACE2FDFCFBFA00FFF7FCFCE948006C68
:1009000040F40060E74908640846806D40F40060E8
:100910008865642300221146104602F00FFAE14870
:10092000006E40F08060DF4908660846806F40F046
:10093000806088670120DA4981F83400642300224E
:100940001146104602F0FAF9D648006E40F0807069
:10095000D44908660846806F40F08070886700239D
:1009600001221946184602F0E9F90220CC49087024
:1009700000E2CB48408B401CC94948830846408B65
:10098000FA2190FBF1F201FB120008B900F048FADD
:10099000C348408BB0F5FA5F05DBC348007B10B954
:1009A0000820BF490870E5E1BD48808B401CBC4968
:1009B00088830846808B41F28831884212DABA482F
:1009C000407BD8B9B648808BFA2190FBF1F201FB4D
:1009D000120098B9002000F075FA0920B04908709B
:1009E0000CE0C6E1AE48808B41F28831884205DBDD
:1009F000AE4800F0F9F90920A9490870BAE1A84801
:100A0000808B401CA64988830846808B41F2883140
:100A100088420ADAA248808BFA2190FBF1F201FBAE
:100A2000120010B9AA2000F04DFA9D48808B41F2C7
:100A30008831884205DB9E4800F0D6F909209849A4
:100A4000087097E19648C08B401C9549C8830846BA
:100A5000008C401C08840846008C41F28831884292
:100A600019DA9148007E012821D18D48C08BFA21E6
:100A700090FBF1F201FB120008B900F0E9F9884897
:100A8000008C4FF4FA7190FBF1F201FB120070B987
:100A900000F090FA0BE08248008C41F288318842E5
:100AA00005DB844800F0A0F909207D49087061E168
:100AB0007B48408C401C7A4948840846408C4EF65E
:100AC0006021884238DA784890F8270080BB764861
:100AD00090F8290060BB7848007848B1022803E00C
:100AE00044E1FEE0A1E039E011D0032822D120E06A
:100AF0006B48408CFA2190FBF1F201FB120010B917
:100B0000002000F0FFF901206B49087013E06448F1
:100B1000408CFA2190FBF1F201FB120038B9AA20B7
:100B200000F0F0F907205E4908700020488402E0D8
:100B300013E000E000BF10E05948408C4EF6602101
:100B400088420ADB584890F82000012805D059480F
:100B500000F04AF90920524908700BE15048408CD6
:100B6000401C4F4948840846008D401C08850846B3
:100B7000808C401C88840846C08C401CC8844A482D
:100B800090F8280018B1484890F8290058BB44480C
:100B9000408CFA2190FBF1F201FB120010B9AA205F
:100BA00000F0B0F9404890F8290001280AD13C48EB
:100BB000808CB0F57A7F05DD3E4800F015F90920FC
:100BC00037490870384890F8280068BB3448C08C12
:100BD00041F28831884227DD364800F005F90920C6
:100BE0002F49087020E0304890F8280001281BD1D8
:100BF0002D4890F82900012816D12948808CB0F59D
:100C00007A7F05DD2B4800F0EFF8092024490870B1
:100C10002348C08C41F28831884205DD254800F028
:100C2000E3F809201E490870A4E01D48408D401CCF
:100C30001B4948850846808D401C88851A4890F8D5
:100C40005B00D8BB0846408D0A2190FBF1F201FB06
:100C5000120018B91249C86B00F090F91048408D85
:100C600041F2883188423BDB124800F0BDF80C4865
:100C700090F83500012833D10A48006C40F4006038
:100C8000084908640846C06D40F40060C86500204B
:100C9000034981F835000920087021E01800001090
:100CA000D41A001000800920741A0010FCC0F0FD56
:100CB000FCC0F1FCFCC0F4FC09000010FFE72E486A
:100CC00090F85B0001280BD12C48808D42F2107106
:100CD000884205DB2A4800F087F809202749087078
:100CE00048E0264890F8350001280ED12548006AD2
:100CF00040F48020234908620846C06B40F48020FD
:100D0000C86300201D4981F835001E48006E40F080
:100D100080601C4908660846C06F40F08060C86764
:100D2000002301221946184602F008F81548006C05
:100D300040F40060134908640846C06D40F4006048
:100D4000C865002301221946184601F0F7FF0D4837
:100D5000006E40F080700B4908660846C06F40F096
:100D60008070C8670A200549087003E000F0E6FCBF
:100D700000E000BF00BF94E5741A0010D41A001000
:100D8000FCC0F4FC0080092010B51348134908602A
:100D9000134880781349087011484088000A487049
:100DA0000F488088C0F57A6088700D488088C0F54B
:100DB0007A60000AC8700A48007B08710848808978
:100DC000000A4871FD2088710B4604480121026821
:100DD000072003F02BFD10BD56F412187C00001004
:100DE000D41A00108000001010B5044609480A49C2
:100DF0000860200E09490870200C4870200A88708D
:100E0000CC700B46044801210268042003F00EFD5B
:100E100010BD000056F41F087C0000108000001078
:100E200010B5084808490860012008490870487052
:100E3000002088700B46044801210268032003F05B
:100E4000F5FC10BD56F426187C0000108000001040
:100E500010B51848184908601848807C184908706F
:100E60001648408A000A48701448007D887013486C
:100E7000808A000AC8701148C08AC0F57A6008717B
:100E80000E48C08AC0F57A60000A48710B48008B92
:100E9000C0F57A6088710948008BC0F57A60000A55
:100EA000C8710B46044801210268082003F0BEFC0B
:100EB00010BD000056F408187C000010D41A001071
:100EC0008000001010B504460B480C4908600C481F
:100ED000047001200A49487000208870C8700871A9
:100EE000FF2048718871C8710B46044801210268CF
:100EF000082003F09BFC10BD56F401187C00001084
:100F00008000001010B5044609480A4908601CB961
:100F100000200949087002E0AA2007490870064B22
:100F2000044801210268084603F080FC10BD00005F
:100F300056F40A107C0000108000001010B50C4818
:100F40000C49086000200C49087048700120887026
:100F50009920C870012008713D2048713E20887199
:100F60000B46044801210268082003F05FFC10BD15
:100F700056F41D187C0000108000001010B50446C7
:100F800009480A4908600A490C70200A4870200C78
:100F90008870200EC8700B460448012102680420A6
:100FA00003F044FC10BD000056F41A107C00001041
:100FB0008000001010B50A480A490860FF200A495D
:100FC000087048708870C870087148718871C8715D
:100FD0000B46044801210268082003F027FC10BDDD
:100FE00056F407187C0000108000001070B505460C
:100FF0000C460E480E49086013200E49087008463A
:101000004570002088700220C870FF2008714C7164
:1010100094FBF0F088710020C8710B460448012150
:101020000268082003F002FC70BD000056F4EC1CBE
:101030007C0000108000001070B505460C460D487D
:101040000D49086011200D490870084645700120BF
:101050008870FF20C87008714C7194FBF0F08871A3
:101060000020C8710B46044801210268082003F0E3
:10107000DDFB70BD56F4EC1C7C00001080000010FD
:1010800010B53B4801683B48814216D13A4838497F
:101090000A68D2E90034D2E90212C0E90034C0E99A
:1010A0000212334800680021016041608160C16024
:1010B000304890382E49086015E02F492C480468C4
:1010C000D4E90023D4E90204C1E902040CC1284890
:1010D00000680021016041608160C16024480068AF
:1010E00010302349086024484068244A811A9042FD
:1010F00029D00CDC2249084470B322490844E0B1ED
:10110000B0F5801F22D02049084440BB18E0B1F55B
:10111000102F1ED0B1F5A01F06D0B1F19B6F09D0E2
:101120001A480844D8B902E0FFF77EFB18E000F047
:10113000F5FB15E000F040FB12E000F029F80FE0AD
:10114000FFF73AFB0CE000F043F809E000F004F987
:1011500006E000F033F803E0FFF756FB00E000BFC5
:1011600000BF05480021016041608160C16010BD81
:1011700070000010581E0010181F0010F4561318AD
:101180000CA9E1F7000015F80000F9F7000027FBB3
:101190000748007805280AD10648007AAA2806D10F
:1011A0000120054981F82000062001490870704798
:1011B000D41A0010181F0010741A001010B5002067
:1011C00002498885FFF7BAFE10BD0000D41A00104E
:1011D0005C48007807287DD15B48007A5B4981F83C
:1011E0002C0059480089000A81F82D005648806873
:1011F000000C81F82E0054488068000E81F82F0002
:101200005148007B81F830004F488089C0F30120AD
:1012100081F83100084690F83100012804D14C488B
:101220004849C863082008704748C0680C2101EA93
:101230001020464981F83200084690F83200042810
:1012400004D143483F49C863082008703E48C0683D
:10125000302101EA10203D4981F83300084690F81A
:101260003300102804D13A483649C8630820087072
:101270003548C068C02101EA1020344981F83400A3
:10128000084690F83400402804D131482D49C863FD
:10129000082008702C48C068C0F301402B4981F831
:1012A0003500084690F83500012804D12848254922
:1012B000C863082008702448C0680C2101EA104067
:1012C000224981F83600084690F83600042806D1F5
:1012D0001F4800E034E01B49C863082008701A4822
:1012E000C068302101EA1040184981F837000846EB
:1012F00090F83700102806D1124890F835000128E0
:1013000001D100200887114890F83700C0B90D4876
:1013100090F83500012813D10E48006A40F480206F
:101320000C4908620846C06B40F48020C863002066
:10133000044981F8350005490887024981F83800D9
:1013400070470000D41A0010181F0010741A001003
:101350001000F4F00080092010B5002017494885DE
:1013600008460078082827DC08460078022823DB96
:10137000082008700120124981F85B000F49C86BF2
:10138000FFF7FCFD0D4890F83500012814D10B48FB
:101390008088322810DC0B48006C40F4006009495A
:1013A00008640846C06D40F40060C8650020034929
:1013B00081F835000920087010BD0000D41A001013
:1013C000741A00100080092010B50246194800EB7D
:1013D00082342368C3F303400870D80F487015485F
:1013E000001D00EB82342368487818B123F0604078
:1013F000486002E0C3F30A0048605AB90D4808305B
:1014000000EB823423688B60001D00EB823423687C
:10141000CB600CE0012A0AD10648083000EB823488
:1014200023688B60001D00EB82342368CB600120B1
:1014300010BD00002040044070B502460B46581E07
:10144000C3B2334800EB823000EB0314216831480B
:1014500001403148007800042F4E767840EAC6708B
:10146000014321602C4845782948001D00EB82305B
:1014700000EB031421683DB101F0E04126484068CB
:1014800020F06040014306E06FF30A0122488088A3
:10149000C0F30A00014321601D48083000EB823090
:1014A00000EB03141C488068206019480C3000EBE6
:1014B000823000EB03141848C068206014482C38B0
:1014C00000EB8234216821F0030141F0030121F097
:1014D000E00123B1012B05D0022B09D105E041F039
:1014E000200106E041F0400103E041F0800100E00E
:1014F00000BF00BF21600648283800EB8234216815
:1015000001F0080008B1012070BD0020FCE70000D8
:1015100030400440FFFFF03F081F0010F0B50024EA
:1015200045E0244800EB84352F6807F001000028CF
:101530003BD027F001072F60D4B91F48016820462F
:10154000FFF742FF1C4801681C48814203D19038D4
:101550001949086004E0184800681030164908600E
:101560001448083800EB84352E6846F004062E60D7
:10157000012C1AD1124801682046FFF725FF1048B8
:1015800001681048814203D190380D49086004E099
:101590000B48006810300A4908600648083800EB1C
:1015A00084352E6846F004062E60601CC4B2022CFE
:1015B000B7DBF0BD0C4004406C000010581E00105A
:1015C00074000010F81E0010F0B504460D4600BF70
:1015D00014B1012C44D11DE04348006840F4005090
:1015E0004149C439C1F8C4004048406D20F00700AB
:1015F0003E4948650846406D40F00400486508468D
:10160000806D20F0070088650846806D40F004007A
:10161000886526E03448006840F480403249C43987
:10162000C1F8C4003148D0F81C0120F007002F4950
:10163000C1F81C010846D0F81C0140F00100C1F8B7
:101640001C010846D0F8200120F00700C1F8200155
:101650000846D0F8200140F00100C1F8200100E068
:1016600000BF00BF204600F05BFA214800EB843643
:10167000356001201F4908609CB91D481438406836
:1016800040F00E001A49143948600846006940F0DD
:10169000010008610846806888600846C06887B213
:1016A00010E01548406840F00E00134948600846B5
:1016B000006940F0010008610846806888600846BB
:1016C000C06887B202200B490860204602F0E8F8A3
:1016D0001920012181404209920002F1E022C2F862
:1016E000001100BFF0BD0000C4C00F4000C00240A8
:1016F0001440044000C0034000800440014631B162
:10170000012907D0022908D003290CD108E0074895
:101710000068704706480068FBE706480068F8E77D
:1017200005480068F5E700BFFEE70000A4000010D0
:10173000A8000010AC000010B00000100120034908
:1017400081F837000020087070470000D41A00109C
:1017500000201749087048838883C8830884488418
:101760008884C88408854885088641F64C5048829C
:101770004FF4FA60888240F6C410C88200200883C3
:101780008881C86381F8360081F8370081F8340019
:1017900081F83500074908734873087681F82000FE
:1017A00081F8270081F82A0081F82900088770470E
:1017B000D41A0010741A001010B552480078082886
:1017C0007ED2DFE800F0930405062893935A8EE05A
:1017D0008DE04D48007A401EC0EBC0004B490144EB
:1017E0004948C2680A60028A8A80807C88714648BB
:1017F000007A4749497888420CD1454A5188107887
:10180000FFF7F4FBAA20FFF75DFB00203D4988832A
:10181000042008706BE03C48007A401EC0EBC0001A
:101820003C4901443848C2680A60028A8A80807C48
:1018300088713848007A3749497AC1EB0121084458
:101840003349C8830846C08BB0F5FA6F02DC4FF409
:10185000FA60C8832C48007A2D49497988420BD117
:101860002B4AD1881079FFF7C1FBFFF7A3FBFFF7E5
:10187000EFFA05202349087039E0254890F82A003E
:1018800001281ED12048007A401EC0EBC00022492A
:1018900001441D48C2680A60028A8A80807C88717F
:1018A0001948007A1A49497A884204D1184A51895C
:1018B000107AFFF79BFB0020154981F82A0014E0FD
:1018C00014E0134890F82B0001280EDB0E48007A34
:1018D0000F49497A884204D10D4A5189107AFFF79D
:1018E00085FB00200A4981F82B0000E000BF00BF03
:1018F00006484078C0EB00200449097808440449B0
:10190000C88110BDD41A0010181F00102C1A001026
:10191000741A00105D1A00106A1A001010B57D4884
:101920000078032822D17C48007A10281ED17A48FA
:10193000C06800F47F004FF40071B1EB102F15D197
:1019400001207649487374480089000A087072487B
:101950008068000E48707048C06800F47F00000A7C
:1019600048800A4651885078FFF766FB694800783E
:10197000042822D16848007A10281ED16648C06821
:1019800000F47F004FF4C061B1EB102F15D101209E
:101990006249087660480089000A08715E488068DC
:1019A000000E48715C48C06800F47F00000AC880DF
:1019B0000A46D1885079FFF73FFB56480078072840
:1019C0002DD15548007A102829D15348C06800F419
:1019D0007F004FF48851B1EB102F20D101204D49E9
:1019E00081F836004D4981F82A0081F8290000204D
:1019F0004849C88448480089000A4849087246484E
:101A00008068000E48724448C06800F47F00000AF5
:101A100048810A465189507AFFF70EFB79E03D482C
:101A20000078072824D13C48007A102820D13A4871
:101A3000C06800F47F004FF4A851B1EB102F17D10C
:101A40000120364981F82B0033480089000A0872CA
:101A500031488068000E48722F48C06800F47F004B
:101A6000000A48810A465189507AFFF7E5FA50E0AA
:101A700028480078072824D12748007A102820D148
:101A80002548C06800F47F004FF4B051B1EB102F2F
:101A900017D10220214981F82B001F480089000A34
:101AA00008721D488068000E48721B48C06800F428
:101AB0007F00000A48810A465189507AFFF7BCFA34
:101AC00027E014480078072823D11348007A10280B
:101AD0001FD11148C06800F47F004FF4B851B1EB3A
:101AE000102F16D103200D4981F82B000A480089D8
:101AF000000A087208488068000E48720648C068EC
:101B000000F47F00000A48810A465189507AFFF7A5
:101B100093FA10BDD41A0010181F0010741A001088
:101B200008B50146084800EB813210680090009823
:101B300020F00100401C0090009810601068009098
:101B4000009800F0010008BD004004404FF4FA6125
:101B5000C18001214171C17001710021817041700A
:101B60000170704708B5009002E00099491E00918D
:101B700000990029F9D108BD2DE9F04104460D4630
:101B800016461848006840F4803016490860084638
:101B9000C06940F48030C8610520FFF7E3FF0320EF
:101BA00001F0DEFF280A01F0DBFFE8B201F0D8FF08
:101BB000002705E001F0ACFF2070641C781C87B2A0
:101BC000B742F7DB0520FFF7CDFF0648006840F479
:101BD0008030044908600846806940F4803088619C
:101BE000BDE8F081008009201E48006C40F04000F4
:101BF0001C4908640846C06D40F04000C8650846AE
:101C0000006840F4803008600846806940F4803005
:101C1000886114488030006820F08070C1F880002E
:101C20000846006A20F0807008620846006A20F0CA
:101C3000007008620846006A20F08060086208466A
:101C4000006A20F0006008620846006A20F08050B8
:101C500008620846D0F8800020F01000C1F880002B
:101C6000704700000080092010B512480078102845
:101C70001DD11048407800F01000102817D10D48F1
:101C8000C0780C49897800EB01200B4908600948AD
:101C900040790849097900EB0120084908600548A6
:101CA000C0790449897900EB01200549086002F0F8
:101CB000EBF910BDC81B0010140000100C00001040
:101CC0001000001077E000244FF4FA730022114650
:101CD000104601F033F838480078012835D1374AEA
:101CE0000221102000F078F800BF601CC4B200236D
:101CF00001221946184601F021F8314A012110202D
:101D000000F06AF8FFF7B0FF2E4800680A21B0FB28
:101D1000F1F02D49096888420BD22A4800680A214F
:101D2000B0FBF1F029490968884202D20220224919
:101D30000870142CD9DB00244FF404320221102047
:101D400000F04AF802201C49087021480078012858
:101D500030D11B4A0121102000F03EF800BF601C6A
:101D6000C4B2002301221946184600F0E7FFFFF72E
:101D70007BFF144800681421B0FBF1F01549C98BB2
:101D8000104A1268511A88420BD80E480068142174
:101D9000B0FBF1F10F48C08B0A4A1268801A8142E9
:101DA00002D902200A490870032CD8DB0024022043
:101DB0000749087000BF86E70800001020100200E5
:101DC00005040302140000100C00001010000010A5
:101DD00009000010741A00102DE9FC4106460F4658
:101DE00015466C4604F8016B04F8017B280E04F8D4
:101DF000010B280C04F8010B280A04F8010B04F865
:101E0000015B0621684600F00FF804F8010B06217B
:101E1000684600F009F8000A04F8010B082168463A
:101E200002F056F9BDE8FC8130B502460B464FF68C
:101E3000FF70002112E0555C684000240AE000F0C9
:101E4000010525B140104AF20105684000E040104C
:101E5000651CACB2082CF2DB4D1CA9B29942EADB3E
:101E600030BD00000020A3490861A3490860A149D2
:101E70008870A24981F8380001209E49487038E1F5
:101E80000A2300221146104600F058FF99480069C5
:101E9000401C9849086198480068401C96490860B1
:101EA00000F0B4F9934800691921B0FBF1F201FB8D
:101EB000120000287ED19148007802287FD19048F6
:101EC000408B8E49498A88420CDC8D48408B8B4977
:101ED000C8810846C089B0F5FA6F07DC4FF4FA6094
:101EE000C88103E08548408A8449C8818148407898
:101EF000C8214843814908827E488078A0B97D483E
:101F000003784078C82400FB04F20846C189022007
:101F100000F0FCF8142300221146104600F00EFFDA
:101F20000120744988700AE0724803784078C82418
:101F300000FB04F27148C189012000F0E7F86F4806
:101F4000C0896C498988401A642813DC6D48007880
:101F500080B96D48006A40F480206B4908620846E9
:101F6000806B40F4802088630120644981F835004B
:101F70006449087063480078022820D100231A467B
:101F80001946032000F0C2F8002301221946184622
:101F900000F0D4FE5C48006A40F480205A49086290
:101FA0000846C06B40F48020C8630020534981F884
:101FB000350001E092E002E00320524908704F48EA
:101FC000007807286ED14E48008FB0F5167F61DA91
:101FD00010204B4981F8370000285BD0474890F823
:101FE0003800002843D10846408CC98B884204DC65
:101FF0004348C08B3238424948843E488078B8B95B
:102000003C4803784078C82400FB04F23C48C08B6D
:10201000323881B2022000F079F8142300221146F0
:10202000104600F08BFE012032498870FEF7FAF965
:102030003348C08B2F498988401A642832DC3248E3
:10204000006A40F48020304908620846806B40F402
:1020500080208863142300221146104600F06EFE93
:102060000120264981F8350081F838001AE024481B
:10207000808C00EB800040001E49497890FBF1F015
:1020800084B21C4803781E48418C2246012000F08F
:102090003DF807E01A48008FB0F5167F02DD0820F2
:1020A0001649087015480078C0B114480078022815
:1020B00014D012480078072810D00E4880780128E4
:1020C00005D100231A461946032000F01FF80B48DB
:1020D00090F8350010B9002006498870074890F83C
:1020E0003600012805D1FEF761FA0020034981F886
:1020F0003600C5E6141B001000000010D41A0010B2
:10210000741A001008000010008009202DE9F04129
:1021100006460C4617469846002567E0012E04D077
:10212000022E2AD0032E57D13EE0334840EA052044
:102130003249086000203249087064206043000C76
:10214000487064206043000A887064206043C8704F
:102150000020087164206043000C487164206043D3
:10216000000A887164206043C8710B46234801212E
:102170000268082002F096FB2FE0224840EA052082
:102180001E49086000201E49087048708870C87099
:10219000087148718871C8710B461848012102689E
:1021A000082002F07FFB18E0164840EA052013499A
:1021B0000860012012490870002048708870C870BB
:1021C000087148718871C8710B460C48012102687A
:1021D000082002F067FB00BF00BF00BF05230022FC
:1021E0001146104600F0AAFD681CC5B206484078AA
:1021F000A84293DCBDE8F081F000DB027C00001017
:1022000080000010F000DA02141B001010B57F48A7
:1022100001687F48814216D17E487C490A68D2E92C
:1022200001141368D268C0E90242C0E9003177485E
:1022300000680021016041608160C160744890388D
:102240007249086010E0734870490C681ECC1EC0CB
:102250006E4800680021016041608160C1606B4888
:1022600000681030694908606A4840686A4A811A03
:10227000904278D018DC694AA0EB0201904260D00D
:1022800007DC6749084428B3012835D002286BD100
:1022900044E064480844002877D0B0F5807F71D0CE
:1022A000B0F5803FF3D176E0B1F5003F6BD00ADCAA
:1022B000B1F57F4F70D0B1F5803F73D05A480844D4
:1022C0000028E4D16FE059480844C8B3B0F5807FD6
:1022D000DDD16FE04F48806820F07F406421B0FB83
:1022E000F1F0534988804B48808980B20A21B0FBC5
:1022F000F1F05049086081E04648806820F07F4056
:102300006421B0FBF1F04A4988804248808980B25C
:102310000A21B0FBF1F0474948606FE03D48806812
:1023200020F07F406421B0FBF1F0414988803948BA
:10233000808980B20A21B0FBF1F03E4988605DE0FF
:1023400014E03448806820F07F406421B0FBF1F055
:10235000374988802F48808980B20A21B0FBF1F08C
:102360003449C8604AE039E047E00EE0324800787E
:1023700038B92848007A052803D1FEF73FF9FEF75F
:102380006FF93BE023E031E006E02B48007808B924
:10239000FEF71CF832E031E02748007808B9FEF774
:1023A000DBF82BE01BE02448007810B9FEF7FEF8BC
:1023B00024E000BF20480078012807D11548007AA2
:1023C000052803D1FEF71AF9FEF74AF916E01A4874
:1023D0000078012801D1FDF7F9FF0FE00EE0164863
:1023E0000078012801D1FEF7B7F807E0124800781D
:1023F000012801D1FEF7DAF800E000BF00BF054870
:102400000021016041608160C16010BD7800001052
:10241000F81E0010281F0010A001311003F0C802A0
:10242000001037FD63EF98F20001FEFF0001EBF7AB
:10243000141B0010281B00101C1A001000F01F02B3
:10244000012191404209920002F1E022C2F80011FC
:10245000704700001D481E481E481F481F4820485E
:10246000204821482148224822482348234824481C
:1024700024482548254826482648274827482848EC
:102480002848294829482A482A482B482B482C48BC
:102490002C482D482D482E482E482F482F4830488C
:1024A000304831483148324832483348334834485C
:1024B000344835483548364836483748374838482C
:1024C00038483948394800BF70470000CC4B0000FD
:1024D000D04B0000D64B0000D84B0000D44B00007E
:1024E000DA4B0000DC4B0000DE4B0000E04B00004C
:1024F000E24B0000E44B0000E64B0000E84B00001C
:10250000EA4B0000EC4B0000EE4B0000F04B0000EB
:10251000F24B0000F44B0000F64B0000F84B0000BB
:10252000FA4B0000FC4B0000FE4B0000004C00008A
:10253000024C0000044C0000064C0000084C000057
:102540000A4C00000C4C00000E4C0000104C000027
:10255000124C0000144C0000164C0000184C0000F7
:102560001A4C00001C4C00001E4C0000224C0000C5
:10257000244C0000264C0000284C0000E02D0010E8
:10258000603200102C4C00002E4C0000304C00003B
:10259000324C0000344C0000364C0000384C000037
:1025A0003A4C00003C4C00002A4C00003E4C00001D
:1025B00070B505460E4614461048007810B112203A
:1025C000207070BD2878012808D0022807D0032881
:1025D00002D0042804D100E000BF00BF00BF02E029
:1025E00001202070EDE700BFFDF7BAFD6E61FDF739
:1025F000C0FD0020207000BFE3E70000D500001000
:1026000010B500F019F800F0B1FE00F0D9FE00F0AE
:10261000F9FE00F07BFE00F04DFE00F08DFF00F0B3
:10262000B7FF00F02FFF00F055FF00F043FC00F073
:1026300009F8FFF70FFF10BD00200149088070471F
:10264000B80000107047000010B51A480078012843
:102650002ED1FDF785FD1848007820B11648007886
:10266000401E1549087014480078F8B913480078DE
:10267000E0B900F0EDFF12481249097850F8210046
:10268000114908600F4800781049097888420DD038
:102690000D480068C06B401C0B490968C8630C48B2
:1026A0000068401C0A490860FDF789FDFDF761FDDF
:1026B00010BD0000E2000010D5000010D600001090
:1026C00078240010D8000010F0000010D70000108F
:1026D000BC00001010B50A48007801280FD1FDF7A2
:1026E0003FFD0848007840B907480078FF2804D229
:1026F00005480078401C04490870FDF73AFD10BDFC
:10270000E2000010D5000010D600001010B51148EE
:10271000007801281CD1FDF723FD0F480078A8B1EF
:102720000D480078401E0C4908700846007850B9E2
:102730000A48007820B9FDF71CFD00F051FF07E0C2
:10274000FDF717FD04E0FDF714FD01E0FDF711FDB5
:1027500010BD0000E2000010D6000010D5000010EF
:1027600070B505460F48007808B1002070BDFDF730
:10277000F7FC0D480468006820B10B480068406809
:1027800009490860FDF7F5FC4CB103202070258154
:102790000020606005A06061204600F07DFD2046BD
:1027A000E4E70000D5000010C00000103F0000006A
:1027B00070B505460E4614462878032802D001203D
:1027C000207070BD2F48007810B102202070F8E70B
:1027D0002D48007810B10D202070F2E7FDF7C0FC05
:1027E000288938B12889401E2881FDF7C2FC0020C5
:1027F0002070E6E72548006890F8340040F00100BA
:102800002249096881F8340000202049096881F8CC
:1028100035001E4800680663284600F0FFFCFDF7FF
:10282000A8FC00F0DDFEFDF79BFC1848006890F85E
:10283000350020B1012809D0022806D102E000208D
:1028400020700BE00E20207008E000BF29460F48E2
:10285000006800F0B1FC0A20207000BF00BF00201B
:102860000A49096881F834000849096881F8350087
:1028700006490968C861054909680862FDF779FCDD
:1028800000BF9EE7D5000010D6000010E800001041
:1028900010B504462078032801D0012010BDFDF7B3
:1028A0005FFCA07A58B1002301221946204600F0AF
:1028B0003BFCFDF75EFC00F093FE0020EEE7208974
:1028C0004FF6FF71884206D22089401C2081FDF717
:1028D00050FC0020E2E7FDF74CFC3320DEE700006F
:1028E00010B50B48007890B900F0B2FE09480078A6
:1028F0000949087009480749097850F82100084932
:1029000008600846006807490860FDF740FC10BDF4
:10291000E2000010D8000010D7000010782400104A
:10292000F0000010E800001010B5022000F0CCF913
:10293000FDF716FC002009490860FDF71AFC642029
:1029400000F0C2F9FDF70CFC044800680449086077
:10295000012004490870FDF70CFC10BDE4000010D4
:10296000CC000010D4000010704700002DE9FE4399
:1029700006460F4690461C46FDF7F2FB1C480078C1
:1029800020B1FDF7F6FB3C20BDE8FE83194850F866
:10299000240048BB0120174941F82400FDF7E9FB5A
:1029A000002342463946304600F0F0F881460020C8
:1029B000009001900346024649460290204600F0EE
:1029C0005DFE054635B90C48007801280AD100F0B3
:1029D00007FE07E0FDF7C4FB0020064941F824008C
:1029E000FDF7C7FB2846CFE7FDF7C3FB2820CBE761
:1029F000D500001078240010E20000102DE9FF5FE0
:102A000081468A4693461C46DDE90F78129DFDF704
:102A1000A7FB2048007828B1FDF7ABFB3C2004B0B1
:102A2000BDE8F09F1C4850F8240070BB01201A49F3
:102A300041F82400FDF79DFB2A464146384600F048
:102A400021FF2B465A465146484600F09FF8039016
:102A50001198CDE9008002953A4620460E9B0399D5
:102A600000F00CFE064636B90C48007801280AD161
:102A700000F0B6FD07E0FDF773FB0020064941F8C2
:102A80002400FDF776FB3046C9E7FFE7FDF771FB51
:102A90002820C4E7D500001078240010E2000010C0
:102AA000704770472DE9F04106460F46144613481B
:102AB000007818B112202070BDE8F081FDF750FBBE
:102AC000FF2E03D10E48006890F836600D4850F88C
:102AD000265025B9FDF74DFB43202070ECE7012D72
:102AE00004D1FDF746FB43202070E5E72F65FDF795
:102AF00040FB0020207000BFDEE70000D500001082
:102B0000E800001078240010704700002DE9F0471D
:102B100007460D46002028606860FDF721FBFF2F67
:102B200003D11848006890F83670174850F82740CD
:102B300024B9FDF71EFB4320BDE8F087012C03D12B
:102B4000FDF717FB4320F7E7207C00F0010018B9E0
:102B5000FDF70FFB4520EFE70026D4F80C90D4F8E2
:102B60000880FDF706FB00E0761C58F8041B0029DE
:102B7000FAD0B0002860A9EB060080006860002051
:102B8000DAE70000E80000107824001070B5044671
:102B900010464FF080750560051F28462C606FF0C9
:102BA0000106051F28462E604FF01236051F2846E5
:102BB0002E604FF00336051F28462E604FF0023678
:102BC000051F28462E607610051F28462E60051F1B
:102BD000284629604FF01136051F28462E604FF019
:102BE0001036051F28462E604FF00936051F28466F
:102BF0002E604FF00836051F28462E604FF007362E
:102C0000051F28462E604FF00636051F28462E6009
:102C10004FF00536051F28462E604FF00436051F7D
:102C200028462E6070BD00002DE9F0410546FDF7F5
:102C300097FAFF2D05D11F48006890F836500126FD
:102C400008E01C48006890F83600A84201D101262F
:102C500000E00026184850F8254024B9FDF789FA0D
:102C60004820BDE8F081012C03D1FDF782FA432012
:102C7000F7E794F838701148C05D94F8391088432C
:102C80000E49C8550846C05D30B994F83A100C4852
:102C9000007888430A49087094F8340040F008002E
:102CA00084F83400FDF765FA012E01D100F098FC9C
:102CB0000020D6E7E800001078240010DA000010A9
:102CC000D90000107047000070B50546164800781E
:102CD00000B170BD1548007800B1FAE70DB3FDF7FB
:102CE0003FFA1348006890F838401248005D1049D8
:102CF000096891F8391088430E4908550846005D67
:102D000040B90B48006890F83A100B4800788843A7
:102D100009490870064800680563FDF72AFA00F0C3
:102D20005FFC00BFD5E70000D5000010D600001002
:102D3000E8000010DA000010D90000102DE9F04181
:102D400005460E4617461C461248007810B155201D
:102D5000BDE8F0811048007808B13220F8E74FF460
:102D60007A7060434FF47A71B0FBF1F14FF4616017
:102D70006843C6EB061200EB8200384400EB4002C9
:102D8000C2EBC01001EBC0084046FFF79DFF0020DA
:102D9000DEE70000D5000010D600001070B500F08E
:102DA0006DF8FDF7DDF92F480068401C2D490860DB
:102DB000FDF7DFF92C480078012851D12B48007825
:102DC00020B1012804D0022809D103E001250BE03D
:102DD000002509E0012501202449087004E00125AF
:102DE00000202249087000BF00BF05B970BD20480F
:102DF000046831E0FDF7B4F9206B50B3206B401E3E
:102E00002063206B28BB94F8340000F0370040B1F9
:102E100014F8340F00F0C800207001206070343CBA
:102E200002E0002084F8350094F8340000F0080037
:102E300078B93834A0780F49097808430D490870EB
:102E400020780D49085C6178084314F838190A4A5B
:102E500050546469FDF78DF994F836003F28C9D1C4
:102E600000BFC3E704010010E2000010F8000010EA
:102E7000F4000010D9000010DA00001010B5074867
:102E80000088401C0549088008460088642803D350
:102E90000020088000F004F810BD0000B800001009
:102EA00010B503480068FFF7F3FC0446204610BD48
:102EB00014010010F8B54FF42071284800F032FBDF
:102EC0004021274800F02EFB002514E0681C86B244
:102ED00005EB8500214901EBC00406EB860001EB00
:102EE000C00764202070002084F82500E7601DA042
:102EF0002062681C85B20F2DE8D305EB85001749C9
:102F000001EBC00464202070002084F82500E060FC
:102F100014A0206200201449086014490880102081
:102F2000134908800D48134908600120FFF718FC79
:102F3000114908600020FFF713FC104908606A4639
:102F40000FA10D480068FFF733FB6A4611A10B483B
:102F50000068FFF72DFB00F027F8F8BDE02D00100A
:102F6000603200103F0000000C0100100A01001048
:102F700008010010180100101001001014010010C9
:102F800075432F4F532D494920546D724C6F636B1D
:102F90000000000075432F4F532D494920546D7296
:102FA0005369676E616C000000B587B00320002193
:102FB00080220A4BCDE90132CDE903104FF6FD70B6
:102FC0003C23074A00900748FFF718FD06AA06A110
:102FD0003C20FFF767FD07B000BD00006030001027
:102FE0005C3200106530000075432F4F532D494966
:102FF00020546D720000000070B50B46032580F868
:103000002550012B05D1154EC569366835444561FB
:103010000CE085692DB9114EC569366835444561A6
:1030200004E00E4E8569366835444561057D05F03E
:1030300007040B4D05EBC4010D682DB90860002590
:10304000C56001258D8006E00A680860C2601061D5
:103050008D886D1C8D800025056170BD0C010010F0
:103060006032001008B500BF00BF6A4600211A4850
:103070000068FFF79DFBFFF72DFB18480068401C18
:10308000164908600846007800F00708144800EB6D
:10309000C8073C681AE0E668104960690968884218
:1030A00013D1204600F01EF894F82400022804D121
:1030B00001212046FFF7A0FF02E0022084F825004E
:1030C000656815B12046A168A8473446002CE2D1B6
:1030D000FFF71CFBC9E70000140100100C010010F1
:1030E0006032001030B5057D05F007040D4D05EB8D
:1030F000C4031D68854205D1C168196039B1002536
:103100000D6104E00169C268CA6002B11161012564
:1031100080F825500025C56005619D886D1E9D8045
:1031200030BD0000603200102DE9F04F05460F461B
:1031300090469946A87A1C490E5C05F10B00805D0B
:1031400011F800B00BEBC60000F0FF0A174850F86A
:103150002A4000202434E0602760207C20EA080018
:10316000207484F81190207C243C00F0080068B999
:1031700094F83A000E49097808430D4908700D4843
:10318000805D94F8391008430A498855294620463D
:1031900000F012F8206A20B12046216A00F021F8E0
:1031A000E5615046BDE8F08FCC4A0000782400105D
:1031B000D9000010DA00001010B590F8382001F1A5
:1031C0000B039B5C90F83940A34301F10B04A3541B
:1031D00023469B5C23B98B7A90F83A40A3438B72C9
:1031E00010BDF0B5024612F8384F95785678383A47
:1031F0000B4618680FE000F10B073F5DB74300F185
:103200000B0C0CF8047067463F5D17B9877AAF4323
:1032100087721B1D18680028EDD1F0BD10B51B4A40
:103220001268D061194A126892F8383000F10B0226
:10323000D25C164B1B6893F839301A43134B1B684A
:1032400093F8384000F10B031A55827A0F4B1B6834
:1032500093F83A301A4382720C4A126892F8381086
:103260000B4A525C094B1B6893F839309A43084B60
:103270005A541A46525C42B9044A126892F83A30DB
:10328000044A12789A43034B1A7010BDE8000010EC
:10329000DA000010D9000010014600228A720020D6
:1032A00005E0002301F10B021354421CD0B20828A0
:1032B000F7D370472DE9F0415021114800F032F961
:1032C00000250DE0681C86B20D4800EB051400EBEC
:1032D00006170020207067600AA0E060681C85B2B5
:1032E000042DEFD3064800EB051400202070606029
:1032F00004A0E060024804490860BDE8F0810000D5
:10330000282000103F000000C400001070B5F0211C
:10331000134800F007F9002411E0601C85B204EBAB
:1033200044000F4901EBC00305EB450001EBC0066B
:10333000002018705E600BA05861601C84B2092CDC
:10334000EBD304EB4400064901EBC00300201870E6
:10335000586004A0586108460349086070BD000029
:10336000381F00103F000000C000001000200A4974
:1033700008600A4908700A4908700A4908700A4931
:1033800008700A4908600A4908600A4908600A4941
:1033900008600A490870704704010010D500001049
:1033A000D6000010E3000010E2000010BC00001086
:1033B000E4000010D0000010CC000010D400001079
:1033C00000210A4A1170002004E00021084A11542B
:1033D000411CC8B20828F8D30021064A1170064AD9
:1033E0001170064A1160064A11607047D90000103A
:1033F000DA000010D7000010D8000010F000001014
:10340000E800001070B54FF4F261194800F08AF836
:103410004FF48071174800F085F8002413E0601C19
:10342000C5B204EB440000EBC400114901EBC0033A
:1034300005EB450000EBC50001EBC0065E610EA088
:103440001865601CC4B2152CE9D304EB440000EBF2
:10345000C400074901EBC0030020586106A01865AD
:1034600000200649086002480549086070BD000058
:1034700078250010782400103F000000F4000010B0
:10348000EC00001000B587B00320002180220A4B19
:10349000CDE90132CDE903104FF6FF703F23074A13
:1034A00000900748FFF7AAFA06AA06A13F20FFF7F7
:1034B000F9FA07B000BD0000782200107424001053
:1034C000A537000075432F4F532D49492049646C9F
:1034D0006500000000B587B00320002180220A4B60
:1034E000CDE90132CDE903104FF6FE703E23074AC5
:1034F00000900748FFF782FA06AA06A13E20FFF7D0
:10350000D1FA07B000BD000078200010742200102E
:10351000C537000075432F4F532D4949205374611F
:103520007400000004E0002200F8012B4A1E91B252
:103530000029F8D17047000070B578211148FFF7D5
:10354000F1FF00240EE004EB44000E4901EBC0053E
:10355000601C00EB400001EBC00068600AA06861DD
:10356000601C84B2042CEED304EB4400054901EB4B
:10357000C0050020686004A068610846034908602F
:1035800070BD0000082D00103F000000FC0000107E
:103590002DE9F04160211048FFF7C4FF00240DE041
:1035A000601C86B204EB44000B4901EBC00506EB3E
:1035B000460001EBC0072F60601C84B2032CEFD3E0
:1035C00004EB4400044901EBC005002028600846D4
:1035D00002490860BDE8F081802D00100001001054
:1035E00010B5FCF7BDFD13480078F8B91248007813
:1035F000E0B900F02DF811481149097850F8210080
:10360000104908600E4800780F49097888420DD0AB
:103610000C480068C06B401C0A490968C8630B4825
:103620000068401C09490860FCF7C2FDFCF7A1FDD9
:1036300010BD0000D5000010D60000107824001046
:10364000D8000010F0000010D7000010BC000010DF
:103650000649074A1278885C0649095C034A515CAE
:1036600001EBC001044A117070470000CC4A000011
:10367000D9000010DA000010D80000102DE9F05F2A
:1036800005460F4690469946DDE90AABFCF768FD12
:103690003D480468002C72D01C3454F8080C3A4998
:1036A0000860FCF766FD44F81C7CA57600202076B7
:1036B0006076606144F818BC44F810AC44F8148C8F
:1036C0000C9824F80C0C24F80A9C0020E077E810F1
:1036D000207705F00700E076217F01208840A07761
:1036E000E17E012088406077002020606060E0601B
:1036F000A0602062A0626062E062206323A0606339
:103700001C3C002606E0002104F1540040F826107D
:10371000701CC6B2002EF6D02046FFF725F92046D1
:10372000FFF7BEF9FCF71CFD194840F82540194881
:10373000006860610020A0611648006810B115485B
:1037400000688461134804603834A078124909780D
:1037500008431149087020781049085C61780843D3
:1037600014F838190D4A50540D480078401C0C4983
:103770000870FCF7FEFC0020BDE8F09FFFE7FCF7B7
:10378000F8FC4220F8E70000EC0000103F000000C9
:1037900078240010F4000010D9000010DA000010A6
:1037A000E300001000BF00BFFCF7DAFC044800682B
:1037B000401C03490860FCF7DCFCFFF772F9F3E7F3
:1037C000E400001000BF02E0C820FFF77DFA1948AE
:1037D00000780028F8D0184800686421B0FBF1F0A8
:1037E000154908600846006828B900201349087088
:1037F000FF20FFF719FA00BFFCF7B2FC1048006881
:103800001049086000200E490860FCF7B2FC0D4822
:10381000006809490968B0FBF1F0C0F1640007498C
:103820000870FFF771F900F00FF86420FFF74CFA09
:10383000E2E70000D4000010CC000010C800001027
:10384000E4000010D00000107CB5002514E06946AB
:103850002846FFF75BF9064666B9094850F8254047
:1038600044B1012C06D0D4E9020100EB8100A06430
:103870000198E064681CC5B23F2DE8D97CBD00000A
:103880007824001002F0010343B102F002032BB1CF
:1038900002E0491E002308C00029FAD17047000049
:1038A00008B50246094800EB82310868009000988C
:1038B00020F00100009000980860086800900098CF
:1038C00000F0010080F0010008BD0000004004404D
:1038D00030B501462E48006840F400702C4AC43AC6
:1038E000C2F8C4002B48007800F0100038B1294815
:1038F000007840F01000274A5C3A82F85C00002013
:10390000244A5C3A10720320107001201073FF20CB
:103910001074C888908748791E4A243A1070C87875
:103920001C4A303A10700879121D10708878194AB4
:10393000343A10704878121F10700878121F1070F7
:103940000120144A5C3A107311200122824043097D
:103950009B0003F1E023C3F8002100BF12220028DE
:1039600007DAD3061D0E0C4B00F00F04241F1D5563
:1039700003E0D3061C0E094B1C5400BF0120054A6E
:103980005C3A1073032010700120107230BD0000EB
:10399000C4C00F405C40024018ED00E000E400E0CD
:1039A00033484069334908603148806932490860CA
:1039B00008460068C0F30B403049C8802E48008894
:1039C000C0F3032048712C48007800F01F00C87035
:1039D00028480068C0F30260087126480068C0F3F8
:1039E0000440887023480088C0F3052048702148AF
:1039F000007800F03F00087001201D490870204841
:103A00000088401C1E4908801E480088401C1D4933
:103A100008801D488089401C1B4988811B48008FF5
:103A2000401C1A4908871A4908780978491C184A1D
:103A3000117000EBD0714910A0EB410159B115484C
:103A4000006C40F04000134908640846806D40F067
:103A5000400088650AE00F48006C40F040000D49C6
:103A600008640846C06D40F04000C865704700001B
:103A700000400240900000109400001098000010D8
:103A8000880000108A000010D41A0010741A001068
:103A9000A00000100080092000201A49096841F4A4
:103AA0000011184AC43AC2F8C4101649E431096832
:103AB000C8B21549C96B21F00701134AD1631146F9
:103AC000C96B41F00201D1631146496C21F0070135
:103AD00051641146496C41F0020151641146896CF0
:103AE00021F0070191641146896C41F00201916453
:103AF00040F60701054A1160082111610221516059
:103B000070470000C4C00F4000C002400080084061
:103B100002E012498968C8B21049C96801F004017D
:103B20000429F6D000BF0D49C96801F00101002940
:103B3000F9D0FF21094A916000BF0849C96801F026
:103B400010011029F9D000BF0449C96801F004012F
:103B50000029F9D001498968C8B27047008008403F
:103B600000BF0849C96801F001010029F9D00549E1
:103B7000886000BF0349C96801F010011029F9D01D
:103B8000704700000080084000202049096841F487
:103B900080111E4AC43AC2F8C4101C49E4310968B5
:103BA000C8B21B49D1F8801021F00701184AC2F8A9
:103BB00080101146D1F8801041F00401C2F8801045
:103BC0001146D1F8841021F00701C2F88410114683
:103BD000D1F8841041F00401C2F884101146D1F8E4
:103BE000901021F00701C2F890101146D1F8901002
:103BF00041F00401064A9032116040F60701054A7F
:103C0000116008211161022151607047C4C00F404A
:103C100000C0024000C00A4021202E49086000BFB9
:103C20002C48006800F040000028F9D00120294904
:103C30009439086009202849C1F8840001202649E8
:103C400080310860AA2024498C3108605520086022
:103C500000BF21488830006800F480600028F8D058
:103C600023201D49A431086001201B49C1F8A00090
:103C7000AA201949AC31086055201749C1F8AC0099
:103C800000BF1548A830006800F480600028F8D014
:103C900040F201100F499C39086040F201200E49A2
:103CA000C1F8080101200B49A03908600220094928
:103CB0000831086009480849C43108608815054979
:103CC0002831086045F23A000349086000200449A1
:103CD00008607047A0C10F4000C00F40DE87280475
:103CE00008ED00E010B50E2200211048FDF744FF5A
:103CF0000F480068012121EA106018B100200B492B
:103D0000087002E0012009490870084880780949D4
:103D100048700648808808810448C0884881034864
:103D20000089888101484089C88110BD1C1A001093
:103D300094800920141B001001204FF040210860DE
:103D400011480078401C10490870087800EBD071C9
:103D50004910A0EB410159B90C48006840F00060DF
:103D60000A4908600846806940F0006088610AE0FE
:103D70000648006840F00060044908600846C069D1
:103D800040F00060C8617047A10000100080092069
:103D900010B51A48006840F002001849C439C1F84B
:103DA000C40002204FF0402148600120086000203C
:103DB00008678860C8601248886103204861012054
:103DC000012181404209920002F1E022C2F8001173
:103DD00000BF0321002807DACA06140E094A00F0C2
:103DE0000F031B1FD45403E0CA06130E064A1354D4
:103DF00000BF01204FF04021486010BDC4C00F40FB
:103E0000009F240018ED00E000E400E010B51B481E
:103E1000006840F008001949C439C1F8C4001848C6
:103E2000806820F00700164988600846806840F0E6
:103E3000010088600846C06820F00700C860084696
:103E4000C06840F00100C86083200E4908730E4826
:103E5000006800094FF4E131B0FBF1F4200A094990
:103E600008710C7003200873872008720520FEF784
:103E7000E5FA07200349486010BD0000C4C00F40A8
:103E800000C0024000C00040A800001010B5084863
:103E9000007810B90748006840B100200449087054
:103EA0000449086040210448FCF73DF910BD0000BA
:103EB0002800001020000010481B001070B500BF43
:103EC00047488068C4B2641004F00704032C35D15D
:103ED0004348057D05F09E0010B14148067870BD4D
:103EE00005F00100002878D000203E49086016E067
:103EF0003C4800683C4909680844402801D3FFF762
:103F0000C5FF3748007837490968374A12681144B5
:103F1000364A505433480068401C324908603148E2
:103F200000680828E4D3304800682E49096808442E
:103F30002D49086001202E4908704EE0022C29D13D
:103F400000202849086016E02648006826490968CC
:103F50000844402801D3FFF799FF21480178214800
:103F60000068214A12681044204A11541D48006814
:103F7000401C1C4908601B4800680828E4D31A4804
:103F80000068184909680844174908600120184961
:103F9000087022E0062C1BD110E01348006840286E
:103FA00001D3FFF773FF0E48007810490E4A1268DC
:103FB00088540D480068401C0B4908600848007D83
:103FC00000F001000028E8D101200949087004E050
:103FD000012C02D10248057D00BF00BF7FE7000031
:103FE00000C000401C00001020000010481B001002
:103FF0002800001010B51F48006840F010001D494F
:10400000C439C1F8C4001C48D0F8000120F00700F2
:104010001949C1F800010846D0F8000140F002003B
:10402000C1F800010846D0F8040120F00700C1F8EB
:1040300004010846D0F8040140F002000F4908606E
:1040400083200F4908730F48006800094FF4165188
:10405000B0FBF1F4200A0A4908710C7003200873C0
:10406000872008720620FEF7E9F907200449486016
:1040700010BD0000C4C00F4000C0024004C1024097
:1040800000000140A800001010B50848007810B9E1
:104090000748006840B100200449087004490860DE
:1040A00040210448FCF73FF810BD00003800001024
:1040B00030000010C81B00100449087000BF0349FD
:1040C000097D01F020010029F9D07047000001406E
:1040D00030B502460B46002404E012F8010BFFF74E
:1040E000EBFF641C9C42F8D330BD000070B500BFEC
:1040F00047488068C4B2641004F00704032C35D12B
:104100004348057D05F09E0010B14148067870BD1A
:1041100005F00100002878D000203E49086016E034
:104120003C4800683C4909680844402801D3FFF72F
:10413000ABFF3748007837490968374A126811449D
:10414000364A505433480068401C324908603148B0
:1041500000680828E4D3304800682E4909680844FC
:104160002D49086001202E4908704EE0022C29D10B
:1041700000202849086016E026480068264909689A
:104180000844402801D3FFF77FFF214801782148E8
:104190000068214A12681044204A11541D480068E2
:1041A000401C1C4908601B4800680828E4D31A48D2
:1041B000006818490968084417490860012018492F
:1041C000087022E0062C1BD110E01348006840283C
:1041D00001D3FFF759FF0E48007810490E4A1268C4
:1041E00088540D480068401C0B4908600848007D51
:1041F00000F001000028E8D101200949087004E01E
:10420000012C02D10248057D00BF00BF7FE70000FE
:10421000000001402C00001030000010C81B0010EE
:104220003800001010B52248006840F08070204926
:10423000C439C1F8C4001F48806A20F007001D4936
:1042400088620846806A40F0010088620846C06AB9
:1042500020F00700C8620846C06A40F00100C8624A
:104260009B20154908731548006800094FF4165142
:10427000B0FBF1F4200A104908710C701B20087380
:10428000872008720720FEF7D9F807200A494860FE
:104290000B48D0F8800040F000400949C1F8800088
:1042A0000846D0F8980040F00040C1F8980010BDD2
:1042B000C4C00F4000C0024000800940A8000010A8
:1042C0000080092010B50848007810B90748006838
:1042D00040B10020044908700449086040210448A6
:1042E000FBF721FF10BD0000480000104000001047
:1042F000481C001070B500BF47488068C4B2641005
:1043000004F00704032C35D14348057D05F09E00D9
:1043100010B14148067870BD05F00100002878D042
:1043200000203E49086016E03C4800683C490968A6
:104330000844402801D3FFF7C5FF374800783749C4
:104340000968374A12681144364A505433480068A5
:10435000401C32490860314800680828E4D33048DE
:1043600000682E49096808442D49086001202E493B
:1043700008704EE0022C29D100202849086016E080
:1043800026480068264909680844402801D3FFF7F9
:1043900099FF2148017821480068214A1268104499
:1043A000204A11541D480068401C1C4908601B48E5
:1043B00000680828E4D31A480068184909680844C6
:1043C0001749086001201849087022E0062C1BD10B
:1043D00010E013480068402801D3FFF773FF0E4830
:1043E000007810490E4A126888540D480068401C35
:1043F0000B4908600848007D00F001000028E8D162
:1044000001200949087004E0012C02D10248057D11
:1044100000BF00BF7FE70000008009403C000010A3
:1044200040000010481C00104800001010B51F4844
:10443000006840F000701D49C439C1F8C4001C4830
:10444000D0F8700220F007001949C1F87002084640
:10445000D0F8700240F00200C1F870020846D0F8AF
:10446000740220F00700C1F874020846D0F8740204
:1044700040F002000F49086083200F4908730F487D
:10448000006800094FF4E131B0FBF1F4200A0A4959
:1044900008710C7003200873872008720820FDF74C
:1044A000CDFF07200449486010BD0000C4C00F4084
:1044B00000C0024074C2024000C00940A8000010C1
:1044C00010B50848007810B90748006840B10020CE
:1044D000044908700449086040210448FBF723FEA2
:1044E00010BD00005800001050000010C81C001043
:1044F00070B500BF47488068C4B2641004F0070478
:10450000032C35D14348057D05F09E0010B141488C
:10451000067870BD05F00100002878D000203E49E3
:10452000086016E03C4800683C4909680844402897
:1045300001D3FFF7C5FF3748007837490968374A84
:1045400012681144364A505433480068401C3249BE
:104550000860314800680828E4D3304800682E49D4
:10456000096808442D49086001202E4908704EE072
:10457000022C29D100202849086016E0264800684E
:10458000264909680844402801D3FFF799FF2148CC
:10459000017821480068214A12681044204A1154C9
:1045A0001D480068401C1C4908601B48006808281A
:1045B000E4D31A4800681849096808441749086094
:1045C00001201849087022E0062C1BD110E0134886
:1045D0000068402801D3FFF773FF0E4800781049A8
:1045E0000E4A126888540D480068401C0B49086048
:1045F0000848007D00F001000028E8D101200949A9
:10460000087004E0012C02D10248057D00BF00BF04
:104610007FE7000000C009404C000010500000106F
:10462000C81C00105800001010B51F48006840F466
:1046300080701D49C439C1F8C4001C48D0F88C02F0
:1046400020F007001949C1F88C020846D0F88C0206
:1046500040F00400C1F88C020846D0F8900220F027
:104660000700C1F890020846D0F8900240F004001C
:104670000F49086083200F49C8600F48006800098F
:104680004FF41661B0FBF1F4200A0A494860E0B229
:1046900008600320C860872088602320FDF7CEFED5
:1046A00007200449486010BDC4C00F4000C002404C
:1046B00090C2024000400A40A800001010B508480F
:1046C000007810B90748006840B10020044908701C
:1046D0000449086040210448FBF725FD10BD000097
:1046E0006800001060000010481D001070B500BF89
:1046F00049488068C4B2641004F00704032C37D121
:1047000045484069C5B205F09E0018B142480068AE
:10471000C6B270BD05F0010000287AD000203F49E4
:10472000086016E03D4800683D4909680844402893
:1047300001D3FFF7C3FF3848006838490968384A91
:1047400012681144374A505434480068401C3349B9
:104750000860324800680828E4D3314800682F49CF
:10476000096808442E49086001202F49087050E06C
:10477000022C2AD100202949086017E02748006848
:10478000274909680844402801D3FFF797FF2248CA
:104790000068C1B221480068214A12681044214AC9
:1047A00011541E480068401C1C4908601B480068E2
:1047B0000828E3D31A4800681849096808441849CA
:1047C000086001201849087023E0062C1BD110E076
:1047D00013480068402801D3FFF770FF0E480068B7
:1047E00010490F4A126888540D480068401C0C4953
:1047F00008600948406900F001000028E8D1012064
:104800000949087005E0012C03D103484069C5B28D
:1048100000BF00BF7DE7000000400A405C000010C0
:1048200060000010481D0010680000102DE9F041E4
:1048300005460F4690461E46082D02DD0020BDE8C5
:10484000F081174805704770C0F8048000201449B3
:104850008860C860002415E0042C08DA305DE100AF
:1048600088400F49896808430D49886008E0305D39
:10487000211FC90088400A49C96808430849C8601F
:10488000601CC4B2AC42E7DB01210020FCF7D4FD80
:104890000123002211461046FEF750FA0120CEE710
:1048A000081F00102DE9F04105460F4690461E46B0
:1048B000082D02DD0020BDE8F08117480570477023
:1048C000C0F80480002014498860C860002415E006
:1048D000042C08DA305DE10088400F4989680843FC
:1048E0000D49886008E0305D211FC90088400A49F1
:1048F000C96808430849C860601CC4B2AC42E7DB21
:1049000001210846FCF798FD0223002211461046BB
:10491000FEF714FA0120CEE7081F001002E008C8D5
:10492000121F08C1002AFAD170477047002001E029
:1049300001C1121F002AFBD17047000010B5FDF71E
:1049400053F91848FBF780FCFFF7A6F8FFF71CF9AE
:10495000FFF71EFAFFF75AFAFFF74CFBFFF762FC6E
:10496000FFF764FDFFF760FE0F490020FCF72CFE07
:104970000D490C310120FCF727FE0C48FDF7E6F845
:104980000A48FEF7A5FFFFF7ADF9FDF739FE002352
:10499000074A19460748FDF7E9FFFDF7A1FF002088
:1049A00010BD0000801A06000B002F0098000010B8
:1049B000A8020010E149000010B50446FBF770FCA6
:1049C00010BD10B50446FBF769FF10BD10B50446D5
:1049D000FDF778F910BD10B50446FDF743FA10BD98
:1049E00000F042F8FDF7A0FF02230E4A00210E4816
:1049F000FDF7BCFF05230D4A00210D48FDF7B6FF6A
:104A000008230C4A00210C48FDF7B0FF0A230B4A8B
:104A100000210B48FDF7AAFF02E0FF20FEF704F992
:104A2000FBE70000C8050010B9490000980D001010
:104A3000C349000068150010D7490000181A00107B
:104A4000CD49000010B5FBF78BFB06480078401CF1
:104A500004490870FBF78DFBFEF7A0F9FDF7F4FDA4
:104A600010BD0000D500001070B50020FCF746FE18
:104A700004464FF47A70B4FBF0F0411EB1F1807F30
:104A800000D31DE021F07F40401E4FF0E022506136
:104A900050171F22002807DAD3061E0E094B00F01C
:104AA0000F052D1F5E5503E0D3061D0E064B1D544A
:104AB00000BF00204FF0E02290610720106100BF8E
:104AC00070BD000018ED00E000E400E0000001000F
:104AD00002000100030001000200010004000100C7
:104AE00002000100030001000200010005000100B6
:104AF00002000100030001000200010004000100A7
:104B00000200010003000100020001000600010094
:104B10000200010003000100020001000400010086
:104B20000200010003000100020001000500010075
:104B30000200010003000100020001000400010066
:104B40000200010003000100020001000700010053
:104B50000200010003000100020001000400010046
:104B60000200010003000100020001000500010035
:104B70000200010003000100020001000400010026
:104B80000200010003000100020001000600010014
:104B90000200010003000100020001000400010006
:104BA00002000100030001000200010005000100F5
:104BB00002000100030001000200010004000100E6
:104BC00002000100030001000200010001000000DA
:104BD0007856341201000A0001001800F0000100AC
:104BE0000100100014000200050001003F00010058
:104BF0000100050001001800780001000400010018
:104C00000400180008000100040001000100010078
:104C10008000010016000100010080000100010079
:104C2000010040005800E8030100230101001000CA
:104C3000010008000A002800800208004000C2139A
:104C4000604C0000000000101C0100001C49000026
:104C50007C4D00001C010010843300002C49000032
:104C60000000000000000000000000000000000044
:104C70000000000000000000000000000000000034
:104C80000000000000000000000000000000000024
:104C90000000000000000000000000000000000014
:104CA0000000000000000000000000000000000004
:104CB00000000000000000000000000000000000F4
:104CC000000000000000000000000000C81D0010EF
:104CD000C81D0010681E0010681E001000000000B3
:104CE00000000000000000000000000000000000C4
:104CF00000000000000000000000000000000000B4
:104D000000000000000E270700879303008793032D
:104D1000006CDC0200000000000000000000000049
:104D20000000000000000000000000000000000083
:104D30000000000000000000000000000000000073
:104D40000000000000000000000000000000000063
:104D50000000000000000000000000000000000053
:104D60000000000000000000000000000000000043
:0C4D700000000000000000000000000037
:04000005000000E512
:00000001FF
