:020000040000FA
:10000000A8340010F9000000010100000301000005
:1000100005010000070100000901000000000000C8
:100020000000000000000000000000000B010000C4
:100030000D01000000000000CF010000DD4D0000B8
:100040000F010000CD4000000F0100000F01000073
:100050000F01000051420000814400008946000069
:10006000854800000F0100000F0100000F01000093
:100070000F0100000F0100000F0100000F01000040
:100080000F010000953D00000F0100000F0100006E
:100090000F0100000F0100000F0100000F01000020
:1000A0000F010000551500000F0100000F010000B6
:1000B0000F0100000F0100000F0100000F01000000
:1000C0000F0100000F0100000F010000814A000035
:1000D0000F0100000F0100000F0100000F010000E0
:1000E0000F010000DFF80CD000F028F800480047AE
:1000F000D14C0000A834001005488047054800474F
:10010000FEE7FEE7FEE7FEE7FEE7FEE7FEE7FEE7C7
:10011000A53F0000E5000000D2B201E000F8012B8D
:10012000491EFBD270470022F6E710B513460A4677
:1001300004461946FFF7F0FF204610BD064C074D58
:1001400006E0E06840F0010394E8070098471034A7
:10015000AC42F6D3FFF7CAFFD84F0000F84F0000BB
:1001600072B606B42E490A7802F101020A7006BC82
:10017000704706B42A490A78A2F101020A704FF0CA
:100180000001002A08BF81F3108806BC7047254C87
:10019000254D25604FF0000484F30988234C4FF06F
:1001A00001052570224C4FF08055256062B6FEE7B0
:1001B00030B41F4C4FF08055256030BC704730B4D0
:1001C0001B4C4FF08055256030BC704700BFEFF3EB
:1001D000108372B6EFF3098030B1A0F1200080E8FF
:1001E000F00F144C2468206000B5134880475DF878
:1001F00004EB124C124D2E7826700E4C114E3668C0
:100200002660306890E8F00F00F1200080F3098844
:100210004EF0040E83F31088704700BF72B670472B
:10022000BC00001020ED00E00000FFFFEA0000101D
:1002300004ED00E0F0000010B9300000DF00001015
:10024000E0000010F80000101149096841F48051E5
:100250000F4AC43AC2F8C4100E49D1F8FC1021F07C
:100260009F010C4AC2F8FC101146D1F8FC1041F075
:100270000301C2F8FC1008490968B1FBF0F1491EFE
:10028000202242EA012141F40011044A1160704722
:10029000C4C00F4000C00240B00000100040034046
:1002A00007E0022300221146104602F041FF00F051
:1002B00027F8F6E710B5014600230A2903DB0021E1
:1002C0006FF07F4010BD0A48006820F0E060084CE5
:1002D00020600748103050F8212002F0804010B113
:1002E0006FF07F40EEE7C2F30B131846EAE7000019
:1002F0000040034010B501F047FA10BDFFFFFFFFBB
:1003000070B50024002511E0052000F04FF800BF73
:10031000052000F03FF80028FAD105B905E00520D6
:10032000FFF7C8FF0646344400BF6D1C652DEBD3B4
:100330006420B4FBF0F4B4F5467F03D201201449E5
:10034000086024E0B4F5956F06D2B4F5467F03D972
:1003500002200F4908601AE040F29A60844207D2F6
:1003600040F20A50844203D90320094908600EE094
:1003700040F66A40844207D240F29A60844203D930
:1003800004200349086002E004200149086070BDB0
:100390001C00001001460A2900DB0021024A52F825
:1003A0002120D00F70470000104003400A2800DBD6
:1003B0000020054909680122824042F08072114301
:1003C000014A1160704700000040034010B5012051
:1003D0000F4908700F48007818B90F480F49086096
:1003E00003E00D48401C0D49086000200C490870CE
:1003F00048708870C870087148718871C8710B4660
:10040000064801210268082004F016FC10BD000017
:10041000DC1A0010241A001000A030108000001018
:100420008400001010B54848007818B9474848497A
:10043000086003E04548401C4549086001204549E3
:1004400008700220487000208870C87008714871D8
:100450008871C8710B463E4801210268082004F0EB
:10046000EBFB02203B490870487000208870C87080
:10047000087148718871C8710B46354801210268BE
:10048000082004F0D9FB032032490870022048708C
:1004900000208870C870087148718871C8710B4657
:1004A0002B4801210268082004F0C6FB04202949DA
:1004B00008700220487000208870C8700871487168
:1004C0008871C8710B46224801210268082004F097
:1004D000B3FB05201F490870022048700020887077
:1004E000C870087148718871C8710B46184801219D
:1004F0000268082004F0A0FB0620164908700220BC
:10050000487000208870C870087148718871C8717F
:100510000B460F4801210268082004F08DFB0720DC
:100520000C4908700220487000208870C87008715B
:1005300048718871C8710B4605480121026808207E
:1005400004F07AFB10BD0000241A001000A0311046
:10055000800000108400001010B508200E490870BB
:100560000E48007818B90E480E49086003E00C48A0
:10057000401C0C49086000200B49087048708870C6
:10058000C8700871487188710B46064801210268DD
:10059000082004F051FB10BDDC1A0010241A0010D2
:1005A00000A03210800000108400001010B50F4829
:1005B000007818B90E480F49086003E00C48401C49
:1005C0000C49086000200C49087002204870002087
:1005D0008870C8700871487188710B460548012100
:1005E0000268082004F028FB10BD0000241A001047
:1005F00000A03310800000108400001010B51348D4
:10060000007818B912481349086003E01048401CEC
:100610001049086010480068022803D104200F49DF
:10062000087002E000200D49087000200B49487056
:100630008870C8700871487188710B46054801219F
:100640000268082004F0F8FA10BD0000241A001017
:1006500000A03418800000101C000010840000105E
:1006600010B54E48007A10B901204D4908704D4828
:10067000007818B94C484D49086003E04A48401CCE
:100680004A49086001204A490870002048704448DF
:100690008078887042484088000AC8704048808846
:1006A000C0F57A6008713E488088C0F57A60000A1B
:1006B00048714048407E88713E4890F82F00C871CC
:1006C0000B463A4801210268082004F0B5FA0220DE
:1006D00037490870374890F82D004870354890F831
:1006E0003E0088703348C08F000AC870002008712F
:1006F0004871304890F8220088712E48408C000ADA
:10070000C8710B46294801210268082004F094FAB8
:100710000320274908702748808CC0F57A6048700C
:100720002448808CC0F57A60000A8870214890F8CF
:100730002600C8701F4890F83A0008711D48408F85
:10074000000A48711B48808FC0F57A60887119488B
:10075000808FC0F57A60000AC8710B4613480121EA
:100760000268082004F068FA042011490870114852
:1007700090F8420048700F48B0F84200000A8870B4
:100780000020C870087148718871C8710B4607480D
:1007900001210268082004F04FFA10BD301F00103C
:1007A000DC1A0010241A001000A035108000001080
:1007B000840000107C1A001010B51048007806283C
:1007C0001ADB00F021FB0E4800890E4948840C48D2
:1007D00080684FF47A61A1EB10400A498884084888
:1007E000007B81F82600012081F8270081F828008D
:1007F000002002490885888410BD0000DC1A001022
:10080000201F00107C1A00100448806804498842A8
:1008100002D008200349087070470000201F001014
:10082000F0F0F0FCDC1A001001200B4908730B48B3
:10083000007802280FD10A480089488309480078C7
:10084000032808D1054908700846808B401C88831E
:1008500000200449087070477C1A0010DC1A001050
:10086000201F00100000001000F08EFFC3E20123E3
:1008700000221146104602F05BFCFE480068022888
:1008800007D0FD480078022803DB0820FA490870E9
:100890000AE0F8480068022806D0F74800780128E6
:1008A00002D10020F4490870F448406BF348406BD3
:1008B00000F026FCF04800780B2879D2DFE800F041
:1008C0007806435E86A9DFFDFCFBFA00FFF712FD08
:1008D000EA48006C40F40060E84908640846806D0E
:1008E00040F400608865642300221146104602F03F
:1008F0001FFCE248006E40F08060E0490866084650
:10090000806F40F0806088670120DB4981F8340007
:10091000642300221146104602F00AFCD748006EFC
:1009200040F08070D54908660846806F40F08070BE
:100930008867002301221946184602F0F9FB0220BD
:10094000CD49087056E2CC48408B401CCA494883C8
:100950000846408BFA2190FBF1F201FB120008B926
:1009600000F09EFAC448408BB0F5FA5F05DBC4483E
:10097000007B10B90820C04908703BE2BE48808B5C
:10098000401CBD4988830846808B41F288318842EB
:100990000FDABB48407BC0B9B748808BFA2190FB87
:1009A000F1F201FB120080B9002000F0CBFA0CE05C
:1009B0001FE2B148808B41F28831884205DBB148A3
:1009C00000F052FA0920AC49087013E2AA48808B63
:1009D000401CA94988830846808B41F288318842AF
:1009E0000ADAA548808BFA2190FBF1F201FB120094
:1009F00010B9AA2000F0A6FA9F48808B41F28831F6
:100A0000884205DBA04800F02FFA09209A490870B7
:100A1000F0E19948C08B401C9749C8830846008C78
:100A2000401C08840846008C41F28831884219DA5B
:100A30009348007E012821D18F48C08BFA2190FB7A
:100A4000F1F201FB120008B900F042FA8A48008C6A
:100A50004FF4FA7190FBF1F201FB120070B900F053
:100A6000E9FA0BE08448008C41F28831884205DBCA
:100A7000864800F0F9F909207F490870BAE17E48FC
:100A8000408C401C7C4948840846408C4EF66021CE
:100A9000884247DA7A4890F82800D8BB784890F81E
:100AA0002900B8BB7A48007858B1012810D0022834
:100AB0001AD003E09AE154E1C5E045E003282FD1C4
:100AC0002DE0002000F05EFA01207149087028E056
:100AD0006948408CFA2190FBF1F201FB120010B939
:100AE000002000F04FFA1CE06348408CFA2190FB94
:100AF000F1F201FB120088B9614890F82000022849
:100B000009D1AA2000F03EFA07205B4908700020B6
:100B1000488403E017E0002000F034FA01E000E030
:100B200000BF10E05448408C4EF6602188420ADB3A
:100B3000534890F82000022805D0544800F094F95A
:100B400009204D49087055E14B48408C401C4A49EA
:100B500048840846008D401C08850846808C401C4F
:100B600088840846C08C401CC884454890F82800FA
:100B700018B1434890F8290058BB3F48408CFA21EF
:100B800090FBF1F201FB120010B9AA2000F0FAF973
:100B90003B4890F8290001280AD13748808CB0F5ED
:100BA0007A7F05DD394800F05FF909203249087085
:100BB000334890F82800B8BB2F48C08C41F28831E8
:100BC00088423FDD314800F04FF909202A4908707A
:100BD00038E02B4890F82800012833D1284890F8B5
:100BE000290001282ED12648008FB0F5167F1CDA87
:100BF0001020234981F83700B8B11F48808CB0F528
:100C00007A7F05DD214800F02FF909201A49087084
:100C10001948C08C41F28831884213DD1B4800F02E
:100C200023F90920144908700CE01548008FB0F52D
:100C3000167F07DD0020124981F8370010B1082027
:100C40000D490870D6E00C48408D401C0A49488583
:100C50000846808D401C8885094890F85B00E8BBF9
:100C60000846408D0A2190FBF1F201FB1200A0B969
:100C700001490FE01C000010DC1A00100080092060
:100C80007C1A0010FCC0F0FDFCC0F1FCFCC0F4FCC0
:100C900001000010C86B00F0B1F95748408D41F2D7
:100CA000883188425CDB554800F0DEF8524890F805
:100CB0003500012854D15248006A40F400205049C0
:100CC00008620846C06B40F40020C8630846006C08
:100CD00040F4006008640846C06D00E009E040F49C
:100CE0000060C8650020444981F83500092008707B
:100CF00036E0444890F85B00012831D13E4890F836
:100D00003500012814D13C488088322810DC3C484A
:100D1000006A40F400203A4908620846C06B40F47B
:100D20000020C8630020344981F83500092008708C
:100D30003148408D0A2190FBF1F201FB120018B9F5
:100D40002D49C86B00F05AF92B48808D42F2107182
:100D5000884205DB294800F087F8092026490870F9
:100D600048E0254890F8350001280ED12448006A53
:100D700040F40020224908620846C06B40F400207D
:100D8000C86300201C4981F835001D48006E40F002
:100D900080601B4908660846C06F40F08060C867E5
:100DA000002301221946184602F0C2F91448006CCB
:100DB00040F40060124908640846C06D40F40060C9
:100DC000C865002301221946184602F0B1F90C4803
:100DD000006E40F080700A4908660846C06F40F017
:100DE0008070C8670A200449087003E000F0C2FC64
:100DF00000E000BF00BF3AE5DC1A0010FCC0F4FCC4
:100E0000008009207C1A001010B5134813490860AF
:100E1000134880781349087011484088000A4870C8
:100E20000F488088C0F57A6088700D488088C0F5CA
:100E30007A60000AC8700A48007B087108488089F7
:100E4000000A4871FD2088710B46044801210268A0
:100E5000072003F0B5FE10BD56F4121880000010F4
:100E6000DC1A00108400001010B5044609480A4935
:100E70000860200E09490870200C4870200A88700C
:100E8000CC700B46044801210268042003F098FE50
:100E900010BD000056F41F088000001084000010F0
:100EA00010B50848084908600120084908704870D2
:100EB000002088700B46044801210268032003F0DB
:100EC0007FFE10BD56F4261880000010840000102C
:100ED00010B51848184908601848807C18490870EF
:100EE0001648408A000A48701448007D88701348EC
:100EF000808A000AC8701148C08AC0F57A600871FB
:100F00000E48C08AC0F57A60000A48710B48008B11
:100F1000C0F57A6088710948008BC0F57A60000AD4
:100F2000C8710B46044801210268082003F048FEFE
:100F300010BD000056F4081880000010DC1A0010E4
:100F40008400001010B504460B480C4908600C489A
:100F5000047001200A49487000208870C870087128
:100F6000FF2048718871C8710B460448012102684E
:100F7000082003F025FE10BD56F401188000001073
:100F80008400001010B5044609480A4908601CB9DD
:100F900000200949087002E0AA2007490870064BA2
:100FA000044801210268084603F00AFE10BD000053
:100FB00056F40A10800000108400001010B50C4890
:100FC0000C49086000200C490870487001208870A6
:100FD0009920C870012008713D2048713E20887119
:100FE0000B46044801210268082003F0E9FD10BD0A
:100FF00056F41D18800000108400001010B504463F
:1010000009480A4908600A490C70200A4870200CF7
:101010008870200EC8700B46044801210268042025
:1010200003F0CEFD10BD000056F41A108000001031
:101030008400001010B50A480A490860FF200A49D8
:10104000087048708870C870087148718871C871DC
:101050000B46044801210268082003F0B1FD10BDD1
:1010600056F40718800000108400001070B5054683
:101070000C460E480E49086013200E4908700846B9
:101080004570002088700220C870FF2008714C71E4
:1010900094FBF0F088710020C8710B4604480121D0
:1010A0000268082003F08CFD70BD000056F4EC1CB3
:1010B000800000108400001070B505460C460D48F5
:1010C0000D49086011200D4908700846457001203F
:1010D0008870FF20C87008714C7194FBF0F0887123
:1010E0000020C8710B46044801210268082003F063
:1010F00067FD70BD56F4EC1C8000001084000010E9
:1011000010B53B4801683B48814216D13A483849FE
:101110000A68D2E90034D2E90212C0E90034C0E919
:101120000212334800680021016041608160C160A3
:10113000304890382E49086015E02F492C48046843
:10114000D4E90023D4E90204C1E902040CC128480F
:1011500000680021016041608160C160244800682E
:1011600010302349086024484068244A811A90427C
:1011700029D00CDC2249084470B322490844E0B16C
:10118000B0F5801F22D02049084440BB18E0B1F5DB
:10119000102F1ED0B1F5A01F06D0B1F19B6F09D062
:1011A0001A480844D8B902E0FFF73EFB18E000F007
:1011B000E1FB15E000F02AFB12E000F029F80FE057
:1011C000FFF7FAFA0CE000F04DF809E000F0FCF847
:1011D00006E000F03DF803E0FFF716FB00E000BF7B
:1011E00000BF05480021016041608160C16010BD01
:1011F00074000010601E0010201F0010F456131819
:101200000CA9E1F7000015F80000F9F7000027FB32
:101210000C480078052803D00A48007806280FD12A
:101220000620084908700848007AAA2804D102203C
:10123000064981F8200003E00120044981F82000DC
:1012400070470000DC1A0010201F00107C1A0010EC
:1012500010B5002002498885FFF7B0FE10BD0000E0
:10126000DC1A00105448007807287DD15348007AD2
:10127000534981F82C0051480089000A81F82D005B
:101280004E488068000C81F82E004C488068000EA3
:1012900081F82F004948007B81F830004748808959
:1012A000C0F3012081F83100084690F83100012890
:1012B00004D144484049C863082008703F48C068CA
:1012C0000C2101EA10203E4981F83200084690F8CE
:1012D0003200042804D13B483749C863082008700D
:1012E0003648C068302101EA1020354981F83300C2
:1012F000084690F83300102804D132482E49C863BC
:10130000082008702D48C068C02101EA10202C492F
:1013100081F83400084690F83400402804D1294868
:101320002549C863082008702448C068C0F30140FC
:10133000234981F83500084690F83500012804D18A
:1013400020481D49C863082008701C48C0680C214B
:1013500001EA10401A4981F83600084690F8360034
:10136000042806D1174800E024E01349C863082088
:1013700008701248C068302101EA1040104981F815
:101380003700084690F83700102806D10A4890F830
:101390003500012801D100200887094890F837005E
:1013A00040B9054890F83500012803D100200249D2
:1013B00081F8380070470000DC1A0010201F001070
:1013C0007C1A00101000F4F010B500200A4948857E
:1013D0000846007808280DDC08460078022809DB5A
:1013E000082008700120054981F85B000249C86B9C
:1013F000FFF704FE10BD0000DC1A00107C1A00107C
:1014000010B50246194800EB82342368C3F3034049
:101410000870D80F48701548001D00EB823423680F
:10142000487818B123F06040486002E0C3F30A0036
:1014300048605AB90D48083000EB823423688B604D
:10144000001D00EB82342368CB600CE0012A0AD136
:101450000648083000EB823423688B60001D00EBE7
:1014600082342368CB60012010BD0000204004407E
:1014700070B502460B46581EC3B2334800EB8230AB
:1014800000EB031421683148014031480078000422
:101490002F4E767840EAC670014321602C4845788B
:1014A0002948001D00EB823000EB031421683DB198
:1014B00001F0E0412648406820F06040014306E02A
:1014C0006FF30A0122488088C0F30A0001432160BB
:1014D0001D48083000EB823000EB03141C48806884
:1014E000206019480C3000EB823000EB03141848E0
:1014F000C068206014482C3800EB8234216821F049
:10150000030141F0030121F0E00123B1012B05D0DB
:10151000022B09D105E041F0200106E041F0400135
:1015200003E041F0800100E000BF00BF21600648F9
:10153000283800EB8234216801F0080008B101204E
:1015400070BD0020FCE7000030400440FFFFF03F8A
:10155000101F0010F0B5002445E0244800EB84354E
:101560002F6807F0010000283BD027F001072F600B
:10157000D4B91F4801682046FFF742FF1C480168A4
:101580001C48814203D190381949086004E018488A
:1015900000681030164908601448083800EB84359C
:1015A0002E6846F004062E60012C1AD112480168FC
:1015B0002046FFF725FF104801681048814203D1FB
:1015C00090380D49086004E00B48006810300A4963
:1015D00008600648083800EB84352E6846F004069B
:1015E0002E60601CC4B2022CB7DBF0BD0C4004407E
:1015F00070000010601E001078000010001F001026
:10160000F0B504460D4600BF14B1012C44D11DE0D5
:101610004348006840F400504149C439C1F8C4004F
:101620004048406D20F007003E4948650846406D3F
:1016300040F0040048650846806D20F0070088658A
:101640000846806D40F00400886526E03448006854
:1016500040F480403249C439C1F8C4003148D0F860
:101660001C0120F007002F49C1F81C010846D0F8E2
:101670001C0140F00100C1F81C010846D0F820010F
:1016800020F00700C1F820010846D0F8200140F002
:101690000100C1F8200100E000BF00BF204600F0BB
:1016A00047FB214800EB8436356001201F49086064
:1016B0009CB91D481438406840F00E001A4914398E
:1016C00048600846006940F00100086108468068EB
:1016D00088600846C06887B210E01548406840F04E
:1016E0000E00134948600846006940F00100086197
:1016F0000846806888600846C06887B202200B49A7
:101700000860204602F0C6FA1920012181404209F2
:10171000920002F1E022C2F8001100BFF0BD00000B
:10172000C4C00F4000C002401440044000C0034049
:1017300000800440014631B1012907D0022908D0B8
:1017400003290CD108E00748006870470648006884
:10175000FBE706480068F8E705480068F5E700BFC2
:10176000FEE70000AC000010B0000010B400001054
:10177000B80000100120034981F8370000200870EC
:1017800070470000DC1A001000201C4908701C493A
:1017900008701C490870194981F83800488388830B
:1017A000C883088448848884C88408854885088656
:1017B00041F64C5048824FF4FA60888240F6C410DB
:1017C000C882002008838881C86381F8360081F8C8
:1017D000370081F8340081F835000B4908734873ED
:1017E000087681F8200081F8270081F8280081F828
:1017F0002A0081F82900088770470000DC1A0010D1
:1018000000000010010000107C1A001010B55348B1
:10181000007808287DD2DFE800F0940405062894BB
:101820005A5B8FE08EE04E48007A401EC0EBC0004D
:101830004C4901444A48C2680A60028A8A80807C16
:1018400088714748007A4849497888420CD1464A0D
:1018500051881078FFF70AFCAA20FFF773FB0020DD
:101860003E498883042008706CE03D48007A401EA1
:10187000C0EBC0003D4901443948C2680A60028A91
:101880008A80807C88713948007A3849497AC1EB6E
:10189000012108443449C8830846C08BB0F5FA6F6B
:1018A00002DC4FF4FA60C8832D48007A2E4949794A
:1018B00088420BD12C4AD1881079FFF7D7FBFFF76C
:1018C000B9FBFFF705FB0520244908703AE000BF8B
:1018D000254890F82A0001281ED12148007A401E90
:1018E000C0EBC000224901441D48C2680A60028A58
:1018F0008A80807C88711A48007A1B49497A88421C
:101900000AD1194A5189107AFFF7B0FB0020164915
:1019100000E016E081F82A00134890F82B00012817
:101920000EDB0F48007A1049497A884208D10E4AE6
:101930005189107AFFF79AFB00200B4981F82B00A0
:1019400000E000BF00BF07484078C0EB0020054919
:10195000097808440449C88110BD0000DC1A001051
:10196000201F0010341A00107C1A0010651A001095
:10197000721A001010B57B480078032806D004289E
:1019800029D006284BD0072878D149E07648007A3C
:1019900010281FD17448C06800F47F004FF4007114
:1019A000B1EB102F16D10120704948736E480089A1
:1019B000000A08706C488068000E48706A48C06869
:1019C00000F47F00000A48800A4651885078FFF7EB
:1019D00073FBC4E000BF6448007A10281ED162483F
:1019E000C06800F47F004FF4C061B1EB102F15D137
:1019F00001205E4908765C480089000A08715A484F
:101A00008068000E48715848C06800F47F00000AE2
:101A1000C8800A46D1885079FFF74EFB9FE000BF8F
:101A20005148007A10282AD14F48C06800F47F003E
:101A30004FF48851B1EB102F21D10120494981F891
:101A400036004A4981F82A0081F8290000204549DA
:101A5000C88445480089000A4449087242488068A1
:101A6000000E48724048C06800F47F00000A4881B8
:101A70000A465189507AFFF71FFB6EE06EE03A4844
:101A8000007A102820D13848C06800F47F004FF455
:101A9000A851B1EB102F17D10120344981F82B0048
:101AA00031480089000A08722F488068000E487289
:101AB0002D48C06800F47F00000A48810A46518919
:101AC000507AFFF7F9FA48E02748007A102820D129
:101AD0002548C06800F47F004FF4B051B1EB102FDF
:101AE00017D10220214981F82B001F480089000AE4
:101AF00008721D488068000E48721B48C06800F4D8
:101B00007F00000A48810A465189507AFFF7D4FACB
:101B100023E01548007A10281FD11348C06800F44C
:101B20007F004FF4B851B1EB102F16D103200F49AD
:101B300081F82B000C480089000A08720A48806866
:101B4000000E48720848C06800F47F00000A48810F
:101B50000A465189507AFFF7AFFA00E000BF00BF94
:101B600010BD0000DC1A0010201F00107C1A0010AD
:101B700000221A4B1A601A4A11681A4AB1FBF2F293
:101B8000501E4FF40012C2F89400174AB1FBF2F253
:101B9000C2EB02124FF47A73B2FBF3F2501C124AFA
:101BA000B1FBF2F202EBC203C3EB82124FF47A7381
:101BB000B2FBF3F2521C40EA02200B4AB1FBF2F2F4
:101BC000C2EBC20202EB8202B2FBF3F2521C40EA09
:101BD0000240024A083A1060704700009800200056
:101BE000AC000010D8B8050040420F002DE9F043CA
:101BF000079F1546164694464FF0A058DFF82C91E3
:101C0000C9F8008001F03F09804669F39F184FF43E
:101C10000019C9F8848023B94FF00808C9F88080FA
:101C20001AE0012B0CD14FF009084FF40019C9F844
:101C3000808000F00108B8F1000F0DD0BDE8F083FE
:101C40004FF00A084FF40019C9F8808000F003082B
:101C5000B8F1000F00D0F1E7002462E05BB94FF467
:101C60000018D8F88C8085F800806D1C00F1010800
:101C70001FFA88F019E0012B0BD14FF40018D8F8A7
:101C80008C80A6F80080B61C00F102081FFA88F0CC
:101C90000BE04FF40018D8F88C80CCF800800CF1E1
:101CA000040C00F104081FFA88F000BFDFF87C8004
:101CB000A8F10808D8F80080C8F38068B8F1000FD0
:101CC000F4D04FF08068DFF86490C9F800804028B5
:101CD00026DBA7F10108A04522D9002001F1010867
:101CE0001FFA88F101F03F09804669F39F184FF40D
:101CF0000019C9F8848023B94FF00808C9F880801A
:101D00000EE0012B06D14FF009084FF40019C9F875
:101D1000808005E04FF00A084FF40019C9F8808070
:101D2000641CBC429AD300BF88E70000E80F200083
:101D300008B50146084800EB813210680090009811
:101D400020F00100401C0090009810601068009086
:101D5000009800F0010008BD004004404FF4FA6113
:101D6000C18001214171C1700171002181704170F8
:101D7000017070471E48006C40F040001C49086428
:101D80000846C06D40F04000C8650846006840F451
:101D9000803008600846806940F4803088611448CB
:101DA0008030006820F08070C1F880000846006A2A
:101DB00020F0807008620846006A20F00070086217
:101DC0000846006A20F0806008620846006A20F039
:101DD000006008620846006A20F0805008620846E9
:101DE000D0F8800020F01000C1F88000704700009B
:101DF0000080092010B51248007810281DD1104825
:101E0000407800F01000102817D10D48C0780C4918
:101E1000897800EB01200B4908600948407908499E
:101E2000097900EB0120084908600548C079044998
:101E3000897900EB01200549086002F0EFFA10BD36
:101E4000D01B00101800001010000010140000102B
:101E5000002458E0C82300221146104601F068F91A
:101E600029480078012835D1284A0221102000F0A5
:101E700059F800BF601CC4B200230122194618465D
:101E800001F056F9224A0121102000F04BF8FFF72B
:101E9000B1FF204800680A21B0FBF1F01E49096833
:101EA00088420BD21B4800680A21B0FBF1F01B49A5
:101EB0000968884202D2022013490870142CD9DB29
:101EC00000244FF404320221102000F02BF80220ED
:101ED0000D49087012480078012814D10C4A0121DC
:101EE000102000F01FF800BF601CC4B200230122C4
:101EF0001946184601F01CF9FFF77CFF032CF3DBB1
:101F0000022007490870A5E7000000102010020019
:101F10000504030218000010100000101400001047
:101F2000010000102DE9FC4106460F4615466C469F
:101F300004F8016B04F8017B280E04F8010B280C4F
:101F400004F8010B280A04F8010B04F8015B0621D0
:101F5000684600F00FF804F8010B0621684600F00F
:101F600009F8000A04F8010B0821684602F07AFA21
:101F7000BDE8FC8130B502460B464FF6FF700021EC
:101F800012E0555C684000240AE000F0010525B12C
:101F900040104AF20105684000E04010651CACB2F8
:101FA000082CF2DB4D1CA9B29942EADB30BD0000DF
:101FB0000020C0490861C0490860BE498870BF4917
:101FC00081F838000120BB494870002008706FE19B
:101FD000142300221146104601F0AAF8B548006902
:101FE000401CB4490861B4480068401CB24908600C
:101FF00000F0B2FAAF480069C821B0FBF1F201FB72
:10200000120040B9AB48007828B900231A46194697
:10201000052000F05BF9A74800691921B0FBF1F237
:1020200001FB120000287DD1A448007802287CD151
:10203000A348408BA149498A88420CDCA048408BC8
:102040009E49C8810846C089B0F5FA6F07DC4FF495
:10205000FA60C88103E09948408A9849C881954848
:102060004078C8214843954908829248807888B9C9
:10207000904803780846028AC189022000F026F9B8
:10208000142300221146104601F052F8012089491C
:10209000887007E0874803788848028AC189012050
:1020A00000F014F98548C08982498988401A64285B
:1020B00013DC8448007880B98348006A40F400202B
:1020C000814908620846806B40F400208863012043
:1020D0007A4981F835007B4908707A4800780228EF
:1020E00023D100231A461946042000F0EFF80023FC
:1020F00001221946184601F01BF800206D4988702E
:102100007148006A40F400206F4908620846C06BBD
:1021100040F40020C8630020684981F8350003209E
:10212000684901E0B9E000E00870644800780728D9
:1021300060D1634890F83700102870D15F4890F85C
:102140003800002857D15E48408C5D49C98B8842D1
:1021500004DC5B48C08B3238594948845548807844
:10216000C0B9544803784078C82400FB04F25448AE
:10217000C08B323881B2032000F0A8F8142300226B
:102180001146104600F0D4FF01204A498870FEF73E
:1021900049F911E04A48808C00EB80004000454935
:1021A000497890FBF1F084B2424803784448418C6E
:1021B0002246012000F08AF84148C08B3D498988B9
:1021C000401A64284DDC4048006A40F400203E4933
:1021D00008620846806B40F40020886314230022C4
:1021E0001146104600F0A4FF0120344981F8350063
:1021F00081F8380035E03248808C00EB80004000E8
:102200002C49497890FBF1F084B22A4803782C4895
:10221000418C2246012000F059F822E0FFE72848CF
:1022200090F83700E8B900231A461946042000F058
:102230004DF8224890F83500012812D11F488088B7
:1022400032280EDC2048006A40F400201E49086253
:102250000846C06B40F40020C8630020174981F88D
:10226000350016480078C0B114480078022814D010
:1022700012480078072810D00E488078012805D130
:1022800000231A461946042000F020F80B4890F865
:10229000350010B9002007498870084890F83600CA
:1022A000012805D1FEF782F90020044981F83600A3
:1022B0008EE600001C1B001004000010DC1A001049
:1022C0007C1A001000000010008009202DE9F04168
:1022D00007460C46164698469848007800287BD159
:1022E0000025AEE0062F78D2DFE807F0A703284FDD
:1022F0007890934840EA05209249086041F288307E
:10230000844203DD75209049087002E065208E4903
:10231000087000208C4948708C70200AC8700E71BB
:10232000300A48710C2088711720C8710B46854807
:1023300001210268082002F07FFC7FE0804840EA2B
:1023400005208049086041F28830844203DD112075
:102350007D49087002E001207B49087001207A491C
:102360000870002048708C70200AC8700E71300A06
:1023700048716C2088710720C8710B467148012193
:102380000268082002F058FC58E06D4840EA052039
:102390006C49086041F28830844203DD11206A49AB
:1023A000087002E00320684908700120664908703F
:1023B000002048708C70200AC8700E71300A487175
:1023C0006C2088710720C8710B465E4801210268A5
:1023D000082002F031FC31E039E02EE0584840EAB4
:1023E00005205849086002205749087000204870AD
:1023F0008870C870087148718871C8710B4651485F
:1024000001210268082002F017FC00BF4F4840EA93
:1024100005204C49086000204B49087048708870BE
:10242000C870087148718871C8710B464548012110
:102430000268082002F000FC00E000BF00BF681C3A
:10244000C5B23E484078A8423FF74CAF74E03B48E5
:102450000078012870D100256AE0012F06D0022FF4
:102460002CD0032F41D0042F58D13FE0384840EA08
:102470000520344908600020334908706420604317
:10248000000C487064206043000A88706420604338
:10249000C8700020087164206043000C48716420FB
:1024A0006043000A887164206043C8710B46254868
:1024B00001210268082002F0BFFB30E0254840EA15
:1024C00005202049086000201F4908704870887066
:1024D000C870087148718871C8710B46194801218C
:1024E0000268082002F0A8FB19E018E0194840EA49
:1024F0000520144908600120134908700020487025
:102500008870C870087148718871C8710B460D4891
:1025100001210268082002F08FFB00BF00BF00BF4E
:10252000052300221146104600F002FE681CC5B2C9
:1025300002484078A84290DCBDE8F0811C1B0010E6
:10254000A08001188000001084000010A0804018B6
:10255000F000DB02F000DA0210B5A7480168A748D6
:10256000814216D1A648A4490A68D2E90043D2E9BB
:102570000212C0E90043C0E902129F48006800212E
:10258000016041608160C1609C4890389A49086050
:1025900010E09B49984804681DCC1DC1964800680E
:1025A0000021016041608160C16093480068103083
:1025B0009149086092484068924A811A904271D0CD
:1025C0002CDC914AA0EB020190426CD013DC8F4AC4
:1025D000A0EB0201904267D006DC8D490844002838
:1025E00072D001286ED184E001296CD0894808445A
:1025F0000028F7D1C0E0884A881A914276D006DCDC
:10260000B1F57F4F73D0B1F5803FEBD1DCE0B0F591
:10261000807F6DD0B0F5803FE4D1BAE07F4A881A60
:10262000914239D008DC7E48084405284AD2DFE8C8
:1026300000F0101B21272D00012836D002283AD0A7
:10264000A0F5A3101B38002877D0B0F5807FC9D142
:10265000A6E06B488068000C7249888068488089D1
:1026600080B271490860BFE06548808980B26E49D8
:102670004860B9E06248808980B26B498860B3E005
:102680005F48808980B26849C860ADE05C48808955
:1026900080B265490861A7E05948808980B26249E3
:1026A0004861A1E098E088E035E05548808980B233
:1026B0005D49886198E05248808980B25A49C86172
:1026C00092E001E08FE039E04D48806820F07F40E3
:1026D0006421B0FBF1F0534988804948808980B279
:1026E0000A21B0FBF1F0504908607DE04BE049E081
:1026F0006BE04348806820F07F406421B0FBF1F03C
:10270000484988803E48808980B20A21B0FBF1F0B8
:102710004549486068E03A48806820F07F4064217D
:10272000B0FBF1F03F4988803548808980B20A21AA
:10273000B0FBF1F03C49886056E011E03048806819
:1027400020F07F406421B0FBF1F0364988802C48AE
:10275000808980B20A21B0FBF1F03349C86043E0C0
:102760003248007838B92648007A052803D1FDF7A9
:1027700045FFFDF775FF37E02C48007808B9FDF7F5
:1027800025FE31E030E02948007808B9FDF7E4FE85
:102790002AE02648007810B9FDF708FF24E000BFC2
:1027A00022480078012807D11548007A052803D16E
:1027B000FDF724FFFDF754FF16E01C4800780128C0
:1027C00001D1FDF703FE0FE00EE018480078012864
:1027D00001D1FDF7C1FE07E014480078012801D1BE
:1027E000FDF7E4FE00E000BF00BF054800210160E6
:1027F00041608160C16010BD7C000010001F0010AE
:10280000301F0010A0013310A001301002F0C802E8
:10281000001037FD62EF98F200FF0100E59EED0722
:10282000206112F81C1B0010301B0010241A00102D
:1028300000F01F02012191404209920002F1E022C2
:10284000C2F80011704700001D481E481E481F486E
:102850001F48204820482148214822482248234830
:102860002348244824482548254826482648274800
:10287000274828482848294829482A482A482B48D0
:102880002B482C482C482D482D482E482E482F48A0
:102890002F48304830483148314832483248334870
:1028A0003348344834483548354836483648374840
:1028B0003748384838483948394800BF7047000021
:1028C000644F0000684F00006E4F0000704F000022
:1028D0006C4F0000724F0000744F0000764F0000F4
:1028E000784F00007A4F00007C4F00007E4F0000C0
:1028F000804F0000824F0000844F0000864F000090
:10290000884F00008A4F00008C4F00008E4F00005F
:10291000904F0000924F0000944F0000964F00002F
:10292000984F00009A4F00009C4F00009E4F0000FF
:10293000A04F0000A24F0000A44F0000A64F0000CF
:10294000A84F0000AA4F0000AC4F0000AE4F00009F
:10295000B04F0000B24F0000B44F0000B64F00006F
:10296000BA4F0000BC4F0000BE4F0000C04F000037
:10297000E82D001068320010C44F0000C64F000060
:10298000C84F0000CA4F0000CC4F0000CE4F0000DF
:10299000D04F0000D24F0000D44F0000C24F0000C3
:1029A000D64F000070B505460E4614461048007814
:1029B00010B11220207070BD2878012808D002289C
:1029C00007D0032802D0042804D100E000BF00BFD4
:1029D00000BF02E001202070EDE700BFFDF7C0FB63
:1029E0006E61FDF7C6FB0020207000BFE3E700002A
:1029F000DD00001010B500F019F800F0B1FE00F095
:102A0000D9FE00F0F9FE00F07BFE00F04DFE00F074
:102A10008DFF00F0B7FF00F02FFF00F055FF00F032
:102A200043FC00F009F8FFF70FFF10BD002001493B
:102A300008807047C00000107047000010B51A48A9
:102A4000007801282ED1FDF78BFB1848007820B1C3
:102A500016480078401E1549087014480078F8B9E7
:102A600013480078E0B900F0EDFF124812490978E8
:102A700050F82100114908600F4800781049097882
:102A800088420DD00D480068C06B401C0B49096896
:102A9000C8630C480068401C0A490860FDF78FFBBA
:102AA000FDF767FB10BD0000EA000010DD0000101C
:102AB000DE00001080240010E0000010F80000107C
:102AC000DF000010C400001010B50A48007801288B
:102AD0000FD1FDF745FB0848007840B9074800785A
:102AE000FF2804D205480078401C04490870FDF70F
:102AF00040FB10BDEA000010DD000010DE000010F9
:102B000010B51148007801281CD1FDF729FB0F48AA
:102B10000078A8B10D480078401E0C49087008469E
:102B2000007850B90A48007820B9FDF722FB00F080
:102B300051FF07E0FDF71DFB04E0FDF71AFB01E084
:102B4000FDF717FB10BD0000EA000010DE000010CA
:102B5000DD00001070B505460F48007808B1002070
:102B600070BDFDF7FDFA0D480468006820B10B4800
:102B70000068406809490860FDF7FBFA4CB1032082
:102B8000207025810020606005A06061204600F073
:102B90007DFD2046E4E70000DD000010C8000010C5
:102BA0003F00000070B505460E46144628780328FD
:102BB00002D00120207070BD2F48007810B1022093
:102BC0002070F8E72D48007810B10D202070F2E752
:102BD000FDF7C6FA288938B12889401E2881FDF7FB
:102BE000C8FA00202070E6E72548006890F8340015
:102BF00040F001002249096881F834000020204992
:102C0000096881F835001E4800680663284600F010
:102C1000FFFCFDF7AEFA00F0DDFEFDF7A1FA184863
:102C2000006890F8350020B1012809D0022806D1AB
:102C300002E0002020700BE00E20207008E000BFB2
:102C400029460F48006800F0B1FC0A20207000BF40
:102C500000BF00200A49096881F834000849096862
:102C600081F8350006490968C861054909680862A4
:102C7000FDF77FFA00BF9EE7DD000010DE000010C8
:102C8000F000001010B504462078032801D0012080
:102C900010BDFDF765FAA07A58B10023012219464C
:102CA000204600F03BFCFDF764FA00F093FE0020A4
:102CB000EEE720894FF6FF71884206D22089401C3A
:102CC0002081FDF756FA0020E2E7FDF752FA3320A3
:102CD000DEE7000010B50B48007890B900F0B2FEB6
:102CE000094800780949087009480749097850F8E7
:102CF0002100084908600846006807490860FDF798
:102D000046FA10BDEA000010E0000010DF000010DD
:102D100080240010F8000010F000001010B5022010
:102D200000F0CCF9FDF71CFA002009490860FDF716
:102D300020FA642000F0C2F9FDF712FA0448006896
:102D400004490860012004490870FDF712FA10BD1B
:102D5000EC000010D4000010DC00001070470000F0
:102D60002DE9FE4306460F4690461C46FDF7F8F94E
:102D70001C48007820B1FDF7FCF93C20BDE8FE833B
:102D8000194850F8240048BB0120174941F8240095
:102D9000FDF7EFF9002342463946304600F0F0F8DF
:102DA0008146002000900190034602464946029069
:102DB000204600F05DFE054635B90C480078012834
:102DC0000AD100F007FE07E0FDF7CAF90020064926
:102DD00041F82400FDF7CDF92846CFE7FDF7C9F902
:102DE0002820CBE7DD00001080240010EA0000104E
:102DF0002DE9FF5F81468A4693461C46DDE90F7840
:102E0000129DFDF7ADF92048007828B1FDF7B1F922
:102E10003C2004B0BDE8F09F1C4850F8240070BB73
:102E200001201A4941F82400FDF7A3F92A4641463A
:102E3000384600F021FF2B465A465146484600F0DE
:102E40009FF803901198CDE9008002953A462046FC
:102E50000E9B039900F00CFE064636B90C4800782C
:102E600001280AD100F0B6FD07E0FDF779F900204E
:102E7000064941F82400FDF77CF93046C9E7FFE731
:102E8000FDF777F92820C4E7DD000010802400104A
:102E9000EA000010704770472DE9F04106460F46E2
:102EA00014461348007818B112202070BDE8F08154
:102EB000FDF756F9FF2E03D10E48006890F83660F2
:102EC0000D4850F8265025B9FDF753F943202070DE
:102ED000ECE7012D04D1FDF74CF943202070E5E724
:102EE0002F65FDF746F90020207000BFDEE70000E7
:102EF000DD000010F000001080240010704700007A
:102F00002DE9F04707460D46002028606860FDF770
:102F100027F9FF2F03D11848006890F8367017483A
:102F200050F8274024B9FDF724F94320BDE8F08785
:102F3000012C03D1FDF71DF94320F7E7207C00F0B9
:102F4000010018B9FDF715F94520EFE70026D4F880
:102F50000C90D4F80880FDF70CF900E0761C58F8C6
:102F6000041B0029FAD0B0002860A9EB06008000FD
:102F700068600020DAE70000F000001080240010F4
:102F800070B5044610464FF080750560051F284651
:102F90002C606FF00106051F28462E604FF0123698
:102FA000051F28462E604FF00336051F28462E6069
:102FB0004FF00236051F28462E607610051F284662
:102FC0002E60051F284629604FF01136051F284640
:102FD0002E604FF01036051F28462E604FF0093640
:102FE000051F28462E604FF00836051F28462E6024
:102FF0004FF00736051F28462E604FF00636051F96
:1030000028462E604FF00536051F28462E604FF0EB
:103010000436051F28462E6070BD00002DE9F041E2
:103020000546FDF79DF8FF2D05D11F48006890F873
:103030003650012608E01C48006890F83600A84287
:1030400001D1012600E00026184850F8254024B997
:10305000FDF78FF84820BDE8F081012C03D1FDF782
:1030600088F84320F7E794F838701148C05D94F869
:10307000391088430E49C8550846C05D30B994F8E8
:103080003A100C48007888430A49087094F83400D4
:1030900040F0080084F83400FDF76BF8012E01D1F0
:1030A00000F098FC0020D6E7F0000010802400100B
:1030B000E2000010E10000107047000070B5054606
:1030C0001648007800B170BD1548007800B1FAE7E5
:1030D0000DB3FDF745F81348006890F838401248E2
:1030E000005D1049096891F8391088430E49085568
:1030F0000846005D40B90B48006890F83A100B484C
:103100000078884309490870064800680563FDF7A0
:1031100030F800F05FFC00BFD5E70000DD000010D4
:10312000DE000010F0000010E2000010E1000010CE
:103130002DE9F04105460E4617461C461248007818
:1031400010B15520BDE8F0811048007808B1322058
:10315000F8E74FF47A7060434FF47A71B0FBF1F105
:103160004FF461606843C6EB061200EB82003844FE
:1031700000EB4002C2EBC01001EBC0084046FFF775
:103180009DFF0020DEE70000DD000010DE000010E3
:1031900070B500F06DF8FCF7E3FF2F480068401CA5
:1031A0002D490860FCF7E5FF2C480078012851D133
:1031B0002B48007820B1012804D0022809D103E06F
:1031C00001250BE0002509E00125012024490870B4
:1031D00004E0012500202249087000BF00BF05B9A6
:1031E00070BD2048046831E0FCF7BAFF206B50B393
:1031F000206B401E2063206B28BB94F8340000F045
:10320000370040B114F8340F00F0C80020700120DE
:103210006070343C02E0002084F8350094F83400FB
:1032200000F0080078B93834A0780F4909780843CD
:103230000D49087020780D49085C6178084314F83E
:1032400038190A4A50546469FCF793FF94F8360021
:103250003F28C9D100BFC3E70C010010EA000010ED
:1032600000010010FC000010E1000010E20000105E
:1032700010B507480088401C0549088008460088AA
:10328000642803D30020088000F004F810BD00007B
:10329000C000001010B503480068FFF7F3FC0446B7
:1032A000204610BD1C010010F8B54FF420712848CD
:1032B00000F032FB4021274800F02EFB002514E0EF
:1032C000681C86B205EB8500214901EBC00406EBC2
:1032D000860001EBC00764202070002084F82500E0
:1032E000E7601DA02062681C85B20F2DE8D305EBB6
:1032F0008500174901EBC00464202070002084F889
:103300002500E06014A020620020144908601449E0
:1033100008801020134908800D48134908600120D7
:10332000FFF718FC114908600020FFF713FC104953
:1033300008606A460FA10D480068FFF733FB6A4634
:1033400011A10B480068FFF72DFB00F027F8F8BD2E
:10335000E82D0010683200103F000000140100103A
:1033600012010010100100102001001018010010BF
:103370001C01001075432F4F532D494920546D7285
:103380004C6F636B0000000075432F4F532D49496C
:1033900020546D725369676E616C000000B587B090
:1033A0000320002180220A4BCDE90132CDE9031030
:1033B0004FF6FD703C23074A00900748FFF718FDC1
:1033C00006AA06A13C20FFF767FD07B000BD00007C
:1033D00068300010643200105934000075432F4FDC
:1033E000532D494920546D720000000070B50B4602
:1033F000032580F82550012B05D1154EC569366887
:10340000354445610CE085692DB9114EC5693668B2
:103410003544456104E00E4E8569366835444561A2
:10342000057D05F007040B4D05EBC4010D682DB9B2
:1034300008600025C56001258D8006E00A680860E7
:10344000C26010618D886D1C8D800025056170BD86
:10345000140100106832001008B500BF00BF6A46B2
:1034600000211A480068FFF79DFBFFF72DFB184865
:103470000068401C164908600846007800F00708FC
:10348000144800EBC8073C681AE0E6681049606918
:103490000968884213D1204600F01EF894F82400F1
:1034A000022804D101212046FFF7A0FF02E00220FC
:1034B00084F82500656815B12046A168A847344600
:1034C000002CE2D1FFF71CFBC9E700001C01001033
:1034D000140100106832001030B5057D05F00704B6
:1034E0000D4D05EBC4031D68854205D1C168196007
:1034F00039B100250D6104E00169C268CA6002B1FA
:103500001161012580F825500025C56005619D8861
:103510006D1E9D8030BD0000683200102DE9F04F17
:1035200005460F4690469946A87A1C490E5C05F15F
:103530000B00805D11F800B00BEBC60000F0FF0A35
:10354000174850F82A4000202434E0602760207C8F
:1035500020EA0800207484F81190207C243C00F0BC
:10356000080068B994F83A000E49097808430D49F3
:1035700008700D48805D94F8391008430A49885551
:103580002946204600F012F8206A20B12046216A20
:1035900000F021F8E5615046BDE8F08F644E000070
:1035A00080240010E1000010E200001010B590F837
:1035B000382001F10B039B5C90F83940A34301F1E3
:1035C0000B04A35423469B5C23B98B7A90F83A40B2
:1035D000A3438B7210BDF0B5024612F8384F9578B0
:1035E0005678383A0B4618680FE000F10B073F5D3C
:1035F000B74300F10B0C0CF8047067463F5D17B938
:10360000877AAF4387721B1D18680028EDD1F0BD83
:1036100010B51B4A1268D061194A126892F8383006
:1036200000F10B02D25C164B1B6893F839301A4339
:10363000134B1B6893F8384000F10B031A55827A3C
:103640000F4B1B6893F83A301A4382720C4A126887
:1036500092F838100B4A525C094B1B6893F83930CA
:103660009A43084B5A541A46525C42B9044A1268AB
:1036700092F83A30044A12789A43034B1A7010BDFC
:10368000F0000010E2000010E100001001460022EE
:103690008A72002005E0002301F10B021354421C42
:1036A000D0B20828F7D370472DE9F04150211148D6
:1036B00000F032F900250DE0681C86B20D4800EBE1
:1036C000051400EB06170020207067600AA0E06078
:1036D000681C85B2042DEFD3064800EB05140020CA
:1036E0002070606004A0E060024804490860BDE802
:1036F000F0810000302000103F000000CC000010DE
:1037000070B5F021134800F007F9002411E0601CA7
:1037100085B204EB44000F4901EBC00305EB450003
:1037200001EBC006002018705E600BA05861601CA1
:1037300084B2092CEBD304EB4400064901EBC0032F
:1037400000201870586004A05861084603490860BA
:1037500070BD0000401F00103F000000C8000010B6
:1037600000200A4908600A4908700A4908700A4995
:1037700008700A4908700A4908600A4908600A493D
:1037800008600A4908600A49087070470C01001077
:10379000DD000010DE000010EB000010EA00001059
:1037A000C4000010EC000010D8000010D40000107D
:1037B000DC00001000210A4A1170002004E0002102
:1037C000084A1154411CC8B20828F8D30021064AFF
:1037D0001170064A1170064A1160064A116070475E
:1037E000E1000010E2000010DF000010E000001017
:1037F000F8000010F000001070B54FF4F2611948A5
:1038000000F08AF84FF48071174800F085F8002422
:1038100013E0601CC5B204EB440000EBC400114986
:1038200001EBC00305EB450000EBC50001EBC00652
:103830005E610EA01865601CC4B2152CE9D304EBC0
:10384000440000EBC400074901EBC00300205861AD
:1038500006A018650020064908600248054908606E
:1038600070BD000080250010802400103F00000083
:10387000FC000010F400001000B587B00320002108
:1038800080220A4BCDE90132CDE903104FF6FF70DB
:103890003F23074A00900748FFF7AAFA06AA06A1A5
:1038A0003F20FFF7F9FA07B000BD000080220010AA
:1038B0007C240010993B000075432F4F532D49493C
:1038C0002049646C6500000000B587B0032000212A
:1038D00080220A4BCDE90132CDE903104FF6FE708C
:1038E0003E23074A00900748FFF782FA06AA06A17E
:1038F0003E20FFF7D1FA07B000BD00008020001085
:103900007C220010B93B000075432F4F532D4949CD
:10391000205374617400000004E0002200F8012BC1
:103920004A1E91B20029F8D17047000070B5782185
:103930001148FFF7F1FF00240EE004EB44000E49AC
:1039400001EBC005601C00EB400001EBC0006860AB
:103950000AA06861601C84B2042CEED304EB44001E
:10396000054901EBC0050020686004A068610846B5
:103970000349086070BD0000102D00103F000000DA
:10398000040100102DE9F04160211048FFF7C4FF49
:1039900000240DE0601C86B204EB44000B4901EBEF
:1039A000C00506EB460001EBC0072F60601C84B227
:1039B000032CEFD304EB4400044901EBC0050020C5
:1039C0002860084602490860BDE8F081882D001093
:1039D0000801001010B5FCF7C3FB13480078F8B9D4
:1039E00012480078E0B900F02DF811481149097823
:1039F00050F82100104908600E4800780F490978F6
:103A000088420DD00C480068C06B401C0A49096808
:103A1000C8630B480068401C09490860FCF7C8FBF4
:103A2000FCF7A7FB10BD0000DD000010DE00001059
:103A300080240010E0000010F8000010DF000010EB
:103A4000C40000100649074A1278885C0649095CE0
:103A5000034A515C01EBC001044A11707047000039
:103A6000644E0000E1000010E2000010E0000010D1
:103A70002DE9F05F05460F4690469946DDE90AAB11
:103A8000FCF76EFB3D480468002C72D01C3454F8DF
:103A9000080C3A490860FCF76CFB44F81C7CA576DE
:103AA000002020766076606144F818BC44F810ACC1
:103AB00044F8148C0C9824F80C0C24F80A9C002070
:103AC000E077E810207705F00700E076217F0120FD
:103AD0008840A077E17E0120884060770020206048
:103AE0006060E060A0602062A0626062E0622063CB
:103AF00023A060631C3C002606E0002104F1540072
:103B000040F82610701CC6B2002EF6D02046FFF7F3
:103B100025F92046FFF7BEF9FCF722FB194840F8CB
:103B200025401948006860610020A06116480068BF
:103B300010B1154800688461134804603834A078D7
:103B40001249097808431149087020781049085C27
:103B50006178084314F838190D4A50540D4800781C
:103B6000401C0C490870FCF704FB0020BDE8F09FE6
:103B7000FFE7FCF7FEFA4220F8E70000F40000102F
:103B80003F00000080240010FC000010E100001045
:103B9000E2000010EB00001000BF00BFFCF7E0FAED
:103BA00004480068401C03490860FCF7E2FAFFF78C
:103BB00072F9F3E7EC00001000BF02E0C820FFF745
:103BC0007DFA194800780028F8D018480068642168
:103BD000B0FBF1F0154908600846006828B90020DC
:103BE00013490870FF20FFF719FA00BFFCF7B8FA75
:103BF000104800681049086000200E490860FCF772
:103C0000B8FA0D48006809490968B0FBF1F0C0F145
:103C1000640007490870FFF771F900F00FF864209D
:103C2000FFF74CFAE2E70000DC000010D4000010BF
:103C3000D0000010EC000010D80000107CB500256A
:103C400014E069462846FFF75BF9064666B909485D
:103C500050F8254044B1012C06D0D4E9020100EB14
:103C60008100A0640198E064681CC5B23F2DE8D9CA
:103C70007CBD00008024001002F0010343B102F07B
:103C800002032BB102E0491E002308C00029FAD12B
:103C90007047000008B50246094800EB8231086809
:103CA0000090009820F001000090009808600868DB
:103CB0000090009800F0010080F0010008BD0000B5
:103CC0000040044030B501462E48006840F40070C2
:103CD0002C4AC43AC2F8C4002B48007800F0100007
:103CE00038B12948007840F01000274A5C3A82F841
:103CF0005C000020244A5C3A1072032010700120FE
:103D00001073FF201074C888908748791E4A243A9F
:103D10001070C8781C4A303A10700879121D107063
:103D20008878194A343A10704878121F1070087851
:103D3000121F10700120144A5C3A107311200122E6
:103D4000824043099B0003F1E023C3F8002100BF38
:103D50001222002807DAD3061D0E0C4B00F00F04C8
:103D6000241F1D5503E0D3061C0E094B1C5400BF35
:103D70000120054A5C3A1073032010700120107274
:103D800030BD0000C4C00F405C40024018ED00E0B0
:103D900000E400E0374840693749086035488069E9
:103DA0003649086008460068C0F30B403449C880B3
:103DB00032480088C0F3032048713048007800F092
:103DC0001F00C8702C480068C0F3026008712A48C0
:103DD0000068C0F30440887027480088C0F30520BD
:103DE00048702548007800F03F0008700120214904
:103DF000087024480068401C224908602248008856
:103E0000401C214908802148008F401C1F49088719
:103E10001C4800683C21B0FBF1F201FB120020B904
:103E20001B488089401C1A4988811A4908780978FA
:103E3000491C184A117000EBD0714910A0EB4101E8
:103E400059B11548006C40F0400013490864084619
:103E5000806D40F0400088650AE00F48006C40F03B
:103E600040000D4908640846C06D40F04000C86538
:103E70007047000000400240980000109C000010B5
:103E8000A00000108C000010900000107C1A0010A0
:103E9000DC1A0010A80000100080092000201A4938
:103EA000096841F40011184AC43AC2F8C41016490E
:103EB000E4310968C8B21549C96B21F00701134AFA
:103EC000D1631146C96B41F00201D1631146496CBF
:103ED00021F0070151641146496C41F0020151641F
:103EE0001146896C21F0070191641146896C41F0FB
:103EF0000201916440F60701054A11600821116131
:103F00000221516070470000C4C00F4000C0024051
:103F10000080084000202049096841F480111E4AB1
:103F2000C43AC2F8C4101C49E4310968C8B21B493C
:103F3000D1F8801021F00701184AC2F8801011460C
:103F4000D1F8801041F00401C2F880101146D1F878
:103F5000841021F00701C2F884101146D1F88410B2
:103F600041F00401C2F884101146D1F8901021F0FC
:103F70000701C2F890101146D1F8901041F00401E9
:103F8000064A9032116040F60701054A1160082187
:103F90001161022151607047C4C00F4000C002404F
:103FA00000C00A4021202E49086000BF2C4800684C
:103FB00000F040000028F9D0012029499439086018
:103FC00009202849C1F88400012026498031086071
:103FD000AA2024498C3108605520086000BF214880
:103FE0008830006800F480600028F8D023201D4944
:103FF000A431086001201B49C1F8A000AA2019497A
:10400000AC31086055201749C1F8AC0000BF154815
:10401000A830006800F480600028F8D040F2011059
:104020000F499C39086040F201200E49C1F808018F
:1040300001200B49A03908600220094908310860B5
:1040400009480849C43108608815054928310860C5
:1040500045F23A00034908600020044908607047AF
:10406000A0C10F4000C00F40DE87280408ED00E02B
:1040700008B50E200023124A194600901846FDF795
:10408000B5FD10480068012121EA106018B1002038
:104090000B49087002E0012009490870084880783F
:1040A000094948700648808808810548C0884881C9
:1040B00003480089888102484089C88108BD000002
:1040C000241A0010948009201C1B001001204FF0BE
:1040D0004021086011480078401C10490870087899
:1040E00000EBD0714910A0EB410159B90C480068B0
:1040F00040F000600A4908600846806940F00060AE
:1041000088610AE00648006840F0006004490860E1
:104110000846C06940F00060C8617047A9000010FF
:104120000080092010B51A48006840F002001849C4
:10413000C439C1F8C40002204FF04021486001207A
:104140000860002008678860C86012488861032002
:1041500048610120012181404209920002F1E022E0
:10416000C2F8001100BF0321002807DACA06140EA6
:10417000094A00F00F031B1FD45403E0CA06130EB4
:10418000064A135400BF01204FF04021486010BD83
:10419000C4C00F40009F240018ED00E000E400E0E0
:1041A00010B51B48006840F008001949C439C1F82F
:1041B000C4001848806820F0070016498860084647
:1041C000806840F0010088600846C06820F0070061
:1041D000C8600846C06840F00100C86083200E49EE
:1041E00008730E48006800094FF4E131B0FBF1F4A8
:1041F000200A094908710C7003200873872008728F
:104200000520FEF715FB07200349486010BD00009C
:10421000C4C00F4000C0024000C00040B000001009
:1042200010B50848007810B90748006840B1002070
:10423000044908700449086040210448FBF773FFF3
:1042400010BD00002C00001024000010501B0010B6
:1042500070B500BF47488068C4B2641004F007041A
:10426000032C35D14348057D05F09E0010B141482F
:10427000067870BD05F00100002878D000203E4986
:10428000086016E03C4800683C490968084440283A
:1042900001D3FFF7C5FF3748007837490968374A27
:1042A00012681144364A505433480068401C324961
:1042B0000860314800680828E4D3304800682E4977
:1042C000096808442D49086001202E4908704EE015
:1042D000022C29D100202849086016E026480068F1
:1042E000264909680844402801D3FFF799FF21486F
:1042F000017821480068214A12681044204A11546C
:104300001D480068401C1C4908601B4800680828BC
:10431000E4D31A4800681849096808441749086036
:1043200001201849087022E0062C1BD110E0134828
:104330000068402801D3FFF773FF0E48007810494A
:104340000E4A126888540D480068401C0B490860EA
:104350000848007D00F001000028E8D1012009494B
:10436000087004E0012C02D10248057D00BF00BFA7
:104370007FE7000000C00040200000102400001073
:10438000501B00102C00001010B51F48006840F0B2
:1043900010001D49C439C1F8C4001C48D0F8000100
:1043A00020F007001949C1F800010846D0F80001C3
:1043B00040F00200C1F800010846D0F8040120F0E6
:1043C0000700C1F804010846D0F8040140F00200DB
:1043D0000F49086083200F4908730F4800680009DF
:1043E0004FF41651B0FBF1F4200A0A4908710C7021
:1043F00003200873872008720620FEF719FA0720A9
:104400000449486010BD0000C4C00F4000C0024015
:1044100004C1024000000140B000001010B508487F
:10442000007810B90748006840B1002004490870BE
:104430000449086040210448FBF775FE10BD0000E8
:104440003C00001034000010D01B0010044908701C
:1044500000BF0349097D01F020010029F9D0704710
:104460000000014030B502460B46002404E012F87B
:10447000010BFFF7EBFF641C9C42F8D330BD00003A
:1044800070B500BF47488068C4B2641004F00704E8
:10449000032C35D14348057D05F09E0010B14148FD
:1044A000067870BD05F00100002878D000203E4954
:1044B000086016E03C4800683C4909680844402808
:1044C00001D3FFF7ABFF3748007837490968374A0F
:1044D00012681144364A505433480068401C32492F
:1044E0000860314800680828E4D3304800682E4945
:1044F000096808442D49086001202E4908704EE0E3
:10450000022C29D100202849086016E026480068BE
:10451000264909680844402801D3FFF77FFF214856
:10452000017821480068214A12681044204A115439
:104530001D480068401C1C4908601B48006808288A
:10454000E4D31A4800681849096808441749086004
:1045500001201849087022E0062C1BD110E01348F6
:104560000068402801D3FFF759FF0E480078104932
:104570000E4A126888540D480068401C0B490860B8
:104580000848007D00F001000028E8D10120094919
:10459000087004E0012C02D10248057D00BF00BF75
:1045A0007FE70000000001403000001034000010E0
:1045B000D01B00103C00001010B52248006840F0ED
:1045C00080702049C439C1F8C4001F48806A20F0B7
:1045D00007001D4988620846806A40F00100886231
:1045E0000846C06A20F00700C8620846C06A40F06A
:1045F0000100C8629B20154908731548006800092E
:104600004FF41651B0FBF1F4200A104908710C70F8
:104610001B200873872008720720FEF709F907207E
:104620000A4948600B48D0F8800040F00040094932
:10463000C1F880000846D0F8980040F00040C1F86A
:10464000980010BDC4C00F4000C002400080094067
:10465000B00000100080092010B50848007810B99B
:104660000748006840B10020044908700449086008
:1046700040210448FBF757FD10BD00004C0000101E
:1046800044000010501C001070B500BF47488068FF
:10469000C4B2641004F00704032C35D14348057DEF
:1046A00005F09E0010B14148067870BD05F001008C
:1046B000002878D000203E49086016E03C48006899
:1046C0003C4909680844402801D3FFF7C5FF374833
:1046D000007837490968374A12681144364A5054FD
:1046E00033480068401C3249086031480068082897
:1046F000E4D3304800682E49096808442D49086011
:1047000001202E4908704EE0022C29D100202849B2
:10471000086016E0264800682649096808444028D1
:1047200001D3FFF799FF2148017821480068214A09
:1047300012681044204A11541D480068401C1C494E
:1047400008601B4800680828E4D31A480068184924
:10475000096808441749086001201849087022E0D8
:10476000062C1BD110E013480068402801D3FFF746
:1047700073FF0E48007810490E4A126888540D489D
:104780000068401C0B4908600848007D00F00100EB
:104790000028E8D101200949087004E0012C02D169
:1047A0000248057D00BF00BF7FE700000080094090
:1047B0004000001044000010501C00104C0000107D
:1047C00010B51F48006840F000701D49C439C1F899
:1047D000C4001C48D0F8700220F007001949C1F845
:1047E00070020846D0F8700240F00200C1F8700272
:1047F0000846D0F8740220F00700C1F87402084699
:10480000D0F8740240F002000F49086083200F497D
:1048100008730F48006800094FF4E131B0FBF1F470
:10482000200A0A4908710C70032008738720087257
:104830000820FDF7FDFF07200449486010BD000077
:10484000C4C00F4000C0024074C2024000C0094012
:10485000B000001010B50848007810B9074800688B
:1048600040B1002004490870044908604021044810
:10487000FBF759FC10BD00005C0000105400001054
:10488000D01C001070B500BF47488068C4B26410E7
:1048900004F00704032C35D14348057D05F09E0044
:1048A00010B14148067870BD05F00100002878D0AD
:1048B00000203E49086016E03C4800683C49096811
:1048C0000844402801D3FFF7C5FF3748007837492F
:1048D0000968374A12681144364A50543348006810
:1048E000401C32490860314800680828E4D3304849
:1048F00000682E49096808442D49086001202E49A6
:1049000008704EE0022C29D100202849086016E0EA
:1049100026480068264909680844402801D3FFF763
:1049200099FF2148017821480068214A1268104403
:10493000204A11541D480068401C1C4908601B484F
:1049400000680828E4D31A48006818490968084430
:104950001749086001201849087022E0062C1BD175
:1049600010E013480068402801D3FFF773FF0E489A
:10497000007810490E4A126888540D480068401C9F
:104980000B4908600848007D00F001000028E8D1CC
:1049900001200949087004E0012C02D10248057D7C
:1049A00000BF00BF7FE7000000C0094050000010BA
:1049B00054000010D01C00105C00001010B51F48FF
:1049C000006840F480701D49C439C1F8C4001C4817
:1049D000D0F88C0220F007001949C1F88C02084673
:1049E000D0F88C0240F00400C1F88C020846D0F8E0
:1049F000900220F00700C1F890020846D0F890021B
:104A000040F004000F49086083200F49C8600F4838
:104A1000006800094FF41661B0FBF1F4200A0A495E
:104A20004860E0B208600320C860872088602320C7
:104A3000FDF7FEFE07200449486010BDC4C00F40CA
:104A400000C0024090C2024000400A40B000001086
:104A500010B50848007810B90748006840B1002038
:104A6000044908700449086040210448FBF75BFBD7
:104A700010BD00006C00001064000010501D0010FC
:104A800070B500BF49488068C4B2641004F00704E0
:104A9000032C37D145484069C5B205F09E0018B1D6
:104AA00042480068C6B270BD05F0010000287AD007
:104AB00000203F49086016E03D4800683D4909680C
:104AC0000844402801D3FFF7C3FF3848006838493D
:104AD0000968384A12681144374A5054344800680B
:104AE000401C33490860324800680828E4D3314844
:104AF00000682F49096808442E49086001202F49A1
:104B0000087050E0022C2AD100202949086017E0E3
:104B100027480068274909680844402801D3FFF75F
:104B200097FF22480068C1B221480068214A1268F4
:104B30001044214A11541E480068401C1C4908605A
:104B40001B4800680828E3D31A4800681849096818
:104B500008441849086001201849087023E0062C11
:104B60001BD110E013480068402801D3FFF770FF05
:104B70000E48006810490F4A126888540D480068B2
:104B8000401C0C4908600948406900F001000028F9
:104B9000E8D101200949087005E0012C03D1034840
:104BA0004069C5B200BF00BF7DE7000000400A4079
:104BB0006000001064000010501D00106C00001018
:104BC0002DE9F04105460F4690461E46082D02DDB0
:104BD0000020BDE8F081174805704770C0F80480D8
:104BE000002014498860C860002415E0042C08DA0D
:104BF000305DE10088400F49896808430D498860AD
:104C000008E0305D211FC90088400A49C96808438F
:104C10000849C860601CC4B2AC42E7DB0121002037
:104C2000FCF726FC0123002211461046FEF780FA0D
:104C30000120CEE7101F00102DE9F04105460F4678
:104C400090461E46082D02DD0020BDE8F081174881
:104C500005704770C0F80480002014498860C8605F
:104C6000002415E0042C08DA305DE10088400F498B
:104C7000896808430D49886008E0305D211FC9003C
:104C800088400A49C96808430849C860601CC4B222
:104C9000AC42E7DB01210846FCF7EAFB02230022D5
:104CA00011461046FEF744FA0120CEE7101F00100F
:104CB00002E008C8121F08C1002AFAD170477047E5
:104CC000002001E001C1121F002AFBD17047000043
:104CD00010B5FDF74FF81948FBF7B6FAFFF7DEF805
:104CE000FFF718F9FFF71EFAFCF742FFFFF758FA33
:104CF000FFF74AFBFFF760FCFFF762FDFFF75EFE80
:104D00000F490020FCF77CFC0D490C310120FCF719
:104D100077FC0C48FDF722F80A48FEF7D3FFFFF7AF
:104D2000A7F9FDF767FE0023074A19460748FEF773
:104D300017F8FDF7CFFF002010BD0000801A060015
:104D40000B002F00A0000010B0020010794D0000F1
:104D500010B50446FBF7A4FA10BD10B50446FBF7E6
:104D600083FD10BD10B50446FDF772F810BD10B5F7
:104D70000446FDF71DF910BD00F042F8FDF7CEFF27
:104D800002230E4A00210E48FDF7EAFF05230D4AD3
:104D900000210D48FDF7E4FF08230C4A00210C48D0
:104DA000FDF7DEFF0A230B4A00210B48FDF7D8FF71
:104DB00002E0FF20FEF732F9FBE70000D00500100B
:104DC000514D0000A00D00105B4D0000701500104B
:104DD0006F4D0000201A0010654D000010B5FBF764
:104DE000BFF906480078401C04490870FBF7C1F978
:104DF000FEF7CEF9FDF722FE10BD0000DD00001029
:104E000070B50020FCF796FC04464FF47A70B4FBB2
:104E1000F0F0411EB1F1807F00D31DE021F07F4012
:104E2000401E4FF0E022506150171F22002807DA81
:104E3000D3061E0E094B00F00F052D1F5E5503E033
:104E4000D3061D0E064B1D5400BF00204FF0E0227C
:104E500090610720106100BF70BD000018ED00E0F8
:104E600000E400E000000100020001000300010076
:104E70000200010004000100020001000300010023
:104E80000200010005000100020001000300010012
:104E90000200010004000100020001000300010003
:104EA00002000100060001000200010003000100F1
:104EB00002000100040001000200010003000100E3
:104EC00002000100050001000200010003000100D2
:104ED00002000100040001000200010003000100C3
:104EE00002000100070001000200010003000100B0
:104EF00002000100040001000200010003000100A3
:104F00000200010005000100020001000300010091
:104F10000200010004000100020001000300010082
:104F20000200010006000100020001000300010070
:104F30000200010004000100020001000300010062
:104F40000200010005000100020001000300010051
:104F50000200010004000100020001000300010042
:104F600002000100010000007856341201000A001E
:104F700001001800F0000100010010001400020000
:104F8000050001003F0001000100050001001800BC
:104F9000780001000400010004001800080001006E
:104FA0000400010001000100800001001600010062
:104FB0000100800001000100010040005800E803EA
:104FC0000100230101001000010008000A00280070
:104FD000800208004000C213F84F000000000010DB
:104FE00024010000B04C00001C51000024010010FE
:104FF00084330000C04C00000000000000000000EE
:1050000000000000000000000000000000000000A0
:105010000000000000000000000000000000000090
:105020000000000000000000000000000000000080
:105030000000000000000000000000000000000070
:105040000000000000000000000000000000000060
:105050000000000000000000000000000000000050
:105060000000000000000000D01D0010D01D001046
:10507000701E0010701E00100000000000000000F4
:105080000000000000000000000000000000000020
:105090000000000000000000000000000000000010
:1050A00000000000000E270700879303008793038A
:1050B000006CDC02000000000000000000000000A6
:1050C00000000000000000000000000000000000E0
:1050D00000000000000000000000000000000000D0
:1050E00000000000000000000000000000000000C0
:1050F00000000000000000000000000000000000B0
:10510000000000000000000000000000000000009F
:0C51100000000000000000000000000093
:04000005000000E512
:00000001FF
