:020000040000FA
:10000000A8340010F9000000010100000301000005
:1000100005010000070100000901000000000000C8
:100020000000000000000000000000000B010000C4
:100030000D01000000000000CF010000A94E0000EB
:100040000F010000994100000F0100000F010000A6
:100050000F0100001D4300004D4500005547000002
:10006000514900000F0100000F0100000F010000C6
:100070000F0100000F0100000F0100000F01000040
:100080000F010000613E00000F0100000F010000A1
:100090000F0100000F0100000F0100000F01000020
:1000A0000F010000391500000F0100000F010000D2
:1000B0000F0100000F0100000F0100000F01000000
:1000C0000F0100000F0100000F0100004D4B000068
:1000D0000F0100000F0100000F0100000F010000E0
:1000E0000F010000DFF80CD000F028F800480047AE
:1000F0009D4D0000A8340010054880470548004782
:10010000FEE7FEE7FEE7FEE7FEE7FEE7FEE7FEE7C7
:1001100071400000E5000000D2B201E000F8012BC0
:10012000491EFBD270470022F6E710B513460A4677
:1001300004461946FFF7F0FF204610BD064C074D58
:1001400006E0E06840F0010394E8070098471034A7
:10015000AC42F6D3FFF7CAFFA4500000C450000021
:1001600072B606B42E490A7802F101020A7006BC82
:10017000704706B42A490A78A2F101020A704FF0CA
:100180000001002A08BF81F3108806BC7047254C87
:10019000254D25604FF0000484F30988234C4FF06F
:1001A00001052570224C4FF08055256062B6FEE7B0
:1001B00030B41F4C4FF08055256030BC704730B4D0
:1001C0001B4C4FF08055256030BC704700BFEFF3EB
:1001D000108372B6EFF3098030B1A0F1200080E8FF
:1001E000F00F144C2468206000B5134880475DF878
:1001F00004EB124C124D2E7826700E4C114E3668C0
:100200002660306890E8F00F00F1200080F3098844
:100210004EF0040E83F31088704700BF72B670472B
:10022000BC00001020ED00E00000FFFFEA0000101D
:1002300004ED00E0F000001085310000DF00001048
:10024000E0000010F80000101149096841F48051E5
:100250000F4AC43AC2F8C4100E49D1F8FC1021F07C
:100260009F010C4AC2F8FC101146D1F8FC1041F075
:100270000301C2F8FC1008490968B1FBF0F1491EFE
:10028000202242EA012141F40011044A1160704722
:10029000C4C00F4000C00240B00000100040034046
:1002A00007E0022300221146104602F0A7FF00F0EB
:1002B00027F8F6E710B5014600230A2903DB0021E1
:1002C0006FF07F4010BD0A48006820F0E060084CE5
:1002D00020600748103050F8212002F0804010B113
:1002E0006FF07F40EEE7C2F30B131846EAE7000019
:1002F0000040034010B501F06BFA10BDFFFFFFFF97
:1003000070B50024002511E0052000F04FF800BF73
:10031000052000F03FF80028FAD105B905E00520D6
:10032000FFF7C8FF0646344400BF6D1C652DEBD3B4
:100330006420B4FBF0F4B4F5467F03D201201449E5
:10034000086024E0B4F5956F06D2B4F5467F03D972
:1003500002200F4908601AE040F29A60844207D2F6
:1003600040F20A50844203D90320094908600EE094
:1003700040F66A40844207D240F29A60844203D930
:1003800004200349086002E004200149086070BDB0
:100390001C00001001460A2900DB0021024A52F825
:1003A0002120D00F70470000104003400A2800DBD6
:1003B0000020054909680122824042F08072114301
:1003C000014A1160704700000040034010B5012051
:1003D0000F4908700F48007818B90F480F49086096
:1003E00003E00D48401C0D49086000200C490870CE
:1003F00048708870C870087148718871C8710B4660
:10040000064801210268082004F07CFC10BD0000B1
:10041000DC1A0010241A001000A030108000001018
:100420008400001010B54848007818B9474848497A
:10043000086003E04548401C4549086001204549E3
:1004400008700220487000208870C87008714871D8
:100450008871C8710B463E4801210268082004F0EB
:1004600051FC02203B490870487000208870C87019
:10047000087148718871C8710B46354801210268BE
:10048000082004F03FFC0320324908700220487025
:1004900000208870C870087148718871C8710B4657
:1004A0002B4801210268082004F02CFC0420294973
:1004B00008700220487000208870C8700871487168
:1004C0008871C8710B46224801210268082004F097
:1004D00019FC05201F490870022048700020887010
:1004E000C870087148718871C8710B46184801219D
:1004F0000268082004F006FC062016490870022055
:10050000487000208870C870087148718871C8717F
:100510000B460F4801210268082004F0F3FB072076
:100520000C4908700220487000208870C87008715B
:1005300048718871C8710B4605480121026808207E
:1005400004F0E0FB10BD0000241A001000A03110E0
:10055000800000108400001010B508200E490870BB
:100560000E48007818B90E480E49086003E00C48A0
:10057000401C0C49086000200B49087048708870C6
:10058000C8700871487188710B46064801210268DD
:10059000082004F0B7FB10BDDC1A0010241A00106C
:1005A00000A03210800000108400001010B50F4829
:1005B000007818B90E480F49086003E00C48401C49
:1005C0000C49086000200C49087002204870002087
:1005D0008870C8700871487188710B460548012100
:1005E0000268082004F08EFB10BD0000241A0010E1
:1005F00000A03310800000108400001010B51348D4
:10060000007818B912481349086003E01048401CEC
:100610001049086010480068022803D104200F49DF
:10062000087002E000200D49087000200B49487056
:100630008870C8700871487188710B46054801219F
:100640000268082004F05EFB10BD0000241A0010B0
:1006500000A03418800000101C000010840000105E
:1006600010B54E48007A10B901204D4908704D4828
:10067000007818B94C484D49086003E04A48401CCE
:100680004A49086001204A490870002048704448DF
:100690008078887042484088000AC8704048808846
:1006A000C0F57A6008713E488088C0F57A60000A1B
:1006B00048714048407E88713E4890F82F00C871CC
:1006C0000B463A4801210268082004F01BFB022077
:1006D00037490870374890F82D004870354890F831
:1006E0003E0088703348C08F000AC870002008712F
:1006F0004871304890F8220088712E48408C000ADA
:10070000C8710B46294801210268082004F0FAFA52
:100710000320274908702748808CC0F57A6048700C
:100720002448808CC0F57A60000A8870214890F8CF
:100730002600C8701F4890F83A0008711D48408F85
:10074000000A48711B48808FC0F57A60887119488B
:10075000808FC0F57A60000AC8710B4613480121EA
:100760000268082004F0CEFA0420114908701148EC
:1007700090F8420048700F48B0F84200000A8870B4
:100780000020C870087148718871C8710B4607480D
:1007900001210268082004F0B5FA10BD301F0010D6
:1007A000DC1A0010241A001000A035108000001080
:1007B000840000107C1A001010B51048007806283C
:1007C0001ADB00F013FB0E4800890E4948840C48E0
:1007D00080684FF47A61A1EB10400A498884084888
:1007E000007B81F82600012081F8270081F828008D
:1007F000002002490885888410BD0000DC1A001022
:10080000201F00107C1A00100448806804498842A8
:1008100002D008200349087070470000201F001014
:10082000F0F0F0FCDC1A001001200B4908730B48B3
:10083000007802280FD10A480089488309480078C7
:10084000032808D1054908700846808B401C88831E
:1008500000200449087070477C1A0010DC1A001050
:10086000201F00100000001000F0B2FFB4E20123CE
:1008700000221146104602F0C1FCFE480068022822
:1008800007D0FD480078022803DB0820FA490870E9
:100890000AE0F8480068022806D0F74800780128E6
:1008A00002D10020F449087000F01CFCF2480078E6
:1008B0000B2879D2DFE800F07806435E86A9DFFDD9
:1008C000FCFBFA00FFF716FDEC48006C40F40060FA
:1008D000EA4908640846806D40F400608865642336
:1008E00000221146104602F089FCE448006E40F0F8
:1008F0008060E24908660846806F40F08060886743
:100900000120DD4981F8340064230022114610469D
:1009100002F074FCD948006E40F08070D749086638
:100920000846806F40F080708867002301221946D6
:10093000184602F063FC0220CF4908704BE2CE4813
:10094000408B401CCC4948830846408BFA2190FBE1
:10095000F1F201FB120008B900F094FAC648408B8E
:10096000B0F5FA5F05DBC648007B10B90820C24924
:10097000087030E2C048808B401CBF49888308461D
:10098000808B41F2883188420FDABD48407BC0B984
:10099000B948808BFA2190FBF1F201FB120080B97B
:1009A000002000F0C1FA0CE014E2B348808B41F261
:1009B0008831884205DBB34800F048FA0920AE4987
:1009C000087008E2AC48808B401CAB49888308461D
:1009D000808B41F2883188420ADAA748808BFA215D
:1009E00090FBF1F201FB120010B9AA2000F09CFA72
:1009F000A148808B41F28831884205DBA24800F093
:100A000025FA09209C490870E5E19B48C08B401CF1
:100A10009949C8830846008C401C08840846008C0D
:100A200041F28831884219DA9548007E012821D1A7
:100A30009148C08BFA2190FBF1F201FB120008B93A
:100A400000F038FA8C48008C4FF4FA7190FBF1F208
:100A500001FB120070B900F0DFFA0BE08648008C51
:100A600041F28831884205DB884800F0EFF909201F
:100A700081490870AFE18048408C401C7E49488421
:100A80000846408C4EF66021884247DA7C4890F850
:100A90002800D8BB7A4890F82900B8BB7C48007879
:100AA00058B1012810D002281AD003E08FE149E1A3
:100AB000C5E045E003282FD12DE0002000F054FAD6
:100AC00001207349087028E06B48408CFA2190FBA4
:100AD000F1F201FB120010B9002000F045FA1CE011
:100AE0006548408CFA2190FBF1F201FB120088B9B5
:100AF000634890F82000022809D1AA2000F034FAB7
:100B000007205D4908700020488403E017E00020BA
:100B100000F02AFA01E000E000BF10E05648408CE7
:100B20004EF6602188420ADB554890F820000228E2
:100B300005D0564800F08AF909204F4908704AE16B
:100B40004D48408C401C4C4948840846008D401C50
:100B500008850846808C401C88840846C08C401C50
:100B6000C884474890F8280018B1454890F82900F3
:100B700058BB4148408CFA2190FBF1F201FB120076
:100B800010B9AA2000F0F0F93D4890F8290001289A
:100B90000AD13948808CB0F57A7F05DD3B4800F0FA
:100BA00055F9092034490870354890F82800B8BB39
:100BB0003148C08C41F2883188423FDD334800F033
:100BC00045F909202C49087038E02D4890F8280094
:100BD000012833D12A4890F8290001282ED128482D
:100BE000008FB0F5167F1CDA1020254981F83700F8
:100BF000B8B12148808CB0F57A7F05DD234800F03C
:100C000025F909201C4908701B48C08C41F2883125
:100C1000884213DD1D4800F019F9092016490870B3
:100C20000CE01748008FB0F5167F07DD002014494F
:100C300081F8370010B108200F490870CBE00E484A
:100C4000408D401C0C4948850846808D401C888595
:100C50000B4890F85B00E0BB0846408D0A2190FBF2
:100C6000F1F201FB120018B90349C86B00F0B8F9A2
:100C700001480FE01C000010DC1A00100080092061
:100C80007C1A0010FCC0F0FDFCC0F1FCFCC0F4FCC0
:100C900001000010408D41F28831884251DB4F48FD
:100CA00000F0D4F84E4890F83500012849D14D485D
:100CB000006C40F400604B4908640846C06D40F485
:100CC0000060C8650020464981F835000920087099
:100CD00037E0FFE7444890F85B00012831D14048F5
:100CE00090F83500012814D13D488088322810DC66
:100CF0003C48006C40F400603A4908640846C06D06
:100D000040F40060C8650020354981F835000920AD
:100D100008703348408D0A2190FBF1F201FB12006C
:100D200018B92F49C86B00F05BF92D48808D42F24D
:100D30001071884205DB294800F088F8092028490D
:100D4000087048E0264890F8350001280ED1254863
:100D5000006A40F40020234908620846C06B40F452
:100D60000020C86300201E4981F835001D48006E30
:100D700040F080601B4908660846C06F40F0806004
:100D8000C867002301221946184602F037FA1548B1
:100D9000006C40F40060134908640846C06D40F4DC
:100DA0000060C865002301221946184602F026FAA1
:100DB0000C48006E40F080700A4908660846C06F13
:100DC00040F08070C8670A200549087003E000F011
:100DD000C3FC00E000BF00BF49E50000FCC0F4FC1C
:100DE000DC1A0010008009207C1A001010B513488E
:100DF00013490860134880781349087011484088E7
:100E0000000A48700F488088C0F57A6088700D48E5
:100E10008088C0F57A60000AC8700A48007B0871B3
:100E200008488089000A4871FD2088710B460448F3
:100E300001210268072003F029FF10BD56F41218A3
:100E400080000010DC1A00108400001010B5044669
:100E500009480A490860200E09490870200C4870AA
:100E6000200A8870CC700B460448012102680420D7
:100E700003F00CFF10BD000056F41F0880000010A6
:100E80008400001010B5084808490860012008498E
:100E900008704870002088700B46044801210268E1
:100EA000032003F0F3FE10BD56F426188000001056
:100EB0008400001010B51848184908601848807C54
:100EC000184908701648408A000A48701448007D86
:100ED00088701348808A000AC8701148C08AC0F51B
:100EE0007A6008710E48C08AC0F57A60000A4871BD
:100EF0000B48008BC0F57A6088710948008BC0F5FB
:100F00007A60000AC8710B46044801210268082073
:100F100003F0BCFE10BD000056F40818800000105D
:100F2000DC1A00108400001010B504460B480C4970
:100F300008600C48047001200A494870002088703D
:100F4000C8700871FF2048718871C8710B46044849
:100F500001210268082003F099FE10BD56F4011823
:100F6000800000108400001010B5044609480A49AA
:100F700008601CB900200949087002E0AA2007494E
:100F80000870064B044801210268084603F07EFE03
:100F900010BD000056F40A108000001084000010FC
:100FA00010B50C480C49086000200C4908704870C6
:100FB000012088709920C870012008713D20487177
:100FC0003E2088710B46044801210268082003F086
:100FD0005DFE10BD56F41D18800000108400001046
:100FE00010B5044609480A4908600A490C70200AED
:100FF0004870200C8870200EC8700B4604480121F0
:101000000268042003F042FE10BD000056F41A10DE
:10101000800000108400001010B50A480A490860DA
:10102000FF200A49087048708870C87008714871BC
:101030008871C8710B46044801210268082003F03A
:1010400025FE10BD56F40718800000108400001023
:1010500070B505460C460E480E49086013200E492F
:10106000087008464570002088700220C870FF2074
:1010700008714C7194FBF0F088710020C8710B4628
:10108000044801210268082003F000FE70BD000042
:1010900056F4EC1C800000108400001070B505466A
:1010A0000C460D480D49086011200D49087008468E
:1010B000457001208870FF20C87008714C7194FB46
:1010C000F0F088710020C8710B46044801210268C5
:1010D000082003F0DBFD70BD56F4EC1C800000100E
:1010E0008400001010B53B4801683B48814216D18E
:1010F0003A4838490A68D2E90034D2E90212C0E914
:101100000034C0E9021233480068002101604160E8
:101110008160C160304890382E49086015E02F4941
:101120002C480468D4E90023D4E90204C1E902048C
:101130000CC1284800680021016041608160C160E5
:101140002448006810302349086024484068244A35
:10115000811A904229D00CDC2249084470B32249FC
:101160000844E0B1B0F5801F22D02049084440BBBC
:1011700018E0B1F5102F1ED0B1F5A01F06D0B1F1C7
:101180009B6F09D01A480844D8B902E0FFF74CFB1E
:1011900018E000F011FC15E000F05CFB12E000F03C
:1011A00029F80FE0FFF708FB0CE000F04DF809E02C
:1011B00000F0FCF806E000F03DF803E0FFF724FB48
:1011C00000E000BF00BF0548002101604160816070
:1011D000C16010BD74000010601E0010201F0010C0
:1011E000F45613180CA9E1F7000015F80000F9F700
:1011F000000027FB0C480078052803D00A48007837
:1012000006280FD10620084908700848007AAA2845
:1012100004D10220064981F8200003E0012004499E
:1012200081F8200070470000DC1A0010201F001019
:101230007C1A001010B5002002498885FFF7B0FE27
:1012400010BD0000DC1A00105448007807287DD13A
:101250005348007A534981F82C0051480089000A0C
:1012600081F82D004E488068000C81F82E004C4813
:101270008068000E81F82F004948007B81F830001B
:1012800047488089C0F3012081F83100084690F872
:101290003100012804D144484049C863082008703F
:1012A0003F48C0680C2101EA10203E4981F8320015
:1012B000084690F83200042804D13B483749C863F7
:1012C000082008703648C068302101EA10203549EE
:1012D00081F83300084690F83300102804D13248D2
:1012E0002E49C863082008702D48C068C02101EA53
:1012F00010202C4981F83400084690F8340040282A
:1013000004D129482549C863082008702448C068CA
:10131000C0F30140234981F83500084690F83500B4
:10132000012804D120481D49C863082008701C48C2
:10133000C0680C2101EA10401A4981F836000846BD
:1013400090F83600042806D1174800E024E013493D
:10135000C863082008701248C068302101EA1040B4
:10136000104981F83700084690F83700102806D158
:101370000A4890F83500012801D100200887094863
:1013800090F8370040B9054890F83500012803D19E
:101390000020024981F8380070470000DC1A001074
:1013A000201F00107C1A00101000F4F010B500206F
:1013B0000A4948850846007808280DDC0846007868
:1013C000022809DB082008700120054981F85B002C
:1013D0000249C86BFFF704FE10BD0000DC1A0010C4
:1013E0007C1A001010B50246194800EB82342368BD
:1013F000C3F303400870D80F48701548001D00EB78
:1014000082342368487818B123F06040486002E0D5
:10141000C3F30A0048605AB90D48083000EB823423
:1014200023688B60001D00EB82342368CB600CE0E6
:10143000012A0AD10648083000EB823423688B6009
:10144000001D00EB82342368CB60012010BD00003A
:101450002040044070B502460B46581EC3B23348C4
:1014600000EB823000EB0314216831480140314821
:10147000007800042F4E767840EAC6700143216060
:101480002C4845782948001D00EB823000EB0314FE
:1014900021683DB101F0E0412648406820F06040FD
:1014A000014306E06FF30A0122488088C0F30A0076
:1014B000014321601D48083000EB823000EB03142B
:1014C0001C488068206019480C3000EB823000EB2B
:1014D00003141848C068206014482C3800EB82348C
:1014E000216821F0030141F0030121F0E00123B163
:1014F000012B05D0022B09D105E041F0200106E0C7
:1015000041F0400103E041F0800100E000BF00BF76
:1015100021600648283800EB8234216801F0080079
:1015200008B1012070BD0020FCE7000030400440FD
:10153000FFFFF03F101F0010F0B5002445E02448E5
:1015400000EB84352F6807F0010000283BD027F01E
:1015500001072F60D4B91F4801682046FFF742FFFA
:101560001C4801681C48814203D190381949086021
:1015700004E018480068103016490860144808381C
:1015800000EB84352E6846F004062E60012C1AD13B
:10159000124801682046FFF725FF104801681048EF
:1015A000814203D190380D49086004E00B4800687F
:1015B00010300A4908600648083800EB84352E6868
:1015C00046F004062E60601CC4B2022CB7DBF0BDEE
:1015D0000C40044070000010601E001078000010E5
:1015E000001F0010F0B504460D4600BF14B1012CD9
:1015F00044D11DE04348006840F400504149C439DB
:10160000C1F8C4004048406D20F007003E494865DD
:101610000846406D40F0040048650846806D20F0A3
:10162000070088650846806D40F00400886526E064
:101630003448006840F480403249C439C1F8C400DD
:101640003148D0F81C0120F007002F49C1F81C01D7
:101650000846D0F81C0140F00100C1F81C01084602
:10166000D0F8200120F00700C1F820010846D0F88A
:10167000200140F00100C1F8200100E000BF00BFE0
:10168000204600F07DFB214800EB843635600120C8
:101690001F4908609CB91D481438406840F00E008E
:1016A0001A49143948600846006940F00100086191
:1016B0000846806888600846C06887B210E0154810
:1016C000406840F00E00134948600846006940F049
:1016D000010008610846806888600846C06887B2D3
:1016E00002200B490860204602F03AFB1920012134
:1016F00081404209920002F1E022C2F8001100BFCD
:10170000F0BD0000C4C00F4000C0024014400440BF
:1017100000C0034000800440014631B1012907D0D8
:10172000022908D003290CD108E007480068704757
:1017300006480068FBE706480068F8E705480068C7
:10174000F5E700BFFEE70000AC000010B00000109D
:10175000B4000010B80000100120034981F83700E0
:101760000020087070470000DC1A001070B50546B4
:101770000C461348007818B912481349086003E072
:101780001048FF381049086010490D70280A487049
:101790008C70200AC8700020087148718871084850
:1017A000007810B90A20C87102E00B200749C871FF
:1017B000064B054801210268082003F0A3FA70BD1A
:1017C000241A00100A0B501D800000108400001025
:1017D00000201C4908701C4908701C4908701949F0
:1017E00081F8380048838883C883088448848884C3
:1017F000C88408854885088641F64C5048824FF4D5
:10180000FA60888240F6C410C8820020088388816C
:10181000C86381F8360081F8370081F8340081F818
:1018200035000B4908734873087681F8200081F869
:10183000270081F8280081F82A0081F8290008870C
:1018400070470000DC1A00100000001001000010BA
:101850007C1A001010B55248007808287ED2DFE8C4
:1018600000F0930405062893935A8EE08DE04D48CE
:10187000007A401EC0EBC0004B4901444948C26891
:101880000A60028A8A80807C88714648007A4749CB
:10189000497888420CD1454A51881078FFF7D8FB27
:1018A000AA20FFF741FB00203D49888304200870EF
:1018B0006BE03C48007A401EC0EBC0003C4901444C
:1018C0003848C2680A60028A8A80807C88713848F9
:1018D000007A3749497AC1EB012108443349C8836A
:1018E0000846C08BB0F5FA6F02DC4FF4FA60C8838B
:1018F0002C48007A2D49497988420BD12B4AD1884E
:101900001079FFF7A5FBFFF787FBFFF7D3FA052058
:101910002349087039E0254890F82A0001281ED193
:101920002048007A401EC0EBC000224901441D48F7
:10193000C2680A60028A8A80807C88711948007AAD
:101940001A49497A884204D1184A5189107AFFF716
:101950007FFB0020154981F82A0014E014E01348A9
:1019600090F82B0001280EDB0E48007A0F49497AC7
:10197000884204D10D4A5189107AFFF769FB002093
:101980000A4981F82B0000E000BF00BF06484078FC
:10199000C0EB00200449097808440449C88110BDFF
:1019A000DC1A0010201F0010341A00107C1A0010DE
:1019B000651A0010721A001010B57E4800780328CE
:1019C00023D17D48007A10281FD17B48C06800F4DD
:1019D0007F004FF40071B1EB102F16D10120774931
:1019E000487375480089000A087073488068000EC3
:1019F00048707148C06800F47F00000A48800A46B9
:101A000051885078FFF74AFBD3E06A4800780428F1
:101A100023D16948007A10281FD16748C06800F4B4
:101A20007F004FF4C061B1EB102F16D10120634944
:101A3000087661480089000A08715F488068000ED6
:101A400048715D48C06800F47F00000AC8800A46FB
:101A5000D1885079FFF722FBABE056480078072881
:101A60002DD15548007A102829D15348C06800F478
:101A70007F004FF48851B1EB102F20D101204D4948
:101A800081F836004D4981F82A0081F829000020AC
:101A90004849C88448480089000A484908724648AD
:101AA0008068000E48724448C06800F47F00000A55
:101AB00048810A465189507AFFF7F0FA79E03D48AB
:101AC0000078072824D13C48007A102820D13A48D1
:101AD000C06800F47F004FF4A851B1EB102F17D16C
:101AE0000120364981F82B0033480089000A08722A
:101AF00031488068000E48722F48C06800F47F00AB
:101B0000000A48810A465189507AFFF7C7FA50E027
:101B100028480078072824D12748007A102820D1A7
:101B20002548C06800F47F004FF4B051B1EB102F8E
:101B300017D10220214981F82B001F480089000A93
:101B400008721D488068000E48721B48C06800F487
:101B50007F00000A48810A465189507AFFF79EFAB1
:101B600027E014480078072823D11348007A10286A
:101B70001FD11148C06800F47F004FF4B851B1EB99
:101B8000102F16D103200D4981F82B000A48008937
:101B9000000A087208488068000E48720648C0684B
:101BA00000F47F00000A48810A465189507AFFF705
:101BB00075FA10BDDC1A0010201F00107C1A0010EE
:101BC00000221A4B1A601A4A11681A4AB1FBF2F243
:101BD000501E4FF40012C2F89400174AB1FBF2F203
:101BE000C2EB02124FF47A73B2FBF3F2501C124AAA
:101BF000B1FBF2F202EBC203C3EB82124FF47A7331
:101C0000B2FBF3F2521C40EA02200B4AB1FBF2F2A3
:101C1000C2EBC20202EB8202B2FBF3F2521C40EAB8
:101C20000240024A083A1060704700009800200005
:101C3000AC000010D8B8050040420F002DE9F04379
:101C4000079F1546164694464FF0A058DFF82C9192
:101C5000C9F8008001F03F09804669F39F184FF4EE
:101C60000019C9F8848023B94FF00808C9F88080AA
:101C70001AE0012B0CD14FF009084FF40019C9F8F4
:101C8000808000F00108B8F1000F0DD0BDE8F083AE
:101C90004FF00A084FF40019C9F8808000F00308DB
:101CA000B8F1000F00D0F1E7002462E05BB94FF417
:101CB0000018D8F88C8085F800806D1C00F10108B0
:101CC0001FFA88F019E0012B0BD14FF40018D8F857
:101CD0008C80A6F80080B61C00F102081FFA88F07C
:101CE0000BE04FF40018D8F88C80CCF800800CF191
:101CF000040C00F104081FFA88F000BFDFF87C80B4
:101D0000A8F10808D8F80080C8F38068B8F1000F7F
:101D1000F4D04FF08068DFF86490C9F80080402864
:101D200026DBA7F10108A04522D9002001F1010816
:101D30001FFA88F101F03F09804669F39F184FF4BC
:101D40000019C9F8848023B94FF00808C9F88080C9
:101D50000EE0012B06D14FF009084FF40019C9F825
:101D6000808005E04FF00A084FF40019C9F8808020
:101D7000641CBC429AD300BF88E70000E80F200033
:101D800008B50146084800EB8132106800900098C1
:101D900020F00100401C0090009810601068009036
:101DA000009800F0010008BD004004404FF4FA61C3
:101DB000C18001214171C1700171002181704170A8
:101DC000017070471E48006C40F040001C490864D8
:101DD0000846C06D40F04000C8650846006840F401
:101DE000803008600846806940F48030886114487B
:101DF0008030006820F08070C1F880000846006ADA
:101E000020F0807008620846006A20F000700862C6
:101E10000846006A20F0806008620846006A20F0E8
:101E2000006008620846006A20F080500862084698
:101E3000D0F8800020F01000C1F88000704700004A
:101E40000080092010B51248007810281DD11048D4
:101E5000407800F01000102817D10D48C0780C49C8
:101E6000897800EB01200B4908600948407908494E
:101E7000097900EB0120084908600548C079044948
:101E8000897900EB01200549086002F02DFB10BDA7
:101E9000D01B0010180000101000001014000010DB
:101EA000002458E0C82300221146104601F0A6F98C
:101EB00029480078012835D1284A0221102000F055
:101EC00059F800BF601CC4B200230122194618460D
:101ED00001F094F9224A0121102000F04BF8FFF79D
:101EE000B1FF204800680A21B0FBF1F01E490968E3
:101EF00088420BD21B4800680A21B0FBF1F01B4955
:101F00000968884202D2022013490870142CD9DBD8
:101F100000244FF404320221102000F02BF802209C
:101F20000D49087012480078012814D10C4A01218B
:101F3000102000F01FF800BF601CC4B20023012273
:101F40001946184601F05AF9FFF77CFF032CF3DB22
:101F5000022007490870A5E70000001020100200C9
:101F600005040302180000101000001014000010F7
:101F7000010000102DE9FC4106460F4615466C464F
:101F800004F8016B04F8017B280E04F8010B280CFF
:101F900004F8010B280A04F8010B04F8015B062180
:101FA000684600F00FF804F8010B0621684600F0BF
:101FB00009F8000A04F8010B0821684602F0B8FA93
:101FC000BDE8FC8130B502460B464FF6FF7000219C
:101FD00012E0555C684000240AE000F0010525B1DC
:101FE00040104AF20105684000E04010651CACB2A8
:101FF000082CF2DB4D1CA9B29942EADB30BD00008F
:102000000020DE490861DE490860DC498870DD494E
:1020100081F838000120D949487000200870ACE1EF
:102020000A2300221146104601F0E8F8D34800695F
:10203000401CD2490861D2480068401CD049086061
:1020400000F0F0FACD480069C821B0FBF1F201FBC5
:10205000120040B9C948007828B900231A46194629
:10206000052000F099F9C54800691921B0FBF1F28B
:1020700001FB120000287DD1C248007802287CD1E3
:10208000C148408BBF49498A88420CDCBE48408B1E
:10209000BC49C8810846C089B0F5FA6F07DC4FF427
:1020A000FA60C88103E0B748408AB649C881B3489E
:1020B0004078C8214843B3490882B048807888B93D
:1020C000AE4803780846028AC189022000F064F90C
:1020D000142300221146104601F090F80120A74970
:1020E000887007E0A5480378A648028AC1890120C4
:1020F00000F052F9A348C089A0498988401A642891
:1021000013DCA248007880B9A148006A40F400209E
:102110009F4908620846806B40F4002088630120D4
:10212000984981F835009949087098480078022844
:1021300023D100231A461946042000F02DF900236C
:1021400001221946184601F059F800208B49887081
:102150008F48006A40F400208D4908620846C06B31
:1021600040F40020C8630020864981F83500032030
:10217000864901E0F6E000E0087082480078072810
:1021800065D1814890F837001028F9D17E4890F841
:10219000370010287ED17B4890F83800002857D1AE
:1021A0007948408C7849C98B884204DC7648C08BDA
:1021B00032387549488471488078C0B96F480378CF
:1021C0004078C82400FB04F26F48C08B323881B2DB
:1021D000032000F0E1F8142300221146104601F01C
:1021E0000DF8012065498870FEF71CF911E066487A
:1021F000808C00EB800040006049497890FBF1F052
:1022000084B25E4803786048418C2246012000F089
:10221000C3F85D48C08B59498988401A642816DC88
:102220005B48006A40F40020594908620846806B08
:1022300040F400208863142300221146104600F069
:10224000DDFF01204F4981F8350081F838006DE04D
:102250005048007870BB4C48808C00EB80004000F8
:102260004649497890FBF1F084B2444803784648E7
:10227000418C2246012000F08FF84348408C3F49B2
:102280008989484300EB800040003C494978484335
:102290003D4900E028E0498C3B4A928C514301EBD8
:1022A0008101B0EB410F41DC374A918C508CFFF734
:1022B0005DFA3BE037480078012837D13248808CFE
:1022C00000EB800040002D49497890FBF1F404EBCD
:1022D000D470C0F34F05294803782B48418C2A4617
:1022E000012000F059F821E0274890F83700E8B9BC
:1022F00000231A461946042000F04EF8214890F8B1
:102300003500012812D11F48808832280EDC204871
:10231000006C40F400601E4908640846C06D40F43B
:102320000060C8650020174981F83500154800781D
:10233000C0B114480078022814D012480078072849
:1023400010D00E488078012805D100231A4619467E
:10235000042000F021F80B4890F8350010B9002057
:1023600006498870074890F83600012805D1FEF725
:102370001DF90020034981F8360051E61C1B0010AE
:1023800004000010DC1A00107C1A0010000000107D
:10239000008009200C0000102DE9F04107460C4692
:1023A000164698469848007800287BD10025AEE074
:1023B000062F78D2DFE807F0A703284F78909348DC
:1023C00040EA05209249086041F28830844203DDEA
:1023D00075209049087002E065208E490870002041
:1023E0008C4948708C70200AC8700E71300A487190
:1023F0000C2088711720C8710B468548012102689E
:10240000082002F07FFC7FE0804840EA05208049F8
:10241000086041F28830844203DD11207D49087054
:1024200002E001207B49087001207A4908700020F1
:1024300048708C70200AC8700E71300A48716C2088
:1024400088710720C8710B46714801210268082075
:1024500002F058FC58E06D4840EA05206C490860DD
:1024600041F28830844203DD11206A49087002E09D
:1024700003206849087001206649087000204870F0
:102480008C70200AC8700E71300A48716C208871F7
:102490000720C8710B465E4801210268082002F03F
:1024A00031FC31E039E02EE0584840EA0520584937
:1024B0000860022057490870002048708870C87072
:1024C000087148718871C8710B4651480121026832
:1024D000082002F017FC00BF4F4840EA05204C4995
:1024E000086000204B49087048708870C8700871F7
:1024F00048718871C8710B4645480121026808205F
:1025000002F000FC00E000BF00BF681CC5B23E48FE
:102510004078A8423FF74CAF74E03B480078012870
:1025200070D100256AE0012F06D0022F2CD0032F96
:1025300041D0042F58D13FE0384840EA05203449C3
:10254000086000203349087064206043000C487024
:1025500064206043000A887064206043C8700020D3
:10256000087164206043000C487164206043000AD5
:10257000887164206043C8710B46254801210268B8
:10258000082002F0BFFB30E0254840EA0520204942
:10259000086000201F49087048708870C870087172
:1025A00048718871C8710B461948012102680820DA
:1025B00002F0A8FB19E018E0194840EA0520144988
:1025C0000860012013490870002048708870C870A6
:1025D000087148718871C8710B460D480121026865
:1025E000082002F08FFB00BF00BF00BF05230022C0
:1025F0001146104600F002FE681CC5B20248407841
:10260000A84290DCBDE8F0811C1B0010A0800118DE
:102610008000001084000010A0804018F000DB0251
:10262000F000DA0210B5A6480168A648814214D12C
:10263000A548A349096891E81C00C96880E81C0006
:10264000C1609F4800680021016041608160C160F5
:102650009C4890389A49086010E09B4898490C685B
:102660001ECC1EC096480068002101604160816058
:10267000C1609348006810309149086092484068F2
:10268000924A811A904270D02CDC914AA0EB020150
:1026900090426BD013DC8F4AA0EB0201904272D0C3
:1026A00006DC8D490844002871D001286DD183E0F3
:1026B00001296BD0894808440028F7D1BFE0884A37
:1026C000881A914275D006DCB1F57F4F72D0B1F512
:1026D000803FEBD1DBE0B0F5807F6CD0B0F5803F80
:1026E000E4D1B9E07F4A881A914238D008DC7E48AC
:1026F0000844052849D2DFE800F00F1A20262C00F4
:10270000012834D0022838D078490844002877D0EE
:10271000B0F5807FCAD1A6E06B488068000C744990
:1027200088806948808980B272490860BFE0664845
:10273000808980B26F494860B9E06348808980B27F
:102740006C498860B3E06048808980B26949C8609C
:10275000ADE05D48808980B266490861A7E05A48CB
:10276000808980B263494861A1E098E088E05648DA
:10277000808980B25F49886199E05348808980B23E
:102780005C49C86193E029E001E08FE039E04E4800
:10279000806820F07F406421B0FBF1F054498880CC
:1027A0004948808980B20A21B0FBF1F051490860A4
:1027B0007DE04BE049E06BE04348806820F07F40DB
:1027C0006421B0FBF1F04A4988803F48808980B29B
:1027D0000A21B0FBF1F04749486068E03A48806858
:1027E00020F07F406421B0FBF1F0414988803648F9
:1027F000808980B20A21B0FBF1F03E49886056E042
:1028000011E03148806820F07F406421B0FBF1F096
:10281000374988802C48808980B20A21B0FBF1F0CA
:102820003449C86043E03448007838B92648007A13
:10283000052803D1FDF7E2FEFDF712FF37E02E4831
:10284000007808B9FDF7C2FD31E030E02A48007891
:1028500008B9FDF781FE2AE02748007810B9FDF796
:10286000A5FE24E000BF24480078012807D11648BF
:10287000007A052803D1FDF7C1FEFDF7F1FE16E051
:102880001D480078012801D1FDF7A0FD0FE00EE002
:1028900019480078012801D1FDF75EFE07E01648CF
:1028A0000078012801D1FDF781FE00E000BF00BFE4
:1028B00005480021016041608160C16010BD0000D9
:1028C0007C000010001F0010301F0010A00133100A
:1028D000A001301002F0C802001037FD62EF98F23C
:1028E00000FF0100E59EED07206112F8E59FDAFF89
:1028F0001C1B0010301B0010241A001000F01F02D7
:10290000012191404209920002F1E022C2F8001137
:10291000704700001D481E481E481F481F48204899
:102920002048214821482248224823482348244857
:102930002448254825482648264827482748284827
:102940002848294829482A482A482B482B482C48F7
:102950002C482D482D482E482E482F482F483048C7
:102960003048314831483248324833483348344897
:102970003448354835483648364837483748384867
:1029800038483948394800BF7047000030500000CF
:10299000345000003A5000003C5000003850000015
:1029A0003E500000405000004250000044500000E3
:1029B00046500000485000004A5000004C500000B3
:1029C0004E50000050500000525000005450000083
:1029D00056500000585000005A5000005C50000053
:1029E0005E50000060500000625000006450000023
:1029F00066500000685000006A5000006C500000F3
:102A00006E500000705000007250000074500000C2
:102A100076500000785000007A5000007C50000092
:102A20007E50000080500000825000008650000060
:102A3000885000008A5000008C500000E82D0010E3
:102A40006832001090500000925000009450000036
:102A500096500000985000009A5000009C500000D2
:102A60009E500000A05000008E500000A2500000B8
:102A700070B505460E4614461048007810B1122075
:102A8000207070BD2878012808D0022807D00328BC
:102A900002D0042804D100E000BF00BF00BF02E064
:102AA00001202070EDE700BFFDF75AFB6E61FDF7D6
:102AB00060FB0020207000BFE3E70000DD00001095
:102AC00010B500F019F800F0B1FE00F0D9FE00F0EA
:102AD000F9FE00F07BFE00F04DFE00F08DFF00F0EF
:102AE000B7FF00F02FFF00F055FF00F043FC00F0AF
:102AF00009F8FFF70FFF10BD00200149088070475B
:102B0000C00000107047000010B51A480078012876
:102B10002ED1FDF725FB1848007820B11648007823
:102B2000401E1549087014480078F8B91348007819
:102B3000E0B900F0EDFF12481249097850F8210081
:102B4000114908600F4800781049097888420DD073
:102B50000D480068C06B401C0B490968C8630C48ED
:102B60000068401C0A490860FDF729FBFDF701FBDE
:102B700010BD0000EA000010DD000010DE000010B3
:102B800080240010E0000010F8000010DF000010AA
:102B9000C400001010B50A48007801280FD1FDF7D5
:102BA000DFFA0848007840B907480078FF2804D2C7
:102BB00005480078401C04490870FDF7DAFA10BD9A
:102BC000EA000010DD000010DE00001010B5114812
:102BD000007801281CD1FDF7C3FA0F480078A8B18E
:102BE0000D480078401E0C4908700846007850B91E
:102BF0000A48007820B9FDF7BCFA00F051FF07E061
:102C0000FDF7B7FA04E0FDF7B4FA01E0FDF7B1FA19
:102C100010BD0000EA000010DE000010DD00001012
:102C200070B505460F48007808B1002070BDFDF76B
:102C300097FA0D480468006820B10B4800684068A6
:102C400009490860FDF795FA4CB1032020702581F1
:102C50000020606005A06061204600F07DFD2046F8
:102C6000E4E70000DD000010C80000103F00000095
:102C700070B505460E4614462878032802D0012078
:102C8000207070BD2F48007810B102202070F8E746
:102C90002D48007810B10D202070F2E7FDF760FAA2
:102CA000288938B12889401E2881FDF762FA002062
:102CB0002070E6E72548006890F8340040F00100F5
:102CC0002249096881F8340000202049096881F808
:102CD00035001E4800680663284600F0FFFCFDF73B
:102CE00048FA00F0DDFEFDF73BFA1848006890F85E
:102CF000350020B1012809D0022806D102E00020C9
:102D000020700BE00E20207008E000BF29460F481D
:102D1000006800F0B1FC0A20207000BF00BF002056
:102D20000A49096881F834000849096881F83500C2
:102D300006490968C861054909680862FDF719FA7A
:102D400000BF9EE7DD000010DE000010F000001064
:102D500010B504462078032801D0012010BDFDF7EE
:102D6000FFF9A07A58B1002301221946204600F04D
:102D70003BFCFDF7FEF900F093FE0020EEE7208912
:102D80004FF6FF71884206D22089401C2081FDF752
:102D9000F0F90020E2E7FDF7ECF93320DEE7000070
:102DA00010B50B48007890B900F0B2FE09480078E1
:102DB0000949087009480749097850F8210008496D
:102DC00008600846006807490860FDF7E0F910BD93
:102DD000EA000010E0000010DF0000108024001066
:102DE000F8000010F000001010B5022000F0CCF93F
:102DF000FDF7B6F9002009490860FDF7BAF964202B
:102E000000F0C2F9FDF7ACF9044800680449086015
:102E1000012004490870FDF7ACF910BDEC0000106A
:102E2000D4000010DC000010704700002DE9FE43C4
:102E300006460F4690461C46FDF792F91C4800785E
:102E400020B1FDF796F93C20BDE8FE83194850F803
:102E5000240048BB0120174941F82400FDF789F9F7
:102E6000002342463946304600F0F0F88146002003
:102E7000009001900346024649460290204600F029
:102E80005DFE054635B90C48007801280AD100F0EE
:102E900007FE07E0FDF764F90020064941F8240029
:102EA000FDF767F92846CFE7FDF763F92820CBE760
:102EB000DD00001080240010EA0000102DE9FF5F03
:102EC00081468A4693461C46DDE90F78129DFDF740
:102ED00047F92048007828B1FDF74BF93C2004B0B1
:102EE000BDE8F09F1C4850F8240070BB01201A492F
:102EF00041F82400FDF73DF92A464146384600F0E6
:102F000021FF2B465A465146484600F09FF8039051
:102F10001198CDE9008002953A4620460E9B039910
:102F200000F00CFE064636B90C48007801280AD19C
:102F300000F0B6FD07E0FDF713F90020064941F85F
:102F40002400FDF716F93046C9E7FFE7FDF711F950
:102F50002820C4E7DD00001080240010EA000010E3
:102F6000704770472DE9F04106460F461446134856
:102F7000007818B112202070BDE8F081FDF7F0F85C
:102F8000FF2E03D10E48006890F836600D4850F8C7
:102F9000265025B9FDF7EDF843202070ECE7012D10
:102FA00004D1FDF7E6F843202070E5E72F65FDF733
:102FB000E0F80020207000BFDEE70000DD00001018
:102FC000F000001080240010704700002DE9F04749
:102FD00007460D46002028606860FDF7C1F8FF2F06
:102FE00003D11848006890F83670174850F8274009
:102FF00024B9FDF7BEF84320BDE8F087012C03D1CA
:10300000FDF7B7F84320F7E7207C00F0010018B97E
:10301000FDF7AFF84520EFE70026D4F80C90D4F880
:103020000880FDF7A6F800E0761C58F8041B00297C
:10303000FAD0B0002860A9EB06008000686000208C
:10304000DAE70000F00000108024001070B504469C
:1030500010464FF080750560051F28462C606FF004
:103060000106051F28462E604FF01236051F284620
:103070002E604FF00336051F28462E604FF00236B3
:10308000051F28462E607610051F28462E60051F56
:10309000284629604FF01136051F28462E604FF054
:1030A0001036051F28462E604FF00936051F2846AA
:1030B0002E604FF00836051F28462E604FF0073669
:1030C000051F28462E604FF00636051F28462E6045
:1030D0004FF00536051F28462E604FF00436051FB9
:1030E00028462E6070BD00002DE9F0410546FDF731
:1030F00037F8FF2D05D11F48006890F8365001269B
:1031000008E01C48006890F83600A84201D101266A
:1031100000E00026184850F8254024B9FDF729F8AA
:103120004820BDE8F081012C03D1FDF722F84320AF
:10313000F7E794F838701148C05D94F83910884367
:103140000E49C8550846C05D30B994F83A100C488D
:10315000007888430A49087094F8340040F0080069
:1031600084F83400FDF705F8012E01D100F098FC39
:103170000020D6E7F000001080240010E2000010CC
:10318000E10000107047000070B505461648007851
:1031900000B170BD1548007800B1FAE70DB3FCF737
:1031A000DFFF1348006890F838401248005D10496E
:1031B000096891F8391088430E4908550846005DA2
:1031C00040B90B48006890F83A100B4800788843E3
:1031D00009490870064800680563FCF7CAFF00F05B
:1031E0005FFC00BFD5E70000DD000010DE0000102E
:1031F000F0000010E2000010E10000102DE9F041A5
:1032000005460E4617461C461248007810B1552058
:10321000BDE8F0811048007808B13220F8E74FF49B
:103220007A7060434FF47A71B0FBF1F14FF4616052
:103230006843C6EB061200EB8200384400EB400204
:10324000C2EBC01001EBC0084046FFF79DFF002015
:10325000DEE70000DD000010DE00001070B500F0B9
:103260006DF8FCF77DFF2F480068401C2D49086071
:10327000FCF77FFF2C480078012851D12B480078BB
:1032800020B1012804D0022809D103E001250BE078
:10329000002509E0012501202449087004E00125EA
:1032A00000202249087000BF00BF05B970BD20484A
:1032B000046831E0FCF754FF206B50B3206B401ED4
:1032C0002063206B28BB94F8340000F0370040B135
:1032D00014F8340F00F0C800207001206070343CF6
:1032E00002E0002084F8350094F8340000F0080073
:1032F00078B93834A0780F49097808430D49087027
:1033000020780D49085C6178084314F838190A4A96
:1033100050546469FCF72DFF94F836003F28C9D15A
:1033200000BFC3E70C010010EA000010000100100C
:10333000FC000010E1000010E200001010B507488A
:103340000088401C0549088008460088642803D38B
:103350000020088000F004F810BD0000C00000103C
:1033600010B503480068FFF7F3FC0446204610BD83
:103370001C010010F8B54FF42071284800F032FB12
:103380004021274800F02EFB002514E0681C86B27F
:1033900005EB8500214901EBC00406EB860001EB3B
:1033A000C00764202070002084F82500E7601DA07D
:1033B0002062681C85B20F2DE8D305EB8500174904
:1033C00001EBC00464202070002084F82500E06038
:1033D00014A02062002014490860144908801020BD
:1033E000134908800D48134908600120FFF718FCB5
:1033F000114908600020FFF713FC104908606A4675
:103400000FA10D480068FFF733FB6A4611A10B4876
:103410000068FFF72DFB00F027F8F8BDE82D00103D
:10342000683200103F00000014010010120100106B
:103430001001001020010010180100101C010010E4
:1034400075432F4F532D494920546D724C6F636B58
:103450000000000075432F4F532D494920546D72D1
:103460005369676E616C000000B587B003200021CE
:1034700080220A4BCDE90132CDE903104FF6FD70F1
:103480003C23074A00900748FFF718FD06AA06A14B
:103490003C20FFF767FD07B000BD0000683000105A
:1034A000643200102535000075432F4F532D4949D4
:1034B00020546D720000000070B50B46032580F8A3
:1034C0002550012B05D1154EC56936683544456137
:1034D0000CE085692DB9114EC569366835444561E2
:1034E00004E00E4E8569366835444561057D05F07A
:1034F00007040B4D05EBC4010D682DB908600025CC
:10350000C56001258D8006E00A680860C260106110
:103510008D886D1C8D800025056170BD1401001023
:103520006832001008B500BF00BF6A4600211A4883
:103530000068FFF79DFBFFF72DFB18480068401C53
:10354000164908600846007800F00708144800EBA8
:10355000C8073C681AE0E668104960690968884253
:1035600013D1204600F01EF894F82400022804D15C
:1035700001212046FFF7A0FF02E0022084F8250089
:10358000656815B12046A168A8473446002CE2D1F1
:10359000FFF71CFBC9E700001C010010140100101C
:1035A0006832001030B5057D05F007040D4D05EBC0
:1035B000C4031D68854205D1C168196039B1002571
:1035C0000D6104E00169C268CA6002B111610125A0
:1035D00080F825500025C56005619D886D1E9D8081
:1035E00030BD0000683200102DE9F04F05460F464F
:1035F00090469946A87A1C490E5C05F10B00805D47
:1036000011F800B00BEBC60000F0FF0A174850F8A5
:103610002A4000202434E0602760207C20EA080053
:10362000207484F81190207C243C00F0080068B9D4
:1036300094F83A000E49097808430D4908700D487E
:10364000805D94F8391008430A4988552946204678
:1036500000F012F8206A20B12046216A00F021F81B
:10366000E5615046BDE8F08F304F00008024001027
:10367000E1000010E200001010B590F8382001F1D0
:103680000B039B5C90F83940A34301F10B04A35456
:1036900023469B5C23B98B7A90F83A40A3438B7204
:1036A00010BDF0B5024612F8384F95785678383A82
:1036B0000B4618680FE000F10B073F5DB74300F1C0
:1036C0000B0C0CF8047067463F5D17B9877AAF435F
:1036D00087721B1D18680028EDD1F0BD10B51B4A7C
:1036E0001268D061194A126892F8383000F10B0262
:1036F000D25C164B1B6893F839301A43134B1B6886
:1037000093F8384000F10B031A55827A0F4B1B686F
:1037100093F83A301A4382720C4A126892F83810C1
:103720000B4A525C094B1B6893F839309A43084B9B
:103730005A541A46525C42B9044A126892F83A3016
:10374000044A12789A43034B1A7010BDF00000101F
:10375000E2000010E1000010014600228A72002001
:1037600005E0002301F10B021354421CD0B20828DB
:10377000F7D370472DE9F0415021114800F032F99C
:1037800000250DE0681C86B20D4800EB051400EB27
:1037900006170020207067600AA0E060681C85B2F0
:1037A000042DEFD3064800EB051400202070606064
:1037B00004A0E060024804490860BDE8F081000010
:1037C000302000103F000000CC00001070B5F02148
:1037D000134800F007F9002411E0601C85B204EBE7
:1037E00044000F4901EBC00305EB450001EBC006A7
:1037F000002018705E600BA05861601C84B2092C18
:10380000EBD304EB4400064901EBC0030020187021
:10381000586004A0586108460349086070BD000064
:10382000401F00103F000000C800001000200A499F
:1038300008600A4908700A4908700A4908700A496C
:1038400008700A4908600A4908600A4908600A497C
:1038500008600A49087070470C010010DD00001074
:10386000DE000010EB000010EA000010C4000010A1
:10387000EC000010D8000010D4000010DC00001094
:1038800000210A4A1170002004E00021084A115466
:10389000411CC8B20828F8D30021064A1170064A14
:1038A0001170064A1160064A11607047E10000106D
:1038B000E2000010DF000010E0000010F80000102F
:1038C000F000001070B54FF4F261194800F08AF86A
:1038D0004FF48071174800F085F8002413E0601C55
:1038E000C5B204EB440000EBC400114901EBC00376
:1038F00005EB450000EBC50001EBC0065E610EA0C4
:103900001865601CC4B2152CE9D304EB440000EB2D
:10391000C400074901EBC0030020586106A01865E8
:1039200000200649086002480549086070BD000093
:1039300080250010802400103F000000FC000010D3
:10394000F400001000B587B00320002180220A4B4C
:10395000CDE90132CDE903104FF6FF703F23074A4E
:1039600000900748FFF7AAFA06AA06A13F20FFF732
:10397000F9FA07B000BD0000802200107C2400107E
:10398000653C000075432F4F532D49492049646C15
:103990006500000000B587B00320002180220A4B9B
:1039A000CDE90132CDE903104FF6FE703E23074A00
:1039B00000900748FFF782FA06AA06A13E20FFF70B
:1039C000D1FA07B000BD0000802000107C2200105A
:1039D000853C000075432F4F532D49492053746196
:1039E0007400000004E0002200F8012B4A1E91B28E
:1039F0000029F8D17047000070B578211148FFF711
:103A0000F1FF00240EE004EB44000E4901EBC00579
:103A1000601C00EB400001EBC00068600AA0686118
:103A2000601C84B2042CEED304EB4400054901EB86
:103A3000C0050020686004A068610846034908606A
:103A400070BD0000102D00103F00000004010010A8
:103A50002DE9F04160211048FFF7C4FF00240DE07C
:103A6000601C86B204EB44000B4901EBC00506EB79
:103A7000460001EBC0072F60601C84B2032CEFD31B
:103A800004EB4400044901EBC0050020286008460F
:103A900002490860BDE8F081882D0010080100107F
:103AA00010B5FCF75DFB13480078F8B912480078B0
:103AB000E0B900F02DF811481149097850F82100BB
:103AC000104908600E4800780F49097888420DD0E7
:103AD0000C480068C06B401C0A490968C8630B4861
:103AE0000068401C09490860FCF762FBFCF741FBD9
:103AF00010BD0000DD000010DE000010802400106A
:103B0000E0000010F8000010DF000010C4000010FA
:103B10000649074A1278885C0649095C034A515CE9
:103B200001EBC001044A117070470000304F0000E3
:103B3000E1000010E2000010E00000102DE9F05F4D
:103B400005460F4690469946DDE90AABFCF708FBAF
:103B50003D480468002C72D01C3454F8080C3A49D3
:103B60000860FCF706FB44F81C7CA5760020207654
:103B70006076606144F818BC44F810AC44F8148CCA
:103B80000C9824F80C0C24F80A9C0020E077E8102C
:103B9000207705F00700E076217F01208840A0779C
:103BA000E17E012088406077002020606060E06056
:103BB000A0602062A0626062E062206323A0606374
:103BC0001C3C002606E0002104F1540040F82610B9
:103BD000701CC6B2002EF6D02046FFF725F920460D
:103BE000FFF7BEF9FCF7BCFA194840F82540194820
:103BF000006860610020A0611648006810B1154897
:103C000000688461134804603834A0781249097848
:103C100008431149087020781049085C617808430E
:103C200014F838190D4A50540D480078401C0C49BE
:103C30000870FCF79EFA0020BDE8F09FFFE7FCF754
:103C400098FA4220F8E70000F40000103F0000005E
:103C500080240010FC000010E1000010E2000010C1
:103C6000EB00001000BF00BFFCF77AFA04480068C0
:103C7000401C03490860FCF77CFAFFF772F9F3E790
:103C8000EC00001000BF02E0C820FFF77DFA1948E1
:103C900000780028F8D0184800686421B0FBF1F0E3
:103CA000154908600846006828B9002013490870C3
:103CB000FF20FFF719FA00BFFCF752FA104800681E
:103CC0001049086000200E490860FCF752FA0D48C0
:103CD000006809490968B0FBF1F0C0F164000749C8
:103CE0000870FFF771F900F00FF86420FFF74CFA45
:103CF000E2E70000DC000010D4000010D00000104B
:103D0000EC000010D80000107CB5002514E06946D6
:103D10002846FFF75BF9064666B9094850F8254082
:103D200044B1012C06D0D4E9020100EB8100A0646B
:103D30000198E064681CC5B23F2DE8D97CBD000045
:103D40008024001002F0010343B102F002032BB102
:103D500002E0491E002308C00029FAD17047000084
:103D600008B50246094800EB8231086800900098C7
:103D700020F001000090009808600868009000980A
:103D800000F0010080F0010008BD00000040044088
:103D900030B501462E48006840F400702C4AC43A01
:103DA000C2F8C4002B48007800F0100038B1294850
:103DB000007840F01000274A5C3A82F85C0000204E
:103DC000244A5C3A10720320107001201073FF2007
:103DD0001074C888908748791E4A243A1070C878B1
:103DE0001C4A303A10700879121D10708878194AF0
:103DF000343A10704878121F10700878121F107033
:103E00000120144A5C3A10731120012282404309B8
:103E10009B0003F1E023C3F8002100BF1222002819
:103E200007DAD3061D0E0C4B00F00F04241F1D559E
:103E300003E0D3061C0E094B1C5400BF0120054AA9
:103E40005C3A1073032010700120107230BD000026
:103E5000C4C00F405C40024018ED00E000E400E008
:103E600037484069374908603548806936490860F5
:103E700008460068C0F30B403449C88032480088C7
:103E8000C0F3032048713048007800F01F00C8706C
:103E90002C480068C0F3026008712A480068C0F32B
:103EA0000440887027480088C0F3052048702548E2
:103EB000007800F03F000870012021490870244874
:103EC0000068401C2249086022480088401C2149A3
:103ED00008802148008F401C1F4908871C48006843
:103EE0003C21B0FBF1F201FB120020B91B48808994
:103EF000401C1A4988811A4908780978491C184ACF
:103F0000117000EBD0714910A0EB410159B1154877
:103F1000006C40F04000134908640846806D40F092
:103F2000400088650AE00F48006C40F040000D49F1
:103F300008640846C06D40F04000C8657047000046
:103F400000400240980000109C000010A0000010EB
:103F50008C000010900000107C1A0010DC1A001079
:103F6000A80000100080092000201A49096841F4C7
:103F70000011184AC43AC2F8C4101649E43109685D
:103F8000C8B21549C96B21F00701134AD163114624
:103F9000C96B41F00201D1631146496C21F0070160
:103FA00051641146496C41F0020151641146896C1B
:103FB00021F0070191641146896C41F0020191647E
:103FC00040F60701054A1160082111610221516084
:103FD00070470000C4C00F4000C00240008008408D
:103FE00000202049096841F480111E4AC43AC2F8F1
:103FF000C4101C49E4310968C8B21B49D1F88010CB
:1040000021F00701184AC2F880101146D1F880103B
:1040100041F00401C2F880101146D1F8841021F05B
:104020000701C2F884101146D1F8841041F0040150
:10403000C2F884101146D1F8901021F00701C2F89F
:1040400090101146D1F8901041F00401064A9032C8
:10405000116040F60701054A116008211161022133
:1040600051607047C4C00F4000C0024000C00A4009
:1040700021202E49086000BF2C48006800F0400055
:104080000028F9D0012029499439086009202849DD
:10409000C1F884000120264980310860AA20244903
:1040A0008C3108605520086000BF214888300068C6
:1040B00000F480600028F8D023201D49A431086056
:1040C00001201B49C1F8A000AA201949AC310860A1
:1040D00055201749C1F8AC0000BF1548A83000684A
:1040E00000F480600028F8D040F201100F499C399C
:1040F000086040F201200E49C1F8080101200B4977
:10410000A0390860022009490831086009480849B7
:10411000C4310860881505492831086045F23A0025
:10412000034908600020044908607047A0C10F409F
:1041300000C00F40DE87280408ED00E008B50E201F
:104140000023124A194600901846FDF777FD1048E3
:104150000068012121EA106018B100200B490870A5
:1041600002E0012009490870084880780949487030
:104170000648808808810548C0884881034800892E
:10418000888102484089C88108BD0000241A0010B7
:10419000948009201C1B001001204FF04021086072
:1041A00011480078401C10490870087800EBD07165
:1041B0004910A0EB410159B90C48006840F000607B
:1041C0000A4908600846806940F0006088610AE09A
:1041D0000648006840F00060044908600846C0696D
:1041E00040F00060C8617047A900001000800920FD
:1041F00010B51A48006840F002001849C439C1F8E7
:10420000C40002204FF040214860012008600020D7
:1042100008678860C86012488861032048610120EF
:10422000012181404209920002F1E022C2F800110E
:1042300000BF0321002807DACA06140E094A00F05D
:104240000F031B1FD45403E0CA06130E064A13546F
:1042500000BF01204FF04021486010BDC4C00F4096
:10426000009F240018ED00E000E400E010B51B48BA
:10427000006840F008001949C439C1F8C400184862
:10428000806820F00700164988600846806840F082
:10429000010088600846C06820F00700C860084632
:1042A000C06840F00100C86083200E4908730E48C2
:1042B000006800094FF4E131B0FBF1F4200A09492C
:1042C00008710C7003200873872008720520FEF720
:1042D00015FB07200349486010BD0000C4C00F4013
:1042E00000C0024000C00040B000001010B50848F7
:1042F000007810B90748006840B1002004490870F0
:104300000449086040210448FBF70DFF10BD000080
:104310002C00001024000010501B001070B500BFCE
:1043200047488068C4B2641004F00704032C35D1F8
:104330004348057D05F09E0010B14148067870BDE8
:1043400005F00100002878D000203E49086016E002
:104350003C4800683C4909680844402801D3FFF7FD
:10436000C5FF3748007837490968374A1268114451
:10437000364A505433480068401C3249086031487E
:1043800000680828E4D3304800682E4909680844CA
:104390002D49086001202E4908704EE0022C29D1D9
:1043A00000202849086016E0264800682649096868
:1043B0000844402801D3FFF799FF2148017821489C
:1043C0000068214A12681044204A11541D480068B0
:1043D000401C1C4908601B4800680828E4D31A48A0
:1043E00000681849096808441749086001201849FD
:1043F000087022E0062C1BD110E01348006840280A
:1044000001D3FFF773FF0E48007810490E4A126877
:1044100088540D480068401C0B4908600848007D1E
:1044200000F001000028E8D101200949087004E0EB
:10443000012C02D10248057D00BF00BF7FE70000CC
:1044400000C000402000001024000010501B00108D
:104450002C00001010B51F48006840F010001D49E6
:10446000C439C1F8C4001C48D0F8000120F007008E
:104470001949C1F800010846D0F8000140F00200D7
:10448000C1F800010846D0F8040120F00700C1F887
:1044900004010846D0F8040140F002000F4908600A
:1044A00083200F4908730F48006800094FF4165124
:1044B000B0FBF1F4200A0A4908710C70032008735C
:1044C000872008720620FEF719FA07200449486081
:1044D00010BD0000C4C00F4000C0024004C1024033
:1044E00000000140B000001010B50848007810B975
:1044F0000748006840B1002004490870044908607A
:1045000040210448FBF70FFE10BD00003C000010E6
:1045100034000010D01B00100449087000BF03498C
:10452000097D01F020010029F9D070470000014009
:1045300030B502460B46002404E012F8010BFFF7E9
:10454000EBFF641C9C42F8D330BD000070B500BF87
:1045500047488068C4B2641004F00704032C35D1C6
:104560004348057D05F09E0010B14148067870BDB6
:1045700005F00100002878D000203E49086016E0D0
:104580003C4800683C4909680844402801D3FFF7CB
:10459000ABFF3748007837490968374A1268114439
:1045A000364A505433480068401C3249086031484C
:1045B00000680828E4D3304800682E490968084498
:1045C0002D49086001202E4908704EE0022C29D1A7
:1045D00000202849086016E0264800682649096836
:1045E0000844402801D3FFF77FFF21480178214884
:1045F0000068214A12681044204A11541D4800687E
:10460000401C1C4908601B4800680828E4D31A486D
:1046100000681849096808441749086001201849CA
:10462000087022E0062C1BD110E0134800684028D7
:1046300001D3FFF759FF0E48007810490E4A12685F
:1046400088540D480068401C0B4908600848007DEC
:1046500000F001000028E8D101200949087004E0B9
:10466000012C02D10248057D00BF00BF7FE700009A
:10467000000001403000001034000010D01B00107A
:104680003C00001010B52248006840F080702049BE
:10469000C439C1F8C4001F48806A20F007001D49D2
:1046A00088620846806A40F0010088620846C06A55
:1046B00020F00700C8620846C06A40F00100C862E6
:1046C0009B20154908731548006800094FF41651DE
:1046D000B0FBF1F4200A104908710C701B2008731C
:1046E000872008720720FEF709F907200A49486069
:1046F0000B48D0F8800040F000400949C1F8800024
:104700000846D0F8980040F00040C1F8980010BD6D
:10471000C4C00F4000C0024000800940B00000103B
:104720000080092010B50848007810B907480068D3
:1047300040B1002004490870044908604021044841
:10474000FBF7F1FC10BD00004C000010440000100D
:10475000501C001070B500BF47488068C4B2641098
:1047600004F00704032C35D14348057D05F09E0075
:1047700010B14148067870BD05F00100002878D0DE
:1047800000203E49086016E03C4800683C49096842
:104790000844402801D3FFF7C5FF37480078374960
:1047A0000968374A12681144364A50543348006841
:1047B000401C32490860314800680828E4D330487A
:1047C00000682E49096808442D49086001202E49D7
:1047D00008704EE0022C29D100202849086016E01C
:1047E00026480068264909680844402801D3FFF795
:1047F00099FF2148017821480068214A1268104435
:10480000204A11541D480068401C1C4908601B4880
:1048100000680828E4D31A48006818490968084461
:104820001749086001201849087022E0062C1BD1A6
:1048300010E013480068402801D3FFF773FF0E48CB
:10484000007810490E4A126888540D480068401CD0
:104850000B4908600848007D00F001000028E8D1FD
:1048600001200949087004E0012C02D10248057DAD
:1048700000BF00BF7FE7000000800940400000103B
:1048800044000010501C00104C00001010B51F48D0
:10489000006840F000701D49C439C1F8C4001C48CC
:1048A000D0F8700220F007001949C1F870020846DC
:1048B000D0F8700240F00200C1F870020846D0F84B
:1048C000740220F00700C1F874020846D0F87402A0
:1048D00040F002000F49086083200F4908730F4819
:1048E000006800094FF4E131B0FBF1F4200A0A49F5
:1048F00008710C7003200873872008720820FDF7E8
:10490000FDFF07200449486010BD0000C4C00F40EF
:1049100000C0024074C2024000C00940B000001054
:1049200010B50848007810B90748006840B1002069
:10493000044908700449086040210448FBF7F3FB70
:1049400010BD00005C00001054000010D01C0010CE
:1049500070B500BF47488068C4B2641004F0070413
:10496000032C35D14348057D05F09E0010B1414828
:10497000067870BD05F00100002878D000203E497F
:10498000086016E03C4800683C4909680844402833
:1049900001D3FFF7C5FF3748007837490968374A20
:1049A00012681144364A505433480068401C32495A
:1049B0000860314800680828E4D3304800682E4970
:1049C000096808442D49086001202E4908704EE00E
:1049D000022C29D100202849086016E026480068EA
:1049E000264909680844402801D3FFF799FF214868
:1049F000017821480068214A12681044204A115465
:104A00001D480068401C1C4908601B4800680828B5
:104A1000E4D31A480068184909680844174908602F
:104A200001201849087022E0062C1BD110E0134821
:104A30000068402801D3FFF773FF0E480078104943
:104A40000E4A126888540D480068401C0B490860E3
:104A50000848007D00F001000028E8D10120094944
:104A6000087004E0012C02D10248057D00BF00BFA0
:104A70007FE7000000C00940500000105400001003
:104A8000D01C00105C00001010B51F48006840F4F6
:104A900080701D49C439C1F8C4001C48D0F88C028C
:104AA00020F007001949C1F88C020846D0F88C02A2
:104AB00040F00400C1F88C020846D0F8900220F0C3
:104AC0000700C1F890020846D0F8900240F00400B8
:104AD0000F49086083200F49C8600F48006800092B
:104AE0004FF41661B0FBF1F4200A0A494860E0B2C5
:104AF00008600320C860872088602320FDF7FEFE41
:104B000007200449486010BDC4C00F4000C00240E7
:104B100090C2024000400A40B000001010B50848A2
:104B2000007810B90748006840B1002004490870B7
:104B30000449086040210448FBF7F5FA10BD000065
:104B40006C00001064000010501D001070B500BF14
:104B500049488068C4B2641004F00704032C37D1BC
:104B600045484069C5B205F09E0018B1424800684A
:104B7000C6B270BD05F0010000287AD000203F4980
:104B8000086016E03D4800683D490968084440282F
:104B900001D3FFF7C3FF3848006838490968384A2D
:104BA00012681144374A505434480068401C334955
:104BB0000860324800680828E4D3314800682F496B
:104BC000096808442E49086001202F49087050E008
:104BD000022C2AD100202949086017E027480068E4
:104BE000274909680844402801D3FFF797FF224866
:104BF0000068C1B221480068214A12681044214A65
:104C000011541E480068401C1C4908601B4800687D
:104C10000828E3D31A480068184909680844184965
:104C2000086001201849087023E0062C1BD110E011
:104C300013480068402801D3FFF770FF0E48006852
:104C400010490F4A126888540D480068401C0C49EE
:104C500008600948406900F001000028E8D10120FF
:104C60000949087005E0012C03D103484069C5B229
:104C700000BF00BF7DE7000000400A406000001058
:104C800064000010501D00106C0000102DE9F04170
:104C900005460F4690461E46082D02DD0020BDE861
:104CA000F081174805704770C0F80480002014494F
:104CB0008860C860002415E0042C08DA305DE1004B
:104CC00088400F49896808430D49886008E0305DD5
:104CD000211FC90088400A49C96808430849C860BB
:104CE000601CC4B2AC42E7DB01210020FCF7B2FB40
:104CF0000123002211461046FEF780FA0120CEE77C
:104D0000101F00102DE9F04105460F4690461E4643
:104D1000082D02DD0020BDE8F081174805704770BE
:104D2000C0F80480002014498860C860002415E0A1
:104D3000042C08DA305DE10088400F498968084397
:104D40000D49886008E0305D211FC90088400A498C
:104D5000C96808430849C860601CC4B2AC42E7DBBC
:104D600001210846FCF776FB02230022114610467B
:104D7000FEF744FA0120CEE7101F001002E008C839
:104D8000121F08C1002AFAD170477047002001E0C5
:104D900001C1121F002AFBD17047000010B5FDF7BA
:104DA00011F81948FBF750FAFFF7DEF8FFF718F98A
:104DB000FFF71EFAFCF704FFFFF758FAFFF74AFB6C
:104DC000FFF760FCFFF762FDFFF75EFE0F49002072
:104DD000FCF708FC0D490C310120FCF703FC0C48E2
:104DE000FCF7E4FF0A48FEF7D3FFFFF7A7F9FDF74A
:104DF00067FE0023074A19460748FEF717F8FDF734
:104E0000CFFF002010BD0000801A06000B002F000D
:104E1000A0000010B0020010454E000010B504467E
:104E2000FBF73EFA10BD10B50446FBF71DFD10BDA3
:104E300010B50446FDF734F810BD10B50446FDF773
:104E4000DFF810BD00F042F8FDF7CEFF02230E4A56
:104E500000210E48FDF7EAFF05230D4A00210D4809
:104E6000FDF7E4FF08230C4A00210C48FDF7DEFFA4
:104E70000A230B4A00210B48FDF7D8FF02E0FF2070
:104E8000FEF732F9FBE70000D00500101D4E0000D0
:104E9000A00D0010274E0000701500103B4E0000C2
:104EA000201A0010314E000010B5FBF759F90648E2
:104EB0000078401C04490870FBF75BF9FEF7CEF957
:104EC000FDF722FE10BD0000DD00001070B50020CF
:104ED000FCF722FC04464FF47A70B4FBF0F0411E5C
:104EE000B1F1807F00D31DE021F07F40401E4FF0E4
:104EF000E022506150171F22002807DAD3061E0E49
:104F0000094B00F00F052D1F5E5503E0D3061D0E63
:104F1000064B1D5400BF00204FF0E0229061072097
:104F2000106100BF70BD000018ED00E000E400E07B
:104F30000000010002000100030001000200010066
:104F40000400010002000100030001000200010052
:104F50000500010002000100030001000200010041
:104F60000400010002000100030001000200010032
:104F70000600010002000100030001000200010020
:104F80000400010002000100030001000200010012
:104F90000500010002000100030001000200010001
:104FA00004000100020001000300010002000100F2
:104FB00007000100020001000300010002000100DF
:104FC00004000100020001000300010002000100D2
:104FD00005000100020001000300010002000100C1
:104FE00004000100020001000300010002000100B2
:104FF00006000100020001000300010002000100A0
:105000000400010002000100030001000200010091
:105010000500010002000100030001000200010080
:105020000400010002000100030001000200010071
:10503000010000007856341201000A000100180037
:10504000F000010001001000140002000500010042
:105050003F00010001000500010018007800010078
:105060000400010004001800080001000400010011
:105070000100010080000100160001000100800015
:1050800001000100010040005800E8030100230175
:1050900001001000010008000A002800800208003A
:1050A0004000C213C45000000000001024010000A2
:1050B0007C4D0000E8510000240100108433000002
:1050C0008C4D000000000000000000000000000007
:1050D00000000000000000000000000000000000D0
:1050E00000000000000000000000000000000000C0
:1050F00000000000000000000000000000000000B0
:10510000000000000000000000000000000000009F
:10511000000000000000000000000000000000008F
:10512000000000000000000000000000000000007F
:1051300000000000D01D0010D01D0010701E0010D7
:10514000701E0010000000000000000000000000C1
:10515000000000000000000000000000000000004F
:10516000000000000000000000000000000000003F
:10517000000E27070087930300879303006CDC026F
:10518000000000000000000000000000000000001F
:10519000000000000000000000000000000000000F
:1051A00000000000000000000000000000000000FF
:1051B00000000000000000000000000000000000EF
:1051C00000000000000000000000000000000000DF
:1051D00000000000000000000000000000000000CF
:0851E0000000000000000000C7
:04000005000000E512
:00000001FF
