:020000040000FA
:10000000A8340010F9000000010100000301000005
:1000100005010000070100000901000000000000C8
:100020000000000000000000000000000B010000C4
:100030000D01000000000000CF010000094D00008C
:100040000F010000FD3F00000F0100000F01000044
:100050000F01000081410000B1430000B9450000DC
:10006000B54700000F0100000F0100000F01000064
:100070000F0100000F0100000F0100000F01000040
:100080000F010000653C00000F0100000F0100009F
:100090000F0100000F0100000F0100000F01000020
:1000A0000F0100001D1500000F0100000F010000EE
:1000B0000F0100000F0100000F0100000F01000000
:1000C0000F0100000F0100000F010000B149000006
:1000D0000F0100000F0100000F0100000F010000E0
:1000E0000F010000DFF80CD000F028F800480047AE
:1000F000014C0000A834001005488047054800471F
:10010000FEE7FEE7FEE7FEE7FEE7FEE7FEE7FEE7C7
:10011000DD3E0000E5000000D2B201E000F8012B56
:10012000491EFBD270470022F6E710B513460A4677
:1001300004461946FFF7F0FF204610BD064C074D58
:1001400006E0E06840F0010394E8070098471034A7
:10015000AC42F6D3FFF7CAFF044F0000244F000063
:1001600072B606B42E490A7802F101020A7006BC82
:10017000704706B42A490A78A2F101020A704FF0CA
:100180000001002A08BF81F3108806BC7047254C87
:10019000254D25604FF0000484F30988234C4FF06F
:1001A00001052570224C4FF08055256062B6FEE7B0
:1001B00030B41F4C4FF08055256030BC704730B4D0
:1001C0001B4C4FF08055256030BC704700BFEFF3EB
:1001D000108372B6EFF3098030B1A0F1200080E8FF
:1001E000F00F144C2468206000B5134880475DF878
:1001F00004EB124C124D2E7826700E4C114E3668C0
:100200002660306890E8F00F00F1200080F3098844
:100210004EF0040E83F31088704700BF72B670472B
:10022000B800001020ED00E00000FFFFE600001025
:1002300004ED00E0EC000010892F0000DB0000104E
:10024000DC000010F40000101149096841F48051ED
:100250000F4AC43AC2F8C4100E49D1F8FC1021F07C
:100260009F010C4AC2F8FC101146D1F8FC1041F075
:100270000301C2F8FC1008490968B1FBF0F1491EFE
:10028000202242EA012141F40011044A1160704722
:10029000C4C00F4000C00240AC000010004003404A
:1002A00007E0022300221146104602F0A9FE00F0EA
:1002B00027F8F6E710B5014600230A2903DB0021E1
:1002C0006FF07F4010BD0A48006820F0E060084CE5
:1002D00020600748103050F8212002F0804010B113
:1002E0006FF07F40EEE7C2F30B131846EAE7000019
:1002F0000040034010B501F05DFA10BDFFFFFFFFA5
:1003000070B50024002511E0052000F04FF800BF73
:10031000052000F03FF80028FAD105B905E00520D6
:10032000FFF7C8FF0646344400BF6D1C652DEBD3B4
:100330006420B4FBF0F4B4F5467F03D201201449E5
:10034000086024E0B4F5956F06D2B4F5467F03D972
:1003500002200F4908601AE040F29A60844207D2F6
:1003600040F20A50844203D90320094908600EE094
:1003700040F66A40844207D240F29A60844203D930
:1003800004200349086002E004200149086070BDB0
:100390001C00001001460A2900DB0021024A52F825
:1003A0002120D00F70470000104003400A2800DBD6
:1003B0000020054909680122824042F08072114301
:1003C000014A1160704700000040034010B5012051
:1003D0000F4908700F48007818B90F480F49086096
:1003E00003E00D48401C0D49086000200C490870CE
:1003F00048708870C870087148718871C8710B4660
:10040000064801210268082004F0AEFB10BD000080
:10041000D81A0010201A001000A030108000001020
:100420008400001010B54848007818B9474848497A
:10043000086003E04548401C4549086001204549E3
:1004400008700220487000208870C87008714871D8
:100450008871C8710B463E4801210268082004F0EB
:1004600083FB02203B490870487000208870C870E8
:10047000087148718871C8710B46354801210268BE
:10048000082004F071FB03203249087002204870F4
:1004900000208870C870087148718871C8710B4657
:1004A0002B4801210268082004F05EFB0420294942
:1004B00008700220487000208870C8700871487168
:1004C0008871C8710B46224801210268082004F097
:1004D0004BFB05201F4908700220487000208870DF
:1004E000C870087148718871C8710B46184801219D
:1004F0000268082004F038FB062016490870022024
:10050000487000208870C870087148718871C8717F
:100510000B460F4801210268082004F025FB072044
:100520000C4908700220487000208870C87008715B
:1005300048718871C8710B4605480121026808207E
:1005400004F012FB10BD0000201A001000A03110B2
:10055000800000108400001010B508200E490870BB
:100560000E48007818B90E480E49086003E00C48A0
:10057000401C0C49086000200B49087048708870C6
:10058000C8700871487188710B46064801210268DD
:10059000082004F0E9FA10BDD81A0010201A001043
:1005A00000A03210800000108400001010B50F4829
:1005B000007818B90E480F49086003E00C48401C49
:1005C0000C49086000200C49087002204870002087
:1005D0008870C8700871487188710B460548012100
:1005E0000268082004F0C0FA10BD0000201A0010B4
:1005F00000A03310800000108400001010B51348D4
:10060000007818B912481349086003E01048401CEC
:100610001049086010480068022803D104200F49DF
:10062000087002E000200D49087000200B49487056
:100630008870C8700871487188710B46054801219F
:100640000268082004F090FA10BD0000201A001083
:1006500000A03418800000101C000010840000105E
:1006600010B54E48007A10B901204D4908704D4828
:10067000007818B94C484D49086003E04A48401CCE
:100680004A49086001204A490870002048704448DF
:100690008078887042484088000AC8704048808846
:1006A000C0F57A6008713E488088C0F57A60000A1B
:1006B00048714048407E88713E4890F82F00C871CC
:1006C0000B463A4801210268082004F04DFA022046
:1006D00037490870374890F82D004870354890F831
:1006E0003E0088703348C08F000AC870002008712F
:1006F0004871304890F8220088712E48408C000ADA
:10070000C8710B46294801210268082004F02CFA20
:100710000320274908702748808CC0F57A6048700C
:100720002448808CC0F57A60000A8870214890F8CF
:100730002600C8701F4890F83A0008711D48408F85
:10074000000A48711B48808FC0F57A60887119488B
:10075000808FC0F57A60000AC8710B4613480121EA
:100760000268082004F000FA0420114908701148BA
:1007700090F8420048700F48B0F84200000A8870B4
:100780000020C870087148718871C8710B4607480D
:1007900001210268082004F0E7F910BD2C1F0010A9
:1007A000D81A0010201A001000A035108000001088
:1007B00084000010781A001010B510480078062840
:1007C0001ADB00F0E1FA0E4800890E4948840C4813
:1007D00080684FF47A61A1EB10400A498884084888
:1007E000007B81F82600012081F8270081F828008D
:1007F000002002490885888410BD0000D81A001026
:100800001C1F0010781A00100448806804498842B0
:1008100002D0082003490870704700001C1F001018
:10082000F0F0F0FCD81A001001201849087318489D
:100830000078022828D11748008948830846408B51
:100840001349498A88420CDC1048408B1049C88102
:100850000846C089B0F5FA6F07DC4FF4FA60C8812A
:1008600003E00B48408A0A49C8810A2008490882E7
:1008700009480078032807D108700846808B401C7F
:10088000888300200449087070470000781A00101F
:10089000D81A00101C1F00100C00001000F08AFF76
:1008A00069E2012300221146104602F0A9FBFB4831
:1008B0000068022807D0FA480078022803DB0820E5
:1008C000F74908700AE0F5480068022806D0F448A5
:1008D0000078012802D10020F149087000F0D0FB17
:1008E000EF4800780B287CD2DFE800F07B06435EFF
:1008F00089ACE2FDFCFBFA00FFF7FCFCE948006C68
:1009000040F40060E74908640846806D40F40060E8
:100910008865642300221146104602F071FBE1480D
:10092000006E40F08060DF4908660846806F40F046
:10093000806088670120DA4981F83400642300224E
:100940001146104602F05CFBD648006E40F0807005
:10095000D44908660846806F40F08070886700239D
:1009600001221946184602F04BFB0220CC490870C0
:1009700000E2CB48408B401CC94948830846408B65
:10098000FA2190FBF1F201FB120008B900F048FADD
:10099000C348408BB0F5FA5F05DBC348007B10B954
:1009A0000820BF490870E5E1BD48808B401CBC4968
:1009B00088830846808B41F28831884212DABA482F
:1009C000407BD8B9B648808BFA2190FBF1F201FB4D
:1009D000120098B9002000F075FA0920B04908709B
:1009E0000CE0C6E1AE48808B41F28831884205DBDD
:1009F000AE4800F0F9F90920A9490870BAE1A84801
:100A0000808B401CA64988830846808B41F2883140
:100A100088420ADAA248808BFA2190FBF1F201FBAE
:100A2000120010B9AA2000F04DFA9D48808B41F2C7
:100A30008831884205DB9E4800F0D6F909209849A4
:100A4000087097E19648C08B401C9549C8830846BA
:100A5000008C401C08840846008C41F28831884292
:100A600019DA9148007E012821D18D48C08BFA21E6
:100A700090FBF1F201FB120008B900F0E9F9884897
:100A8000008C4FF4FA7190FBF1F201FB120070B987
:100A900000F090FA0BE08248008C41F288318842E5
:100AA00005DB844800F0A0F909207D49087061E168
:100AB0007B48408C401C7A4948840846408C4EF65E
:100AC0006021884238DA784890F8270080BB764861
:100AD00090F8290060BB7848007848B1022803E00C
:100AE00044E1FEE0A1E039E011D0032822D120E06A
:100AF0006B48408CFA2190FBF1F201FB120010B917
:100B0000002000F0FFF901206B49087013E06448F1
:100B1000408CFA2190FBF1F201FB120038B9AA20B7
:100B200000F0F0F907205E4908700020488402E0D8
:100B300013E000E000BF10E05948408C4EF6602101
:100B400088420ADB584890F82000012805D059480F
:100B500000F04AF90920524908700BE15048408CD6
:100B6000401C4F4948840846008D401C08850846B3
:100B7000808C401C88840846C08C401CC8844A482D
:100B800090F8280018B1484890F8290058BB44480C
:100B9000408CFA2190FBF1F201FB120010B9AA205F
:100BA00000F0B0F9404890F8290001280AD13C48EB
:100BB000808CB0F57A7F05DD3E4800F015F90920FC
:100BC00037490870384890F8280068BB3448C08C12
:100BD00041F28831884227DD364800F005F90920C6
:100BE0002F49087020E0304890F8280001281BD1D8
:100BF0002D4890F82900012816D12948808CB0F59D
:100C00007A7F05DD2B4800F0EFF8092024490870B1
:100C10002348C08C41F28831884205DD254800F028
:100C2000E3F809201E490870A4E01D48408D401CCF
:100C30001B4948850846808D401C88851A4890F8D5
:100C40005B00D8BB0846408D0A2190FBF1F201FB06
:100C5000120018B91249C86B00F090F91048408D85
:100C600041F2883188423BDB124800F0BDF80C4865
:100C700090F83500012833D10A48006C40F4006038
:100C8000084908640846C06D40F40060C86500204B
:100C9000034981F835000920087021E01C0000108C
:100CA000D81A001000800920781A0010FCC0F0FD4E
:100CB000FCC0F1FCFCC0F4FC0D000010FFE72E4866
:100CC00090F85B0001280BD12C48808D42F2107106
:100CD000884205DB2A4800F087F809202749087078
:100CE00048E0264890F8350001280ED12548006AD2
:100CF00040F48020234908620846C06B40F48020FD
:100D0000C86300201D4981F835001E48006E40F080
:100D100080601C4908660846C06F40F08060C86764
:100D2000002301221946184602F06AF91548006CA2
:100D300040F40060134908640846C06D40F4006048
:100D4000C865002301221946184602F059F90D48DA
:100D5000006E40F080700B4908660846C06F40F096
:100D60008070C8670A200549087003E000F0E6FCBF
:100D700000E000BF00BF94E5781A0010D81A0010F8
:100D8000FCC0F4FC0080092010B51348134908602A
:100D9000134880781349087011484088000A487049
:100DA0000F488088C0F57A6088700D488088C0F54B
:100DB0007A60000AC8700A48007B08710848808978
:100DC000000A4871FD2088710B4604480121026821
:100DD000072003F08DFE10BD56F41218800000109D
:100DE000D81A00108400001010B5044609480A49BA
:100DF0000860200E09490870200C4870200A88708D
:100E0000CC700B46044801210268042003F070FEF8
:100E100010BD000056F41F08800000108400001070
:100E200010B5084808490860012008490870487052
:100E3000002088700B46044801210268032003F05B
:100E400057FE10BD56F426188000001084000010D4
:100E500010B51848184908601848807C184908706F
:100E60001648408A000A48701448007D887013486C
:100E7000808A000AC8701148C08AC0F57A6008717B
:100E80000E48C08AC0F57A60000A48710B48008B92
:100E9000C0F57A6088710948008BC0F57A60000A55
:100EA000C8710B46044801210268082003F020FEA7
:100EB00010BD000056F4081880000010D81A001069
:100EC0008400001010B504460B480C4908600C481B
:100ED000047001200A49487000208870C8700871A9
:100EE000FF2048718871C8710B46044801210268CF
:100EF000082003F0FDFD10BD56F40118800000101D
:100F00008400001010B5044609480A4908601CB95D
:100F100000200949087002E0AA2007490870064B22
:100F2000044801210268084603F0E2FD10BD0000FC
:100F300056F40A10800000108400001010B50C4810
:100F40000C49086000200C49087048700120887026
:100F50009920C870012008713D2048713E20887199
:100F60000B46044801210268082003F0C1FD10BDB2
:100F700056F41D18800000108400001010B50446BF
:100F800009480A4908600A490C70200A4870200C78
:100F90008870200EC8700B460448012102680420A6
:100FA00003F0A6FD10BD000056F41A1080000010DA
:100FB0008400001010B50A480A490860FF200A4959
:100FC000087048708870C870087148718871C8715D
:100FD0000B46044801210268082003F089FD10BD7A
:100FE00056F40718800000108400001070B5054604
:100FF0000C460E480E49086013200E49087008463A
:101000004570002088700220C870FF2008714C7164
:1010100094FBF0F088710020C8710B460448012150
:101020000268082003F064FD70BD000056F4EC1C5B
:10103000800000108400001070B505460C460D4875
:101040000D49086011200D490870084645700120BF
:101050008870FF20C87008714C7194FBF0F08871A3
:101060000020C8710B46044801210268082003F0E3
:101070003FFD70BD56F4EC1C800000108400001091
:1010800010B53B4801683B48814216D13A4838497F
:101090000A68D2E90034D2E90212C0E90034C0E99A
:1010A0000212334800680021016041608160C16024
:1010B000304890382E49086015E02F492C480468C4
:1010C000D4E90023D4E90204C1E902040CC1284890
:1010D00000680021016041608160C16024480068AF
:1010E00010302349086024484068244A811A9042FD
:1010F00029D00CDC2249084470B322490844E0B1ED
:10110000B0F5801F22D02049084440BB18E0B1F55B
:10111000102F1ED0B1F5A01F06D0B1F19B6F09D0E2
:101120001A480844D8B902E0FFF77EFB18E000F047
:1011300027FC15E000F072FB12E000F029F80FE048
:10114000FFF73AFB0CE000F043F809E000F004F987
:1011500006E000F033F803E0FFF756FB00E000BFC5
:1011600000BF05480021016041608160C16010BD81
:10117000740000105C1E00101C1F0010F4561318A1
:101180000CA9E1F7000015F80000F9F7000027FBB3
:101190000748007805280AD10648007AAA2806D10F
:1011A0000120054981F82000062001490870704798
:1011B000D81A00101C1F0010781A001010B500205B
:1011C00002498885FFF7BAFE10BD0000D81A00104A
:1011D0005C48007807287DD15B48007A5B4981F83C
:1011E0002C0059480089000A81F82D005648806873
:1011F000000C81F82E0054488068000E81F82F0002
:101200005148007B81F830004F488089C0F30120AD
:1012100081F83100084690F83100012804D14C488B
:101220004849C863082008704748C0680C2101EA93
:101230001020464981F83200084690F83200042810
:1012400004D143483F49C863082008703E48C0683D
:10125000302101EA10203D4981F83300084690F81A
:101260003300102804D13A483649C8630820087072
:101270003548C068C02101EA1020344981F83400A3
:10128000084690F83400402804D131482D49C863FD
:10129000082008702C48C068C0F301402B4981F831
:1012A0003500084690F83500012804D12848254922
:1012B000C863082008702448C0680C2101EA104067
:1012C000224981F83600084690F83600042806D1F5
:1012D0001F4800E034E01B49C863082008701A4822
:1012E000C068302101EA1040184981F837000846EB
:1012F00090F83700102806D1124890F835000128E0
:1013000001D100200887114890F83700C0B90D4876
:1013100090F83500012813D10E48006A40F480206F
:101320000C4908620846C06B40F48020C863002066
:10133000044981F8350005490887024981F83800D9
:1013400070470000D81A00101C1F0010781A0010F7
:101350001000F4F00080092010B5002017494885DE
:1013600008460078082827DC08460078022823DB96
:10137000082008700120124981F85B000F49C86BF2
:10138000FFF7FCFD0D4890F83500012814D10B48FB
:101390008088322810DC0B48006C40F4006009495A
:1013A00008640846C06D40F40060C8650020034929
:1013B00081F835000920087010BD0000D81A00100F
:1013C000781A00100080092010B50246194800EB79
:1013D00082342368C3F303400870D80F487015485F
:1013E000001D00EB82342368487818B123F0604078
:1013F000486002E0C3F30A0048605AB90D4808305B
:1014000000EB823423688B60001D00EB823423687C
:10141000CB600CE0012A0AD10648083000EB823488
:1014200023688B60001D00EB82342368CB600120B1
:1014300010BD00002040044070B502460B46581E07
:10144000C3B2334800EB823000EB0314216831480B
:1014500001403148007800042F4E767840EAC6708B
:10146000014321602C4845782948001D00EB82305B
:1014700000EB031421683DB101F0E04126484068CB
:1014800020F06040014306E06FF30A0122488088A3
:10149000C0F30A00014321601D48083000EB823090
:1014A00000EB03141C488068206019480C3000EBE6
:1014B000823000EB03141848C068206014482C38B0
:1014C00000EB8234216821F0030141F0030121F097
:1014D000E00123B1012B05D0022B09D105E041F039
:1014E000200106E041F0400103E041F0800100E00E
:1014F00000BF00BF21600648283800EB8234216815
:1015000001F0080008B1012070BD0020FCE70000D8
:1015100030400440FFFFF03F0C1F0010F0B50024E6
:1015200045E0244800EB84352F6807F001000028CF
:101530003BD027F001072F60D4B91F48016820462F
:10154000FFF742FF1C4801681C48814203D19038D4
:101550001949086004E0184800681030164908600E
:101560001448083800EB84352E6846F004062E60D7
:10157000012C1AD1124801682046FFF725FF1048B8
:1015800001681048814203D190380D49086004E099
:101590000B48006810300A4908600648083800EB1C
:1015A00084352E6846F004062E60601CC4B2022CFE
:1015B000B7DBF0BD0C400440700000105C1E001052
:1015C00078000010FC1E0010F0B504460D4600BF68
:1015D00014B1012C44D11DE04348006840F4005090
:1015E0004149C439C1F8C4004048406D20F00700AB
:1015F0003E4948650846406D40F00400486508468D
:10160000806D20F0070088650846806D40F004007A
:10161000886526E03448006840F480403249C43987
:10162000C1F8C4003148D0F81C0120F007002F4950
:10163000C1F81C010846D0F81C0140F00100C1F8B7
:101640001C010846D0F8200120F00700C1F8200155
:101650000846D0F8200140F00100C1F8200100E068
:1016600000BF00BF204600F08DFA214800EB843611
:10167000356001201F4908609CB91D481438406836
:1016800040F00E001A49143948600846006940F0DD
:10169000010008610846806888600846C06887B213
:1016A00010E01548406840F00E00134948600846B5
:1016B000006940F0010008610846806888600846BB
:1016C000C06887B202200B490860204602F04AFA3F
:1016D0001920012181404209920002F1E022C2F862
:1016E000001100BFF0BD0000C4C00F4000C00240A8
:1016F0001440044000C0034000800440014631B162
:10170000012907D0022908D003290CD108E0074895
:101710000068704706480068FBE706480068F8E77D
:1017200005480068F5E700BFFEE70000A8000010CC
:10173000AC000010B0000010B400001001200349FC
:1017400081F837000020087070470000D81A001098
:1017500070B505460C461348007818B9124813496D
:10176000086003E01048FF381049086010490D7008
:10177000280A48708C70200AC870002008714871CF
:1017800088710848007810B90A20C87102E00B205F
:101790000749C871064B054801210268082003F07B
:1017A000E3F970BD201A00100A0B501D80000010D4
:1017B0008400001000201749087048838883C8837C
:1017C000088448848884C88408854885088641F64A
:1017D0004C5048824FF4FA60888240F6C410C882A8
:1017E000002008838881C86381F8360081F83700BB
:1017F00081F8340081F8350007490873487308768A
:1018000081F8200081F8270081F82A0081F829005A
:1018100008877047D81A0010781A001010B552487F
:10182000007808287ED2DFE800F0930405062893AC
:10183000935A8EE08DE04D48007A401EC0EBC00008
:101840004B4901444948C2680A60028A8A80807C08
:1018500088714648007A4749497888420CD1454A00
:1018600051881078FFF7C2FBAA20FFF72BFB00205E
:101870003D498883042008706BE03C48007A401E94
:10188000C0EBC0003C4901443848C2680A60028A83
:101890008A80807C88713848007A3749497AC1EB60
:1018A000012108443349C8830846C08BB0F5FA6F5C
:1018B00002DC4FF4FA60C8832C48007A2D4949793C
:1018C00088420BD12B4AD1881079FFF78FFBFFF7A5
:1018D00071FBFFF7BDFA05202349087039E0254860
:1018E00090F82A0001281ED12048007A401EC0EB43
:1018F000C000224901441D48C2680A60028A8A80E9
:10190000807C88711948007A1A49497A884204D142
:10191000184A5189107AFFF769FB0020154981F8B0
:101920002A0014E014E0134890F82B0001280EDB85
:101930000E48007A0F49497A884204D10D4A5189EC
:10194000107AFFF753FB00200A4981F82B0000E0D2
:1019500000BF00BF06484078C0EB0020044909786A
:1019600008440449C88110BDD81A00101C1F00107B
:10197000301A0010781A0010611A00106E1A001048
:1019800010B57D480078032822D17C48007A1028C1
:101990001ED17A48C06800F47F004FF40071B1EBAB
:1019A000102F15D101207649487374480089000A28
:1019B000087072488068000E48707048C06800F473
:1019C0007F00000A48800A4651885078FFF734FBB0
:1019D00069480078042822D16848007A10281ED16E
:1019E0006648C06800F47F004FF4C061B1EB102F6F
:1019F00015D101206249087660480089000A087103
:101A00005E488068000E48715C48C06800F47F0042
:101A1000000AC8800A46D1885079FFF70DFB564866
:101A2000007807282DD15548007A102829D153482D
:101A3000C06800F47F004FF48851B1EB102F20D123
:101A400001204D4981F836004D4981F82A0081F87E
:101A5000290000204849C88448480089000A4849AC
:101A6000087246488068000E48724448C06800F416
:101A70007F00000A48810A465189507AFFF7DCFA54
:101A800079E03D480078072824D13C48007A1028A6
:101A900020D13A48C06800F47F004FF4A851B1EB60
:101AA000102F17D10120364981F82B0033480089C7
:101AB000000A087231488068000E48722F48C068DA
:101AC00000F47F00000A48810A465189507AFFF7E6
:101AD000B3FA50E028480078072824D12748007A34
:101AE000102820D12548C06800F47F004FF4B05181
:101AF000B1EB102F17D10220214981F82B001F488C
:101B00000089000A08721D488068000E48721B4850
:101B1000C06800F47F00000A48810A465189507A63
:101B2000FFF78AFA27E014480078072823D11348E2
:101B3000007A10281FD11148C06800F47F004FF4CC
:101B4000B851B1EB102F16D103200D4981F82B00AD
:101B50000A480089000A087208488068000E487226
:101B60000648C06800F47F00000A48810A4651898F
:101B7000507AFFF761FA10BDD81A00101C1F001030
:101B8000781A001008B50146084800EB8132106849
:101B90000090009820F00100401C00900098106018
:101BA00010680090009800F0010008BD004004405B
:101BB0004FF4FA61C18001214171C17001710021AE
:101BC000817041700170704708B5009002E0009983
:101BD000491E009100990029F9D108BD2DE9F04175
:101BE00004460D4616461848006840F480301649F1
:101BF00008600846C06940F48030C8610520FFF7DE
:101C0000E3FF032002F00EF9280A02F00BF9E8B214
:101C100002F008F9002705E002F0DCF82070641CEF
:101C2000781C87B2B742F7DB0520FFF7CDFF0648E7
:101C3000006840F48030044908600846806940F438
:101C400080308861BDE8F081008009201E48006C6A
:101C500040F040001C4908640846C06D40F0400058
:101C6000C8650846006840F480300860084680690E
:101C700040F48030886114488030006820F0807023
:101C8000C1F880000846006A20F0807008620846AB
:101C9000006A20F0007008620846006A20F0806048
:101CA00008620846006A20F0006008620846006A80
:101CB00020F0805008620846D0F8800020F0100024
:101CC000C1F88000704700000080092010B512485C
:101CD000007810281DD11048407800F0100010281E
:101CE00017D10D48C0780C49897800EB01200B49C9
:101CF0000860094840790849097900EB0120084942
:101D000008600548C0790449897900EB012005493C
:101D1000086002F01BFB10BDCC1B00101800001067
:101D2000100000101400001077E000244FF4FA7344
:101D300000221146104601F063F938480078012866
:101D400035D1374A0221102000F078F800BF601C1E
:101D5000C4B2002301221946184601F051F9314A54
:101D60000121102000F06AF8FFF7B0FF2E4800684C
:101D70000A21B0FBF1F02D49096888420BD22A48AC
:101D800000680A21B0FBF1F029490968884202D2B3
:101D9000022022490870142CD9DB00244FF40432AD
:101DA0000221102000F04AF802201C490870214846
:101DB0000078012830D11B4A0121102000F03EF8A4
:101DC00000BF601CC4B2002301221946184601F06E
:101DD00017F9FFF77BFF144800681421B0FBF1F0FE
:101DE0001549C98B104A1268511A88420BD80E48FF
:101DF00000681421B0FBF1F10F48C08B0A4A126849
:101E0000801A814202D902200A490870032CD8DBCB
:101E1000002402200749087000BF86E70C0000106C
:101E2000201002000504030218000010100000102A
:101E3000140000100D000010781A00102DE9FC416C
:101E400006460F4615466C4604F8016B04F8017B04
:101E5000280E04F8010B280C04F8010B280A04F8DA
:101E6000010B04F8015B0621684600F00FF804F846
:101E7000010B0621684600F009F8000A04F8010B7E
:101E80000821684602F086FABDE8FC8130B50246BA
:101E90000B464FF6FF70002112E0555C68400024AD
:101EA0000AE000F0010525B140104AF20105684042
:101EB00000E04010651CACB2082CF2DB4D1CA9B24E
:101EC0009942EADB30BD00000020C0490861C049EA
:101ED0000860BE498870BF4981F838000120BB49BD
:101EE000487072E10A2300221146104601F088F87A
:101EF000B6480069401CB5490861B5480068401CF7
:101F0000B349086000F090FAB04800691921B0FBAD
:101F1000F1F201FB120000287ED1AE4800780228C1
:101F20007FD1AD48408BAB49498A88420CDCAA4836
:101F3000408BA849C8810846C089B0F5FA6F07DC14
:101F40004FF4FA60C88103E0A248408AA149C881E1
:101F50009E484078C82148439E4908829B48807823
:101F6000A0B99A4803784078C82400FB04F20846D8
:101F7000C189022000F038F91423002211461046CE
:101F800001F03EF80120914988700AE08F480378FB
:101F90004078C82400FB04F28E48C189012000F07B
:101FA00023F98C48C08989498988401A642813DC40
:101FB0008A48007880B98A48006A40F480208849BD
:101FC00008620846806B40F48020886301208149C4
:101FD00081F835008149087080480078022820D1B6
:101FE00000231A461946032000F0FEF800230122C0
:101FF0001946184601F004F87948006A40F4802038
:10200000774908620846C06B40F48020C86300200E
:10201000704981F8350001E0CCE002E003206F490F
:1020200008706C480078072852D16B48008FB0F5D3
:10203000167F7CDA1020684981F83700002876D0B6
:10204000644890F83800002843D10846408CC98B7A
:10205000884204DC6048C08B32385F4948845B4862
:102060008078B8B9594803784078C82400FB04F256
:102070005948C08B323881B2022000F0B5F81423E1
:1020800000221146104600F0BBFF01204F49887026
:10209000FEF7C8F95048C08B4C498988401A64281B
:1020A0006CDC4F48006A40F480204D4908620846C5
:1020B000806B40F480208863142300221146104670
:1020C00000F09EFF0120434981F8350081F8380077
:1020D00054E04448007858BB3F48808C00EB8000B7
:1020E00040003A49497890FBF1F084B237480378D0
:1020F0003948418C2246012000F076F83648408C61
:1021000032498989484300EB800040002F494978D3
:1021100048433149498C304A928C514301EB81014B
:10212000B0EB410F2ADC2C4A918C508C01E01DE071
:1021300002E0FFF70DFB21E02A48007801281DD1BD
:102140002548808C00EB800040002049497890FBB6
:10215000F1F404EBD470C0F34F051C4803781E481B
:10216000418C2A46012000F03FF807E01A48008F12
:10217000B0F5167F02DD0820164908701548007872
:10218000C0B114480078022814D0124800780728FB
:1021900010D00E488078012805D100231A46194630
:1021A000032000F021F80B4890F8350010B900200A
:1021B00006498870074890F83600012805D1FEF7D7
:1021C000F5F90020034981F836008BE6181B001052
:1021D00000000010D81A0010781A00100C0000102F
:1021E00000800920080000102DE9F04107460C4648
:1021F000164698468548007800287DD100258AE05B
:10220000012F06D0022F29D0032F4ED0042F7ED1CC
:1022100063E07F4840EA05207E49086041F288304B
:10222000844203DD75207C49087002E065207A490C
:1022300008700020784948708C70200AC8700E71B0
:10224000300A48710C2088711720C8710B467148FC
:1022500001210268082002F087FC59E06C4840EA3E
:1022600005206C49086041F28830844203DD11206A
:102270006949087002E00120674908700120664939
:102280000870002048708C70200AC8700E71300AE7
:1022900048716C2088710720C8710B465D48012188
:1022A0000268082002F060FC32E0594840EA05204C
:1022B000584908600220584908700020487088700A
:1022C000C870087148718871C8710B465148012166
:1022D0000268082002F048FC00BF504840EA052090
:1022E0004C49086000204C49087048708870C870DC
:1022F00008714871887101E013E008E0C8710B466D
:10230000444801210268082002F02EFC00E000BFD2
:1023100000BF681CC5B23D484078A8423FF770AF87
:1023200071E03A48007801286DD1002567E0012F5F
:1023300004D0022F2AD0032F57D13EE0384840EA7C
:102340000520344908600020334908706420604348
:10235000000C487064206043000A88706420604369
:10236000C8700020087164206043000C487164202C
:102370006043000A887164206043C8710B46254899
:1023800001210268082002F0EFFB2FE0254840EA17
:1023900005202049086000201F4908704870887097
:1023A000C870087148718871C8710B4619480121BD
:1023B0000268082002F0D8FB18E01A4840EA05201D
:1023C0001449086001201449087000204870887082
:1023D000C870087148718871C8710B460D48012199
:1023E0000268082002F0C0FB00BF00BF00BF052349
:1023F00000221146104600F003FE681CC5B20348D7
:102400004078A84293DCBDE8F0810000181B001062
:10241000A08001188000001084000010A0804018E7
:10242000F000DB02F000DA0210B5A6480168A64809
:10243000814214D1A548A349096891E81C00C968E4
:1024400080E81C00C1609F48006800210160416075
:102450008160C1609C4890389A49086010E09B48B0
:1024600098490C681ECC1EC0964800680021016087
:1024700041608160C16093480068103091490860F4
:1024800092484068924A811A904270D02CDC914A5E
:10249000A0EB020190426BD013DC8F4AA0EB02014B
:1024A000904272D006DC8D490844002871D0012882
:1024B0006DD183E001296BD0894808440028F7D109
:1024C000BFE0884A881A914275D006DCB1F57F4F8B
:1024D00072D0B1F5803FEBD1DBE0B0F5807F6CD0FE
:1024E000B0F5803FE4D1B9E07F4A881A914238D0F4
:1024F00008DC7E480844052849D2DFE800F00F1ABE
:1025000020262C00012834D0022838D078490844ED
:10251000002877D0B0F5807FCAD1A6E06B488068EC
:10252000000C744988806948808980B272490860CB
:10253000BFE06648808980B26F494860B9E063486F
:10254000808980B26C498860B3E06048808980B23D
:102550006949C860ADE05D48808980B2664908611C
:10256000A7E05A48808980B263494861A1E098E0B9
:1025700088E05648808980B25F49886199E0534875
:10258000808980B25C49C86193E029E001E08FE076
:1025900039E04E48806820F07F406421B0FBF1F0C4
:1025A000544988804948808980B20A21B0FBF1F003
:1025B000514908607DE04BE049E06BE043488068AA
:1025C00020F07F406421B0FBF1F04A4988803F4809
:1025D000808980B20A21B0FBF1F04749486068E089
:1025E0003A48806820F07F406421B0FBF1F0414917
:1025F00088803648808980B20A21B0FBF1F03E49DC
:10260000886056E011E03148806820F07F40642106
:10261000B0FBF1F0374988802C48808980B20A21CC
:10262000B0FBF1F03449C86043E03448007838B971
:102630002648007A052803D1FDF7E0FFFEF710F8E1
:1026400037E02E48007808B9FDF7C0FE31E030E0F1
:102650002A48007808B9FDF77FFF2AE0274800786C
:1026600010B9FDF7A3FF24E000BF2448007801283B
:1026700007D11648007A052803D1FDF7BFFFFDF703
:10268000EFFF16E01D480078012801D1FDF79EFEFE
:102690000FE00EE019480078012801D1FDF75CFF3A
:1026A00007E016480078012801D1FDF77FFF00E020
:1026B00000BF00BF05480021016041608160C1602A
:1026C00010BD00007C000010FC1E00102C1F00102C
:1026D000A0013310A001301002F0C802001037FD35
:1026E00062EF98F200FF0100E59EED07206112F80D
:1026F000E59FDAFF181B00102C1B0010201A001099
:1027000000F01F02012191404209920002F1E022F3
:10271000C2F80011704700001D481E481E481F489F
:102720001F48204820482148214822482248234861
:102730002348244824482548254826482648274831
:10274000274828482848294829482A482A482B4801
:102750002B482C482C482D482D482E482E482F48D1
:102760002F483048304831483148324832483348A1
:102770003348344834483548354836483648374871
:102780003748384838483948394800BF7047000052
:10279000904E0000944E00009A4E00009C4E0000A7
:1027A000984E00009E4E0000A04E0000A24E000079
:1027B000A44E0000A64E0000A84E0000AA4E000045
:1027C000AC4E0000AE4E0000B04E0000B24E000015
:1027D000B44E0000B64E0000B84E0000BA4E0000E5
:1027E000BC4E0000BE4E0000C04E0000C24E0000B5
:1027F000C44E0000C64E0000C84E0000CA4E000085
:10280000CC4E0000CE4E0000D04E0000D24E000054
:10281000D44E0000D64E0000D84E0000DA4E000024
:10282000DC4E0000DE4E0000E04E0000E24E0000F4
:10283000E64E0000E84E0000EA4E0000EC4E0000BC
:10284000E42D001064320010F04E0000F24E000043
:10285000F44E0000F64E0000F84E0000FA4E000064
:10286000FC4E0000FE4E0000004F0000EE4E000047
:10287000024F000070B505460E4614461048007819
:1028800010B11220207070BD2878012808D00228CD
:1028900007D0032802D0042804D100E000BF00BF05
:1028A00000BF02E001202070EDE700BFFDF758FCFB
:1028B0006E61FDF75EFC0020207000BFE3E70000C2
:1028C000D900001010B500F019F800F0B1FE00F0CA
:1028D000D9FE00F0F9FE00F07BFE00F04DFE00F0A6
:1028E0008DFF00F0B7FF00F02FFF00F055FF00F064
:1028F00043FC00F009F8FFF70FFF10BD002001496D
:1029000008807047BC0000107047000010B51A48DE
:10291000007801282ED1FDF723FC1848007820B15B
:1029200016480078401E1549087014480078F8B918
:1029300013480078E0B900F0EDFF12481249097819
:1029400050F82100114908600F48007810490978B3
:1029500088420DD00D480068C06B401C0B490968C7
:10296000C8630C480068401C0A490860FDF727FC52
:10297000FDF7FFFB10BD0000E6000010D9000010BD
:10298000DA0000107C240010DC000010F4000010BD
:10299000DB000010C000001010B50A4800780128C4
:1029A0000FD1FDF7DDFB0848007840B907480078F3
:1029B000FF2804D205480078401C04490870FDF740
:1029C000D8FB10BDE6000010D9000010DA0000109E
:1029D00010B51148007801281CD1FDF7C1FB0F4844
:1029E0000078A8B10D480078401E0C4908700846D0
:1029F000007850B90A48007820B9FDF7BAFB00F01A
:102A000051FF07E0FDF7B5FB04E0FDF7B2FB01E085
:102A1000FDF7AFFB10BD0000E6000010DA0000106B
:102A2000D900001070B505460F48007808B10020A5
:102A300070BDFDF795FB0D480468006820B10B4898
:102A40000068406809490860FDF793FB4CB103201A
:102A5000207025810020606005A06061204600F0A4
:102A60007DFD2046E4E70000D9000010C4000010FE
:102A70003F00000070B505460E461446287803282E
:102A800002D00120207070BD2F48007810B10220C4
:102A90002070F8E72D48007810B10D202070F2E783
:102AA000FDF75EFB288938B12889401E2881FDF793
:102AB00060FB00202070E6E72548006890F83400AD
:102AC00040F001002249096881F8340000202049C3
:102AD000096881F835001E4800680663284600F042
:102AE000FFFCFDF746FB00F0DDFEFDF739FB184863
:102AF000006890F8350020B1012809D0022806D1DD
:102B000002E0002020700BE00E20207008E000BFE3
:102B100029460F48006800F0B1FC0A20207000BF71
:102B200000BF00200A49096881F834000849096893
:102B300081F8350006490968C861054909680862D5
:102B4000FDF717FB00BF9EE7D9000010DA00001068
:102B5000EC00001010B504462078032801D00120B5
:102B600010BDFDF7FDFAA07A58B1002301221946E5
:102B7000204600F03BFCFDF7FCFA00F093FE00203D
:102B8000EEE720894FF6FF71884206D22089401C6B
:102B90002081FDF7EEFA0020E2E7FDF7EAFA3320A4
:102BA000DEE7000010B50B48007890B900F0B2FEE7
:102BB000094800780949087009480749097850F818
:102BC0002100084908600846006807490860FDF7C9
:102BD000DEFA10BDE6000010DC000010DB00001083
:102BE0007C240010F4000010EC00001010B502204E
:102BF00000F0CCF9FDF7B4FA002009490860FDF7B0
:102C0000B8FA642000F0C2F9FDF7AAFA0448006897
:102C100004490860012004490870FDF7AAFA10BDB4
:102C2000E8000010D0000010D8000010704700002D
:102C30002DE9FE4306460F4690461C46FDF790FAE6
:102C40001C48007820B1FDF794FA3C20BDE8FE83D3
:102C5000194850F8240048BB0120174941F82400C6
:102C6000FDF787FA002342463946304600F0F0F877
:102C7000814600200090019003460246494602909A
:102C8000204600F05DFE054635B90C480078012865
:102C90000AD100F007FE07E0FDF762FA00200649BE
:102CA00041F82400FDF765FA2846CFE7FDF761FA01
:102CB0002820CBE7D90000107C240010E60000108B
:102CC0002DE9FF5F81468A4693461C46DDE90F7871
:102CD000129DFDF745FA2048007828B1FDF749FA22
:102CE0003C2004B0BDE8F09F1C4850F8240070BBA5
:102CF00001201A4941F82400FDF73BFA2A464146D3
:102D0000384600F021FF2B465A465146484600F00F
:102D10009FF803901198CDE9008002953A4620462D
:102D20000E9B039900F00CFE064636B90C4800785D
:102D300001280AD100F0B6FD07E0FDF711FA0020E6
:102D4000064941F82400FDF714FA3046C9E7FFE7C9
:102D5000FDF70FFA2820C4E7D90000107C240010EA
:102D6000E6000010704770472DE9F04106460F4617
:102D700014461348007818B112202070BDE8F08185
:102D8000FDF7EEF9FF2E03D10E48006890F836608B
:102D90000D4850F8265025B9FDF7EBF94320207077
:102DA000ECE7012D04D1FDF7E4F943202070E5E7BD
:102DB0002F65FDF7DEF90020207000BFDEE7000080
:102DC000D9000010EC0000107C24001070470000B7
:102DD0002DE9F04707460D46002028606860FDF7A2
:102DE000BFF9FF2F03D11848006890F836701748D4
:102DF00050F8274024B9FDF7BCF94320BDE8F0871F
:102E0000012C03D1FDF7B5F94320F7E7207C00F052
:102E1000010018B9FDF7ADF94520EFE70026D4F819
:102E20000C90D4F80880FDF7A4F900E0761C58F85F
:102E3000041B0029FAD0B0002860A9EB060080002E
:102E400068600020DAE70000EC0000107C2400102D
:102E500070B5044610464FF080750560051F284682
:102E60002C606FF00106051F28462E604FF01236C9
:102E7000051F28462E604FF00336051F28462E609A
:102E80004FF00236051F28462E607610051F284693
:102E90002E60051F284629604FF01136051F284671
:102EA0002E604FF01036051F28462E604FF0093671
:102EB000051F28462E604FF00836051F28462E6055
:102EC0004FF00736051F28462E604FF00636051FC7
:102ED00028462E604FF00536051F28462E604FF01D
:102EE0000436051F28462E6070BD00002DE9F04114
:102EF0000546FDF735F9FF2D05D11F48006890F80C
:102F00003650012608E01C48006890F83600A842B8
:102F100001D1012600E00026184850F8254024B9C8
:102F2000FDF727F94820BDE8F081012C03D1FDF71A
:102F300020F94320F7E794F838701148C05D94F801
:102F4000391088430E49C8550846C05D30B994F819
:102F50003A100C48007888430A49087094F8340005
:102F600040F0080084F83400FDF703F9012E01D188
:102F700000F098FC0020D6E7EC0000107C24001044
:102F8000DE000010DD0000107047000070B505463F
:102F90001648007800B170BD1548007800B1FAE716
:102FA0000DB3FDF7DDF81348006890F8384012487B
:102FB000005D1049096891F8391088430E49085599
:102FC0000846005D40B90B48006890F83A100B487D
:102FD0000078884309490870064800680563FDF7D2
:102FE000C8F800F05FFC00BFD5E70000D900001072
:102FF000DA000010EC000010DE000010DD00001010
:103000002DE9F04105460E4617461C461248007849
:1030100010B15520BDE8F0811048007808B1322089
:10302000F8E74FF47A7060434FF47A71B0FBF1F136
:103030004FF461606843C6EB061200EB820038442F
:1030400000EB4002C2EBC01001EBC0084046FFF7A6
:103050009DFF0020DEE70000D9000010DA0000101C
:1030600070B500F06DF8FDF77BF82F480068401C44
:103070002D490860FDF77DF82C480078012851D1D2
:103080002B48007820B1012804D0022809D103E0A0
:1030900001250BE0002509E00125012024490870E5
:1030A00004E0012500202249087000BF00BF05B9D7
:1030B00070BD2048046831E0FDF752F8206B50B332
:1030C000206B401E2063206B28BB94F8340000F076
:1030D000370040B114F8340F00F0C8002070012010
:1030E0006070343C02E0002084F8350094F834002D
:1030F00000F0080078B93834A0780F4909780843FF
:103100000D49087020780D49085C6178084314F86F
:1031100038190A4A50546469FDF72BF894F83600C0
:103120003F28C9D100BFC3E708010010E600001026
:10313000FC000010F8000010DD000010DE000010A0
:1031400010B507480088401C0549088008460088DB
:10315000642803D30020088000F004F810BD0000AC
:10316000BC00001010B503480068FFF7F3FC0446EC
:10317000204610BD18010010F8B54FF42071284802
:1031800000F032FB4021274800F02EFB002514E020
:10319000681C86B205EB8500214901EBC00406EBF3
:1031A000860001EBC00764202070002084F8250011
:1031B000E7601DA02062681C85B20F2DE8D305EBE7
:1031C0008500174901EBC00464202070002084F8BA
:1031D0002500E06014A02062002014490860144912
:1031E00008801020134908800D4813490860012009
:1031F000FFF718FC114908600020FFF713FC104985
:1032000008606A460FA10D480068FFF733FB6A4665
:1032100011A10B480068FFF72DFB00F027F8F8BD5F
:10322000E42D0010643200103F0000001001001077
:103230000E0100100C0100101C0100101401001000
:103240001801001075432F4F532D494920546D72BA
:103250004C6F636B0000000075432F4F532D49499D
:1032600020546D725369676E616C000000B587B0C1
:103270000320002180220A4BCDE90132CDE9031061
:103280004FF6FD703C23074A00900748FFF718FDF2
:1032900006AA06A13C20FFF767FD07B000BD0000AD
:1032A00064300010603200102933000075432F4F46
:1032B000532D494920546D720000000070B50B4633
:1032C000032580F82550012B05D1154EC5693668B8
:1032D000354445610CE085692DB9114EC5693668E4
:1032E0003544456104E00E4E8569366835444561D4
:1032F000057D05F007040B4D05EBC4010D682DB9E4
:1033000008600025C56001258D8006E00A68086018
:10331000C26010618D886D1C8D800025056170BDB7
:10332000100100106432001008B500BF00BF6A46EB
:1033300000211A480068FFF79DFBFFF72DFB184896
:103340000068401C164908600846007800F007082D
:10335000144800EBC8073C681AE0E6681049606949
:103360000968884213D1204600F01EF894F8240022
:10337000022804D101212046FFF7A0FF02E002202D
:1033800084F82500656815B12046A168A847344631
:10339000002CE2D1FFF71CFBC9E700001801001068
:1033A000100100106432001030B5057D05F00704EF
:1033B0000D4D05EBC4031D68854205D1C168196038
:1033C00039B100250D6104E00169C268CA6002B12B
:1033D0001161012580F825500025C56005619D8893
:1033E0006D1E9D8030BD0000643200102DE9F04F4D
:1033F00005460F4690469946A87A1C490E5C05F191
:103400000B00805D11F800B00BEBC60000F0FF0A66
:10341000174850F82A4000202434E0602760207CC0
:1034200020EA0800207484F81190207C243C00F0ED
:10343000080068B994F83A000E49097808430D4924
:1034400008700D48805D94F8391008430A49885582
:103450002946204600F012F8206A20B12046216A51
:1034600000F021F8E5615046BDE8F08F904D000076
:103470007C240010DD000010DE00001010B590F874
:10348000382001F10B039B5C90F83940A34301F114
:103490000B04A35423469B5C23B98B7A90F83A40E3
:1034A000A3438B7210BDF0B5024612F8384F9578E1
:1034B0005678383A0B4618680FE000F10B073F5D6D
:1034C000B74300F10B0C0CF8047067463F5D17B969
:1034D000877AAF4387721B1D18680028EDD1F0BDB5
:1034E00010B51B4A1268D061194A126892F8383038
:1034F00000F10B02D25C164B1B6893F839301A436B
:10350000134B1B6893F8384000F10B031A55827A6D
:103510000F4B1B6893F83A301A4382720C4A1268B8
:1035200092F838100B4A525C094B1B6893F83930FB
:103530009A43084B5A541A46525C42B9044A1268DC
:1035400092F83A30044A12789A43034B1A7010BD2D
:10355000EC000010DE000010DD000010014600222B
:103560008A72002005E0002301F10B021354421C73
:10357000D0B20828F7D370472DE9F0415021114807
:1035800000F032F900250DE0681C86B20D4800EB12
:10359000051400EB06170020207067600AA0E060A9
:1035A000681C85B2042DEFD3064800EB05140020FB
:1035B0002070606004A0E060024804490860BDE833
:1035C000F08100002C2000103F000000C800001017
:1035D00070B5F021134800F007F9002411E0601CD9
:1035E00085B204EB44000F4901EBC00305EB450035
:1035F00001EBC006002018705E600BA05861601CD3
:1036000084B2092CEBD304EB4400064901EBC00360
:1036100000201870586004A05861084603490860EB
:1036200070BD00003C1F00103F000000C4000010EF
:1036300000200A4908600A4908700A4908700A49C6
:1036400008700A4908700A4908600A4908600A496E
:1036500008600A4908600A490870704708010010AC
:10366000D9000010DA000010E7000010E60000109A
:10367000C0000010E8000010D4000010D0000010BE
:10368000D800001000210A4A1170002004E0002137
:10369000084A1154411CC8B20828F8D30021064A30
:1036A0001170064A1170064A1160064A116070478F
:1036B000DD000010DE000010DB000010DC00001058
:1036C000F4000010EC00001070B54FF4F2611948DE
:1036D00000F08AF84FF48071174800F085F8002454
:1036E00013E0601CC5B204EB440000EBC4001149B8
:1036F00001EBC00305EB450000EBC50001EBC00684
:103700005E610EA01865601CC4B2152CE9D304EBF1
:10371000440000EBC400074901EBC00300205861DE
:1037200006A018650020064908600248054908609F
:1037300070BD00007C2500107C2400103F000000BC
:10374000F8000010F000001000B587B00320002141
:1037500080220A4BCDE90132CDE903104FF6FF700C
:103760003F23074A00900748FFF7AAFA06AA06A1D6
:103770003F20FFF7F9FA07B000BD00007C220010DF
:1037800078240010693A000075432F4F532D4949A2
:103790002049646C6500000000B587B0032000215B
:1037A00080220A4BCDE90132CDE903104FF6FE70BD
:1037B0003E23074A00900748FFF782FA06AA06A1AF
:1037C0003E20FFF7D1FA07B000BD00007C200010BA
:1037D00078220010893A000075432F4F532D494934
:1037E000205374617400000004E0002200F8012BF3
:1037F0004A1E91B20029F8D17047000070B57821B7
:103800001148FFF7F1FF00240EE004EB44000E49DD
:1038100001EBC005601C00EB400001EBC0006860DC
:103820000AA06861601C84B2042CEED304EB44004F
:10383000054901EBC0050020686004A068610846E6
:103840000349086070BD00000C2D00103F0000000F
:10385000000100102DE9F04160211048FFF7C4FF7E
:1038600000240DE0601C86B204EB44000B4901EB20
:10387000C00506EB460001EBC0072F60601C84B258
:10388000032CEFD304EB4400044901EBC0050020F6
:103890002860084602490860BDE8F081842D0010C8
:1038A0000401001010B5FCF75BFC13480078F8B970
:1038B00012480078E0B900F02DF811481149097854
:1038C00050F82100104908600E4800780F49097827
:1038D00088420DD00C480068C06B401C0A4909683A
:1038E000C8630B480068401C09490860FCF760FC8D
:1038F000FCF73FFC10BD0000D9000010DA000010FA
:103900007C240010DC000010F4000010DB0000102C
:10391000C00000100649074A1278885C0649095C15
:10392000034A515C01EBC001044A1170704700006A
:10393000904D0000DD000010DE000010DC000010E3
:103940002DE9F05F05460F4690469946DDE90AAB42
:10395000FCF706FC3D480468002C72D01C3454F877
:10396000080C3A490860FCF704FC44F81C7CA57676
:10397000002020766076606144F818BC44F810ACF2
:1039800044F8148C0C9824F80C0C24F80A9C0020A1
:10399000E077E810207705F00700E076217F01202E
:1039A0008840A077E17E0120884060770020206079
:1039B0006060E060A0602062A0626062E0622063FC
:1039C00023A060631C3C002606E0002104F15400A3
:1039D00040F82610701CC6B2002EF6D02046FFF725
:1039E00025F92046FFF7BEF9FCF7BAFB194840F865
:1039F00025401948006860610020A06116480068F1
:103A000010B1154800688461134804603834A07808
:103A10001249097808431149087020781049085C58
:103A20006178084314F838190D4A50540D4800784D
:103A3000401C0C490870FCF79CFB0020BDE8F09F7F
:103A4000FFE7FCF796FB4220F8E70000F0000010CB
:103A50003F0000007C240010F8000010DD00001082
:103A6000DE000010E700001000BF00BFFCF778FB8D
:103A700004480068401C03490860FCF77AFBFFF724
:103A800072F9F3E7E800001000BF02E0C820FFF77A
:103A90007DFA194800780028F8D018480068642199
:103AA000B0FBF1F0154908600846006828B900200D
:103AB00013490870FF20FFF719FA00BFFCF750FB0D
:103AC000104800681049086000200E490860FCF7A3
:103AD00050FB0D48006809490968B0FBF1F0C0F1DE
:103AE000640007490870FFF771F900F00FF86420CF
:103AF000FFF74CFAE2E70000D8000010D0000010F9
:103B0000CC000010E8000010D40000107CB50025A7
:103B100014E069462846FFF75BF9064666B909488E
:103B200050F8254044B1012C06D0D4E9020100EB45
:103B30008100A0640198E064681CC5B23F2DE8D9FB
:103B40007CBD00007C24001002F0010343B102F0B0
:103B500002032BB102E0491E002308C00029FAD15C
:103B60007047000008B50246094800EB823108683A
:103B70000090009820F0010000900098086008680C
:103B80000090009800F0010080F0010008BD0000E6
:103B90000040044030B501462E48006840F40070F3
:103BA0002C4AC43AC2F8C4002B48007800F0100038
:103BB00038B12948007840F01000274A5C3A82F872
:103BC0005C000020244A5C3A10720320107001202F
:103BD0001073FF201074C888908748791E4A243AD1
:103BE0001070C8781C4A303A10700879121D107095
:103BF0008878194A343A10704878121F1070087883
:103C0000121F10700120144A5C3A10731120012217
:103C1000824043099B0003F1E023C3F8002100BF69
:103C20001222002807DAD3061D0E0C4B00F00F04F9
:103C3000241F1D5503E0D3061C0E094B1C5400BF66
:103C40000120054A5C3A10730320107001201072A5
:103C500030BD0000C4C00F405C40024018ED00E0E1
:103C600000E400E033484069334908603148806926
:103C70003249086008460068C0F30B403049C880EC
:103C80002E480088C0F3032048712C48007800F0CB
:103C90001F00C87028480068C0F3026008712648F9
:103CA0000068C0F30440887023480088C0F30520F2
:103CB00048702148007800F03F00087001201D493D
:103CC000087020480088401C1E4908801E48008853
:103CD000401C1D4908801D488089401C1B49888163
:103CE0001B48008F401C1A4908871A490878097830
:103CF000491C184A117000EBD0714910A0EB41012A
:103D000059B11548006C40F040001349086408465A
:103D1000806D40F0400088650AE00F48006C40F07C
:103D200040000D4908640846C06D40F04000C86579
:103D300070470000004002409400001098000010FE
:103D40009C0000108C0000108E000010D81A00108B
:103D5000781A0010A40000100080092000201A49E1
:103D6000096841F40011184AC43AC2F8C41016494F
:103D7000E4310968C8B21549C96B21F00701134A3B
:103D8000D1631146C96B41F00201D1631146496C00
:103D900021F0070151641146496C41F00201516460
:103DA0001146896C21F0070191641146896C41F03C
:103DB0000201916440F60701054A11600821116172
:103DC0000221516070470000C4C00F4000C0024093
:103DD0000080084002E012498968C8B21049C968E9
:103DE00001F004010429F6D000BF0D49C96801F0B3
:103DF00001010029F9D0FF21094A916000BF08495B
:103E0000C96801F010011029F9D000BF0449C96840
:103E100001F004010029F9D001498968C8B270474E
:103E20000080084000BF0849C96801F0010100296D
:103E3000F9D00549886000BF0349C96801F0100145
:103E40001029F9D070470000008008400020204968
:103E5000096841F480111E4AC43AC2F8C4101C49D2
:103E6000E4310968C8B21B49D1F8801021F007017C
:103E7000184AC2F880101146D1F8801041F00401B0
:103E8000C2F880101146D1F8841021F00701C2F861
:103E900084101146D1F8841041F00401C2F8841056
:103EA0001146D1F8901021F00701C2F89010114688
:103EB000D1F8901041F00401064A9032116040F6AA
:103EC0000701054A11600821116102215160704704
:103ED000C4C00F4000C0024000C00A4021202E494B
:103EE000086000BF2C48006800F040000028F9D0AE
:103EF000012029499439086009202849C1F8840023
:103F00000120264980310860AA2024498C310860AC
:103F10005520086000BF21488830006800F48060A8
:103F20000028F8D023201D49A431086001201B4936
:103F3000C1F8A000AA201949AC31086055201749E2
:103F4000C1F8AC0000BF1548A830006800F48060DC
:103F50000028F8D040F201100F499C39086040F267
:103F600001200E49C1F8080101200B49A039086061
:103F7000022009490831086009480849C43108602D
:103F8000881505492831086045F23A000349086060
:103F90000020044908607047A0C10F4000C00F40D6
:103FA000DE87280408ED00E010B50E22002110483D
:103FB000FDF714FE0F480068012121EA106018B1D6
:103FC00000200B49087002E00120094908700848E8
:103FD0008078094948700648808808810448C0886C
:103FE000488103480089888101484089C88110BD03
:103FF000201A001094800920181B001001204FF097
:104000004021086011480078401C10490870087869
:1040100000EBD0714910A0EB410159B90C48006880
:1040200040F000600A4908600846806940F000607E
:1040300088610AE00648006840F0006004490860B2
:104040000846C06940F00060C8617047A5000010D4
:104050000080092010B51A48006840F00200184995
:10406000C439C1F8C40002204FF04021486001204B
:104070000860002008678860C860124888610320D3
:1040800048610120012181404209920002F1E022B1
:10409000C2F8001100BF0321002807DACA06140E77
:1040A000094A00F00F031B1FD45403E0CA06130E85
:1040B000064A135400BF01204FF04021486010BD54
:1040C000C4C00F40009F240018ED00E000E400E0B1
:1040D00010B51B48006840F008001949C439C1F800
:1040E000C4001848806820F0070016498860084618
:1040F000806840F0010088600846C06820F0070032
:10410000C8600846C06840F00100C86083200E49BE
:1041100008730E48006800094FF4E131B0FBF1F478
:10412000200A094908710C7003200873872008725F
:104130000520FEF7E5FA07200349486010BD00009E
:10414000C4C00F4000C0024000C00040AC000010DE
:1041500010B50848007810B90748006840B1002041
:10416000044908700449086040210448FBF7DBFF5C
:1041700010BD00002C000010240000104C1B00108B
:1041800070B500BF47488068C4B2641004F00704EB
:10419000032C35D14348057D05F09E0010B1414800
:1041A000067870BD05F00100002878D000203E4957
:1041B000086016E03C4800683C490968084440280B
:1041C00001D3FFF7C5FF3748007837490968374AF8
:1041D00012681144364A505433480068401C324932
:1041E0000860314800680828E4D3304800682E4948
:1041F000096808442D49086001202E4908704EE0E6
:10420000022C29D100202849086016E026480068C1
:10421000264909680844402801D3FFF799FF21483F
:10422000017821480068214A12681044204A11543C
:104230001D480068401C1C4908601B48006808288D
:10424000E4D31A4800681849096808441749086007
:1042500001201849087022E0062C1BD110E01348F9
:104260000068402801D3FFF773FF0E48007810491B
:104270000E4A126888540D480068401C0B490860BB
:104280000848007D00F001000028E8D1012009491C
:10429000087004E0012C02D10248057D00BF00BF78
:1042A0007FE7000000C00040200000102400001044
:1042B0004C1B00102C00001010B51F48006840F087
:1042C00010001D49C439C1F8C4001C48D0F80001D1
:1042D00020F007001949C1F800010846D0F8000194
:1042E00040F00200C1F800010846D0F8040120F0B7
:1042F0000700C1F804010846D0F8040140F00200AC
:104300000F49086083200F4908730F4800680009AF
:104310004FF41651B0FBF1F4200A0A4908710C70F1
:1043200003200873872008720620FEF7E9F90720AA
:104330000449486010BD0000C4C00F4000C00240E6
:1043400004C1024000000140AC00001010B5084854
:10435000007810B90748006840B10020044908708F
:104360000449086040210448FBF7DDFE10BD000051
:104370003C00001034000010CC1B001004490870F1
:1043800000BF0349097D01F020010029F9D07047E1
:104390000000014030B502460B46002404E012F84C
:1043A000010BFFF7EBFF641C9C42F8D330BD00000B
:1043B00070B500BF47488068C4B2641004F00704B9
:1043C000032C35D14348057D05F09E0010B14148CE
:1043D000067870BD05F00100002878D000203E4925
:1043E000086016E03C4800683C49096808444028D9
:1043F00001D3FFF7ABFF3748007837490968374AE0
:1044000012681144364A505433480068401C3249FF
:104410000860314800680828E4D3304800682E4915
:10442000096808442D49086001202E4908704EE0B3
:10443000022C29D100202849086016E0264800688F
:10444000264909680844402801D3FFF77FFF214827
:10445000017821480068214A12681044204A11540A
:104460001D480068401C1C4908601B48006808285B
:10447000E4D31A48006818490968084417490860D5
:1044800001201849087022E0062C1BD110E01348C7
:104490000068402801D3FFF759FF0E480078104903
:1044A0000E4A126888540D480068401C0B49086089
:1044B0000848007D00F001000028E8D101200949EA
:1044C000087004E0012C02D10248057D00BF00BF46
:1044D0007FE70000000001403000001034000010B1
:1044E000CC1B00103C00001010B52248006840F0C2
:1044F00080702049C439C1F8C4001F48806A20F088
:1045000007001D4988620846806A40F00100886201
:104510000846C06A20F00700C8620846C06A40F03A
:104520000100C8629B2015490873154800680009FE
:104530004FF41651B0FBF1F4200A104908710C70C9
:104540001B200873872008720720FEF7D9F8072080
:104550000A4948600B48D0F8800040F00040094903
:10456000C1F880000846D0F8980040F00040C1F83B
:10457000980010BDC4C00F4000C002400080094038
:10458000AC0000100080092010B50848007810B970
:104590000748006840B100200449087004490860D9
:1045A00040210448FBF7BFFD10BD00004C00001087
:1045B000440000104C1C001070B500BF47488068D4
:1045C000C4B2641004F00704032C35D14348057DC0
:1045D00005F09E0010B14148067870BD05F001005D
:1045E000002878D000203E49086016E03C4800686A
:1045F0003C4909680844402801D3FFF7C5FF374804
:10460000007837490968374A12681144364A5054CD
:1046100033480068401C3249086031480068082867
:10462000E4D3304800682E49096808442D490860E1
:1046300001202E4908704EE0022C29D10020284983
:10464000086016E0264800682649096808444028A2
:1046500001D3FFF799FF2148017821480068214ADA
:1046600012681044204A11541D480068401C1C491F
:1046700008601B4800680828E4D31A4800681849F5
:10468000096808441749086001201849087022E0A9
:10469000062C1BD110E013480068402801D3FFF717
:1046A00073FF0E48007810490E4A126888540D486E
:1046B0000068401C0B4908600848007D00F00100BC
:1046C0000028E8D101200949087004E0012C02D13A
:1046D0000248057D00BF00BF7FE700000080094061
:1046E00040000010440000104C1C00104C00001052
:1046F00010B51F48006840F000701D49C439C1F86A
:10470000C4001C48D0F8700220F007001949C1F815
:1047100070020846D0F8700240F00200C1F8700242
:104720000846D0F8740220F00700C1F87402084669
:10473000D0F8740240F002000F49086083200F494E
:1047400008730F48006800094FF4E131B0FBF1F441
:10475000200A0A4908710C70032008738720087228
:104760000820FDF7CDFF07200449486010BD000078
:10477000C4C00F4000C0024074C2024000C00940E3
:10478000AC00001010B50848007810B90748006860
:1047900040B10020044908700449086040210448E1
:1047A000FBF7C1FC10BD00005C00001054000010BD
:1047B000CC1C001070B500BF47488068C4B26410BC
:1047C00004F00704032C35D14348057D05F09E0015
:1047D00010B14148067870BD05F00100002878D07E
:1047E00000203E49086016E03C4800683C490968E2
:1047F0000844402801D3FFF7C5FF37480078374900
:104800000968374A12681144364A505433480068E0
:10481000401C32490860314800680828E4D3304819
:1048200000682E49096808442D49086001202E4976
:1048300008704EE0022C29D100202849086016E0BB
:1048400026480068264909680844402801D3FFF734
:1048500099FF2148017821480068214A12681044D4
:10486000204A11541D480068401C1C4908601B4820
:1048700000680828E4D31A48006818490968084401
:104880001749086001201849087022E0062C1BD146
:1048900010E013480068402801D3FFF773FF0E486B
:1048A000007810490E4A126888540D480068401C70
:1048B0000B4908600848007D00F001000028E8D19D
:1048C00001200949087004E0012C02D10248057D4D
:1048D00000BF00BF7FE7000000C00940500000108B
:1048E00054000010CC1C00105C00001010B51F48D4
:1048F000006840F480701D49C439C1F8C4001C48E8
:10490000D0F88C0220F007001949C1F88C02084643
:10491000D0F88C0240F00400C1F88C020846D0F8B0
:10492000900220F00700C1F890020846D0F89002EB
:1049300040F004000F49086083200F49C8600F4809
:10494000006800094FF41661B0FBF1F4200A0A492F
:104950004860E0B208600320C86087208860232098
:10496000FDF7CEFE07200449486010BDC4C00F40CB
:1049700000C0024090C2024000400A40AC0000105B
:1049800010B50848007810B90748006840B1002009
:10499000044908700449086040210448FBF7C3FB40
:1049A00010BD00006C000010640000104C1D0010D1
:1049B00070B500BF49488068C4B2641004F00704B1
:1049C000032C37D145484069C5B205F09E0018B1A7
:1049D00042480068C6B270BD05F0010000287AD0D8
:1049E00000203F49086016E03D4800683D490968DD
:1049F0000844402801D3FFF7C3FF3848006838490E
:104A00000968384A12681144374A505434480068DB
:104A1000401C33490860324800680828E4D3314814
:104A200000682F49096808442E49086001202F4971
:104A3000087050E0022C2AD100202949086017E0B4
:104A400027480068274909680844402801D3FFF730
:104A500097FF22480068C1B221480068214A1268C5
:104A60001044214A11541E480068401C1C4908602B
:104A70001B4800680828E3D31A48006818490968E9
:104A800008441849086001201849087023E0062CE2
:104A90001BD110E013480068402801D3FFF770FFD6
:104AA0000E48006810490F4A126888540D48006883
:104AB000401C0C4908600948406900F001000028CA
:104AC000E8D101200949087005E0012C03D1034811
:104AD0004069C5B200BF00BF7DE7000000400A404A
:104AE00060000010640000104C1D00106C000010ED
:104AF0002DE9F04105460F4690461E46082D02DD81
:104B00000020BDE8F081174805704770C0F80480A8
:104B1000002014498860C860002415E0042C08DADD
:104B2000305DE10088400F49896808430D4988607D
:104B300008E0305D211FC90088400A49C968084360
:104B40000849C860601CC4B2AC42E7DB0121002008
:104B5000FCF772FC0123002211461046FEF750FAC2
:104B60000120CEE70C1F00102DE9F04105460F464D
:104B700090461E46082D02DD0020BDE8F081174852
:104B800005704770C0F80480002014498860C86030
:104B9000002415E0042C08DA305DE10088400F495C
:104BA000896808430D49886008E0305D211FC9000D
:104BB00088400A49C96808430849C860601CC4B2F3
:104BC000AC42E7DB01210846FCF736FC0223002259
:104BD00011461046FEF714FA0120CEE70C1F001014
:104BE00002E008C8121F08C1002AFAD170477047B6
:104BF000002001E001C1121F002AFBD17047000014
:104C000010B5FDF723F81848FBF71EFBFFF7A6F8D1
:104C1000FFF71CF9FFF71EFAFFF75AFAFFF74CFBF4
:104C2000FFF762FCFFF764FDFFF760FE0F4900200D
:104C3000FCF7CAFC0D490C310120FCF7C5FC0C48FF
:104C4000FCF7B6FF0A48FEF7A5FFFFF7ADF9FDF741
:104C500039FE0023074A19460748FDF7E9FFFDF72B
:104C6000A1FF002010BD0000801A06000B002F00DD
:104C70009C000010AC020010A54C000010B50446CA
:104C8000FBF70EFB10BD10B50446FBF707FE10BD89
:104C900010B50446FDF748F810BD10B50446FDF701
:104CA00013F910BD00F042F8FDF7A0FF02230E4AF1
:104CB00000210E48FDF7BCFF05230D4A00210D48D9
:104CC000FDF7B6FF08230C4A00210C48FDF7B0FFA2
:104CD0000A230B4A00210B48FDF7AAFF02E0FF2040
:104CE000FEF704F9FBE70000CC0500107D4C000046
:104CF0009C0D0010874C00006C1500109B4C0000B0
:104D00001C1A0010914C000010B5FBF729FA064858
:104D10000078401C04490870FBF72BFAFEF7A0F955
:104D2000FDF7F4FD10BD0000D900001070B50020A3
:104D3000FCF7E4FC04464FF47A70B4FBF0F0411E3B
:104D4000B1F1807F00D31DE021F07F40401E4FF085
:104D5000E022506150171F22002807DAD3061E0EEA
:104D6000094B00F00F052D1F5E5503E0D3061D0E05
:104D7000064B1D5400BF00204FF0E0229061072039
:104D8000106100BF70BD000018ED00E000E400E01D
:104D90000000010002000100030001000200010008
:104DA00004000100020001000300010002000100F4
:104DB00005000100020001000300010002000100E3
:104DC00004000100020001000300010002000100D4
:104DD00006000100020001000300010002000100C2
:104DE00004000100020001000300010002000100B4
:104DF00005000100020001000300010002000100A3
:104E00000400010002000100030001000200010093
:104E10000700010002000100030001000200010080
:104E20000400010002000100030001000200010073
:104E30000500010002000100030001000200010062
:104E40000400010002000100030001000200010053
:104E50000600010002000100030001000200010041
:104E60000400010002000100030001000200010033
:104E70000500010002000100030001000200010022
:104E80000400010002000100030001000200010013
:104E9000010000007856341201000A0001001800D9
:104EA000F0000100010010001400020005000100E4
:104EB0003F0001000100050001001800780001001A
:104EC00004000100040018000800010004000100B3
:104ED00001000100800001001600010001008000B7
:104EE00001000100010040005800E8030100230117
:104EF00001001000010008000A00280080020800DC
:104F00004000C213244F00000000001020010000E8
:104F1000E04B0000445000002001001088330000E6
:104F2000F04B000000000000000000000000000046
:104F30000000000000000000000000000000000071
:104F40000000000000000000000000000000000061
:104F50000000000000000000000000000000000051
:104F60000000000000000000000000000000000041
:104F70000000000000000000000000000000000031
:104F80000000000000000000000000000000000021
:104F900000000000CC1D0010CC1D00106C1E001085
:104FA0006C1E001000000000000000000000000067
:104FB00000000000000000000000000000000000F1
:104FC000000000000000000000000000000E2707A5
:104FD0000087930300879303006CDC02000000004D
:104FE00000000000000000000000000000000000C1
:104FF00000000000000000000000000000000000B1
:1050000000000000000000000000000000000000A0
:105010000000000000000000000000000000000090
:105020000000000000000000000000000000000080
:105030000000000000000000000000000000000070
:04504000000000006C
:04000005000000E512
:00000001FF
