:020000040000FA
:10000000A0340010F900000001010000030100000D
:1000100005010000070100000901000000000000C8
:100020000000000000000000000000000B010000C4
:100030000D01000000000000CF0100001949000080
:100040000F0100000D3C00000F0100000F01000037
:100050000F010000913D0000C13F0000C9410000B8
:10006000C54300000F0100000F0100000F01000058
:100070000F0100000F0100000F0100000F01000040
:100080000F010000913800000F0100000F01000077
:100090000F0100000F0100000F0100000F01000020
:1000A0000F010000A51400000F0100000F01000067
:1000B0000F0100000F0100000F0100000F01000000
:1000C0000F0100000F0100000F010000C1450000FA
:1000D0000F0100000F0100000F0100000F010000E0
:1000E0000F010000DFF80CD000F028F800480047AE
:1000F00011480000A034001005488047054800471B
:10010000FEE7FEE7FEE7FEE7FEE7FEE7FEE7FEE7C7
:10011000093B0000E5000000D2B201E000F8012B2D
:10012000491EFBD270470022F6E710B513460A4677
:1001300004461946FFF7F0FF204610BD064C074D58
:1001400006E0E06840F0010394E8070098471034A7
:10015000AC42F6D3FFF7CAFF144B0000344B00004B
:1001600072B606B42E490A7802F101020A7006BC82
:10017000704706B42A490A78A2F101020A704FF0CA
:100180000001002A08BF81F3108806BC7047254C87
:10019000254D25604FF0000484F30988234C4FF06F
:1001A00001052570224C4FF08055256062B6FEE7B0
:1001B00030B41F4C4FF08055256030BC704730B4D0
:1001C0001B4C4FF08055256030BC704700BFEFF3EB
:1001D000108372B6EFF3098030B1A0F1200080E8FF
:1001E000F00F144C2468206000B5134880475DF878
:1001F00004EB124C124D2E7826700E4C114E3668C0
:100200002660306890E8F00F00F1200080F3098844
:100210004EF0040E83F31088704700BF72B670472B
:100220001000001020ED00E00000FFFF3E00001075
:1002300004ED00E044000010B52B00003300001076
:10024000340000104C0000101149096841F480513D
:100250000F4AC43AC2F8C4100E49D1F8FC1021F07C
:100260009F010C4AC2F8FC101146D1F8FC1041F075
:100270000301C2F8FC1008490968B1FBF0F1491EFE
:10028000202242EA012141F40011044A1160704722
:10029000C4C00F4000C002400400001000400340F2
:1002A00007E0022300221146104602F0BFFC00F0D6
:1002B00027F8F6E710B5014600230A2903DB0021E1
:1002C0006FF07F4010BD0A48006820F0E060084CE5
:1002D00020600748103050F8212002F0804010B113
:1002E0006FF07F40EEE7C2F30B131846EAE7000019
:1002F0000040034010B501F0EFF910BDFFFFFFFF14
:1003000070B50024002511E0052000F04FF800BF73
:10031000052000F03FF80028FAD105B905E00520D6
:10032000FFF7C8FF0646344400BF6D1C652DEBD3B4
:100330006420B4FBF0F4B4F5467F03D201201449E5
:10034000086024E0B4F5956F06D2B4F5467F03D972
:1003500002200F4908601AE040F29A60844207D2F6
:1003600040F20A50844203D90320094908600EE094
:1003700040F66A40844207D240F29A60844203D930
:1003800004200349086002E004200149086070BDB0
:100390009000001001460A2900DB0021024A52F8B1
:1003A0002120D00F70470000104003400A2800DBD6
:1003B0000020054909680122824042F08072114301
:1003C000014A1160704700000040034010B5012051
:1003D0000B4908700B480C49086000200B49087055
:1003E00048708870C870087148718871C8710B4670
:1003F000054801210268082004F0BEF910BD000084
:10040000382E001000A03010F4000010F80000108A
:1004100010B544484449086001204449087002204E
:10042000487000208870C870087148718871C87160
:100430000B463D4801210268082004F09DF9022086
:100440003A490870487000208870C8700871487177
:100450008871C8710B46344801210268082004F0F5
:100460008BF9032031490870022048700020887001
:10047000C870087148718871C8710B462A480121FB
:100480000268082004F078F9042028490870022046
:10049000487000208870C870087148718871C871F0
:1004A0000B46214801210268082004F065F9052067
:1004B0001E4908700220487000208870C8700871BA
:1004C00048718871C8710B461748012102680820DD
:1004D00004F052F9062015490870022048700020E7
:1004E0008870C870087148718871C8710B460E48D1
:1004F00001210268082004F03FF907200B49087029
:100500000220487000208870C87008714871887196
:10051000C8710B46044801210268082004F02CF938
:1005200010BD000000A03110F4000010F800001011
:1005300010B508200A4908700A480B4908600020D5
:100540000A49087048708870C870087148718871CD
:100550000B46054801210268082004F00DF910BD82
:10056000382E001000A03210F4000010F800001027
:1005700010B50B480B49086000200B490870022099
:10058000487000208870C8700871487188710B46E7
:10059000044801210268082004F0EEF810BD0000B4
:1005A00000A03310F4000010F800001010B50F4840
:1005B0000F4908600F480068022803D104200E4943
:1005C000087002E000200C49087000200A494870B9
:1005D0008870C8700871487188710B460448012101
:1005E0000268082004F0C8F810BD000000A034180C
:1005F000F400001090000010F800001010B54A48F8
:10060000007A10B9012049490870494849490860F1
:10061000012049490870002048704448807888705B
:1006200042484088000AC87040488088C0F57A6017
:1006300008713E488088C0F57A60000A48713F48DA
:10064000407E88713D4890F82F00C8710B463948AC
:1006500001210268082004F08FF802203649087052
:10066000364890F82D004870344890F83E00887065
:100670003248C08F000AC8700020087148712F48A6
:1006800090F8220088712D48408C000AC8710B46F2
:10069000284801210268082004F06EF8032026494A
:1006A00008702648808CC0F57A6048702348808C9A
:1006B000C0F57A60000A8870204890F82600C8705B
:1006C0001E4890F83A0008711C48408F000A487193
:1006D0001A48808FC0F57A6088711848808FC0F5FD
:1006E0007A60000AC8710B4612480121026808208E
:1006F00004F042F8042010490870104890F84200B5
:1007000048700E48B0F84200000A88700020C87097
:10071000087148718871C8710B460648012102684A
:10072000082004F029F810BD8C320010382E00107B
:1007300000A03518F4000010F8000010D82D0010AB
:1007400010B51048007806281ADB00F0E1FA0E48D0
:1007500000890E4948840C4880684FF47A61A1EB07
:1007600010400A4988840848007B81F8260001204F
:1007700081F8270081F82800002002490885888434
:1007800010BD0000382E00107C320010D82D001053
:10079000044880680449884202D008200349087050
:1007A000704700007C320010F0F0F0FC382E001092
:1007B00001201849087318480078022828D11748E2
:1007C000008948830846408B1349498A88420CDCDB
:1007D0001048408B1049C8810846C089B0F5FA6FAF
:1007E00007DC4FF4FA60C88103E00B48408A0A49ED
:1007F000C8810A200849088209480078032807D1DF
:1008000008700846808B401C8883002004490870CB
:1008100070470000D82D0010382E00107C320010D8
:100820008000001000F058FF69E201230022114609
:10083000104602F0FBF9FB480068022807D0FA488E
:100840000078022803DB0820F74908700AE0F54821
:100850000068022806D0F4480078012802D1002060
:10086000F149087000F0D0FBEF4800780B287CD2EB
:10087000DFE800F07B06435E89ACE2FDFCFBFA009A
:10088000FFF738FDE948006C40F40060E749086470
:100890000846806D40F4006088656423002211469C
:1008A000104602F0C3F9E148006E40F08060DF4975
:1008B00008660846806F40F0806088670120DA494A
:1008C00081F83400642300221146104602F0AEF98C
:1008D000D648006E40F08070D44908660846806FA4
:1008E00040F080708867002301221946184602F004
:1008F0009DF90220CC49087000E2CB48408B401C97
:10090000C94948830846408BFA2190FBF1F201FB6C
:10091000120008B900F048FAC348408BB0F5FA5FFE
:1009200005DBC348007B10B90820BF490870E5E12A
:10093000BD48808B401CBC4988830846808B41F2AF
:100940008831884212DABA48407BD8B9B648808BE1
:10095000FA2190FBF1F201FB120098B9002000F09F
:1009600075FA0920B04908700CE0C6E1AE48808BEA
:1009700041F28831884205DBAE4800F0F9F90920E0
:10098000A9490870BAE1A848808B401CA649888311
:100990000846808B41F2883188420ADAA248808B6F
:1009A000FA2190FBF1F201FB120010B9AA2000F02D
:1009B0004DFA9D48808B41F28831884205DB9E4884
:1009C00000F0D6F909209849087097E19648C08B45
:1009D000401C9549C8830846008C401C0884084682
:1009E000008C41F28831884219DA9148007E012852
:1009F00021D18D48C08BFA2190FBF1F201FB12004E
:100A000008B900F0E9F98848008C4FF4FA7190FBBE
:100A1000F1F201FB120070B900F090FA0BE082488D
:100A2000008C41F28831884205DB844800F0A0F94F
:100A300009207D49087061E17B48408C401C7A495F
:100A400048840846408C4EF66021884238DA78485F
:100A500090F8270080BB764890F8290060BB784862
:100A6000007848B1022803E044E1FEE0A1E039E06B
:100A700011D0032822D120E06B48408CFA2190FB52
:100A8000F1F201FB120010B9002000F0FFF9012083
:100A90006B49087013E06448408CFA2190FBF1F236
:100AA00001FB120038B9AA2000F0F0F907205E49D6
:100AB00008700020488402E013E000E000BF10E06E
:100AC0005948408C4EF6602188420ADB584890F81D
:100AD0002000012805D0594800F04AF90920524960
:100AE00008700BE15048408C401C4F494884084630
:100AF000008D401C08850846808C401C8884084670
:100B0000C08C401CC8844A4890F8280018B1484856
:100B100090F8290058BB4448408CFA2190FBF1F230
:100B200001FB120010B9AA2000F0B0F9404890F87B
:100B3000290001280AD13C48808CB0F57A7F05DD78
:100B40003E4800F015F9092037490870384890F8F8
:100B5000280068BB3448C08C41F28831884227DDC8
:100B6000364800F005F909202F49087020E0304888
:100B700090F8280001281BD12D4890F82900012861
:100B800016D12948808CB0F57A7F05DD2B4800F01E
:100B9000EFF80920244908702348C08C41F28831BD
:100BA000884205DD254800F0E3F809201E49087059
:100BB000A4E01D48408D401C1B4948850846808D97
:100BC000401C88851A4890F85B00D8BB0846408DC9
:100BD0000A2190FBF1F201FB120018B91249C86B0F
:100BE00000F090F91048408D41F2883188423BDB9B
:100BF000124800F0BDF80C4890F83500012833D1B8
:100C00000A48006C40F40060084908640846C06D5A
:100C100040F40060C8650020034981F835000920D0
:100C2000087021E090000010382E0010008009208C
:100C3000D82D0010FCC0F0FDFCC0F1FCFCC0F4FCA1
:100C400081000010FFE72E4890F85B0001280BD1CF
:100C50002C48808D42F21071884205DB2A4800F052
:100C600087F809202749087048E0264890F83500A1
:100C700001280ED12548006A40F4802023490862EB
:100C80000846C06B40F48020C86300201D4981F8ED
:100C900035001E48006E40F080601C49086608461A
:100CA000C06F40F08060C8670023012219461846D3
:100CB00001F0BCFF1548006C40F400601349086463
:100CC0000846C06D40F40060C86500230122194643
:100CD000184601F0ABFF0D48006E40F080700B49E4
:100CE00008660846C06F40F08070C8670A20054952
:100CF000087003E000F0E6FC00E000BF00BF94E5F0
:100D0000D82D0010382E0010FCC0F4FC0080092003
:100D100010B51348134908601348807813490870C8
:100D200011484088000A48700F488088C0F57A60F2
:100D300088700D488088C0F57A60000AC8700A483B
:100D4000007B087108488089000A4871FD2088717D
:100D50000B46044801210268072003F0D1FC10BDB6
:100D600056F41218F4000010382E0010F80000108D
:100D700010B5044609480A490860200E0949087060
:100D8000200C4870200A8870CC700B460448012162
:100D90000268042003F0B4FC10BD000056F41F08E4
:100DA000F4000010F800001010B508480849086069
:100DB0000120084908704870002088700B460448DC
:100DC00001210268032003F09BFC10BD56F4261895
:100DD000F4000010F800001010B518481849086019
:100DE0001848807C184908701648408A000A4870E4
:100DF0001448007D88701348808A000AC870114822
:100E0000C08AC0F57A6008710E48C08AC0F57A6061
:100E1000000A48710B48008BC0F57A608871094858
:100E2000008BC0F57A60000AC8710B4604480121A6
:100E30000268082003F064FC10BD000056F4081896
:100E4000F4000010382E0010F800001010B5044611
:100E50000B480C4908600C48047001200A4948708E
:100E600000208870C8700871FF2048718871C871AF
:100E70000B46044801210268082003F041FC10BD24
:100E800056F40118F4000010F800001010B50446E4
:100E900009480A4908601CB900200949087002E0A5
:100EA000AA2007490870064B044801210268084639
:100EB00003F026FC10BD000056F40A10F4000010E8
:100EC000F800001010B50C480C49086000200C49CF
:100ED00008704870012088709920C870012008713E
:100EE0003D2048713E2088710B460448012102686C
:100EF000082003F005FC10BD56F41D18F400001086
:100F0000F800001010B5044609480A4908600A496B
:100F10000C70200A4870200C8870200EC8700B4698
:100F2000044801210268042003F0EAFB10BD000020
:100F300056F41A10F4000010F800001010B50A481A
:100F40000A490860FF200A49087048708870C87014
:100F5000087148718871C8710B4604480121026804
:100F6000082003F0CDFB10BD56F40718F400001064
:100F7000F800001070B505460C460E480E49086092
:100F800013200E4908700846457000208870022022
:100F9000C870FF2008714C7194FBF0F0887100203C
:100FA000C8710B46044801210268082003F0A8FB21
:100FB00070BD000056F4EC1CF4000010F8000010A6
:100FC00070B505460C460D480D49086011200D49C5
:100FD00008700846457001208870FF20C8700871AD
:100FE0004C7194FBF0F088710020C8710B460448E6
:100FF00001210268082003F083FB70BD56F4EC1C4D
:10100000F4000010F800001010B53B4801683B48A0
:10101000814216D13A4838490A68D2E90034D2E907
:101020000212C0E90034C0E902123348006800210E
:10103000016041608160C160304890382E4908608D
:1010400015E02F492C480468D4E90023D4E90204B0
:10105000C1E902040CC12848006800210160416018
:101060008160C1602448006810302349086024482A
:101070004068244A811A904229D00CDC2249084455
:1010800070B322490844E0B1B0F5801F22D0204956
:10109000084440BB18E0B1F5102F1ED0B1F5A01FD9
:1010A00006D0B1F19B6F09D01A480844D8B902E0C4
:1010B000FFF77EFB18E000F0F5FB15E000F040FBC9
:1010C00012E000F029F80FE0FFF73AFB0CE000F027
:1010D00043F809E000F004F906E000F033F803E01B
:1010E000FFF756FB00E000BF00BF0548002101608C
:1010F00041608160C16010BDE8000010BC3100108B
:101100007C320010F45613180CA9E1F7000015F812
:101110000000F9F7000027FB0748007805280AD1EE
:101120000648007AAA2806D10120054981F8200046
:101130000620014908707047382E00107C320010DC
:10114000D82D001010B5002002498885FFF7BAFE9F
:1011500010BD0000382E00105C48007807287DD1B3
:101160005B48007A5B4981F82C0059480089000AE5
:1011700081F82D0056488068000C81F82E005448F4
:101180008068000E81F82F005148007B81F8300004
:101190004F488089C0F3012081F83100084690F85B
:1011A0003100012804D14C484849C8630820087020
:1011B0004748C0680C2101EA1020464981F83200F6
:1011C000084690F83200042804D143483F49C863D8
:1011D000082008703E48C068302101EA10203D49CF
:1011E00081F83300084690F83300102804D13A48BB
:1011F0003649C863082008703548C068C02101EA34
:101200001020344981F83400084690F83400402812
:1012100004D131482D49C863082008702C48C068A3
:10122000C0F301402B4981F83500084690F835009D
:10123000012804D128482549C8630820087024489B
:10124000C0680C2101EA1040224981F836000846A6
:1012500090F83600042806D11F4800E034E01B490E
:10126000C863082008701A48C068302101EA10409D
:10127000184981F83700084690F83700102806D141
:10128000124890F83500012801D100200887114844
:1012900090F83700C0B90D4890F83500012813D1F7
:1012A0000E48006A40F480200C4908620846C06B72
:1012B00040F48020C8630020044981F835000549C6
:1012C0000887024981F8380070470000382E001066
:1012D0007C320010D82D00101000F4F0008009209E
:1012E00010B500201749488508460078082827DCF3
:1012F00008460078022823DB0820087001201249E4
:1013000081F85B000F49C86BFFF7FCFD0D4890F8B2
:101310003500012814D10B488088322810DC0B4896
:10132000006C40F40060094908640846C06D40F450
:101330000060C8650020034981F835000920087065
:1013400010BD0000382E0010D82D0010008009209C
:1013500010B50246194800EB82342368C3F30340FA
:101360000870D80F48701548001D00EB82342368C0
:10137000487818B123F06040486002E0C3F30A00E7
:1013800048605AB90D48083000EB823423688B60FE
:10139000001D00EB82342368CB600CE0012A0AD1E7
:1013A0000648083000EB823423688B60001D00EB98
:1013B00082342368CB60012010BD0000204004402F
:1013C00070B502460B46581EC3B2334800EB82305C
:1013D00000EB0314216831480140314800780004D3
:1013E0002F4E767840EAC670014321602C4845783C
:1013F0002948001D00EB823000EB031421683DB149
:1014000001F0E0412648406820F06040014306E0DA
:101410006FF30A0122488088C0F30A00014321606B
:101420001D48083000EB823000EB03141C48806834
:10143000206019480C3000EB823000EB0314184890
:10144000C068206014482C3800EB8234216821F0F9
:10145000030141F0030121F0E00123B1012B05D08C
:10146000022B09D105E041F0200106E041F04001E6
:1014700003E041F0800100E000BF00BF21600648AA
:10148000283800EB8234216801F0080008B10120FF
:1014900070BD0020FCE7000030400440FFFFF03F3B
:1014A0006C320010F0B5002445E0244800EB843590
:1014B0002F6807F0010000283BD027F001072F60BC
:1014C000D4B91F4801682046FFF742FF1C48016855
:1014D0001C48814203D190381949086004E018483B
:1014E00000681030164908601448083800EB84354D
:1014F0002E6846F004062E60012C1AD112480168AD
:101500002046FFF725FF104801681048814203D1AB
:1015100090380D49086004E00B48006810300A4913
:1015200008600648083800EB84352E6846F004064B
:101530002E60601CC4B2022CB7DBF0BD0C4004402E
:10154000E4000010BC310010EC0000105C32001010
:10155000F0B504460D4600BF14B1012C44D11DE086
:101560004348006840F400504149C439C1F8C40000
:101570004048406D20F007003E4948650846406DF0
:1015800040F0040048650846806D20F0070088653B
:101590000846806D40F00400886526E03448006805
:1015A00040F480403249C439C1F8C4003148D0F811
:1015B0001C0120F007002F49C1F81C010846D0F893
:1015C0001C0140F00100C1F81C010846D0F82001C0
:1015D00020F00700C1F820010846D0F8200140F0B3
:1015E0000100C1F8200100E000BF00BF204600F06C
:1015F0005BFA214800EB8436356001201F49086002
:101600009CB91D481438406840F00E001A4914393E
:1016100048600846006940F001000861084680689B
:1016200088600846C06887B210E01548406840F0FE
:101630000E00134948600846006940F00100086147
:101640000846806888600846C06887B202200B4957
:101650000860204602F09CF81920012181404209CF
:10166000920002F1E022C2F8001100BFF0BD0000BC
:10167000C4C00F4000C002401440044000C00340FA
:1016800000800440014631B1012907D0022908D069
:1016900003290CD108E00748006870470648006835
:1016A000FBE706480068F8E705480068F5E700BF73
:1016B000FEE7000000000010040000100800001009
:1016C0000C0000100120034981F837000020087049
:1016D00070470000382E001000201749087048831A
:1016E0008883C883088448848884C884088548859A
:1016F000088641F64C5048824FF4FA60888240F6E2
:10170000C410C882002008838881C86381F836002D
:1017100081F8370081F8340081F8350007490873F3
:101720004873087681F8200081F8270081F82A00A4
:1017300081F8290008877047382E0010D82D001036
:1017400010B55248007808287ED2DFE800F09304F4
:1017500005062893935A8EE08DE04D48007A401E8E
:10176000C0EBC0004B4901444948C2680A60028A84
:101770008A80807C88714648007A47494978884247
:101780000CD1454A51881078FFF7F4FBAA20FFF7E7
:101790005DFB00203D498883042008706BE03C48D5
:1017A000007A401EC0EBC0003C4901443848C26882
:1017B0000A60028A8A80807C88713848007A3749BA
:1017C000497AC1EB012108443349C8830846C08BDC
:1017D000B0F5FA6F02DC4FF4FA60C8832C48007A47
:1017E0002D49497988420BD12B4AD1881079FFF7CE
:1017F000C1FBFFF7A3FBFFF7EFFA052023490870B1
:1018000039E0254890F82A0001281ED12048007AA6
:10181000401EC0EBC000224901441D48C2680A6056
:10182000028A8A80807C88711948007A1A49497A2C
:10183000884204D1184A5189107AFFF79BFB002097
:10184000154981F82A0014E014E0134890F82B00A1
:1018500001280EDB0E48007A0F49497A884204D1EC
:101860000D4A5189107AFFF785FB00200A4981F85B
:101870002B0000E000BF00BF06484078C0EB00200E
:101880000449097808440449C88110BD382E001065
:101890007C320010902D0010D82D0010C12D0010AA
:1018A000CE2D001010B57D480078032822D17C4849
:1018B000007A10281ED17A48C06800F47F004FF4E7
:1018C0000071B1EB102F15D101207649487374488F
:1018D0000089000A087072488068000E48707048DD
:1018E000C06800F47F00000A48800A46518850789A
:1018F000FFF766FB69480078042822D16848007A1F
:1019000010281ED16648C06800F47F004FF4C06103
:10191000B1EB102F15D1012062490876604800898B
:10192000000A08715E488068000E48715C48C06813
:1019300000F47F00000AC8800A46D1885079FFF77A
:101940003FFB5648007807282DD15548007A1028CB
:1019500029D15348C06800F47F004FF48851B1EB9F
:10196000102F20D101204D4981F836004D4981F8D2
:101970002A0081F8290000204849C8844848008985
:10198000000A4849087246488068000E4872444878
:10199000C06800F47F00000A48810A465189507AE5
:1019A000FFF70EFB79E03D480078072824D13C483A
:1019B000007A102820D13A48C06800F47F004FF424
:1019C000A851B1EB102F17D10120364981F82B0017
:1019D00033480089000A087231488068000E487256
:1019E0002F48C06800F47F00000A48810A465189E8
:1019F000507AFFF7E5FA50E028480078072824D10C
:101A00002748007A102820D12548C06800F47F00BC
:101A10004FF4B051B1EB102F17D10220214981F8BA
:101A20002B001F480089000A08721D488068000EBC
:101A300048721B48C06800F47F00000A48810A46CB
:101A40005189507AFFF7BCFA27E01448007807283C
:101A500023D11348007A10281FD11148C06800F420
:101A60007F004FF4B851B1EB102F16D103200D4970
:101A700081F82B000A480089000A0872084880682B
:101A8000000E48720648C06800F47F00000A4881D2
:101A90000A465189507AFFF793FA10BD382E00108C
:101AA0007C320010D82D001008B50146084800EB24
:101AB000813210680090009820F00100401C0090D6
:101AC0000098106010680090009800F0010008BDB8
:101AD000004004404FF4FA61C18001214171C1709E
:101AE00001710021817041700170704708B500904C
:101AF00002E00099491E009100990029F9D108BD22
:101B00002DE9F04104460D4616461848006840F499
:101B10008030164908600846C06940F48030C861CA
:101B20000520FFF7E3FF032001F092FF280A01F0F0
:101B30008FFFE8B201F08CFF002705E001F060FFA5
:101B40002070641C781C87B2B742F7DB0520FFF7D2
:101B5000CDFF0648006840F480300449086008461C
:101B6000806940F480308861BDE8F0810080092000
:101B70001A48006C40F04000184908640846C06DDF
:101B800040F04000C8650846006840F480300860B6
:101B90000846806940F4803088610846006A20F079
:101BA000807008620846006A20F0007008620846EB
:101BB000006A20F0806008620846006A20F0006039
:101BC00008620846006A20F08050086203488030AE
:101BD000006820F01000C1F88000704700800920E4
:101BE00010B51248007810281DD11048407800F038
:101BF0001000102817D10D48C0780C49897800EBE7
:101C000001200B490860094840790849097900EB2F
:101C10000120084908600548C0790449897900EB2A
:101C200001200549086002F099F910BD2C2F001021
:101C30008C000010840000108800001077E0002461
:101C40004FF4FA7300221146104600F0EFFF3848B7
:101C50000078012835D1374A0221102000F078F8A9
:101C600000BF601CC4B2002301221946184600F0D0
:101C7000DDFF314A0121102000F06AF8FFF7B0FFC4
:101C80002E4800680A21B0FBF1F02D49096888420E
:101C90000BD22A4800680A21B0FBF1F029490968F3
:101CA000884202D2022022490870142CD9DB002479
:101CB0004FF404320221102000F04AF802201C499F
:101CC000087021480078012830D11B4A01211020DA
:101CD00000F03EF800BF601CC4B200230122194688
:101CE000184600F0A3FFFFF77BFF1448006814219B
:101CF000B0FBF1F01549C98B104A1268511A88429D
:101D00000BD80E4800681421B0FBF1F10F48C08BCE
:101D10000A4A1268801A814202D902200A490870D0
:101D2000032CD8DB002402200749087000BF86E797
:101D30008000001020100200050403028C00001037
:101D4000840000108800001081000010D82D0010C1
:101D50002DE9FC4106460F4615466C4604F8016B1A
:101D600004F8017B280E04F8010B280C04F8010B81
:101D7000280A04F8010B04F8015B0621684600F00C
:101D80000FF804F8010B0621684600F009F8000A74
:101D900004F8010B0821684602F004F9BDE8FC8153
:101DA00030B502460B464FF6FF70002112E0555C3D
:101DB000684000240AE000F0010525B140104AF215
:101DC0000105684000E04010651CACB2082CF2DB55
:101DD0004D1CA9B29942EADB30BD00000020AA499F
:101DE0000861AA490860A8498870A94981F83800A3
:101DF0000120A549487046E10A23002211461046F9
:101E000000F014FFA0480069401C9F4908619F48EA
:101E10000068401C9D49086000F0C2F99A480069BA
:101E2000C821B0FBF1F201FB120028B900231A46C9
:101E30001946042000F034F9934800691921B0FBD9
:101E4000F1F201FB120000287ED1914800780228AF
:101E50007FD19048408B8E49498A88420CDC8D485E
:101E6000408B8B49C8810846C089B0F5FA6F07DC02
:101E70004FF4FA60C88103E08548408A8449C881EC
:101E800081484078C8214843814908827E4880784B
:101E9000A0B97D4803784078C82400FB04F20846C6
:101EA000C189022000F0FCF81423002211461046DC
:101EB00000F0BCFE0120744988700AE07248037883
:101EC0004078C82400FB04F27148C189012000F069
:101ED000E7F86F48C0896C498988401A642813DC88
:101EE0006D48007880B96D48006A40F480206B49E5
:101EF00008620846806B40F48020886301206449B2
:101F000081F835006449087063480078022820D1C0
:101F100000231A461946032000F0C2F800230122CC
:101F20001946184600F082FE5C48006A40F48020A2
:101F30005A4908620846C06B40F48020C8630020FC
:101F4000534981F8350001E092E002E00320524954
:101F500008704F48007807286ED14E48008FB0F5C2
:101F6000167F61DA10204B4981F8370000285BD0DA
:101F7000474890F83800002843D10846408CC98B68
:101F8000884204DC4348C08B3238424948843E488A
:101F90008078B8B93C4803784078C82400FB04F244
:101FA0003C48C08B323881B2022000F079F814230B
:101FB00000221146104600F039FE01203249887097
:101FC000FEF726FA3348C08B2F498988401A6428C7
:101FD00032DC3248006A40F480203049086208460A
:101FE000806B40F480208863142300221146104641
:101FF00000F01CFE0120264981F8350081F83800E8
:102000001AE02448808C00EB800040001E4949788B
:1020100090FBF1F084B21C4803781E48418C2246A4
:10202000012000F03DF807E01A48008FB0F5167F58
:1020300002DD08201649087015480078C0B1144820
:102040000078022814D012480078072810D00E48D3
:102050008078012805D100231A461946032000F094
:102060001FF80B4890F8350010B900200649887019
:10207000074890F83600012805D1FEF779FA0020CC
:10208000034981F83600B7E6782E0010780000107A
:10209000382E0010D82D001080000010008009207C
:1020A0002DE9F04106460C4617469846002567E0A4
:1020B000012E04D0022E2AD0032E57D13EE0334801
:1020C00040EA052032490860002032490870642047
:1020D0006043000C487064206043000A88706420EC
:1020E0006043C8700020087164206043000C487190
:1020F00064206043000A887164206043C8710B4605
:10210000234801210268082002F036FB2FE0224814
:1021100040EA05201E49086000201E4908704870EA
:102120008870C870087148718871C8710B4618486A
:1021300001210268082002F01FFB18E0164840EA5F
:1021400005201349086001201249087000204870DA
:102150008870C870087148718871C8710B460C4846
:1021600001210268082002F007FB00BF00BF00BF8A
:10217000052300221146104600F058FD681CC5B228
:1021800006484078A84293DCBDE8F081F000DB020D
:10219000F4000010F8000010F000DA02782E0010B1
:1021A00010B55A4801685A48814214D159485749D4
:1021B000096891E81C00C96880E81C00C1605348A8
:1021C00000680021016041608160C1605048903822
:1021D0004E49086016E04F484C490C68D4E900317C
:1021E000D4E90224C0E90224C0E90031474800686C
:1021F0000021016041608160C16044480068103086
:102200004249086043484068434A811A904269D075
:1022100009DC42490844A0B1012824D0022834D066
:10222000032869D143E0B1F5803F5ED0B1F5003FAE
:102230005CD0B1F5403F5CD03948084400285BD100
:1022400047E03448806820F07F406421B0FBF1F023
:10225000344988802F48808980B20A21B0FBF1F090
:102260003149086049E02B48806820F07F406421B4
:10227000B0FBF1F02B4988802648808980B20A2182
:10228000B0FBF1F02849486037E02248806820F030
:102290007F406421B0FBF1F0224988801D4880898D
:1022A00080B20A21B0FBF1F01F49886025E019488F
:1022B000806820F07F406421B0FBF1F019498880EC
:1022C0001448808980B20A21B0FBF1F01649C86039
:1022D00013E01048007A052803D1FEF767F9FEF7EE
:1022E0008DF90AE0FEF772F807E006E0FEF720F944
:1022F00003E0FEF73DF900E000BF00BF0548002104
:10230000016041608160C16010BD0000F0000010FC
:102310005C3200108C320010A0003010001037FD2D
:102320000000EAF7782E00108C2E001000F01F023B
:10233000012191404209920002F1E022C2F800110D
:10234000704700001D481E481E481F481F4820486F
:10235000204821482148224822482348234824482D
:1023600024482548254826482648274827482848FD
:102370002848294829482A482A482B482B482C48CD
:102380002C482D482D482E482E482F482F4830489D
:10239000304831483148324832483348334834486D
:1023A000344835483548364836483748374838483D
:1023B00038483948394800BF70470000A04A00003B
:1023C000A44A0000AA4A0000AC4A0000A84A000043
:1023D000AE4A0000B04A0000B24A0000B44A000011
:1023E000B64A0000B84A0000BA4A0000BC4A0000E1
:1023F000BE4A0000C04A0000C24A0000C44A0000B1
:10240000C64A0000C84A0000CA4A0000CC4A000080
:10241000CE4A0000D04A0000D24A0000D44A000050
:10242000D64A0000D84A0000DA4A0000DC4A000020
:10243000DE4A0000E04A0000E24A0000E44A0000F0
:10244000E64A0000E84A0000EA4A0000EC4A0000C0
:10245000EE4A0000F04A0000F24A0000F64A00008E
:10246000F84A0000FA4A0000FC4A0000C40F0010BD
:1024700044140010004B0000024B0000044B00000D
:10248000064B0000084B00000A4B00000C4B0000FC
:102490000E4B0000104B0000FE4A0000124B0000E3
:1024A00070B505460E4614461048007810B112204B
:1024B000207070BD2878012808D0022807D0032892
:1024C00002D0042804D100E000BF00BF00BF02E03A
:1024D00001202070EDE700BFFDF742FE6E61FDF7C1
:1024E00048FE0020207000BFE3E70000310000102C
:1024F00010B500F019F800F0B1FE00F0D9FE00F0C0
:10250000F9FE00F07BFE00F04DFE00F08DFF00F0C4
:10251000B7FF00F02FFF00F055FF00F043FC00F084
:1025200009F8FFF70FFF10BD002001490880704730
:10253000140000107047000010B51A4800780128F8
:102540002ED1FDF70DFE1848007820B1164800780E
:10255000401E1549087014480078F8B913480078EF
:10256000E0B900F0EDFF12481249097850F8210057
:10257000114908600F4800781049097888420DD049
:102580000D480068C06B401C0B490968C8630C48C3
:102590000068401C0A490860FDF711FEFDF7E9FDDF
:1025A00010BD00003E00001031000010320000108D
:1025B0005C060010340000104C00001033000010C6
:1025C0001800001010B50A48007801280FD1FDF757
:1025D000C7FD0848007840B907480078FF2804D2B2
:1025E00005480078401C04490870FDF7C2FD10BD85
:1025F0003E000010310000103200001010B51148EC
:10260000007801281CD1FDF7ABFD0F480078A8B178
:102610000D480078401E0C4908700846007850B9F3
:102620000A48007820B9FDF7A4FD00F051FF07E04B
:10263000FDF79FFD04E0FDF79CFD01E0FDF799FD2E
:1026400010BD00003E0000103200001031000010EC
:1026500070B505460F48007808B1002070BDFDF741
:102660007FFD0D480468006820B10B480068406891
:1026700009490860FDF77DFD4CB1032020702581DC
:102680000020606005A06061204600F07DFD2046CE
:10269000E4E70000310000101C0000103F000000C3
:1026A00070B505460E4614462878032802D001204E
:1026B000207070BD2F48007810B102202070F8E71C
:1026C0002D48007810B10D202070F2E7FDF748FD8D
:1026D000288938B12889401E2881FDF74AFD00204D
:1026E0002070E6E72548006890F8340040F00100CB
:1026F0002249096881F8340000202049096881F8DE
:1027000035001E4800680663284600F0FFFCFDF710
:1027100030FD00F0DDFEFDF723FD1848006890F85D
:10272000350020B1012809D0022806D102E000209E
:1027300020700BE00E20207008E000BF29460F48F3
:10274000006800F0B1FC0A20207000BF00BF00202C
:102750000A49096881F834000849096881F8350098
:1027600006490968C861054909680862FDF701FD65
:1027700000BF9EE73100001032000010440000103E
:1027800010B504462078032801D0012010BDFDF7C4
:10279000E7FCA07A58B1002301221946204600F038
:1027A0003BFCFDF7E6FC00F093FE0020EEE72089FD
:1027B0004FF6FF71884206D22089401C2081FDF728
:1027C000D8FC0020E2E7FDF7D4FC3320DEE7000070
:1027D00010B50B48007890B900F0B2FE09480078B7
:1027E0000949087009480749097850F82100084943
:1027F00008600846006807490860FDF7C8FC10BD7E
:102800003E00001034000010330000105C06001081
:102810004C0000104400001010B5022000F0CCF96C
:10282000FDF79EFC002009490860FDF7A2FC64202A
:1028300000F0C2F9FDF794FC044800680449086000
:10284000012004490870FDF794FC10BD4000001001
:102850002800001030000010704700002DE9FE43F2
:1028600006460F4690461C46FDF77AFC1C48007849
:1028700020B1FDF77EFC3C20BDE8FE83194850F8EE
:10288000240048BB0120174941F82400FDF771FCE2
:10289000002342463946304600F0F0F881460020D9
:1028A000009001900346024649460290204600F0FF
:1028B0005DFE054635B90C48007801280AD100F0C4
:1028C00007FE07E0FDF74CFC0020064941F8240014
:1028D000FDF74FFC2846CFE7FDF74BFC2820CBE760
:1028E000310000105C0600103E0000102DE9FF5F73
:1028F00081468A4693461C46DDE90F78129DFDF716
:102900002FFC2048007828B1FDF733FC3C2004B0B0
:10291000BDE8F09F1C4850F8240070BB01201A4904
:1029200041F82400FDF725FC2A464146384600F0D0
:1029300021FF2B465A465146484600F09FF8039027
:102940001198CDE9008002953A4620460E9B0399E6
:1029500000F00CFE064636B90C48007801280AD172
:1029600000F0B6FD07E0FDF7FBFB0020064941F84B
:102970002400FDF7FEFB3046C9E7FFE7FDF7F9FB52
:102980002820C4E7310000105C0600103E00001053
:10299000704770472DE9F04106460F46144613482C
:1029A000007818B112202070BDE8F081FDF7D8FB47
:1029B000FF2E03D10E48006890F836600D4850F89D
:1029C000265025B9FDF7D5FB43202070ECE7012DFB
:1029D00004D1FDF7CEFB43202070E5E72F65FDF71E
:1029E000C8FB0020207000BFDEE7000031000010AF
:1029F000440000105C060010704700002DE9F0470D
:102A000007460D46002028606860FDF7A9FBFF2FF0
:102A100003D11848006890F83670174850F82740DE
:102A200024B9FDF7A6FB4320BDE8F087012C03D1B4
:102A3000FDF79FFB4320F7E7207C00F0010018B969
:102A4000FDF797FB4520EFE70026D4F80C90D4F86B
:102A50000880FDF78EFB00E0761C58F8041B002967
:102A6000FAD0B0002860A9EB060080006860002062
:102A7000DAE70000440000105C06001070B5044660
:102A800010464FF080750560051F28462C606FF0DA
:102A90000106051F28462E604FF01236051F2846F6
:102AA0002E604FF00336051F28462E604FF0023689
:102AB000051F28462E607610051F28462E60051F2C
:102AC000284629604FF01136051F28462E604FF02A
:102AD0001036051F28462E604FF00936051F284680
:102AE0002E604FF00836051F28462E604FF007363F
:102AF000051F28462E604FF00636051F28462E601B
:102B00004FF00536051F28462E604FF00436051F8E
:102B100028462E6070BD00002DE9F0410546FDF706
:102B20001FFBFF2D05D11F48006890F83650012685
:102B300008E01C48006890F83600A84201D1012640
:102B400000E00026184850F8254024B9FDF711FB95
:102B50004820BDE8F081012C03D1FDF70AFB43209A
:102B6000F7E794F838701148C05D94F8391088433D
:102B70000E49C8550846C05D30B994F83A100C4863
:102B8000007888430A49087094F8340040F008003F
:102B900084F83400FDF7EDFA012E01D100F098FC25
:102BA0000020D6E7440000105C060010360000103C
:102BB000350000107047000070B5054616480078D3
:102BC00000B170BD1548007800B1FAE70DB3FDF70C
:102BD000C7FA1348006890F838401248005D104961
:102BE000096891F8391088430E4908550846005D78
:102BF00040B90B48006890F83A100B4800788843B9
:102C000009490870064800680563FDF7B2FA00F04C
:102C10005FFC00BFD5E7000031000010320000105B
:102C20004400001036000010350000102DE9F0417E
:102C300005460E4617461C461248007810B155202E
:102C4000BDE8F0811048007808B13220F8E74FF471
:102C50007A7060434FF47A71B0FBF1F14FF4616028
:102C60006843C6EB061200EB8200384400EB4002DA
:102C7000C2EBC01001EBC0084046FFF79DFF0020EB
:102C8000DEE70000310000103200001070B500F0E7
:102C90006DF8FDF765FA2F480068401C2D49086063
:102CA000FDF767FA2C480078012851D12B480078AD
:102CB00020B1012804D0022809D103E001250BE04E
:102CC000002509E0012501202449087004E00125C0
:102CD00000202249087000BF00BF05B970BD204820
:102CE000046831E0FDF73CFA206B50B3206B401EC6
:102CF0002063206B28BB94F8340000F0370040B10B
:102D000014F8340F00F0C800207001206070343CCB
:102D100002E0002084F8350094F8340000F0080048
:102D200078B93834A0780F49097808430D490870FC
:102D300020780D49085C6178084314F838190A4A6C
:102D400050546469FDF715FA94F836003F28C9D14C
:102D500000BFC3E7600000103E00001054000010E8
:102D600050000010350000103600001010B5074864
:102D70000088401C0549088008460088642803D361
:102D80000020088000F004F810BD000014000010BE
:102D900010B503480068FFF7F3FC0446204610BD59
:102DA00070000010F8B54FF42071284800F032FB95
:102DB0004021274800F02EFB002514E0681C86B255
:102DC00005EB8500214901EBC00406EB860001EB11
:102DD000C00764202070002084F82500E7601DA053
:102DE0002062681C85B20F2DE8D305EB85001749DA
:102DF00001EBC00464202070002084F82500E0600E
:102E000014A0206200201449086014490880102092
:102E1000134908800D48134908600120FFF718FC8A
:102E2000114908600020FFF713FC104908606A464A
:102E30000FA10D480068FFF733FB6A4611A10B484C
:102E40000068FFF72DFB00F027F8F8BDC40F001055
:102E5000441400103F0000006800001066000010DD
:102E600064000010740000106C000010700000106E
:102E700075432F4F532D494920546D724C6F636B2E
:102E80000000000075432F4F532D494920546D72A7
:102E90005369676E616C000000B587B003200021A4
:102EA00080220A4BCDE90132CDE903104FF6FD70C7
:102EB0003C23074A00900748FFF718FD06AA06A121
:102EC0003C20FFF767FD07B000BD00004412001072
:102ED00040140010552F000075432F4F532D4949C2
:102EE00020546D720000000070B50B46032580F879
:102EF0002550012B05D1154EC5693668354445610D
:102F00000CE085692DB9114EC569366835444561B7
:102F100004E00E4E8569366835444561057D05F04F
:102F200007040B4D05EBC4010D682DB908600025A1
:102F3000C56001258D8006E00A680860C2601061E6
:102F40008D886D1C8D800025056170BD68000010A6
:102F50004414001008B500BF00BF6A4600211A489B
:102F60000068FFF79DFBFFF72DFB18480068401C29
:102F7000164908600846007800F00708144800EB7E
:102F8000C8073C681AE0E668104960690968884229
:102F900013D1204600F01EF894F82400022804D132
:102FA00001212046FFF7A0FF02E0022084F825005F
:102FB000656815B12046A168A8473446002CE2D1C7
:102FC000FFF71CFBC9E7000070000010680000104C
:102FD0004414001030B5057D05F007040D4D05EBD8
:102FE000C4031D68854205D1C168196039B1002547
:102FF0000D6104E00169C268CA6002B11161012576
:1030000080F825500025C56005619D886D1E9D8056
:1030100030BD0000441400102DE9F04F05460F4666
:1030200090469946A87A1C490E5C05F10B00805D1C
:1030300011F800B00BEBC60000F0FF0A174850F87B
:103040002A4000202434E0602760207C20EA080029
:10305000207484F81190207C243C00F0080068B9AA
:1030600094F83A000E49097808430D4908700D4854
:10307000805D94F8391008430A498855294620464E
:1030800000F012F8206A20B12046216A00F021F8F1
:10309000E5615046BDE8F08FA04900005C060010D5
:1030A000350000103600001010B590F8382001F1FE
:1030B0000B039B5C90F83940A34301F10B04A3542C
:1030C00023469B5C23B98B7A90F83A40A3438B72DA
:1030D00010BDF0B5024612F8384F95785678383A58
:1030E0000B4618680FE000F10B073F5DB74300F196
:1030F0000B0C0CF8047067463F5D17B9877AAF4335
:1031000087721B1D18680028EDD1F0BD10B51B4A51
:103110001268D061194A126892F8383000F10B0237
:10312000D25C164B1B6893F839301A43134B1B685B
:1031300093F8384000F10B031A55827A0F4B1B6845
:1031400093F83A301A4382720C4A126892F8381097
:103150000B4A525C094B1B6893F839309A43084B71
:103160005A541A46525C42B9044A126892F83A30EC
:10317000044A12789A43034B1A7010BD44000010A1
:103180003600001035000010014600228A7200202F
:1031900005E0002301F10B021354421CD0B20828B1
:1031A000F7D370472DE9F0415021114800F032F972
:1031B00000250DE0681C86B20D4800EB051400EBFD
:1031C00006170020207067600AA0E060681C85B2C6
:1031D000042DEFD3064800EB05140020207060603A
:1031E00004A0E060024804490860BDE8F0810000E6
:1031F0000C0200103F0000002000001070B5F0210C
:10320000134800F007F9002411E0601C85B204EBBC
:1032100044000F4901EBC00305EB450001EBC0067C
:10322000002018705E600BA05861601C84B2092CED
:10323000EBD304EB4400064901EBC00300201870F7
:10324000586004A0586108460349086070BD00003A
:103250001C0100103F0000001C00001000200A4963
:1032600008600A4908700A4908700A4908700A4942
:1032700008700A4908600A4908600A4908600A4952
:1032800008600A49087070476000001031000010A3
:10329000320000103F0000103E0000101800001027
:1032A000400000102C00001028000010300000101A
:1032B00000210A4A1170002004E00021084A11543C
:1032C000411CC8B20828F8D30021064A1170064AEA
:1032D0001170064A1160064A1160704735000010EF
:1032E0003600001033000010340000104C000010B5
:1032F0004400001070B54FF4F261194800F08AF8EC
:103300004FF48071174800F085F8002413E0601C2A
:10331000C5B204EB440000EBC400114901EBC0034B
:1033200005EB450000EBC50001EBC0065E610EA099
:103330001865601CC4B2152CE9D304EB440000EB03
:10334000C400074901EBC0030020586106A01865BE
:1033500000200649086002480549086070BD000069
:103360005C0700105C0600103F00000050000010D9
:103370004800001000B587B00320002180220A4BCE
:10338000CDE90132CDE903104FF6FF703F23074A24
:1033900000900748FFF7AAFA06AA06A13F20FFF708
:1033A000F9FA07B000BD00005C04001058060010D8
:1033B0009536000075432F4F532D49492049646CC1
:1033C0006500000000B587B00320002180220A4B71
:1033D000CDE90132CDE903104FF6FE703E23074AD6
:1033E00000900748FFF782FA06AA06A13E20FFF7E1
:1033F000D1FA07B000BD00005C02001058040010B4
:10340000B536000075432F4F532D49492053746141
:103410007400000004E0002200F8012B4A1E91B263
:103420000029F8D17047000070B578211148FFF7E6
:10343000F1FF00240EE004EB44000E4901EBC0054F
:10344000601C00EB400001EBC00068600AA06861EE
:10345000601C84B2042CEED304EB4400054901EB5C
:10346000C0050020686004A0686108460349086040
:1034700070BD0000EC0E00103F000000580000106E
:103480002DE9F04160211048FFF7C4FF00240DE052
:10349000601C86B204EB44000B4901EBC00506EB4F
:1034A000460001EBC0072F60601C84B2032CEFD3F1
:1034B00004EB4400044901EBC005002028600846E5
:1034C00002490860BDE8F081640F00105C00001044
:1034D00010B5FCF745FE13480078F8B9124800789B
:1034E000E0B900F02DF811481149097850F8210091
:1034F000104908600E4800780F49097888420DD0BD
:103500000C480068C06B401C0A490968C8630B4836
:103510000068401C09490860FCF74AFEFCF729FED8
:1035200010BD000031000010320000105C060010D9
:10353000340000104C000010330000101800001080
:103540000649074A1278885C0649095C034A515CBF
:1035500001EBC001044A117070470000A04900004F
:103560003500001036000010340000102DE9F05F27
:1035700005460F4690469946DDE90AABFCF7F0FD9B
:103580003D480468002C72D01C3454F8080C3A49A9
:103590000860FCF7EEFD44F81C7CA5760020207640
:1035A0006076606144F818BC44F810AC44F8148CA0
:1035B0000C9824F80C0C24F80A9C0020E077E81002
:1035C000207705F00700E076217F01208840A07772
:1035D000E17E012088406077002020606060E0602C
:1035E000A0602062A0626062E062206323A060634A
:1035F0001C3C002606E0002104F1540040F826108F
:10360000701CC6B2002EF6D02046FFF725F92046E2
:10361000FFF7BEF9FCF7A4FD194840F8254019480A
:10362000006860610020A0611648006810B115486C
:1036300000688461134804603834A078124909781E
:1036400008431149087020781049085C61780843E4
:1036500014F838190D4A50540D480078401C0C4994
:103660000870FCF786FD0020BDE8F09FFFE7FCF73F
:1036700080FD4220F8E70000480000103F000000F5
:103680005C060010500000103500001036000010DD
:103690003F00001000BF00BFFCF762FD0448006857
:1036A000401C03490860FCF764FDFFF772F9F3E77B
:1036B0004000001000BF02E0C820FFF77DFA194863
:1036C00000780028F8D0184800686421B0FBF1F0B9
:1036D000154908600846006828B900201349087099
:1036E000FF20FFF719FA00BFFCF73AFD1048006809
:1036F0001049086000200E490860FCF73AFD0D48AB
:10370000006809490968B0FBF1F0C0F1640007499D
:103710000870FFF771F900F00FF86420FFF74CFA1A
:10372000E2E7000030000010280000102400001024
:10373000400000102C0000107CB5002514E0694604
:103740002846FFF75BF9064666B9094850F8254058
:1037500044B1012C06D0D4E9020100EB8100A06441
:103760000198E064681CC5B23F2DE8D97CBD00001B
:103770005C06001002F0010343B102F002032BB11A
:1037800002E0491E002308C00029FAD1704700005A
:1037900008B50246094800EB82310868009000989D
:1037A00020F00100009000980860086800900098E0
:1037B00000F0010080F0010008BD0000004004405E
:1037C00030B501462E48006840F400702C4AC43AD7
:1037D000C2F8C4002B48007800F0100038B1294826
:1037E000007840F01000274A5C3A82F85C00002024
:1037F000244A5C3A10720320107001201073FF20DD
:103800001074C888908748791E4A243A1070C87886
:103810001C4A303A10700879121D10708878194AC5
:10382000343A10704878121F10700878121F107008
:103830000120144A5C3A107311200122824043098E
:103840009B0003F1E023C3F8002100BF12220028EF
:1038500007DAD3061D0E0C4B00F00F04241F1D5574
:1038600003E0D3061C0E094B1C5400BF0120054A7F
:103870005C3A1073032010700120107230BD0000FC
:10388000C4C00F405C40024018ED00E000E400E0DE
:1038900033484069334908603148806932490860DB
:1038A00008460068C0F30B403049C8802E480088A5
:1038B000C0F3032048712C48007800F01F00C87046
:1038C00028480068C0F30260087126480068C0F309
:1038D0000440887023480088C0F3052048702148C0
:1038E000007800F03F00087001201D490870204852
:1038F0000088401C1E4908801E480088401C1D4945
:1039000008801D488089401C1B4988811B48008F06
:10391000401C1A4908871A4908780978491C184A2E
:10392000117000EBD0714910A0EB410159B115485D
:10393000006C40F04000134908640846806D40F078
:10394000400088650AE00F48006C40F040000D49D7
:1039500008640846C06D40F04000C865704700002C
:1039600000400240080100100C010010100100107E
:103970000001001002010010382E0010D82D001098
:10398000180100100080092000201A49096841F43C
:103990000011184AC43AC2F8C4101649E431096843
:1039A000C8B21549C96B21F00701134AD16311460A
:1039B000C96B41F00201D1631146496C21F0070146
:1039C00051641146496C41F0020151641146896C01
:1039D00021F0070191641146896C41F00201916464
:1039E00040F60701054A116008211161022151606A
:1039F00070470000C4C00F4000C002400080084073
:103A000002E012498968C8B21049C96801F004018E
:103A10000429F6D000BF0D49C96801F00101002951
:103A2000F9D0FF21094A916000BF0849C96801F037
:103A300010011029F9D000BF0449C96801F0040140
:103A40000029F9D001498968C8B270470080084050
:103A500000BF0849C96801F001010029F9D00549F2
:103A6000886000BF0349C96801F010011029F9D02E
:103A7000704700000080084000202049096841F498
:103A800080111E4AC43AC2F8C4101C49E4310968C6
:103A9000C8B21B49D1F8801021F00701184AC2F8BA
:103AA00080101146D1F8801041F00401C2F8801056
:103AB0001146D1F8841021F00701C2F88410114694
:103AC000D1F8841041F00401C2F884101146D1F8F5
:103AD000901021F00701C2F890101146D1F8901013
:103AE00041F00401064A9032116040F60701054A90
:103AF000116008211161022151607047C4C00F405C
:103B000000C0024000C00A4021202E49086000BFCA
:103B10002C48006800F040000028F9D00120294915
:103B20009439086009202849C1F8840001202649F9
:103B300080310860AA2024498C3108605520086033
:103B400000BF21488830006800F480600028F8D069
:103B500023201D49A431086001201B49C1F8A000A1
:103B6000AA201949AC31086055201749C1F8AC00AA
:103B700000BF1548A830006800F480600028F8D025
:103B800040F201100F499C39086040F201200E49B3
:103B9000C1F8080101200B49A03908600220094939
:103BA0000831086009480849C4310860881505498A
:103BB0002831086045F23A000349086000200449B2
:103BC00008607047A0C10F4000C00F40DE87280486
:103BD00008ED00E010B50C2200210A48FDF790FF27
:103BE0000848007808494870064840880881054818
:103BF000808848810348C088888102480089C8813C
:103C000010BD0000842D0010782E001001204FF010
:103C10004021086011480078401C1049087008785D
:103C200000EBD0714910A0EB410159B90C48006874
:103C300040F000600A4908600846806940F0006072
:103C400088610AE00648006840F0006004490860A6
:103C50000846C06940F00060C86170471901001053
:103C60000080092010B51A48006840F00200184989
:103C7000C439C1F8C40002204FF04021486001203F
:103C80000860002008678860C860124888610320C7
:103C900048610120012181404209920002F1E022A5
:103CA000C2F8001100BF0321002807DACA06140E6B
:103CB000094A00F00F031B1FD45403E0CA06130E79
:103CC000064A135400BF01204FF04021486010BD48
:103CD000C4C00F40009F240018ED00E000E400E0A5
:103CE00010B51B48006840F008001949C439C1F8F4
:103CF000C4001848806820F007001649886008460C
:103D0000806840F0010088600846C06820F0070025
:103D1000C8600846C06840F00100C86083200E49B2
:103D200008730E48006800094FF4E131B0FBF1F46C
:103D3000200A094908710C70032008738720087253
:103D40000520FEF7F3FA07200349486010BD000084
:103D5000C4C00F4000C0024000C00040040000107A
:103D600010B50848007810B90748006840B1002035
:103D7000044908700449086040210448FCF7D3F95D
:103D800010BD0000A000001098000010AC2E001024
:103D900070B500BF47488068C4B2641004F00704DF
:103DA000032C35D14348057D05F09E0010B14148F4
:103DB000067870BD05F00100002878D000203E494B
:103DC000086016E03C4800683C49096808444028FF
:103DD00001D3FFF7C5FF3748007837490968374AEC
:103DE00012681144364A505433480068401C324926
:103DF0000860314800680828E4D3304800682E493C
:103E0000096808442D49086001202E4908704EE0D9
:103E1000022C29D100202849086016E026480068B5
:103E2000264909680844402801D3FFF799FF214833
:103E3000017821480068214A12681044204A115430
:103E40001D480068401C1C4908601B480068082881
:103E5000E4D31A48006818490968084417490860FB
:103E600001201849087022E0062C1BD110E01348ED
:103E70000068402801D3FFF773FF0E48007810490F
:103E80000E4A126888540D480068401C0B490860AF
:103E90000848007D00F001000028E8D10120094910
:103EA000087004E0012C02D10248057D00BF00BF6C
:103EB0007FE7000000C00040940000109800001050
:103EC000AC2E0010A000001010B51F48006840F094
:103ED00010001D49C439C1F8C4001C48D0F80001C5
:103EE00020F007001949C1F800010846D0F8000188
:103EF00040F00200C1F800010846D0F8040120F0AB
:103F00000700C1F804010846D0F8040140F002009F
:103F10000F49086083200F4908730F4800680009A3
:103F20004FF41651B0FBF1F4200A0A4908710C70E5
:103F300003200873872008720620FEF7F7F9072090
:103F40000449486010BD0000C4C00F4000C00240DA
:103F500004C10240000001400400001010B50848F0
:103F6000007810B90748006840B100200449087083
:103F70000449086040210448FCF7D5F810BD000052
:103F8000B0000010A80000102C2F00100449087089
:103F900000BF0349097D01F020010029F9D07047D5
:103FA0000000014030B502460B46002404E012F840
:103FB000010BFFF7EBFF641C9C42F8D330BD0000FF
:103FC00070B500BF47488068C4B2641004F00704AD
:103FD000032C35D14348057D05F09E0010B14148C2
:103FE000067870BD05F00100002878D000203E4919
:103FF000086016E03C4800683C49096808444028CD
:1040000001D3FFF7ABFF3748007837490968374AD3
:1040100012681144364A505433480068401C3249F3
:104020000860314800680828E4D3304800682E4909
:10403000096808442D49086001202E4908704EE0A7
:10404000022C29D100202849086016E02648006883
:10405000264909680844402801D3FFF77FFF21481B
:10406000017821480068214A12681044204A1154FE
:104070001D480068401C1C4908601B48006808284F
:10408000E4D31A48006818490968084417490860C9
:1040900001201849087022E0062C1BD110E01348BB
:1040A0000068402801D3FFF759FF0E4800781049F7
:1040B0000E4A126888540D480068401C0B4908607D
:1040C0000848007D00F001000028E8D101200949DE
:1040D000087004E0012C02D10248057D00BF00BF3A
:1040E0007FE7000000000140A4000010A8000010BD
:1040F0002C2F0010B000001010B52248006840F0CE
:1041000080702049C439C1F8C4001F48806A20F07B
:1041100007001D4988620846806A40F001008862F5
:104120000846C06A20F00700C8620846C06A40F02E
:104130000100C8629B2015490873154800680009F2
:104140004FF41651B0FBF1F4200A104908710C70BD
:104150001B200873872008720720FEF7E7F8072066
:104160000A4948600B48D0F8800040F000400949F7
:10417000C1F880000846D0F8980040F00040C1F82F
:10418000980010BDC4C00F4000C00240008009402C
:10419000040000100080092010B50848007810B90C
:1041A0000748006840B100200449087004490860CD
:1041B00040210448FBF7B7FF10BD0000C00000100D
:1041C000B8000010AC2F001070B500BF47488068E1
:1041D000C4B2641004F00704032C35D14348057DB4
:1041E00005F09E0010B14148067870BD05F0010051
:1041F000002878D000203E49086016E03C4800685E
:104200003C4909680844402801D3FFF7C5FF3748F7
:10421000007837490968374A12681144364A5054C1
:1042200033480068401C324908603148006808285B
:10423000E4D3304800682E49096808442D490860D5
:1042400001202E4908704EE0022C29D10020284977
:10425000086016E026480068264909680844402896
:1042600001D3FFF799FF2148017821480068214ACE
:1042700012681044204A11541D480068401C1C4913
:1042800008601B4800680828E4D31A4800681849E9
:10429000096808441749086001201849087022E09D
:1042A000062C1BD110E013480068402801D3FFF70B
:1042B00073FF0E48007810490E4A126888540D4862
:1042C0000068401C0B4908600848007D00F00100B0
:1042D0000028E8D101200949087004E0012C02D12E
:1042E0000248057D00BF00BF7FE700000080094055
:1042F000B4000010B8000010AC2F0010C000001077
:1043000010B51F48006840F000701D49C439C1F85D
:10431000C4001C48D0F8700220F007001949C1F809
:1043200070020846D0F8700240F00200C1F8700236
:104330000846D0F8740220F00700C1F8740208465D
:10434000D0F8740240F002000F49086083200F4942
:1043500008730F48006800094FF4E131B0FBF1F435
:10436000200A0A4908710C7003200873872008721C
:104370000820FDF7DBFF07200449486010BD00005E
:10438000C4C00F4000C0024074C2024000C00940D7
:104390000400001010B50848007810B907480068FC
:1043A00040B10020044908700449086040210448D5
:1043B000FBF7B9FE10BD0000D0000010C8000010CF
:1043C0002C30001070B500BF47488068C4B264103C
:1043D00004F00704032C35D14348057D05F09E0009
:1043E00010B14148067870BD05F00100002878D072
:1043F00000203E49086016E03C4800683C490968D6
:104400000844402801D3FFF7C5FF374800783749F3
:104410000968374A12681144364A505433480068D4
:10442000401C32490860314800680828E4D330480D
:1044300000682E49096808442D49086001202E496A
:1044400008704EE0022C29D100202849086016E0AF
:1044500026480068264909680844402801D3FFF728
:1044600099FF2148017821480068214A12681044C8
:10447000204A11541D480068401C1C4908601B4814
:1044800000680828E4D31A480068184909680844F5
:104490001749086001201849087022E0062C1BD13A
:1044A00010E013480068402801D3FFF773FF0E485F
:1044B000007810490E4A126888540D480068401C64
:1044C0000B4908600848007D00F001000028E8D191
:1044D00001200949087004E0012C02D10248057D41
:1044E00000BF00BF7FE7000000C00940C40000100B
:1044F000C80000102C300010D000001010B51F486C
:10450000006840F480701D49C439C1F8C4001C48DB
:10451000D0F88C0220F007001949C1F88C02084637
:10452000D0F88C0240F00400C1F88C020846D0F8A4
:10453000900220F00700C1F890020846D0F89002DF
:1045400040F004000F49086083200F49C8600F48FD
:10455000006800094FF41661B0FBF1F4200A0A4923
:104560004860E0B208600320C8608720886023208C
:10457000FDF7DCFE07200449486010BDC4C00F40B1
:1045800000C0024090C2024000400A4004000010F7
:1045900010B50848007810B90748006840B10020FD
:1045A000044908700449086040210448FBF7BBFD3A
:1045B00010BD0000E0000010D8000010AC3000106A
:1045C00070B500BF49488068C4B2641004F00704A5
:1045D000032C37D145484069C5B205F09E0018B19B
:1045E00042480068C6B270BD05F0010000287AD0CC
:1045F00000203F49086016E03D4800683D490968D1
:104600000844402801D3FFF7C3FF38480068384901
:104610000968384A12681144374A505434480068CF
:10462000401C33490860324800680828E4D3314808
:1046300000682F49096808442E49086001202F4965
:10464000087050E0022C2AD100202949086017E0A8
:1046500027480068274909680844402801D3FFF724
:1046600097FF22480068C1B221480068214A1268B9
:104670001044214A11541E480068401C1C4908601F
:104680001B4800680828E3D31A48006818490968DD
:1046900008441849086001201849087023E0062CD6
:1046A0001BD110E013480068402801D3FFF770FFCA
:1046B0000E48006810490F4A126888540D48006877
:1046C000401C0C4908600948406900F001000028BE
:1046D000E8D101200949087005E0012C03D1034805
:1046E0004069C5B200BF00BF7DE7000000400A403E
:1046F000D4000010D8000010AC300010E000001012
:104700002DE9F04105460F4690461E46082D02DD74
:104710000020BDE8F081174805704770C0F804809C
:10472000002014498860C860002415E0042C08DAD1
:10473000305DE10088400F49896808430D49886071
:1047400008E0305D211FC90088400A49C968084354
:104750000849C860601CC4B2AC42E7DB01210020FC
:10476000FCF72EFE0123002211461046FEF75EFAEA
:104770000120CEE76C3200102DE9F04105460F46CE
:1047800090461E46082D02DD0020BDE8F081174846
:1047900005704770C0F80480002014498860C86024
:1047A000002415E0042C08DA305DE10088400F4950
:1047B000896808430D49886008E0305D211FC90001
:1047C00088400A49C96808430849C860601CC4B2E7
:1047D000AC42E7DB01210846FCF7F2FD0223002290
:1047E00011461046FEF722FA0120CEE76C32001087
:1047F00002E008C8121F08C1002AFAD170477047AA
:10480000002001E001C1121F002AFBD17047000007
:1048100010B5FDF7ADF91848FBF716FDFFF7B4F832
:10482000FFF72AF9FFF71EFAFFF75AFAFFF74CFBDA
:10483000FFF762FCFFF764FDFFF760FE0F49002001
:10484000FCF786FE0D490C310120FCF781FE0C4877
:10485000FDF740F90A48FEF7B3FFFFF7BBF9FDF794
:1048600047FE0023074A19460748FDF7F7FFFDF703
:10487000AFFF002010BD0000801A06000B002F00C3
:104880001001001010160010B548000010B50446C5
:10489000FBF706FD10BD10B50446FBF7C3FF10BDC6
:1048A00010B50446FDF7CAF910BD10B50446FDF772
:1048B00095FA10BD00F042F8FDF7AEFF02230E4A54
:1048C00000210E48FDF7CAFF05230D4A00210D48BF
:1048D000FDF7C4FF08230C4A00210C48FDF7BEFF7A
:1048E0000A230B4A00210B48FDF7B8FF02E0FF2026
:1048F000FEF712F9FBE70000301900108D480000A8
:104900000021001097480000D0280010AB4800009C
:10491000802D0010A148000010B5FBF721FC0648CF
:104920000078401C04490870FBF723FCFEF7AEF941
:10493000FDF702FE10BD00003100001070B5002030
:10494000FCF7A0FE04464FF47A70B4FBF0F0411E71
:10495000B1F1807F00D31DE021F07F40401E4FF079
:10496000E022506150171F22002807DAD3061E0EDE
:10497000094B00F00F052D1F5E5503E0D3061D0EF9
:10498000064B1D5400BF00204FF0E022906107202D
:10499000106100BF70BD000018ED00E000E400E011
:1049A00000000100020001000300010002000100FC
:1049B00004000100020001000300010002000100E8
:1049C00005000100020001000300010002000100D7
:1049D00004000100020001000300010002000100C8
:1049E00006000100020001000300010002000100B6
:1049F00004000100020001000300010002000100A8
:104A00000500010002000100030001000200010096
:104A10000400010002000100030001000200010087
:104A20000700010002000100030001000200010074
:104A30000400010002000100030001000200010067
:104A40000500010002000100030001000200010056
:104A50000400010002000100030001000200010047
:104A60000600010002000100030001000200010035
:104A70000400010002000100030001000200010027
:104A80000500010002000100030001000200010016
:104A90000400010002000100030001000200010007
:104AA000010000007856341201000A0001001800CD
:104AB000F0000100010010001400020005000100D8
:104AC0003F0001000100050001001800780001000E
:104AD00004000100040018000800010004000100A7
:104AE00001000100800001001600010001008000AB
:104AF00001000100010040005800E803010023010B
:104B000001001000010008000A00280080020800CF
:104B10004000C213344B0000000000101C010000D4
:104B2000F0470000504C00001C01001084330000CE
:104B300000480000000E27070087930300879303B7
:104B4000006CDC020000000000000000000000001B
:104B50000000000000000000000000000000000055
:104B60000000000000000000000000000000000045
:104B70000000000000000000000000000000000035
:104B80000000000000000000000000000000000025
:104B90000000000000000000000000000000000015
:104BA0000000000000000000000000000000000005
:104BB00000000000000000000000000000000000F5
:104BC00000000000000000000000000000000000E5
:104BD00000000000000000000000000000000000D5
:104BE00000000000000000000000000000000000C5
:104BF00000000000000000000000000000000000B5
:104C000000000000000000000000000000000000A4
:104C100000000000000000002C3100102C310010BA
:104C2000CC310010CC31001000000000000000006A
:104C30000000000000000000000000000000000074
:104C40000000000000000000000000000000000064
:04000005000000E512
:00000001FF
